:04000000A6EF00F077
:10000800FACFBAF0FBCFBBF0E9CFBCF0DFED0FF0D1
:10001800D8CF0DF0E8CF0EF0E0CF0FF0FACF10F008
:10002800FBCF11F0E9CF12F0EACF13F0E1CF14F0D3
:10003800E2CF15F0D9CF16F0DACF17F0F3CF18F0DA
:10004800F4CF19F0F6CF1AF0F7CF1BF0F8CF1CF069
:10005800F5CF1DF0A4B002D0A4A23FD07BEC15F0E0
:100068000009D8B437D0310E016E000E026E0DECC7
:100078000AF03F04D8A40AD031C074F032C075F039
:1000880033C076F034C077F0428000D0060E3118C5
:10009800321033103410D8A405D035C08DF036C0D6
:1000A8008CF000D00F0E3118321033103410D8A451
:1000B80011D035C08AF000018B6B000E0001876FEC
:1000C800000E866F000E0001896F000E886F418E4A
:1000D800809200D0A490A49200D09EA007D0418422
:1000E800000ECF6E000ECE6E9E9000D0A1A207D05B
:1000F8004186000EB36E000EB26EA19200D01DC0F4
:10010800F5FF1CC0F8FF1BC0F7FF1AC0F6FF19C0A7
:10011800F4FF18C0F3FF17C0DAFF16C0D9FF15C0E7
:10012800E2FF14C0E1FF13C0EAFF12C0E9FF11C0EB
:10013800FBFF10C0FAFF0FC0E0FF0EC0E8FF0DC0C4
:10014800D8FF100009EF15F00001D16F0001D1515F
:100158000001D8A459D00001CC29D8A455D00F014A
:100168000197C8C0CDF0C9C0CEF0CAC0CFF0CBC08F
:10017800D0F0040E06D00001D890D033CF33CE3360
:10018800CD33E82EF8D7CDC0D2F0CEC0D3F0CFC053
:10019800D4F0D0C0D5F00001D2510001D26FD36B9A
:1001A800D46BD56BD2C000FF070E0001C815000143
:1001B800D26F000E0001C9150001D36F000E0001B7
:1001C800CA150001D46F000E0001CB150001D56FD0
:1001D800D2C0CDF0D3C0CEF0D4C0CFF0D5C0D0F0CF
:1001E800050ED8900001CD37CE37CF37D037E82E5F
:1001F800F8D7CDC0D2F0CEC0D3F0CFC0D4F0D0C0A5
:10020800D5F0D2C001FF00D00001D105D8A459D043
:100218000001CC29D8A455D00F010597C8C0CDF04E
:10022800C9C0CEF0CAC0CFF0CBC0D0F0040E06D003
:100238000001D890D033CF33CE33CD33E82EF8D762
:10024800CDC0D2F0CEC0D3F0CFC0D4F0D0C0D5F05E
:100258000001D2510001D26FD36BD46BD56BD2C0E1
:1002680004FF070E0001C8150001D26F000E00013F
:10027800C9150001D36F000E0001CA150001D46F23
:10028800000E0001CB150001D56FD2C0CDF0D3C050
:10029800CEF0D4C0CFF0D5C0D0F0050ED890000174
:1002A800CD37CE37CF37D037E82EF8D7CDC0D2F0FC
:1002B800CEC0D3F0CFC0D4F0D0C0D5F0D2C005FFA7
:1002C80000D0020E0001D119D8A459D00001CC29C0
:1002D800D8A455D00F010997C8C0CDF0C9C0CEF039
:1002E800CAC0CFF0CBC0D0F0040E06D00001D89021
:1002F800D033CF33CE33CD33E82EF8D7CDC0D2F0BC
:10030800CEC0D3F0CFC0D4F0D0C0D5F00001D251C8
:100318000001D26FD36BD46BD56BD2C008FF070E28
:100328000001C8150001D26F000E0001C9150001B7
:10033800D36F000E0001CA150001D46F000E000132
:10034800CB150001D56FD2C0CDF0D3C0CEF0D4C04C
:10035800CFF0D5C0D0F0050ED8900001CD37CE37FC
:10036800CF37D037E82EF8D7CDC0D2F0CEC0D3F0F3
:10037800CFC0D4F0D0C0D5F0D2C009FF00D0030E52
:100388000001D119D8A459D00001CC29D8A455D03E
:100398000F010D97C8C0CDF0C9C0CEF0CAC0CFF0CC
:1003A800CBC0D0F0040E06D00001D890D033CF33A4
:1003B800CE33CD33E82EF8D7CDC0D2F0CEC0D3F0AF
:1003C800CFC0D4F0D0C0D5F00001D2510001D26F17
:1003D800D36BD46BD56BD2C00CFF070E0001C815C8
:1003E8000001D26F000E0001C9150001D36F000E85
:1003F8000001CA150001D46F000E0001CB150001E1
:10040800D56FD2C0CDF0D3C0CEF0D4C0CFF0D5C018
:10041800D0F0050ED8900001CD37CE37CF37D03782
:10042800E82EF8D7CDC0D2F0CEC0D3F0CFC0D4F0EC
:10043800D0C0D5F0D2C00DFF00D0040E0001D119F4
:10044800D8A459D00001CC29D8A455D00F011197B0
:10045800C8C0CDF0C9C0CEF0CAC0CFF0CBC0D0F074
:10046800040E06D00001D890D033CF33CE33CD332D
:10047800E82EF8D7CDC0D2F0CEC0D3F0CFC0D4F09C
:10048800D0C0D5F00001D2510001D26FD36BD46B2C
:10049800D56BD2C010FF070E0001C8150001D26F3E
:1004A800000E0001C9150001D36F000E0001CA1526
:1004B8000001D46F000E0001CB150001D56FD2C02A
:1004C800CDF0D3C0CEF0D4C0CFF0D5C0D0F0050E5B
:1004D800D8900001CD37CE37CF37D037E82EF8D7B0
:1004E800CDC0D2F0CEC0D3F0CFC0D4F0D0C0D5F0BC
:1004F800D2C011FF00D0050E0001D119D8A459D0DF
:100508000001CC29D8A455D00F011597C8C0CDF04B
:10051800C9C0CEF0CAC0CFF0CBC0D0F0040E06D010
:100528000001D890D033CF33CE33CD33E82EF8D76F
:10053800CDC0D2F0CEC0D3F0CFC0D4F0D0C0D5F06B
:100548000001D2510001D26FD36BD46BD56BD2C0EE
:1005580014FF070E0001C8150001D26F000E00013C
:10056800C9150001D36F000E0001CA150001D46F30
:10057800000E0001CB150001D56FD2C0CDF0D3C05D
:10058800CEF0D4C0CFF0D5C0D0F0050ED890000181
:10059800CD37CE37CF37D037E82EF8D7CDC0D2F009
:1005A800CEC0D3F0CFC0D4F0D0C0D5F0D2C015FFA4
:1005B80000D00001D1510001D8A48BD0F70E000162
:1005C800CC19D8A486D00F0101870001C8510001B9
:1005D800D26FD36BD46BD56BD2C003FF000E000172
:1005E800C8150001D26FFF0E0001C9150001D36FB5
:1005F800000E0001CA150001D46F000E0001CB15D2
:100608000001D56FD2C0CDF0D3C0CEF0D4C0CFF0AA
:10061800D5C0D0F0CEC0CDF0CFC0CEF0D0C0CFF096
:100628000001D06BCDC0D2F0CEC0D3F0CFC0D4F093
:10063800D0C0D5F0D2C002FF0001CAA103D00F017B
:10064800018102D00F0101910001CAA303D00F015B
:10065800018302D00F0101930001CAA503D00F0145
:10066800018B02D00F01019B0001CAA703D00F0123
:10067800018D02D00F01019D0001CAA903D00F010D
:10068800018F03D00F01019F00D0C8C0CDF0C9C0B1
:10069800CEF0CAC0CFF0CBC0D0F0160E06D0000105
:1006A800D890D033CF33CE33CD33E82EF8D7CDC062
:1006B800D2F0CEC0D3F0CFC0D4F0D0C0D5F0000176
:1006C800D2510001D26FD36BD46BD56BD2C000FF6F
:1006D80000D00001D105D8A48BD0F70E0001CC19A9
:1006E800D8A486D00F0105870001C8510001D26F38
:1006F800D36BD46BD56BD2C007FF000E0001C815B1
:100708000001D26FFF0E0001C9150001D36F000E62
:100718000001CA150001D46F000E0001CB150001BD
:10072800D56FD2C0CDF0D3C0CEF0D4C0CFF0D5C0F5
:10073800D0F0CEC0CDF0CFC0CEF0D0C0CFF0000109
:10074800D06BCDC0D2F0CEC0D3F0CFC0D4F0D0C0E3
:10075800D5F0D2C006FF0001CAA103D00F01058160
:1007680002D00F0105910001CAA303D00F01058330
:1007780002D00F0105930001CAA503D00F01058B14
:1007880002D00F01059B0001CAA703D00F01058DF8
:1007980002D00F01059D0001CAA903D00F01058FE2
:1007A80003D00F01059F00D0C8C0CDF0C9C0CEF05E
:1007B800CAC0CFF0CBC0D0F0160E06D00001D8903A
:1007C800D033CF33CE33CD33E82EF8D7CDC0D2F0E7
:1007D800CEC0D3F0CFC0D4F0D0C0D5F00001D251F4
:1007E8000001D26FD36BD46BD56BD2C004FF00D09D
:1007F800020E0001D119D8A48BD0F70E0001CC1934
:10080800D8A486D00F0109870001C8510001D26F12
:10081800D36BD46BD56BD2C00BFF000E0001C8158B
:100828000001D26FFF0E0001C9150001D36F000E41
:100838000001CA150001D46F000E0001CB1500019C
:10084800D56FD2C0CDF0D3C0CEF0D4C0CFF0D5C0D4
:10085800D0F0CEC0CDF0CFC0CEF0D0C0CFF00001E8
:10086800D06BCDC0D2F0CEC0D3F0CFC0D4F0D0C0C2
:10087800D5F0D2C00AFF0001CAA103D00F01098137
:1008880002D00F0109910001CAA303D00F01098307
:1008980002D00F0109930001CAA503D00F01098BEB
:1008A80002D00F01099B0001CAA703D00F01098DCF
:1008B80002D00F01099D0001CAA903D00F01098FB9
:1008C80003D00F01099F00D0C8C0CDF0C9C0CEF039
:1008D800CAC0CFF0CBC0D0F0160E06D00001D89019
:1008E800D033CF33CE33CD33E82EF8D7CDC0D2F0C6
:1008F800CEC0D3F0CFC0D4F0D0C0D5F00001D251D3
:100908000001D26FD36BD46BD56BD2C008FF00D077
:10091800030E0001D119D8A48BD0F70E0001CC1911
:10092800D8A486D00F010D870001C8510001D26FED
:10093800D36BD46BD56BD2C00FFF000E0001C81566
:100948000001D26FFF0E0001C9150001D36F000E20
:100958000001CA150001D46F000E0001CB1500017B
:10096800D56FD2C0CDF0D3C0CEF0D4C0CFF0D5C0B3
:10097800D0F0CEC0CDF0CFC0CEF0D0C0CFF00001C7
:10098800D06BCDC0D2F0CEC0D3F0CFC0D4F0D0C0A1
:10099800D5F0D2C00EFF0001CAA103D00F010D810E
:1009A80002D00F010D910001CAA303D00F010D83DE
:1009B80002D00F010D930001CAA503D00F010D8BC2
:1009C80002D00F010D9B0001CAA703D00F010D8DA6
:1009D80002D00F010D9D0001CAA903D00F010D8F90
:1009E80003D00F010D9F00D0C8C0CDF0C9C0CEF014
:1009F800CAC0CFF0CBC0D0F0160E06D00001D890F8
:100A0800D033CF33CE33CD33E82EF8D7CDC0D2F0A4
:100A1800CEC0D3F0CFC0D4F0D0C0D5F00001D251B1
:100A28000001D26FD36BD46BD56BD2C00CFF00D052
:100A3800040E0001D119D8A48BD0F70E0001CC19EF
:100A4800D8A486D00F0111870001C8510001D26FC8
:100A5800D36BD46BD56BD2C013FF000E0001C81541
:100A68000001D26FFF0E0001C9150001D36F000EFF
:100A78000001CA150001D46F000E0001CB1500015A
:100A8800D56FD2C0CDF0D3C0CEF0D4C0CFF0D5C092
:100A9800D0F0CEC0CDF0CFC0CEF0D0C0CFF00001A6
:100AA800D06BCDC0D2F0CEC0D3F0CFC0D4F0D0C080
:100AB800D5F0D2C012FF0001CAA103D00F011181E5
:100AC80002D00F0111910001CAA303D00F011183B5
:100AD80002D00F0111930001CAA503D00F01118B99
:100AE80002D00F01119B0001CAA703D00F01118D7D
:100AF80002D00F01119D0001CAA903D00F01118F67
:100B080003D00F01119F00D0C8C0CDF0C9C0CEF0EE
:100B1800CAC0CFF0CBC0D0F0160E06D00001D890D6
:100B2800D033CF33CE33CD33E82EF8D7CDC0D2F083
:100B3800CEC0D3F0CFC0D4F0D0C0D5F00001D25190
:100B48000001D26FD36BD46BD56BD2C010FF00D02D
:100B5800050E0001D119D8A48BD0F70E0001CC19CD
:100B6800D8A486D00F0115870001C8510001D26FA3
:100B7800D36BD46BD56BD2C017FF000E0001C8151C
:100B88000001D26FFF0E0001C9150001D36F000EDE
:100B98000001CA150001D46F000E0001CB15000139
:100BA800D56FD2C0CDF0D3C0CEF0D4C0CFF0D5C071
:100BB800D0F0CEC0CDF0CFC0CEF0D0C0CFF0000185
:100BC800D06BCDC0D2F0CEC0D3F0CFC0D4F0D0C05F
:100BD800D5F0D2C016FF0001CAA103D00F011581BC
:100BE80002D00F0115910001CAA303D00F0115838C
:100BF80002D00F0115930001CAA503D00F01158B70
:100C080002D00F01159B0001CAA703D00F01158D53
:100C180002D00F01159D0001CAA903D00F01158F3D
:100C280003D00F01159F00D0C8C0CDF0C9C0CEF0C9
:100C3800CAC0CFF0CBC0D0F0160E06D00001D890B5
:100C4800D033CF33CE33CD33E82EF8D7CDC0D2F062
:100C5800CEC0D3F0CFC0D4F0D0C0D5F00001D2516F
:100C68000001D26FD36BD46BD56BD2C014FF00D008
:100C780012000F0140B742D1CEC045FF0001CFADF1
:100C880003D00F01458D02D00F01459D0001CFA76C
:100C98007AD00001C8510001D46FD56BD66BD76BE1
:100CA800D4C044FF000E0001C8150001D46FFF0E28
:100CB8000001C9150001D56F000E0001CA15000119
:100CC800D66F000E0001CB150001D76FD4C0D0F04D
:100CD800D5C0D1F0D6C0D2F0D7C0D3F0D1C0D0F0B3
:100CE800D2C0D1F0D3C0D2F00001D36BD0C0D4F0C1
:100CF800D1C0D5F0D2C0D6F0D3C0D7F0D4C043FF0E
:100D0800000E0F01426F0F0142870001CAA102D0F5
:100D18000F0142810001CAA302D00F0142830001E2
:100D2800CAA502D00F01428B0001CAA702D00F0149
:100D3800428D0001CAA903D00F01428F00D0C8C05C
:100D4800D0F0C9C0D1F0CAC0D2F0CBC0D3F0160ED3
:100D580006D00001D890D333D233D133D033E82E24
:100D6800F8D7D0C0D4F0D1C0D5F0D2C0D6F0D3C017
:100D7800D7F00001D4510001D46FD56BD66BD76B77
:100D8800D4C041FF5AD00F014297C8C0D0F0C9C0A3
:100D9800D1F0CAC0D2F0CBC0D3F0040E06D0000107
:100DA800D890D333D233D133D033E82EF8D7D0C04C
:100DB800D4F0D1C0D5F0D2C0D6F0D3C0D7F000015E
:100DC800D4510001D46FD56BD66BD76BD4C041FF1B
:100DD800070E0001C8150001D46F000E0001C915E7
:100DE8000001D56F000E0001CA150001D66F000E74
:100DF8000001CB150001D76FD4C0D0F0D5C0D1F019
:100E0800D6C0D2F0D7C0D3F0050ED8900001D037A5
:100E1800D137D237D337E82EF8D7D0C0D4F0D1C0E5
:100E2800D5F0D2C0D6F0D3C0D7F00F0142511F0B76
:100E38000F01426FD4C042FF00D00001CFA103D000
:100E48000F01408102D00F0140910001CFA303D0D0
:100E58000F01408303D00F01409300D0CCC0D9FFCD
:100E6800CDC0DAFFDF500F01466F000120EE01F020
:100E7800CC51D926CD51DA22DF500F01476F00013E
:100E880020EE02F0CC51D926CD51DA22DF500F01E5
:100E9800486F000120EE03F0CC51D926CD51DA225B
:100EA800DF500F01496F000120EE04F0CC51D92624
:100EB800CD51DA22DF500F014A6F000120EE05F014
:100EC800CC51D926CD51DA22DF500F014B6F0001EA
:100ED80020EE06F0CC51D926CD51DA22DF500F0191
:100EE8004C6F000120EE07F0CC51D926CD51DA2203
:100EF800DF500F014D6F0F0140878AD20F0130B7C5
:100F080042D1CEC035FF0001CFAD03D00F01358DE2
:100F180002D00F01359D0001CFA77AD00001C8513A
:100F28000001D46FD56BD66BD76BD4C034FF000EDD
:100F38000001C8150001D46FFF0E0001C91500019A
:100F4800D56F000E0001CA150001D66F000E000112
:100F5800CB150001D76FD4C0D0F0D5C0D1F0D6C022
:100F6800D2F0D7C0D3F0D1C0D0F0D2C0D1F0D3C026
:100F7800D2F00001D36BD0C0D4F0D1C0D5F0D2C02C
:100F8800D6F0D3C0D7F0D4C033FF000E0F01326FB4
:100F98000F0132870001CAA102D00F01328100017E
:100FA800CAA302D00F0132830001CAA502D00F01E3
:100FB800328B0001CAA702D00F01328D0001CAA9E5
:100FC80003D00F01328F00D0C8C0D0F0C9C0D1F013
:100FD800CAC0D2F0CBC0D3F0160E06D00001D8900C
:100FE800D333D233D133D033E82EF8D7D0C0D4F0AE
:100FF800D1C0D5F0D2C0D6F0D3C0D7F00001D451BB
:101008000001D46FD56BD66BD76BD4C031FF5AD0E3
:101018000F013297C8C0D0F0C9C0D1F0CAC0D2F011
:10102800CBC0D3F0040E06D00001D890D333D2330E
:10103800D133D033E82EF8D7D0C0D4F0D1C0D5F012
:10104800D2C0D6F0D3C0D7F00001D4510001D46F7C
:10105800D56BD66BD76BD4C031FF070E0001C8150E
:101068000001D46F000E0001C9150001D56F000EF4
:101078000001CA150001D66F000E0001CB15000152
:10108800D76FD4C0D0F0D5C0D1F0D6C0D2F0D7C079
:10109800D3F0050ED8900001D037D137D237D337E7
:1010A800E82EF8D7D0C0D4F0D1C0D5F0D2C0D6F051
:1010B800D3C0D7F00F0132511F0B0F01326FD4C0CC
:1010C80032FF00D00001CFA103D00F01308102D040
:1010D8000F0130910001CFA303D00F01308303D05B
:1010E8000F01309300D0CCC0D9FFCDC0DAFFDF505C
:1010F8000F01366F000120EE01F0CC51D926CD51F9
:10110800DA22DF500F01376F000120EE02F0CC51D8
:10111800D926CD51DA22DF500F01386F000120EEB9
:1011280003F0CC51D926CD51DA22DF500F01396FA7
:10113800000120EE04F0CC51D926CD51DA22DF503F
:101148000F013A6F000120EE05F0CC51D926CD51A0
:10115800DA22DF500F013B6F000120EE06F0CC5180
:10116800D926CD51DA22DF500F013C6F000120EE65
:1011780007F0CC51D926CD51DA22DF500F013D6F4F
:101188000F01308745D10F0120B742D1CEC025FFCE
:101198000001CFAD03D00F01258D02D00F01259D91
:1011A8000001CFA77AD00001C8510001D46FD56BD8
:1011B800D66BD76BD4C024FF000E0001C815000100
:1011C800D46FFF0E0001C9150001D56F000E000194
:1011D800CA150001D66F000E0001CB150001D76FAC
:1011E800D4C0D0F0D5C0D1F0D6C0D2F0D7C0D3F09B
:1011F800D1C0D0F0D2C0D1F0D3C0D2F00001D36BAF
:10120800D0C0D4F0D1C0D5F0D2C0D6F0D3C0D7F07A
:10121800D4C023FF000E0F01226F0F0122870001A7
:10122800CAA102D00F0122810001CAA302D00F0176
:1012380022830001CAA502D00F01228B0001CAA790
:1012480002D00F01228D0001CAA903D00F01228FFD
:1012580000D0C8C0D0F0C9C0D1F0CAC0D2F0CBC04D
:10126800D3F0160E06D00001D890D333D233D13341
:10127800D033E82EF8D7D0C0D4F0D1C0D5F0D2C042
:10128800D6F0D3C0D7F00001D4510001D46FD56B8C
:10129800D66BD76BD4C021FF5AD00F012297C8C094
:1012A800D0F0C9C0D1F0CAC0D2F0CBC0D3F0040E80
:1012B80006D00001D890D333D233D133D033E82EBF
:1012C800F8D7D0C0D4F0D1C0D5F0D2C0D6F0D3C0B2
:1012D800D7F00001D4510001D46FD56BD66BD76B12
:1012E800D4C021FF070E0001C8150001D46F000EFD
:1012F8000001C9150001D56F000E0001CA150001D3
:10130800D66F000E0001CB150001D76FD4C0D0F006
:10131800D5C0D1F0D6C0D2F0D7C0D3F0050ED89042
:101328000001D037D137D237D337E82EF8D7D0C01D
:10133800D4F0D1C0D5F0D2C0D6F0D3C0D7F00F01C9
:1013480022511F0B0F01226FD4C022FF00D00001D1
:10135800CFA103D00F01208102D00F0120910001FD
:10136800CFA303D00F01208303D00F01209300D017
:10137800CCC0D9FFCDC0DAFFDF500F01266F0001C6
:1013880020EE01F0CC51D926CD51DA22DF500F01E1
:10139800276F000120EE02F0CC51D926CD51DA2278
:1013A800DF500F01286F000120EE03F0CC51D92641
:1013B800CD51DA22DF500F01296F000120EE04F031
:1013C800CC51D926CD51DA22DF500F012A6F000106
:1013D80020EE05F0CC51D926CD51DA22DF500F018D
:1013E8002B6F000120EE06F0CC51D926CD51DA2220
:1013F800DF500F012C6F000120EE07F0CC51D926E9
:10140800CD51DA22DF500F012D6F0F01208700D058
:101418001200000E0B6E74AE02D00B8000D074ACBC
:1014280002D00B8200D00F0150AF49D101C0D9FFC3
:1014380002C0DAFFDE6ADE6ADE6ADD6A20EE04F0E8
:101448000150D9260250DA2256CFDFFF20EE05F0F0
:101458000150D9260250DA2257CFDFFF20EE06F0DE
:101468000150D9260250DA2258CFDFFF20EE07F0CC
:101478000150D9260250DA2259CFDFFF20EE08F0BA
:101488000150D9260250DA225ACFDFFF20EE09F0A8
:101498000150D9260250DA225BCFDFFF20EE0AF096
:1014A8000150D9260250DA225CCFDFFF20EE0BF084
:1014B8000150D9260250DA225DCFDFFF20EE0EF070
:1014C8000150D9260250DA220F0155AD02D0010E83
:1014D80001D0000EDF6E20EE0DF00150D92602502B
:1014E800DA220F0155510F0BDF6E20EE0CF0015080
:1014F800D9260250DA220F0152A702D0010E01D0DC
:10150800000EDF6E0F0152B744D051CF03F0046ACA
:10151800056A066A030ED890033604360536063681
:10152800E82EF9D701C0D9FF02C0DAFF03C0DEFFF9
:1015380004C0DEFF05C0DEFF06C0DEFF0F01523922
:10154800E842070B070B0C6E01C0D9FF02C0DAFF97
:10155800DECF03F0DECF04F0DECF05F0DECF06F0FD
:101568000C500324076E000E0420086E000E0520A0
:10157800096E000E06200A6E01C0D9FF02C0DAFF0C
:1015880007C0DEFF08C0DEFF09C0DEFF0AC0DEFFBD
:1015980093D054CF03F0046A056A066A01C0D9FFE4
:1015A80002C0DAFF03C0DEFF04C0DEFF05C0DEFFB5
:1015B80006C0DEFF53CF03F0046A056A066A05C059
:1015C80006F004C005F003C004F0036A01C0D9FFA7
:1015D80002C0DAFF0350DE260450DE220550DE2268
:1015E8000650DE220F0152A10DD001C0D9FF02C062
:1015F800DAFF000EDE12000EDE12010EDE12000E01
:10160800DE1200D00F0152A30DD001C0D9FF02C0D5
:10161800DAFF000EDE12000EDE12020EDE12000EDF
:10162800DE1200D00F0152AB0DD001C0D9FF02C0AD
:10163800DAFF000EDE12000EDE12040EDE12000EBD
:10164800DE1200D00F0152AD0DD001C0D9FF02C08B
:10165800DAFF000EDE12000EDE12080EDE12000E99
:10166800DE1200D00F0152AF0DD001C0D9FF02C069
:10167800DAFF000EDE12000EDE12100EDE12000E71
:10168800DE1200D051CF03F0046A056A066A150E0F
:10169800D8900336043605360636E82EF9D701C049
:1016A800D9FF02C0DAFF0350DE120450DE120550E3
:1016B800DE120650DE1200D00F01509F40D160AEFE
:1016C8003ED101C0D9FF02C0DAFFDE6ADE6ADE6AF7
:1016D800DD6A20EE04F00150D9260250DA2266CFE6
:1016E800DFFF20EE05F00150D9260250DA2267CF3D
:1016F800DFFF20EE06F00150D9260250DA2268CF2B
:10170800DFFF20EE07F00150D9260250DA2269CF18
:10171800DFFF20EE08F00150D9260250DA226ACF06
:10172800DFFF20EE09F00150D9260250DA226BCFF4
:10173800DFFF20EE0AF00150D9260250DA226CCFE2
:10174800DFFF20EE0BF00150D9260250DA226DCFD0
:10175800DFFF20EE0EF00150D9260250DA2265ACE8
:1017680002D0010E01D0000EDF6E20EE0DF0015008
:10177800D9260250DA2265500F0BDF6E20EE0CF0EE
:101788000150D9260250DA2262A602D0010E01D0F9
:10179800000EDF6E62B643D061CF03F0046A056ABB
:1017A800066A030ED8900336043605360636E82E48
:1017B800F9D701C0D9FF02C0DAFF03C0DEFF04C0B9
:1017C800DEFF05C0DEFF06C0DEFF6238E842070B19
:1017D800070B0C6E01C0D9FF02C0DAFFDECF03F0A1
:1017E800DECF04F0DECF05F0DECF06F00C50032488
:1017F800076E000E0420086E000E0520096E000E0C
:1018080006200A6E01C0D9FF02C0DAFF07C0DEFF5A
:1018180008C0DEFF09C0DEFF0AC0DEFF8ED064CF3D
:1018280003F0046A056A066A01C0D9FF02C0DAFF3C
:1018380003C0DEFF04C0DEFF05C0DEFF06C0DEFF1A
:1018480063CF03F0046A056A066A05C006F004C09F
:1018580005F003C004F0036A01C0D9FF02C0DAFF33
:101868000350DE260450DE220550DE220650DE221A
:1018780062A00DD001C0D9FF02C0DAFF000EDE124F
:10188800000EDE12010EDE12000EDE1200D062A281
:101898000DD001C0D9FF02C0DAFF000EDE12000E23
:1018A800DE12020EDE12000EDE1200D062AA0DD089
:1018B80001C0D9FF02C0DAFF000EDE12000EDE12F0
:1018C800040EDE12000EDE1200D062AC0DD001C094
:1018D800D9FF02C0DAFF000EDE12000EDE12080E7B
:1018E800DE12000EDE1200D062AE0DD001C0D9FFAC
:1018F80002C0DAFF000EDE12000EDE12100EDE123B
:10190800000EDE1200D061CF03F0046A056A066A91
:10191800150ED8900336043605360636E82EF9D764
:1019280001C0D9FF02C0DAFF0350DE120450DE12F4
:101938000550DE120650DE1200D0609E00D0120064
:101948000001D16F0001D105D8A457D00001CC29DE
:10195800D8A453D0C8C0CDF0C9C0CEF0CAC0CFF00B
:10196800CBC0D0F0040E06D00001D890D033CF33CE
:10197800CE33CD33E82EF8D7CDC0D2F0CEC0D3F0D9
:10198800CFC0D4F0D0C0D5F00001D2510001D26F41
:10199800D36BD46BD56BD2C018FF070E0001C815E6
:1019A8000001D26F000E0001C9150001D36F000EAF
:1019B8000001CA150001D46F000E0001CB1500010B
:1019C800D56FD2C0CDF0D3C0CEF0D4C0CFF0D5C043
:1019D800D0F0050ED8900001CD37CE37CF37D037AD
:1019E800E82EF8D7CDC0D2F0CEC0D3F0CFC0D4F017
:1019F800D0C0D5F0D2C019FF00D0020E0001D11915
:101A0800D8A457D00001CC29D8A453D0C8C0CDF051
:101A1800C9C0CEF0CAC0CFF0CBC0D0F0040E06D0FB
:101A28000001D890D033CF33CE33CD33E82EF8D75A
:101A3800CDC0D2F0CEC0D3F0CFC0D4F0D0C0D5F056
:101A48000001D2510001D26FD36BD46BD56BD2C0D9
:101A58001CFF070E0001C8150001D26F000E00011F
:101A6800C9150001D36F000E0001CA150001D46F1B
:101A7800000E0001CB150001D56FD2C0CDF0D3C048
:101A8800CEF0D4C0CFF0D5C0D0F0050ED89000016C
:101A9800CD37CE37CF37D037E82EF8D7CDC0D2F0F4
:101AA800CEC0D3F0CFC0D4F0D0C0D5F0D2C01DFF87
:101AB80000D00001D105D8A489D0F70E0001CC19B7
:101AC800D8A484D00001C8510001D26FD36BD46B65
:101AD800D56BD2C01BFF000E0001C8150001D26FE4
:101AE800FF0E0001C9150001D36F000E0001CA15D1
:101AF8000001D46F000E0001CB150001D56FD2C0D4
:101B0800CDF0D3C0CEF0D4C0CFF0D5C0D0F0CEC089
:101B1800CDF0CFC0CEF0D0C0CFF00001D06BCDC09B
:101B2800D2F0CEC0D3F0CFC0D4F0D0C0D5F0D2C060
:101B38001AFF0001CAA103D00F01198102D00F01B9
:101B480019910001CAA303D00F01198302D00F0114
:101B580019930001CAA503D00F01198B02D00F01F8
:101B6800199B0001CAA703D00F01198D02D00F01DC
:101B7800199D0001CAA903D00F01198F03D00F01C5
:101B8800199F00D0C8C0CDF0C9C0CEF0CAC0CFF0F0
:101B9800CBC0D0F0160E06D00001D890D033CF338A
:101BA800CE33CD33E82EF8D7CDC0D2F0CEC0D3F0A7
:101BB800CFC0D4F0D0C0D5F00001D2510001D26F0F
:101BC800D36BD46BD56BD2C018FF00D0020E0001C6
:101BD800D119D8A489D0F70E0001CC19D8A484D083
:101BE8000001C8510001D26FD36BD46BD56BD2C042
:101BF8001FFF000E0001C8150001D26FFF0E000183
:101C0800C9150001D36F000E0001CA150001D46F79
:101C1800000E0001CB150001D56FD2C0CDF0D3C0A6
:101C2800CEF0D4C0CFF0D5C0D0F0CEC0CDF0CFC06C
:101C3800CEF0D0C0CFF00001D06BCDC0D2F0CEC076
:101C4800D3F0CFC0D4F0D0C0D5F0D2C01EFF000171
:101C5800CAA103D00F011D8102D00F011D910001FF
:101C6800CAA303D00F011D8302D00F011D930001E9
:101C7800CAA503D00F011D8B02D00F011D9B0001C7
:101C8800CAA703D00F011D8D02D00F011D9D0001B1
:101C9800CAA903D00F011D8F03D00F011D9F00D0CB
:101CA800C8C0CDF0C9C0CEF0CAC0CFF0CBC0D0F00C
:101CB800160E06D00001D890D033CF33CE33CD33B3
:101CC800E82EF8D7CDC0D2F0CEC0D3F0CFC0D4F034
:101CD800D0C0D5F00001D2510001D26FD36BD46BC4
:101CE800D56BD2C01CFF00D0120042EC14F0020EDB
:101CF8000001906F00D090EC15F0E806D8B405D03C
:101D080097EC15F0E806D8A404D0808274947492F5
:101D180000D041AE59D0000188510001862500014C
:101D2800C86F00018951000187210001C96F90C067
:101D3800CAF00001CB6B2CEC15F0D8900001C9312A
:101D480001010F6F0001C83101010E6F0EC168F06B
:101D58000FC169F000016A6B6B6B00018A510101C8
:101D68000E6F00018B5101010F6F0101106B010112
:101D7800116B01010E510001685D01010F51000155
:101D880069590101105100016A59010111510001FD
:101D98006B59D8A019D0419E0F0E0001C86F000ED4
:101DA800C96F000ECA6F000ECB6FDA0E0001CC6F40
:101DB800000E0001CD6F080E0001CE6FFC0E000171
:101DC800CF6F3DEC06F000D042B002D041A804D05D
:101DD800429019EC12F000D000018C51D8A421D007
:101DE80000018D51D8A404D0000E00018E6F00D0E0
:101DF80000018D05D8A404D0960E00018E6F00D086
:101E0800020E00018D19D8A404D0C80E00018E6FEF
:101E180000D0030E00018D19D8A406D000018E69E8
:101E280003D08DC08EF000D08EC0C8F00001C96B01
:101E3800000E0001CB6F050ECA6F72EC13F00001A3
:101E48008F510001C827000E0001C9230001C9BF36
:101E580008D00001C905D8A004D00001A969B40EB2
:101E680020D08EC0C8F00001C96B000E0001CB6FF6
:101E7800050ECA6F72EC13F00001C85100018F25DE
:101E88000001A96F0001A951B40DF3CFC8F0F4CF38
:101E9800C9F0000E0001CB6FCA6972EC13F00001A3
:101EA800C851406E00D041B002D041A43FD041A4F7
:101EB8000BD0000E0001786F000E796F000E7A6F5C
:101EC800000E7B6F41942CD0000190510001C86F27
:101ED800C96BCA6BCB6BA00E0001CC6F860ECD6FA1
:101EE800010ECE6F000ECF6F9EEC14F0C8C000F14B
:101EF800C9C001F1CAC002F1CBC003F12DC004F181
:101F08002EC005F10101066B076BDCEC12F000C175
:101F180078F001C179F002C17AF003C17BF000D0FA
:101F280079C09CF078C09BF0419000D041B202D0BB
:101F380041A6E1D641A60BD0000E00017C6F000E31
:101F48007D6F000E7E6F000E7F6F41962CD00001D2
:101F580090510001C86FC96BCA6BCB6BA00E000112
:101F6800CC6F860ECD6F010ECE6F000ECF6F9EEC3C
:101F780014F0C8C000F1C9C001F1CAC002F1CBC059
:101F880003F12FC004F130C005F10101066B076BA6
:101F9800DCEC12F000C17CF001C17DF002C17EF0E2
:101FA80003C17FF000D07DC09AF07CC099F04192C7
:101FB800A2D6A6EF00F00600EACFBDF0E1CFBEF052
:101FC800E2CFBFF0D9CFC0F0DACFC1F0F3CFC2F083
:101FD800F4CFC3F0F6CFC4F0F7CFC5F0F8CFC6F012
:101FE800F5CFC7F0F2A4A7D0827082A09BD0400E94
:101FF8000001B26F060E0001B36F40C01EF01F6AE9
:10200800050E216E780E206E48EC15F01EC0AAF061
:102018001FC0ABF0000E0001AD6FB40EAC6FDAEC70
:1020280013F0D8900001AA370001AB370001B25174
:102038000001AA270001B3510001AB230001AAC087
:1020480029F00001ABC02AF0000E2ABEFF0E2B6E4D
:102058002C6E29C0B2F02AC0B3F02BC0B4F02CC04B
:10206800B5F00001B21FB31FB41FB51FB22B000E8D
:10207800B323B423B523400E0001B2250001B66F87
:102088009C0E0001B3210001B76F000E0001B421BE
:102098000001B86F000E0001B5210001B96F000101
:1020A800B61FB71FB81FB91FB62B000EB723B8232A
:1020B800B923000E0001B625256E000E0001B721D8
:1020C800266E010E0001B821276E000E0001B9210D
:1020D800286E29C0B2F02AC0B3F02BC0B4F02CC0CF
:1020E800B5F00001B21FB31FB41FB51FB22B000E0D
:1020F800B323B423B523000E0001B225296E000EC8
:102108000001B3212A6E010E0001B4212B6E000ECE
:102118000001B5212C6E29C01EF02AC01FF087ECE3
:1021280015F007D025C01EF026C01FF087EC15F06B
:1021380000D0F29400D0F2A239D042B206D0000EFC
:10214800CF6E000ECE6E42822FD0CF500001B36FFB
:10215800B26BCE500001B2252D6E000E0001B321E6
:102168002E6E2DC01EF02EC01FF0010E216EF40E33
:10217800206EDBEC14F01EC02DF01FC02EF0418045
:10218800000ECF6E000ECF6E41AA08D0010E0001DE
:102198006C27000E6D236E236F2300D041AE04D050
:1021A8000001864B872B00D0F29200D0F0A039D0E6
:1021B80042B406D0000EB36E000EB26E42842FD029
:1021C800B3500001B36FB26BB2500001B2252F6E4D
:1021D800000E0001B321306E2FC01EF030C01FF07A
:1021E800010E216EF40E206EDBEC14F01EC02FF0F1
:1021F8001FC030F04182000EB36E000EB36E41AACC
:1022080008D0010E00017027000E7123722373237A
:1022180000D041AE04D00001884B892B00D0F0904B
:1022280000D0C7C0F5FFC6C0F8FFC5C0F7FFC4C0DF
:10223800F6FFC3C0F4FFC2C0F3FFC1C0DAFFC0C0DD
:10224800D9FFBFC0E2FFBEC0E1FFBDC0EAFFBCC00E
:10225800E9FFBBC0FBFFBAC0FAFF11000001D66F4F
:10226800800E6FEC15F0000E706E000E716E000E91
:10227800726E01010241E842C00B0101026F0101C7
:10228800025170120101035170120001D6517112EE
:1022980001010039E842F80B0101006F010100510A
:1022A8007112010104A5718C010104A102D0718E83
:1022B80000D0010101517212010104A302D0728CF5
:1022C80000D001010451600B606E01010451100B34
:1022D800FF0AD8B4608460CF50FF000E0001C86FB9
:1022E800000EC96F000ECA6F000ECB6FF70E00010B
:1022F800CC6F010EA4EC0CF0000E0001C86F000EAC
:10230800C96F000ECA6F000ECB6FF70E0001CC6FBD
:10231800020EA4EC0CF00FD0F70E0001D76F07D017
:102328000001D7690001D86928D00001D769F70EE4
:102338000001D86F22D09F0E0101056FFF0E010129
:10234800066F01010451600B0101076F086B010161
:10235800055101010713010106510101081301018B
:102368000851000AD8A4E1D701010751BF0AD8B41F
:10237800D7D7600AD8B4D0D7D8D7000E0001C86F15
:10238800000EC96F000ECA6F000ECB6FD7C0CCF01D
:10239800000EA8EC00F0000E0001C86F000EC96F17
:1023A800000ECA6F000ECB6FD7C0CCF0010EA8ECA0
:1023B80000F0000E0001C86F000EC96F000ECA6F52
:1023C800000ECB6FD8C0CCF0020EA8EC00F0000EC7
:1023D8000001C86F000EC96F000ECA6F000ECB6FE8
:1023E800D8C0CCF0030EA8EC00F0000E0001C86FB6
:1023F800000EC96F000ECA6F000ECB6FD8C0CCF0AC
:10240800040EA8EC00F0000E0001C86F000EC96FA2
:10241800000ECA6F000ECB6FD8C0CCF0050EA8EC2A
:1024280000F0000E6FEC15F012005CEC15F0E806F9
:10243800D8A4BBD0020E0001741900017511000167
:10244800761100017711D8A41CD0010E0001A16FEC
:10245800020E0001C86F000EC96F000ECA6F000E91
:10246800CB6FA10E0001CC6F000E0001CD6F080EDE
:102478000001CE6FBC0E0001CF6F3DEC06F08272FA
:1024880000D0080E000174190001751100017611C1
:1024980000017711D8A417D074C0C8F075C0C9F06E
:1024A80076C0CAF077C0CBF0990E0001CC6F000E51
:1024B8000001CD6F080E0001CE6FBC0E0001CF6F7A
:1024C8003DEC06F000D00A0E0001741900017511E8
:1024D8000001761100017711D8A414D0000E000174
:1024E8006C6F000E6D6F000E6E6F000E6F6F000E3A
:1024F8000001706F000E716F000E726F000E736F27
:10250800418A00D0090E00017419000175110001FB
:10251800761100017711D8A440D090C0C8F000010E
:10252800C96B6CC0CAF06DC0CBF02CEC15F0C8C0FC
:1025380082F0C9C083F090C0C8F00001C96B70C0B8
:10254800CAF071C0CBF02CEC15F0C8C084F0C9C03B
:1025580085F0419A82C091F0000183510001926F89
:1025680084C093F0000185510001946F74C0C8F0D5
:1025780075C0C9F076C0CAF077C0CBF0910E0001E3
:10258800CC6F000E0001CD6F080E0001CE6FBC0E9F
:102598000001CF6F3DEC06F000D00F0140BD05D023
:1025A8000F0130BD02D0419802D0418800D01200FE
:1025B800000E0101096F010107AF0DD00101071FCE
:1025C800061F051F046D000E052306230723010EB1
:1025D8000101096F00D0010103AF0DD00101031FF4
:1025E800021F011F006D000E012302230323010EA9
:1025F8000101091B00D0000E01010A6F000E0B6FCC
:10260800000E0C6F000E0D6F010104510101051140
:102618000101061101010711D8B447D0010E0101CB
:10262800086F09D00101D8900437053706370737F6
:102638000101082B00D0010107BF02D0F3D700D059
:102648000101D8900A370B370C370D3701010451B7
:102658000101005D01010551010101590101065106
:10266800010102590101075101010359D8A013D0F2
:10267800010104510101005F010105510101015BE4
:10268800010106510101025B010107510101035BD0
:1026980001010A8100D00101D890073306330533C0
:1026A80004330101082FCCD700D0010109510101E1
:1026B800D8B40AD001010D1F0C1F0B1F0A6D000EA4
:1026C8000B230C230D2300D00AC100F10BC101F12B
:1026D8000CC102F10DC103F100D01200000E00017F
:1026E800CD6F0001CBAF09D00001CA6DCB1FD8B0A8
:1026F800CB2B010E0001CD6F00D00001C9AF09D06E
:102708000001C86DC91FD8B0C92B010E0001CD1B2F
:1027180000D0000E0001CF6F000ECE6F0001CA512D
:102728000001CB11D8B431D0010E0001CC6F07D015
:102738000001D890CA37CB370001CC2B00D000015C
:10274800CBBF02D0F5D700D00001D890CE37CF3715
:102758000001CA510001C85D0001CB510001C959EF
:10276800D8A00BD00001CA510001C85F0001CB51AD
:102778000001C95B0001CE8100D00001D890CB33A5
:10278800CA330001CC2FE0D700D00001CD510001A1
:10279800D8B406D00001CE6DCF1FD8B0CF2B00D053
:1027A800CEC0C8F0CFC0C9F000D01200000E0001A2
:1027B800AF6F0001ADAF09D00001AC6DAD1FD8B04F
:1027C800AD2B010E0001AF6F00D00001ABAF09D0F7
:1027D8000001AA6DAB1FD8B0AB2B010E0001AF1BD7
:1027E80000D0000E0001B16F000EB06F0001AC51B7
:1027F8000001AD11D8B431D0010E0001AE6F07D081
:102808000001D890AC37AD370001AE2B00D00001E5
:10281800ADBF02D0F5D700D00001D890B037B1379E
:102828000001AC510001AA5D0001AD510001AB5996
:10283800D8A00BD00001AC510001AA5F0001AD5136
:102848000001AB5B0001B08100D00001D890AD332E
:10285800AC330001AE2FE0D700D00001AF5100012A
:10286800D8B406D00001B06DB11FD8B0B12B00D0DC
:10287800B0C0AAF0B1C0ABF000D01200000E896E53
:10288800FD0E926E000E8A6E9368000E8B6EFC0E23
:10289800946E000E8C6E9568000E8D6E9668FE0E16
:1028A800C16E060E0101006F050E0101016F010ED8
:1028B8000101026F030E0101036F9D0E0101046FF8
:1028C800040E32EC11F0A492A490F2949E90A1927E
:1028D800F292F090D08EA592A590F184F08C9F9002
:1028E800A292800ED56ED768FE0ED66E82905A0ED2
:1028F800406E000ECD6E000EB16EF18CF18A0E0E98
:10290800C16EC29AC298C296C294C08AC088C09644
:10291800C084C092C080C09EC280A382A380F28A75
:102928009D80A082F288F086F28EF28CCD80B180F4
:10293800D58E1200000E0001D06F000ED16F000E70
:10294800D26F000ED36F00D00001C8A111D00001D2
:10295800CC510001D0270001CD510001D123000145
:10296800CE510001D2230001CF510001D32300D062
:102978000001D890CC37CD37CE37CF370001D8906B
:10298800CB33CA33C933C8330001C8510001C91158
:102998000001CA110001CB11D8A4D6D7D0C0C8F005
:1029A800D1C0C9F0D2C0CAF0D3C0CBF01200000E1B
:1029B800236E000E226E20502110D8B421D0010EB3
:1029C800246E05D0D89020362136242A00D021BE86
:1029D80002D0F8D700D0D8902236233620501E5C7B
:1029E80021501F58D8A006D020501E5E21501F5AD3
:1029F800228000D0D89021322032242EECD700D06B
:102A080022C01EF023C01FF0120000EE60F04A0E34
:102A1800EE6AE806FDE1426A416A00EE25F01C0E06
:102A2800EE6AE806FDE13C0EF66E2B0EF76E000E20
:102A3800F86E00EED9F010EE09F00900F5CFEEFFC0
:102A4800E550E150FAE1000EF86E000179EF0EF062
:102A58000001C8510001CA03F3CFCCF0F4CFCDF088
:102A68000001C8510001CB03F3500001CD2700013C
:102A7800C9510001CA03F3500001CD27CCC0C8F0EA
:102A8800CDC0C9F000D012001E502002F3CF22F0B2
:102A9800F4CF23F01E502102F35023261F502002AA
:102AA800F350232622C01EF023C01FF000D01200CE
:102AB800010E0001C86F0F0140A709D00F0130A710
:102AC80006D00F0120A703D0000E0001C86F000137
:102AD800C85100D012000001C86FC8C06FFF00D0F5
:102AE8006E50E00B0001C819D8A4FAD71200010EE5
:102AF800016E60BE05D00F0150BF02D0000E016EFE
:102B0800015000D012001EC020F01FC021F021C0CB
:102B1800D7FF20C0D6FF120074A402D0010E02D045
:102B2800000E00D0120074A202D0010E02D0000ED6
:0E2B380000D01200100100000000000000009C
:020000040020DA
:08000000FFFFFFFFFFFFFFFF00
:020000040030CA
:0E000000FF021F1EFF8281FF0FC00FE00F40A6
:00000001FF
