:0400000084EF00F099
:10000800FACF70F0FBCF71F0E9CF72F041ED0FF04D
:10001800D8CF0DF0E8CF0EF0E0CF0FF0FACF10F008
:10002800FBCF11F0E9CF12F0EACF13F0E1CF14F0D3
:10003800E2CF15F0D9CF16F0DACF17F0F3CF18F0DA
:10004800F4CF19F0F6CF1AF0F7CF1BF0F8CF1CF069
:10005800F5CF1DF0A4B002D0A4A225D09CEC15F0D9
:100068000009D8B41ED0000E026E310E016ED6EC17
:100078000AF03F04D8A40AD031C0A1F032C0A2F0DF
:1000880033C0A3F034C0A4F00001418C3150040AFD
:10009800321033103410D8A404D035C0B6F036C0AE
:1000A800B5F0A490A4929EA003D0000141849E9034
:1000B800A1A203D000014186A1921DC0F5FF1CC07A
:1000C800F8FF1BC0F7FF1AC0F6FF19C0F4FF18C0ED
:1000D800F3FF17C0DAFF16C0D9FF15C0E2FF14C03E
:1000E800E1FF13C0EAFF12C0E9FF11C0FBFF10C017
:1000F800FAFF0FC0E0FF0EC0E8FF0DC0D8FF1000E8
:10010800EFEF14F00001876F0001876763D00001EB
:100118008229D8A45FD00F01019700017EC083F027
:1001280000017FC084F0000180C085F0000181C01B
:1001380086F0040E06D00001D890863385338433C8
:100148008333E82EF8D783C088F084C089F085C04F
:100158008AF086C08BF0000188510001886F000189
:10016800896B00018A6B00018B6B88C000FF070E4A
:1001780000017E150001886F000E00017F15000147
:10018800896F000E0001801500018A6F000E0001C2
:10019800811500018B6F000188C083F0000189C0C0
:1001A80084F000018AC085F000018BC086F0050E3E
:1001B800D89000018337843785378637E82EF8D7FB
:1001C80083C088F084C089F085C08AF086C08BF02F
:1001D80088C001FF00018705D8A463D000018229E7
:1001E800D8A45FD00F01059700017EC083F00001FD
:1001F8007FC084F0000180C085F0000181C086F0D6
:10020800040E06D00001D8908633853384338333B7
:10021800E82EF8D783C088F084C089F085C08AF0BA
:1002280086C08BF0000188510001886F0001896B3E
:1002380000018A6B00018B6B88C004FF070E000168
:100248007E150001886F000E00017F150001896F7F
:10025800000E0001801500018A6F000E0001811553
:1002680000018B6F000188C083F0000189C084F011
:1002780000018AC085F000018BC086F0050ED89079
:1002880000018337843785378637E82EF8D783C04F
:1002980088F084C089F085C08AF086C08BF088C059
:1002A80005FF00018751020AD8A463D00001822902
:1002B800D8A45FD00F01099700017EC083F0000128
:1002C8007FC084F0000180C085F0000181C086F005
:1002D800040E06D00001D8908633853384338333E7
:1002E800E82EF8D783C088F084C089F085C08AF0EA
:1002F80086C08BF0000188510001886F0001896B6E
:1003080000018A6B00018B6B88C008FF070E000193
:100318007E150001886F000E00017F150001896FAE
:10032800000E0001801500018A6F000E0001811582
:1003380000018B6F000188C083F0000189C084F040
:1003480000018AC085F000018BC086F0050ED890A8
:1003580000018337843785378637E82EF8D783C07E
:1003680088F084C089F085C08AF086C08BF088C088
:1003780009FF00018751030AD8A463D0000182292C
:10038800D8A45FD00F010D9700017EC083F0000153
:100398007FC084F0000180C085F0000181C086F034
:1003A800040E06D00001D890863385338433833316
:1003B800E82EF8D783C088F084C089F085C08AF019
:1003C80086C08BF0000188510001886F0001896B9D
:1003D80000018A6B00018B6B88C00CFF070E0001BF
:1003E8007E150001886F000E00017F150001896FDE
:1003F800000E0001801500018A6F000E00018115B2
:1004080000018B6F000188C083F0000189C084F06F
:1004180000018AC085F000018BC086F0050ED890D7
:1004280000018337843785378637E82EF8D783C0AD
:1004380088F084C089F085C08AF086C08BF088C0B7
:100448000DFF00018751040AD8A463D00001822956
:10045800D8A45FD00F01119700017EC083F000017E
:100468007FC084F0000180C085F0000181C086F063
:10047800040E06D00001D890863385338433833345
:10048800E82EF8D783C088F084C089F085C08AF048
:1004980086C08BF0000188510001886F0001896BCC
:1004A80000018A6B00018B6B88C010FF070E0001EA
:1004B8007E150001886F000E00017F150001896F0D
:1004C800000E0001801500018A6F000E00018115E1
:1004D80000018B6F000188C083F0000189C084F09F
:1004E80000018AC085F000018BC086F0050ED89007
:1004F80000018337843785378637E82EF8D783C0DD
:1005080088F084C089F085C08AF086C08BF088C0E6
:1005180011FF00018751050AD8A463D00001822980
:10052800D8A45FD00F01159700017EC083F00001A9
:100538007FC084F0000180C085F0000181C086F092
:10054800040E06D00001D890863385338433833374
:10055800E82EF8D783C088F084C089F085C08AF077
:1005680086C08BF0000188510001886F0001896BFB
:1005780000018A6B00018B6B88C014FF070E000115
:100588007E150001886F000E00017F150001896F3C
:10059800000E0001801500018A6F000E0001811510
:1005A80000018B6F000188C083F0000189C084F0CE
:1005B80000018AC085F000018BC086F0050ED89036
:1005C80000018337843785378637E82EF8D783C00C
:1005D80088F084C089F085C08AF086C08BF088C016
:1005E80015FF0001876797D000018251F70AD8A448
:1005F80092D00F01018700017E510001886F000130
:10060800896B00018A6B00018B6B88C003FF000EA9
:1006180000017E150001886FFF0E00017F150001A3
:10062800896F000E0001801500018A6F000E00011D
:10063800811500018B6F000188C083F0000189C01B
:1006480084F000018AC085F000018BC086F084C068
:1006580083F085C084F086C085F00001866B83C076
:1006680088F084C089F085C08AF086C08BF088C085
:1006780002FF000180A103D00F01018102D00F0108
:100688000191000180A303D00F01018302D00F0163
:100698000193000180A503D00F01018B02D00F0147
:1006A800019B000180A703D00F01018D02D00F012B
:1006B800019D000180A903D00F01018F02D00F0115
:1006C800019F00017EC083F000017FC084F000011B
:1006D80080C085F0000181C086F0160E06D00001AA
:1006E800D8908633853384338333E82EF8D783C094
:1006F80088F084C089F085C08AF086C08BF000013C
:1007080088510001886F0001896B00018A6B000124
:100718008B6B88C000FF00018705D8A497D0000123
:100728008251F70AD8A492D00F01058700017E51A3
:100738000001886F0001896B00018A6B00018B6BD7
:1007480088C007FF000E00017E150001886FFF0EAC
:1007580000017F150001896F000E0001801500015E
:100768008A6F000E0001811500018B6F000188C09F
:1007780083F0000189C084F000018AC085F000017F
:100788008BC086F084C083F085C084F086C085F075
:100798000001866B83C088F084C089F085C08AF028
:1007A80086C08BF088C006FF000180A103D00F012E
:1007B800058102D00F010591000180A303D00F012C
:1007C800058302D00F010593000180A503D00F0116
:1007D800058B02D00F01059B000180A703D00F01F4
:1007E800058D02D00F01059D000180A903D00F01DE
:1007F800058F02D00F01059F00017EC083F0000124
:100808007FC084F0000180C085F0000181C086F0BF
:10081800160E06D00001D89086338533843383338F
:10082800E82EF8D783C088F084C089F085C08AF0A4
:1008380086C08BF0000188510001886F0001896B28
:1008480000018A6B00018B6B88C004FF000187518F
:10085800020AD8A497D000018251F70AD8A492D0EE
:100868000F01098700017E510001886F0001896B23
:1008780000018A6B00018B6B88C00BFF000E000122
:100888007E150001886FFF0E00017F150001896F3A
:10089800000E0001801500018A6F000E000181150D
:1008A80000018B6F000188C083F0000189C084F0CB
:1008B80000018AC085F000018BC086F084C083F0F7
:1008C80085C084F086C085F00001866B83C088F0FF
:1008D80084C089F085C08AF086C08BF088C00AFF82
:1008E800000180A103D00F01098102D00F010991F5
:1008F800000180A303D00F01098302D00F010993DF
:10090800000180A503D00F01098B02D00F01099BBC
:10091800000180A703D00F01098D02D00F01099DA6
:10092800000180A903D00F01098F02D00F01099F90
:1009380000017EC083F000017FC084F0000180C008
:1009480085F0000181C086F0160E06D00001D8900F
:100958008633853384338333E82EF8D783C088F011
:1009680084C089F085C08AF086C08BF00001885168
:100978000001886F0001896B00018A6B00018B6B95
:1009880088C008FF00018751030AD8A497D0000146
:100998008251F70AD8A492D00F010D8700017E5129
:1009A8000001886F0001896B00018A6B00018B6B65
:1009B80088C00FFF000E00017E150001886FFF0E32
:1009C80000017F150001896F000E000180150001EC
:1009D8008A6F000E0001811500018B6F000188C02D
:1009E80083F0000189C084F000018AC085F000010D
:1009F8008BC086F084C083F085C084F086C085F003
:100A08000001866B83C088F084C089F085C08AF0B5
:100A180086C08BF088C00EFF000180A103D00F01B3
:100A28000D8102D00F010D91000180A303D00F01A9
:100A38000D8302D00F010D93000180A503D00F0193
:100A48000D8B02D00F010D9B000180A703D00F0171
:100A58000D8D02D00F010D9D000180A903D00F015B
:100A68000D8F02D00F010D9F00017EC083F00001A1
:100A78007FC084F0000180C085F0000181C086F04D
:100A8800160E06D00001D89086338533843383331D
:100A9800E82EF8D783C088F084C089F085C08AF032
:100AA80086C08BF0000188510001886F0001896BB6
:100AB80000018A6B00018B6B88C00CFF0001875115
:100AC800040AD8A497D000018251F70AD8A492D07A
:100AD8000F01118700017E510001886F0001896BA9
:100AE80000018A6B00018B6B88C013FF000E0001A8
:100AF8007E150001886FFF0E00017F150001896FC8
:100B0800000E0001801500018A6F000E000181159A
:100B180000018B6F000188C083F0000189C084F058
:100B280000018AC085F000018BC086F084C083F084
:100B380085C084F086C085F00001866B83C088F08C
:100B480084C089F085C08AF086C08BF088C012FF07
:100B5800000180A103D00F01118102D00F01119172
:100B6800000180A303D00F01118302D00F0111935C
:100B7800000180A503D00F01118B02D00F01119B3A
:100B8800000180A703D00F01118D02D00F01119D24
:100B9800000180A903D00F01118F02D00F01119F0E
:100BA80000017EC083F000017FC084F0000180C096
:100BB80085F0000181C086F0160E06D00001D8909D
:100BC8008633853384338333E82EF8D783C088F09F
:100BD80084C089F085C08AF086C08BF000018851F6
:100BE8000001886F0001896B00018A6B00018B6B23
:100BF80088C010FF00018751050AD8A497D00001CA
:100C08008251F70AD8A492D00F01158700017E51AE
:100C18000001886F0001896B00018A6B00018B6BF2
:100C280088C017FF000E00017E150001886FFF0EB7
:100C380000017F150001896F000E00018015000179
:100C48008A6F000E0001811500018B6F000188C0BA
:100C580083F0000189C084F000018AC085F000019A
:100C68008BC086F084C083F085C084F086C085F090
:100C78000001866B83C088F084C089F085C08AF043
:100C880086C08BF088C016FF000180A103D00F0139
:100C9800158102D00F011591000180A303D00F0127
:100CA800158302D00F011593000180A503D00F0111
:100CB800158B02D00F01159B000180A703D00F01EF
:100CC800158D02D00F01159D000180A903D00F01D9
:100CD800158F02D00F01159F00017EC083F000011F
:100CE8007FC084F0000180C085F0000181C086F0DB
:100CF800160E06D00001D8908633853384338333AB
:100D0800E82EF8D783C088F084C089F085C08AF0BF
:100D180086C08BF0000188510001886F0001896B43
:100D280000018A6B00018B6B88C014FF12000F0151
:100D380040B766D184C045FF000185AD03D00F01DF
:100D4800458D02D00F01459D000185A787D0000180
:100D58007E5100018A6F00018B6B00018C6B0001D2
:100D68008D6B8AC044FF000E00017E1500018A6F5A
:100D7800FF0E00017F1500018B6F000E000180152A
:100D880000018C6F000E0001811500018D6F0001BC
:100D98008AC086F000018BC087F000018CC088F003
:100DA80000018DC089F087C086F088C087F089C0AF
:100DB80088F00001896B86C08AF087C08BF088C0F4
:100DC8008CF089C08DF08AC043FF000E0F01426F7E
:100DD8000F014287000180A102D00F01428100016A
:100DE80080A302D00F014283000180A502D00F0129
:100DF800428B000180A702D00F01428D000180A91B
:100E080002D00F01428F00017EC086F000017FC032
:100E180087F0000180C088F0000181C089F0160EBB
:100E280006D00001D8908933883387338633E82E7B
:100E3800F8D786C08AF087C08BF088C08CF089C04C
:100E48008DF000018A5100018A6F00018B6B00014F
:100E58008C6B00018D6B8AC041FF64D00F014297F3
:100E680000017EC086F000017FC087F0000180C0CD
:100E780088F0000181C089F0040E06D00001D890E6
:100E88008933883387338633E82EF8D786C08AF0CB
:100E980087C08BF088C08CF089C08DF000018A5122
:100EA80000018A6F00018B6B00018C6B00018D6B58
:100EB8008AC041FF070E00017E1500018A6F000EEF
:100EC80000017F1500018B6F000E000180150001E5
:100ED8008C6F000E0001811500018D6F00018AC022
:100EE80086F000018BC087F000018CC088F00001FB
:100EF8008DC089F0050ED89000018637873788376E
:100F08008937E82EF8D786C08AF087C08BF088C06A
:100F18008CF089C08DF00F0142511F0B0F01426FF9
:100F28008AC042FF000185A103D00F01408102D091
:100F38000F014091000185A303D00F01408302D027
:100F48000F01409382C0D9FF83C0DAFFDF500F0141
:100F5800466F000120EE01F000018251D926000100
:100F68008351DA22DF500F01476F000120EE02F0B3
:100F780000018251D92600018351DA22DF500F0186
:100F8800486F000120EE03F000018251D9260001CC
:100F98008351DA22DF500F01496F000120EE04F07F
:100FA80000018251D92600018351DA22DF500F0156
:100FB8004A6F000120EE05F000018251D926000198
:100FC8008351DA22DF500F014B6F000120EE06F04B
:100FD80000018251D92600018351DA22DF500F0126
:100FE8004C6F000120EE07F000018251D926000164
:100FF8008351DA22DF500F014D6F0F014087D1D2A4
:101008000F0130B766D184C035FF000185AD03D02C
:101018000F01358D02D00F01359D000185A787D0BE
:1010280000017E5100018A6F00018B6B00018C6BFF
:1010380000018D6B8AC034FF000E00017E1500018F
:101048008A6FFF0E00017F1500018B6F000E0001F3
:10105800801500018C6F000E0001811500018D6F55
:1010680000018AC086F000018BC087F000018CC0A7
:1010780088F000018DC089F087C086F088C087F0AD
:1010880089C088F00001896B86C08AF087C08BF020
:1010980088C08CF089C08DF08AC033FF000E0F0124
:1010A800326F0F013287000180A102D00F01328117
:1010B800000180A302D00F013283000180A502D075
:1010C8000F01328B000180A702D00F01328D000181
:1010D80080A902D00F01328F00017EC086F0000186
:1010E8007FC087F0000180C088F0000181C089F0CE
:1010F800160E06D00001D89089338833873386339B
:10110800E82EF8D786C08AF087C08BF088C08CF0AC
:1011180089C08DF000018A5100018A6F00018B6B34
:1011280000018C6B00018D6B8AC031FF64D00F0108
:10113800329700017EC086F000017FC087F0000171
:1011480080C088F0000181C089F0040E06D000013B
:10115800D8908933883387338633E82EF8D786C00A
:101168008AF087C08BF088C08CF089C08DF00001B0
:101178008A5100018A6F00018B6B00018C6B0001A2
:101188008D6B8AC031FF070E00017E1500018A6F42
:10119800000E00017F1500018B6F000E0001801505
:1011A80000018C6F000E0001811500018D6F000198
:1011B8008AC086F000018BC087F000018CC088F0DF
:1011C80000018DC089F0050ED89000018637873759
:1011D80088378937E82EF8D786C08AF087C08BF021
:1011E80088C08CF089C08DF00F0132511F0B0F01A0
:1011F800326F8AC032FF000185A103D00F01308110
:1012080002D00F013091000185A303D00F01308374
:1012180002D00F01309382C0D9FF83C0DAFFDF50BC
:101228000F01366F000120EE01F000018251D9262E
:1012380000018351DA22DF500F01376F000120EEE1
:1012480002F000018251D92600018351DA22DF50D1
:101258000F01386F000120EE03F000018251D926FA
:1012680000018351DA22DF500F01396F000120EEAF
:1012780004F000018251D92600018351DA22DF509F
:101288000F013A6F000120EE05F000018251D926C6
:1012980000018351DA22DF500F013B6F000120EE7D
:1012A80006F000018251D92600018351DA22DF506D
:1012B8000F013C6F000120EE07F000018251D92692
:1012C80000018351DA22DF500F013D6F0F01308793
:1012D80068D10F0120B765D184C025FF000185AD15
:1012E80003D00F01258D02D00F01259D000185A790
:1012F80087D000017E5100018A6F00018B6B0001CD
:101308008C6B00018D6B8AC024FF000E00017E15D6
:1013180000018A6FFF0E00017F1500018B6F000E20
:101328000001801500018C6F000E0001811500017D
:101338008D6F00018AC086F000018BC087F0000124
:101348008CC088F000018DC089F087C086F088C005
:1013580087F089C088F00001896B86C08AF087C051
:101368008BF088C08CF089C08DF08AC023FF000EF6
:101378000F01226F0F012287000180A102D00F0107
:101388002281000180A302D00F012283000180A5E1
:1013980002D00F01228B000180A702D00F01228DFD
:1013A800000180A902D00F01228F00017EC086F0C3
:1013B80000017FC087F0000180C088F0000181C073
:1013C80089F0160E06D00001D89089338833873308
:1013D8008633E82EF8D786C08AF087C08BF088C09D
:1013E8008CF089C08DF000018A5100018A6F0001DC
:1013F8008B6B00018C6B00018D6B8AC021FF64D060
:101408000F01229700017EC086F000017FC087F09F
:10141800000180C088F0000181C089F0040E06D068
:101428000001D8908933883387338633E82EF8D77C
:1014380086C08AF087C08BF088C08CF089C08DF098
:1014480000018A5100018A6F00018B6B00018C6BCF
:1014580000018D6B8AC021FF070E00017E15000177
:101468008A6F000E00017F1500018B6F000E0001CE
:10147800801500018C6F000E0001811500018D6F31
:1014880000018AC086F000018BC087F000018CC083
:1014980088F000018DC089F0050ED89000018637CC
:1014A800873788378937E82EF8D786C08AF087C00B
:1014B8008BF088C08CF089C08DF00F0122511F0B72
:1014C8000F01226F8AC022FF000185A103D00F01FE
:1014D800208102D00F012091000185A303D00F01C4
:1014E800208302D00F01209382C0D9FF83C0DAFF86
:1014F800DF500F01266F000120EE01F0000182513C
:10150800D92600018351DA22DF500F01276F00012D
:1015180020EE02F000018251D92600018351DA221F
:10152800DF500F01286F000120EE03F00001825107
:10153800D92600018351DA22DF500F01296F0001FB
:1015480020EE04F000018251D92600018351DA22ED
:10155800DF500F012A6F000120EE05F000018251D3
:10156800D92600018351DA22DF500F012B6F0001C9
:1015780020EE06F000018251D92600018351DA22BB
:10158800DF500F012C6F000120EE07F0000182519F
:10159800D92600018351DA22DF500F012D6F0F0188
:1015A80020871200000E0B6E74BE0B8074BC0B8279
:1015B8000F0150AF3BD101C0D9FF02C0DAFFDE6A8C
:1015C800DE6ADE6ADD6A20EE04F00150D926025098
:1015D800DA220F0156CFDFFF20EE05F00150D926A1
:1015E8000250DA220F0157CFDFFF20EE06F001503C
:1015F800D9260250DA220F0158CFDFFF20EE07F07C
:101608000150D9260250DA220F0159CFDFFF20EE10
:1016180008F00150D9260250DA220F015ACFDFFF15
:1016280020EE09F00150D9260250DA220F015BCFD3
:10163800DFFF20EE0AF00150D9260250DA220F010E
:101648005CCFDFFF20EE0BF00150D9260250DA22E2
:101658000F015DCFDFFF20EE0EF00150D9260250BA
:10166800DA220F0155AD02D0010E01D0000EDF6E57
:1016780020EE0DF00150D9260250DA220F01555103
:101688000F0BDF6E20EE0CF00150D9260250DA2243
:101698000F0152A702D0010E01D0000EDF6E0F011C
:1016A80052B749D00F0151CF03F0046A056A066AA0
:1016B800030ED8900336043605360636E82EF9D7D9
:1016C80001C0D9FF02C0DAFF03C0DEFF04C0DEFF9D
:1016D80005C0DEFF06C0DDFFD906D9060F01523965
:1016E800E842070B070B0C6E01C0D9FF02C0DAFFF6
:1016F800DECF03F0DECF04F0DECF05F0DECF06F05C
:101708000C500324076E000E0420086E000E0520FE
:10171800096E000E06200A6E01C0D9FF02C0DAFF6A
:1017280007C0DEFF08C0DEFF09C0DEFF0AC0DDFF1C
:10173800D906D90678D00F0154CF03F0046A056A98
:10174800066A01C0D9FF02C0DAFF03C0DEFF04C089
:10175800DEFF05C0DEFF06C0DDFFD906D9060F0192
:1017680053CF03F0046A056A066A05C006F004C090
:1017780005F003C004F0036A01C0D9FF02C0DAFF14
:101788000350DE260450DE220550DE220650DD22FC
:10179800DD52DD520F0152A106D001C0D9FF02C0AF
:1017A800DAFF020EDB800F0152A306D001C0D9FF79
:1017B80002C0DAFF020EDB820F0152AB06D001C075
:1017C800D9FF02C0DAFF020EDB840F0152AD06D04A
:1017D80001C0D9FF02C0DAFF020EDB860F0152AF4B
:1017E80006D001C0D9FF02C0DAFF020EDB880F0164
:1017F80051CF03F0046A056A066A150ED8900336BD
:10180800043605360636E82EF9D701C0D9FF02C0DE
:10181800DAFF0350DE120450DE120550DE120650C5
:10182800DD12DD52DD520F01509F25D160AE23D16C
:1018380001C0D9FF02C0DAFFDE6ADE6ADE6ADD6A4D
:1018480020EE04F00150D9260250DA2266CFDFFFDD
:1018580020EE05F00150D9260250DA2267CFDFFFCB
:1018680020EE06F00150D9260250DA2268CFDFFFB9
:1018780020EE07F00150D9260250DA2269CFDFFFA7
:1018880020EE08F00150D9260250DA226ACFDFFF95
:1018980020EE09F00150D9260250DA226BCFDFFF83
:1018A80020EE0AF00150D9260250DA226CCFDFFF71
:1018B80020EE0BF00150D9260250DA226DCFDFFF5F
:1018C80020EE0EF00150D9260250DA2265AC02D083
:1018D800010E01D0000EDF6E20EE0DF00150D9266A
:1018E8000250DA2265500F0BDF6E20EE0CF001502B
:1018F800D9260250DA2262A602D0010E01D0000ECB
:10190800DF6E62B647D061CF03F0046A056A066AE3
:10191800030ED8900336043605360636E82EF9D776
:1019280001C0D9FF02C0DAFF03C0DEFF04C0DEFF3A
:1019380005C0DEFF06C0DDFFD906D9066238E842D9
:10194800070B070B0C6E01C0D9FF02C0DAFFDECF10
:1019580003F0DECF04F0DECF05F0DECF06F00C504A
:101968000324076E000E0420086E000E0520096E81
:10197800000E06200A6E01C0D9FF02C0DAFF07C0B8
:10198800DEFF08C0DEFF09C0DEFF0AC0DDFFD906A2
:10199800D90670D064CF03F0046A056A066A01C0EC
:1019A800D9FF02C0DAFF03C0DEFF04C0DEFF05C0B6
:1019B800DEFF06C0DDFFD906D90663CF03F0046A4F
:1019C800056A066A05C006F004C005F003C004F005
:1019D800036A01C0D9FF02C0DAFF0350DE260450B3
:1019E800DE220550DE220650DD22DD52DD5262A0E5
:1019F80006D001C0D9FF02C0DAFF020EDB8062A266
:101A080006D001C0D9FF02C0DAFF020EDB8262AA4B
:101A180006D001C0D9FF02C0DAFF020EDB8462AC37
:101A280006D001C0D9FF02C0DAFF020EDB8662AE23
:101A380006D001C0D9FF02C0DAFF020EDB8861CFF1
:101A480003F0046A056A066A150ED8900336043650
:101A580005360636E82EF9D701C0D9FF02C0DAFFED
:101A68000350DE120450DE120550DE120650DD125D
:101A7800DD52DD52609E12000001876F000187056C
:101A8800D8A461D000018229D8A45DD000017EC00D
:101A980083F000017FC084F0000180C085F0000160
:101AA80081C086F0040E06D00001D89086338533B5
:101AB80084338333E82EF8D783C088F084C089F054
:101AC80085C08AF086C08BF0000188510001886FBC
:101AD8000001896B00018A6B00018B6B88C018FFBD
:101AE800070E00017E150001886F000E00017F15AA
:101AF8000001896F000E0001801500018A6F000E39
:101B08000001811500018B6F000188C083F000017E
:101B180089C084F000018AC085F000018BC086F07E
:101B2800050ED89000018337843785378637E82E2D
:101B3800F8D783C088F084C089F085C08AF086C051
:101B48008BF088C019FF00018751020AD8A461D020
:101B580000018229D8A45DD000017EC083F0000175
:101B68007FC084F0000180C085F0000181C086F04C
:101B7800040E06D00001D89086338533843383332E
:101B8800E82EF8D783C088F084C089F085C08AF031
:101B980086C08BF0000188510001886F0001896BB5
:101BA80000018A6B00018B6B88C01CFF070E0001C7
:101BB8007E150001886F000E00017F150001896FF6
:101BC800000E0001801500018A6F000E00018115CA
:101BD80000018B6F000188C083F0000189C084F088
:101BE80000018AC085F000018BC086F0050ED890F0
:101BF80000018337843785378637E82EF8D783C0C6
:101C080088F084C089F085C08AF086C08BF088C0CF
:101C18001DFF00018705D8A495D000018251F70A5D
:101C2800D8A490D000017E510001886F0001896B13
:101C380000018A6B00018B6B88C01BFF000E00013E
:101C48007E150001886FFF0E00017F150001896F66
:101C5800000E0001801500018A6F000E0001811539
:101C680000018B6F000188C083F0000189C084F0F7
:101C780000018AC085F000018BC086F084C083F023
:101C880085C084F086C085F00001866B83C088F02B
:101C980084C089F085C08AF086C08BF088C01AFF9E
:101CA800000180A103D00F01198102D00F01199101
:101CB800000180A303D00F01198302D00F011993EB
:101CC800000180A503D00F01198B02D00F01199BC9
:101CD800000180A703D00F01198D02D00F01199DB3
:101CE800000180A903D00F01198F02D00F01199F9D
:101CF80000017EC083F000017FC084F0000180C035
:101D080085F0000181C086F0160E06D00001D8903B
:101D18008633853384338333E82EF8D783C088F03D
:101D280084C089F085C08AF086C08BF00001885194
:101D38000001886F0001896B00018A6B00018B6BC1
:101D480088C018FF00018751020AD8A495D0000165
:101D58008251F70AD8A490D000017E510001886F03
:101D68000001896B00018A6B00018B6B88C01FFF23
:101D7800000E00017E150001886FFF0E00017F151F
:101D88000001896F000E0001801500018A6F000EA6
:101D98000001811500018B6F000188C083F00001EC
:101DA80089C084F000018AC085F000018BC086F0EC
:101DB80084C083F085C084F086C085F00001866BFE
:101DC80083C088F084C089F085C08AF086C08BF013
:101DD80088C01EFF000180A103D00F011D8102D021
:101DE8000F011D91000180A303D00F011D8302D0B4
:101DF8000F011D93000180A503D00F011D8B02D098
:101E08000F011D9B000180A703D00F011D8D02D07B
:101E18000F011D9D000180A903D00F011D8F02D065
:101E28000F011D9F00017EC083F000017FC084F078
:101E3800000180C085F0000181C086F0160E06D032
:101E48000001D8908633853384338333E82EF8D75E
:101E580083C088F084C089F085C08AF086C08BF082
:101E6800000188510001886F0001896B00018A6BAD
:101E780000018B6B88C01CFF12000600EACF73F0CC
:101E8800E1CF74F0E2CF75F0D9CF76F0DACF77F002
:101E9800F3CF78F0F4CF79F0F6CF7AF0F7CF7BF084
:101EA800F8CF7CF0F5CF7DF0F2A4A4D082A09BD02F
:101EB800400E0001686F060E696F40C01EF01F6A71
:101EC800050E216E780E206E6CEC15F01EC060F0C9
:101ED8001FC061F0000E0001636FB40E0001626F55
:101EE800B6EC13F0D89000016037000161370001AB
:101EF8006851000160270001695100016123000158
:101F080060C029F0000161C02AF0000E2ABEFF0E51
:101F18002B6E2C6E29C068F02AC069F02BC06AF0BD
:101F28002CC06BF00001681F691F6A1F6B1F682BAC
:101F3800000E69236A236B23400E00016825000107
:101F48006C6F9C0E0001692100016D6F000E00018D
:101F58006A2100016E6F000E00016B2100016F6F96
:101F680000016C1F6D1F6E1F6F1F6C2B000E6D2301
:101F78006E236F23000E00016C25256E000E0001F4
:101F88006D21266E010E00016E21276E000E0001E4
:101F98006F21286E29C068F02AC069F02BC06AF04A
:101FA8002CC06BF00001681F691F6A1F6B1F682B2C
:101FB800000E69236A236B23000E00016825296E31
:101FC800000E000169212A6E010E00016A212B6EA4
:101FD800000E00016B212C6E29C01EF02AC01FF0D4
:101FE800A7EC15F006D025C01EF026C01FF0A7EC00
:101FF80015F0F294F2A239D0000141BE07D0000ECC
:10200800CF6E000ECE6E0001418E2DD0CF50000154
:10201800696F686BCE50000168252D6E000E0001B7
:1020280069212E6E2DC01EF02EC01FF0010E216EEC
:10203800F40E206EC6EC14F01EC02DF01FC02EF05A
:1020480000014180000ECF6E000ECF6E000141AA44
:102058000AD0010E00019927000E00019A23000101
:102068009B2300019C23F2928272F0A038D00001D9
:1020780042B007D0000EB36E000EB26E000142806F
:102088002DD0B3500001696F686BB250000168250C
:102098002F6E000E00016921306E2FC01EF030C077
:1020A8001FF0010E216EF40E206EC6EC14F01EC057
:1020B8002FF01FC030F000014182000EB36E000EF9
:1020C800B36E000141AA0AD0010E00019D27000E3F
:1020D80000019E2300019F230001A023F0907DC0F2
:1020E800F5FF7CC0F8FF7BC0F7FF7AC0F6FF79C028
:1020F800F4FF78C0F3FF77C0DAFF76C0D9FF75C068
:10210800E2FF74C0E1FF73C0EAFF72C0E9FF71C06B
:10211800FBFF70C0FAFF11000001956F800E91EC73
:1021280015F0000E706E000E716E000E726E0001DA
:102138008E41E842C00B00018E6F00018E51701273
:1021480000018F51701200019551711200018C39F4
:10215800E842F80B00018C6F00018C5171120001EC
:1021680090A5718C000190B1718E00018D51721291
:10217800000190B3728C00019051600B606E90C0AA
:1021880091F0100E0001911700019151FF0AD8B487
:10219800608460CF50FF000E00017E6F000E0001CA
:1021A8007F6F000E0001806F000E0001816FF70E37
:1021B8000001826F010E40EC0DF0000E00017E6FF1
:1021C800000E00017F6F000E0001806F000E0001FD
:1021D800816FF70E0001826F020E40EC0DF00FD0F8
:1021E800F70E0001966F07D0000196690001976904
:1021F80027D000019669F70E0001976F21D09F0E36
:102208000001916FFF0E926F00019051600B000169
:10221800936F946B00019151000193130001925147
:102228000001941300019451000AD8A4E2D70001D8
:102238009351BF0AD8B4D8D7600AD8B4D1D7D9D760
:10224800000E00017E6F000E00017F6F000E00017E
:10225800806F000E0001816F96C082F0000E86EC40
:1022680000F0000E00017E6F000E00017F6F000E6F
:102278000001806F000E0001816F96C082F0010E90
:1022880086EC00F0000E00017E6F000E00017F6FEB
:10229800000E0001806F000E0001816F97C082F070
:1022A800020E86EC00F0000E00017E6F000E0001A9
:1022B8007F6F000E0001806F000E0001816F97C0D4
:1022C80082F0030E86EC00F0000E00017E6F000E17
:1022D80000017F6F000E0001806F000E0001816F0A
:1022E80097C082F0040E86EC00F0000E00017E6FAD
:1022F800000E00017F6F000E0001806F000E0001CC
:10230800816F97C082F0050E86EC00F0000E91EC0C
:1023180015F0120027EC14F0CC0E0001BA6F808281
:102328008282010E0001856FF40E0001846F32EC89
:1023380015F080928292000E0001856F640E0001F4
:10234800846F32EC15F012EC15F0B0EC15F00001CA
:10235800986F00019805D8B408D0B6EC15F00001C4
:10236800986F00019805D8A402D0808201D080928D
:10237800000141BC03D0000141A804D00001419CE8
:1023880073EC12F00001B5671DD00001B66703D0E9
:10239800000E0001B76F0001B605D8A403D0960E51
:1023A8000001B76F0001B6510A0AD8A403D0C80EBD
:1023B8000001B76F0001B6510B0AD8A405D000017F
:1023C800B76902D0B6C0B7F00001B7C07EF000010F
:1023D8007F6B000E0001816F110E0001806F45ECCC
:1023E80013F000017E510001B8250001CB6F0001F8
:1023F800CB51B40DF3CF7EF0F4CF7FF0000E000187
:10240800816F0001806945EC13F000017E51406E38
:10241800000141B003D0000141A42DD0000141A426
:102428000FD0000E0001A56F000E0001A66F000E70
:102438000001A76F000E0001A86F0001419417D09A
:102448000001BA510A0DF3CF7EF0F4CF7FF02DC012
:1024580080F02EC081F08AEC14F000017EC0A5F057
:1024680000017FC0A6F00001A76B0001A86BA5C002
:10247800C4F000014190000141B203D0000141A61F
:1024880062D7000141A60FD0000E0001A96F000E0F
:102498000001AA6F000E0001AB6F000E0001AC6FC7
:1024A8000001419617D00001BA510A0DF3CF7EF012
:1024B800F4CF7FF02FC080F030C081F08AEC14F0A8
:1024C80000017EC0A9F000017FC0AAF00001AB6B3B
:1024D8000001AC6BA9C0C3F00001419234D77FEC76
:1024E80015F00009D8B4CAD00001A151020AA211FE
:1024F800A311A411D8A418D0A1C07EF0A2C07FF067
:10250800A3C080F0A4C081F00001000E0001836F19
:102518000001CD0E0001826F080E0001846FBC0E11
:102528000001856F9BEC06F00001A151060AA2117B
:10253800A311A411D8A419D08270A1C07EF0A2C0A2
:102548007FF0A3C080F0A4C081F00001000E00015C
:10255800836F0001C30E0001826F080E0001846FB3
:10256800BC0E0001856F9BEC06F00001A151080A22
:10257800A211A311A411D8A41AD0000E0001996FBA
:10258800000E00019A6F000E00019B6F000E000103
:102598009C6F000E00019D6F000E00019E6F000EE3
:1025A80000019F6F000E0001A06F0001418A000129
:1025B800A151070AA211A311A411D8A456D0000151
:1025C800BAC07EF000017F6B99C080F09AC081F09C
:1025D80051EC15F000017EC0B1F000017FC0B2F0EF
:1025E8000001BAC07EF000017F6B9DC080F09EC0E4
:1025F80081F051EC15F000017EC0B3F000017FC0FE
:10260800B4F00001419AB1C0BBF00001B2C08EF035
:102618008EC08FF00001906B00018F510001BC6FDC
:10262800B3C0BDF00001B4C08EF08EC08FF00001C1
:10263800906B00018F510001BE6FA1C07EF0A2C057
:102648007FF0A3C080F0A4C081F00001000E00015B
:10265800836F0001BB0E0001826F080E0001846FBA
:10266800BC0E0001856F9BEC06F00F0140BD06D043
:102678000F0130BD03D00001419802D0000141880C
:102688001200000E0001836F00018151800AF36E71
:10269800800EF35C000ED8B4805DD8B009D000017C
:1026A800806D0001811FD8B0812B010E0001836F5E
:1026B80000017F51800AF36E800EF35C000ED8B4DF
:1026C8007E5DD8B009D000017E6D00017F1FD8B0B3
:1026D8007F2B010E0001831B000E0001856F000E89
:1026E8000001846F000181518011D8B42CD0010EF3
:1026F8000001826F06D00001D89080378137000131
:10270800822B000181AFF7D70001D8908437853735
:102718000001805100017E5D0001815100017F5957
:10272800D8A00AD00001805100017E5F00018151CC
:1027380000017F5B000184810001D89081338033E0
:102748000001822FE1D700018351D8B406D00001DF
:10275800846D0001851FD8B0852B84C07EF085C0AC
:102768007FF01200000E0001656F00016351800ABE
:10277800F36E800EF35C000ED8B4625DD8B009D059
:102788000001626D0001631FD8B0632B010E0001C8
:10279800656F00016151800AF36E800EF35C000ED4
:1027A800D8B4605DD8B009D00001606D0001611F28
:1027B800D8B0612B010E0001651B000E0001676F88
:1027C800000E0001666F000163516211D8B42CD06D
:1027D800010E0001646F06D00001D890623763379C
:1027E8000001642B000163AFF7D70001D89066376A
:1027F8006737000162510001605D0001635100010B
:102808006159D8A00AD0000162510001605F00013F
:1028180063510001615B000166810001D890633358
:1028280062330001642FE1D700016551D8B406D0A6
:102838000001666D0001671FD8B0672B66C060F0A5
:1028480067C061F01200000E896EFD0E926E000ED8
:102858008A6E9368000E8B6EFC0E946E000E8C6E62
:102868009568000E8D6E9668100EC16E060E0001FA
:102878008C6F050E00018D6F010E00018E6F030E27
:1028880000018F6F9D0E0001906F040E90EC10F008
:10289800A492A490F2949E90A192F292F090D08E7D
:1028A800A592A590F184F08C9F90A292800ED56E8F
:1028B800D768FE0ED66E82905A0E406E000ECD6E10
:1028C800000EB16EF18CF18A770EC16EC298C29675
:1028D800C294C08AC088C096C084C092C080C09E7E
:1028E800C280A382A380F28A9D80A082F288F086AB
:1028F800F28EF28CCD80B180D58E000E0001856FEE
:10290800020E0001846F32EC15F01200000E000177
:10291800836F000E0001826F000181518011D8B4CD
:102928002CD0010E0001846F06D00001D8908037AA
:1029380081370001842B000181AFF7D70001D890BF
:10294800823783370001805100017E5D000181518B
:1029580000017F59D8A00AD00001805100017E5F94
:102968000001815100017F5B000182810001D89044
:10297800813380330001842FE1D782C07EF083C089
:102988007FF01200000E236E000E226E21502010E0
:10299800D8B41CD0010E246E04D0D890203621362D
:1029A800242A21AEFAD7D8902236233620501E5C2E
:1029B80021501F58D8A005D020501E5E21501F5A04
:1029C8002280D89021322032242EEDD722C01EF04A
:1029D80023C01FF0120000EE99F0330EEE6AE806ED
:1029E800FDE1426A416A00EE25F01C0EEE6AE80637
:1029F800FDE1780EF66E2B0EF76E000EF86E00EE07
:102A0800CCF010EE09F00900F5CFEEFFE550E150EB
:102A1800FAE1000EF86E00018EEF11F0C282C2B228
:102A2800FED7C4CFB9F0810E0001B9250001AF6F00
:102A38000001B06BFF0EB023AFC07EF0B0C07FF0D6
:102A4800000E0001816F040E0001806F45EC13F049
:102A580000017E517F0F0001B86F12000001CCC049
:102A68007EF000017F6B84C080F085C081F051EC5E
:102A780015F000017EC0ADF000017FC0AEF007D0B8
:102A8800500EE82EFED70001AD07D8A0AE07000112
:102A9800AE51AD11D8B41200F3D700017E51000138
:102AA8008003F3CF82F0F4CF83F000017E51000160
:102AB8008103F3500001832700017F510001800347
:102AC800F3500001832782C07EF083C07FF012009C
:102AD8001E502002F3CF22F0F4CF23F01E50210223
:102AE800F35023261F502002F350232622C01EF045
:102AF80023C01FF01200010E00017E6F0F0140A7D6
:102B080009D00F0130A706D00F0120A703D0000E6F
:102B180000017E6F00017E51120000017E6F7EC0B1
:102B28006FFF6E50E00B00017E19D8B41200F9D780
:102B3800010E016E60BE05D00F0150BF02D0000E1D
:102B4800016E015012001EC020F01FC021F021C0EC
:102B5800D7FF20C0D6FF120074A402D0010E01D006
:102B6800000E120074A202D0010E01D0000E120055
:0A2B78001000000000000000010042
:020000040020DA
:08000000FFFFFFFFFFFFFFFF00
:020000040030CA
:0E000000FF021F1EFF8285FF0FC00FE00F40A2
:00000001FF
