:04000000C7EF00F056
:10000800FACFBFF0FBCFC0F0E9CFC1F020ED10F080
:10001800D8CF37F0E8CF38F0E0CF39F0FACF3AF060
:10002800FBCF3BF0E9CF3CF0EACF3DF0E1CF3EF02B
:10003800E2CF3FF0D9CF40F0DACF41F0F3CF42F032
:10004800F4CF43F0F6CF44F0F7CF45F0F8CF46F0C1
:10005800F5CF47F0A4B002D0A4A260D08EEC16F081
:100068000009D8B458D0820E2A6E000E2B6E2EECE2
:100078000AF000019005D8A40AD082C001F083C01C
:1000880002F084C003F085C004F0498000D0070E58
:1000980000018219000183110001841100018511FA
:1000A800D8A408D0590E0001866502D0498202D032
:1000B800499200D0060E0001821900018311000147
:1000C800841100018511D8A405D086C024F087C00A
:1000D80023F000D00F0E00018219000183110001E6
:1000E800841100018511D8A416D027C02AF0000178
:1000F800865114EC16F0366E36501D6E1E6A000ED0
:100108001A6E000E196E000E1C6E000E1B6E489CB7
:10011800488E809200D0A490A49200D09EA007D0D0
:100128004884000ECF6E000ECE6E9E9000D0A1A225
:1001380007D04886000EB36E000EB26EA19200D0B2
:1001480047C0F5FF46C0F8FF45C0F7FF44C0F6FFBB
:1001580043C0F4FF42C0F3FF41C0DAFF40C0D9FFFB
:100168003FC0E2FF3EC0E1FF3DC0EAFF3CC0E9FFFF
:100178003BC0FBFF3AC0FAFF39C0E0FF38C0E8FFD8
:1001880037C0D8FF1000E8EF15F00101046F010136
:1001980004510101D8A459D00001D129D8A455D0BF
:1001A8000F010197CDC000F1CEC001F1CFC002F11F
:1001B800D0C003F1040E06D00101D89003330233F6
:1001C80001330033E82EF8D700C105F101C106F16B
:1001D80002C107F103C108F1010105510101056FD1
:1001E800066B076B086B05C100FF070E0001CD15F4
:1001F8000101056F000E0001CE150101066F000E0A
:100208000001CF150101076F000E0001D015010193
:10021800086F05C100F106C101F107C102F108C16B
:1002280003F1050ED8900101003701370237033773
:10023800E82EF8D700C105F101C106F102C107F1A6
:1002480003C108F105C101FF00D001010405D8A4CC
:1002580059D00001D129D8A455D00F010597CDC098
:1002680000F1CEC001F1CFC002F1D0C003F1040EFD
:1002780006D00101D8900333023301330033E82E4E
:10028800F8D700C105F101C106F102C107F103C1A8
:1002980008F1010105510101056F066B076B086B39
:1002A80005C104FF070E0001CD150101056F000E01
:1002B8000001CE150101066F000E0001CF150101E6
:1002C800076F000E0001D0150101086F05C100F18C
:1002D80006C101F107C102F108C103F1050ED8906A
:1002E80001010037013702370337E82EF8D700C17C
:1002F80005F101C106F102C107F103C108F105C109
:1003080005FF00D0020E01010419D8A459D000013C
:10031800D129D8A455D00F010997CDC000F1CEC07E
:1003280001F1CFC002F1D0C003F1040E06D00101E3
:10033800D8900333023301330033E82EF8D700C1D5
:1003480005F101C106F102C107F103C108F101017C
:1003580005510101056F066B076B086B05C108FFA6
:10036800070E0001CD150101056F000E0001CE1525
:100378000101066F000E0001CF150101076F000E85
:100388000001D0150101086F05C100F106C101F196
:1003980007C102F108C103F1050ED8900101003729
:1003A800013702370337E82EF8D700C105F101C13C
:1003B80006F102C107F103C108F105C109FF00D028
:1003C800030E01010419D8A459D00001D129D8A4D9
:1003D80055D00F010D97CDC000F1CEC001F1CFC0AF
:1003E80002F1D0C003F1040E06D00101D890033306
:1003F800023301330033E82EF8D700C105F101C1FB
:1004080006F102C107F103C108F10101055101011B
:10041800056F066B076B086B05C10CFF070E000123
:10042800CD150101056F000E0001CE150101066F03
:10043800000E0001CF150101076F000E0001D01555
:100448000101086F05C100F106C101F107C102F100
:1004580008C103F1050ED8900101003701370237B2
:100468000337E82EF8D700C105F101C106F102C132
:1004780007F103C108F105C10DFF00D0040E010109
:100488000419D8A459D00001D129D8A455D00F01F6
:100498001197CDC000F1CEC001F1CFC002F1D0C09C
:1004A80003F1040E06D00101D8900333023301335F
:1004B8000033E82EF8D700C105F101C106F102C1E9
:1004C80007F103C108F1010105510101056F066B30
:1004D800076B086B05C110FF070E0001CD15010160
:1004E800056F000E0001CE150101066F000E000118
:1004F800CF150101076F000E0001D0150101086F2B
:1005080005C100F106C101F107C102F108C103F1FB
:10051800050ED89001010037013702370337E82E5E
:10052800F8D700C105F101C106F102C107F103C105
:1005380008F105C111FF00D0050E01010419D8A466
:1005480059D00001D129D8A455D00F011597CDC095
:1005580000F1CEC001F1CFC002F1D0C003F1040E0A
:1005680006D00101D8900333023301330033E82E5B
:10057800F8D700C105F101C106F102C107F103C1B5
:1005880008F1010105510101056F066B076B086B46
:1005980005C114FF070E0001CD150101056F000EFE
:1005A8000001CE150101066F000E0001CF150101F3
:1005B800076F000E0001D0150101086F05C100F199
:1005C80006C101F107C102F108C103F1050ED89077
:1005D80001010037013702370337E82EF8D700C189
:1005E80005F101C106F102C107F103C108F105C116
:1005F80015FF00D0010104510101D8A48BD0F70EDA
:100608000001D119D8A486D00F0101870001CD516E
:100618000101056F066B076B086B05C103FF000E30
:100628000001CD150101056FFF0E0001CE15010176
:10063800066F000E0001CF150101076F000E0001C3
:10064800D0150101086F05C100F106C101F107C10C
:1006580002F108C103F101C100F102C101F103C1B6
:1006680002F10101036B00C105F101C106F102C1EC
:1006780007F103C108F105C102FF0001CFA103D0B2
:100688000F01018102D00F0101910001CFA303D016
:100698000F01018302D00F0101930001CFA503D000
:1006A8000F01018B02D00F01019B0001CFA703D0DE
:1006B8000F01018D02D00F01019D0001CFA903D0C8
:1006C8000F01018F03D00F01019F00D0CDC000F1B1
:1006D800CEC001F1CFC002F1D0C003F1160E06D092
:1006E8000101D8900333023301330033E82EF8D7E1
:1006F80000C105F101C106F102C107F103C108F10A
:10070800010105510101056F066B076B086B05C1F7
:1007180000FF00D001010405D8A48BD0F70E00011A
:10072800D119D8A486D00F0105870001CD51010148
:10073800056F066B076B086B05C107FF000E00010C
:10074800CD150101056FFF0E0001CE150101066FE1
:10075800000E0001CF150101076F000E0001D01532
:100768000101086F05C100F106C101F107C102F1DD
:1007780008C103F101C100F102C101F103C102F195
:100788000101036B00C105F101C106F102C107F1C6
:1007980003C108F105C106FF0001CFA103D00F0175
:1007A800058102D00F0105910001CFA303D00F01ED
:1007B800058302D00F0105930001CFA503D00F01D7
:1007C800058B02D00F01059B0001CFA703D00F01B5
:1007D800058D02D00F01059D0001CFA903D00F019F
:1007E800058F03D00F01059F00D0CDC000F1CEC00A
:1007F80001F1CFC002F1D0C003F1160E06D00101FD
:10080800D8900333023301330033E82EF8D700C100
:1008180005F101C106F102C107F103C108F10101A7
:1008280005510101056F066B076B086B05C104FFD5
:1008380000D0020E01010419D8A48BD0F70E0001D4
:10084800D119D8A486D00F0109870001CD51010123
:10085800056F066B076B086B05C10BFF000E0001E7
:10086800CD150101056FFF0E0001CE150101066FC0
:10087800000E0001CF150101076F000E0001D01511
:100888000101086F05C100F106C101F107C102F1BC
:1008980008C103F101C100F102C101F103C102F174
:1008A8000101036B00C105F101C106F102C107F1A5
:1008B80003C108F105C10AFF0001CFA103D00F0150
:1008C800098102D00F0109910001CFA303D00F01C4
:1008D800098302D00F0109930001CFA503D00F01AE
:1008E800098B02D00F01099B0001CFA703D00F018C
:1008F800098D02D00F01099D0001CFA903D00F0176
:10090800098F03D00F01099F00D0CDC000F1CEC0E0
:1009180001F1CFC002F1D0C003F1160E06D00101DB
:10092800D8900333023301330033E82EF8D700C1DF
:1009380005F101C106F102C107F103C108F1010186
:1009480005510101056F066B076B086B05C108FFB0
:1009580000D0030E01010419D8A48BD0F70E0001B2
:10096800D119D8A486D00F010D870001CD510101FE
:10097800056F066B076B086B05C10FFF000E0001C2
:10098800CD150101056FFF0E0001CE150101066F9F
:10099800000E0001CF150101076F000E0001D015F0
:1009A8000101086F05C100F106C101F107C102F19B
:1009B80008C103F101C100F102C101F103C102F153
:1009C8000101036B00C105F101C106F102C107F184
:1009D80003C108F105C10EFF0001CFA103D00F012B
:1009E8000D8102D00F010D910001CFA303D00F019B
:1009F8000D8302D00F010D930001CFA503D00F0185
:100A08000D8B02D00F010D9B0001CFA703D00F0162
:100A18000D8D02D00F010D9D0001CFA903D00F014C
:100A28000D8F03D00F010D9F00D0CDC000F1CEC0B7
:100A380001F1CFC002F1D0C003F1160E06D00101BA
:100A4800D8900333023301330033E82EF8D700C1BE
:100A580005F101C106F102C107F103C108F1010165
:100A680005510101056F066B076B086B05C10CFF8B
:100A780000D0040E01010419D8A48BD0F70E000190
:100A8800D119D8A486D00F0111870001CD510101D9
:100A9800056F066B076B086B05C113FF000E00019D
:100AA800CD150101056FFF0E0001CE150101066F7E
:100AB800000E0001CF150101076F000E0001D015CF
:100AC8000101086F05C100F106C101F107C102F17A
:100AD80008C103F101C100F102C101F103C102F132
:100AE8000101036B00C105F101C106F102C107F163
:100AF80003C108F105C112FF0001CFA103D00F0106
:100B0800118102D00F0111910001CFA303D00F0171
:100B1800118302D00F0111930001CFA503D00F015B
:100B2800118B02D00F01119B0001CFA703D00F0139
:100B3800118D02D00F01119D0001CFA903D00F0123
:100B4800118F03D00F01119F00D0CDC000F1CEC08E
:100B580001F1CFC002F1D0C003F1160E06D0010199
:100B6800D8900333023301330033E82EF8D700C19D
:100B780005F101C106F102C107F103C108F1010144
:100B880005510101056F066B076B086B05C110FF66
:100B980000D0050E01010419D8A48BD0F70E00016E
:100BA800D119D8A486D00F0115870001CD510101B4
:100BB800056F066B076B086B05C117FF000E000178
:100BC800CD150101056FFF0E0001CE150101066F5D
:100BD800000E0001CF150101076F000E0001D015AE
:100BE8000101086F05C100F106C101F107C102F159
:100BF80008C103F101C100F102C101F103C102F111
:100C08000101036B00C105F101C106F102C107F141
:100C180003C108F105C116FF0001CFA103D00F01E0
:100C2800158102D00F0115910001CFA303D00F0148
:100C3800158302D00F0115930001CFA503D00F0132
:100C4800158B02D00F01159B0001CFA703D00F0110
:100C5800158D02D00F01159D0001CFA903D00F01FA
:100C6800158F03D00F01159F00D0CDC000F1CEC065
:100C780001F1CFC002F1D0C003F1160E06D0010178
:100C8800D8900333023301330033E82EF8D700C17C
:100C980005F101C106F102C107F103C108F1010123
:100CA80005510101056F066B076B086B05C114FF41
:100CB80000D012000F0140B742D106C145FF010123
:100CC80007AD03D00F01458D02D00F01459D0101ED
:100CD80007A77AD0010100510101086F096B0A6B5F
:100CE8000B6B08C144FF000E010100150101086FDC
:100CF800FF0E010101150101096F000E0101021526
:100D080001010A6F000E0101031501010B6F08C1F3
:100D1800CDF009C1CEF00AC1CFF00BC1D0F0CEC0E2
:100D2800CDF0CFC0CEF0D0C0CFF00001D06BCDC099
:100D380008F1CEC009F1CFC00AF1D0C00BF108C14B
:100D480043FF000E0F01426F0F014287010102A10C
:100D580002D00F014281010102A302D00F01428398
:100D6800010102A502D00F01428B010102A702D0A6
:100D78000F01428D010102A903D00F01428F00D05B
:100D880000C1CDF001C1CEF002C1CFF003C1D0F057
:100D9800160E06D00001D890D033CF33CE33CD33E2
:100DA800E82EF8D7CDC008F1CEC009F1CFC00AF1BE
:100DB800D0C00BF1010108510101086F096B0A6BE2
:100DC8000B6B08C141FF5AD00F01429700C1CDF00B
:100DD80001C1CEF002C1CFF003C1D0F0040E06D09D
:100DE8000001D890D033CF33CE33CD33E82EF8D7A7
:100DF800CDC008F1CEC009F1CFC00AF1D0C00BF1C7
:100E0800010108510101086F096B0A6B0B6B08C1DE
:100E180041FF070E010100150101086F000E0101D5
:100E280001150101096F000E0101021501010A6F88
:100E3800000E0101031501010B6F08C1CDF009C1B6
:100E4800CEF00AC1CFF00BC1D0F0050ED89000014A
:100E5800CD37CE37CF37D037E82EF8D7CDC008F109
:100E6800CEC009F1CFC00AF1D0C00BF10F01425139
:100E78001F0B0F01426F08C142FF00D0010107A1FB
:100E880003D00F01408102D00F014091010107A357
:100E980003D00F01408303D00F01409300D004C159
:100EA800D9FF05C1DAFFDF500F01466F010120EEBF
:100EB80001F00451D9260551DA22DF500F01476F9E
:100EC800010120EE02F00451D9260551DA22DF5043
:100ED8000F01486F010120EE03F00451D926055196
:100EE800DA22DF500F01496F010120EE04F00451AE
:100EF800D9260551DA22DF500F014A6F010120EE91
:100F080005F00451D9260551DA22DF500F014B6F45
:100F1800010120EE06F00451D9260551DA22DF50EE
:100F28000F014C6F010120EE07F00451D92605513D
:100F3800DA22DF500F014D6F0F0140878AD20F016F
:100F480030B742D106C135FF010107AD03D00F010B
:100F5800358D02D00F01359D010107A77AD0010117
:100F680000510101086F096B0A6B0B6B08C134FF54
:100F7800000E010100150101086FFF0E01010115A6
:100F88000101096F000E0101021501010A6F000E2F
:100F98000101031501010B6F08C1CDF009C1CEF0A5
:100FA8000AC1CFF00BC1D0F0CEC0CDF0CFC0CEF08B
:100FB800D0C0CFF00001D06BCDC008F1CEC009F190
:100FC800CFC00AF1D0C00BF108C133FF000E0F01EA
:100FD800326F0F013287010102A102D00F01328165
:100FE800010102A302D00F013283010102A502D040
:100FF8000F01328B010102A702D00F01328D0101CE
:1010080002A903D00F01328F00D000C1CDF001C179
:10101800CEF002C1CFF003C1D0F0160E06D0000109
:10102800D890D033CF33CE33CD33E82EF8D7CDC0D8
:1010380008F1CEC009F1CFC00AF1D0C00BF101010F
:1010480008510101086F096B0A6B0B6B08C131FF6E
:101058005AD00F01329700C1CDF001C1CEF002C1C4
:10106800CFF003C1D0F0040E06D00001D890D033E1
:10107800CF33CE33CD33E82EF8D7CDC008F1CEC06C
:1010880009F1CFC00AF1D0C00BF1010108510101EB
:10109800086F096B0A6B0B6B08C131FF070E010162
:1010A80000150101086F000E010101150101096F0A
:1010B800000E0101021501010A6F000E010103155E
:1010C80001010B6F08C1CDF009C1CEF00AC1CFF004
:1010D8000BC1D0F0050ED8900001CD37CE37CF37F1
:1010E800D037E82EF8D7CDC008F1CEC009F1CFC06F
:1010F8000AF1D0C00BF10F0132511F0B0F01326FF3
:1011080008C132FF00D0010107A103D00F013081CF
:1011180002D00F013091010107A303D00F013083E2
:1011280003D00F01309300D004C1D9FF05C1DAFF05
:10113800DF500F01366F010120EE01F00451D9266E
:101148000551DA22DF500F01376F010120EE02F05E
:101158000451D9260551DA22DF500F01386F0101F9
:1011680020EE03F00451D9260551DA22DF500F0191
:10117800396F010120EE04F00451D9260551DA2215
:10118800DF500F013A6F010120EE05F00451D92616
:101198000551DA22DF500F013B6F010120EE06F006
:1011A8000451D9260551DA22DF500F013C6F0101A5
:1011B80020EE07F00451D9260551DA22DF500F013D
:1011C8003D6F0F01308745D10F0120B742D106C1CD
:1011D80025FF010107AD03D00F01258D02D00F01B6
:1011E800259D010107A77AD0010100510101086F6F
:1011F800096B0A6B0B6B08C124FF000E0101001577
:101208000101086FFF0E010101150101096F000EB0
:101218000101021501010A6F000E01010315010108
:101228000B6F08C1CDF009C1CEF00AC1CFF00BC1D8
:10123800D0F0CEC0CDF0CFC0CEF0D0C0CFF00001FE
:10124800D06BCDC008F1CEC009F1CFC00AF1D0C033
:101258000BF108C123FF000E0F01226F0F01228737
:10126800010102A102D00F012281010102A302D0D3
:101278000F012283010102A502D00F01228B010177
:1012880002A702D00F01228D010102A903D00F018C
:10129800228F00D000C1CDF001C1CEF002C1CFF045
:1012A80003C1D0F0160E06D00001D890D033CF334A
:1012B800CE33CD33E82EF8D7CDC008F1CEC009F132
:1012C800CFC00AF1D0C00BF1010108510101086F2C
:1012D800096B0A6B0B6B08C121FF5AD00F012297CB
:1012E80000C1CDF001C1CEF002C1CFF003C1D0F0F2
:1012F800040E06D00001D890D033CF33CE33CD338F
:10130800E82EF8D7CDC008F1CEC009F1CFC00AF158
:10131800D0C00BF1010108510101086F096B0A6B7C
:101328000B6B08C121FF070E010100150101086FB1
:10133800000E010101150101096F000E01010215DE
:1013480001010A6F000E0101031501010B6F08C1AD
:10135800CDF009C1CEF00AC1CFF00BC1D0F0050E17
:10136800D8900001CD37CE37CF37D037E82EF8D711
:10137800CDC008F1CEC009F1CFC00AF1D0C00BF141
:101388000F0122511F0B0F01226F08C122FF00D04D
:10139800010107A103D00F01208102D00F01209184
:1013A800010107A303D00F01208303D00F0120936D
:1013B80000D004C1D9FF05C1DAFFDF500F01266F45
:1013C800010120EE01F00451D9260551DA22DF503F
:1013D8000F01276F010120EE02F00451D9260551B3
:1013E800DA22DF500F01286F010120EE03F00451CB
:1013F800D9260551DA22DF500F01296F010120EEAD
:1014080004F00451D9260551DA22DF500F012A6F62
:10141800010120EE05F00451D9260551DA22DF50EA
:101428000F012B6F010120EE06F00451D92605515A
:10143800DA22DF500F012C6F010120EE07F0045172
:10144800D9260551DA22DF500F012D6F0F012087B1
:1014580000D01200000E346E74AE02D0348000D07A
:1014680074AC02D0348200D00F0150AF49D12AC0E9
:10147800D9FF2BC0DAFFDE6ADE6ADE6ADD6A20EE9B
:1014880004F02A50D9262B50DA2256CFDFFF20EE5F
:1014980005F02A50D9262B50DA2257CFDFFF20EE4D
:1014A80006F02A50D9262B50DA2258CFDFFF20EE3B
:1014B80007F02A50D9262B50DA2259CFDFFF20EE29
:1014C80008F02A50D9262B50DA225ACFDFFF20EE17
:1014D80009F02A50D9262B50DA225BCFDFFF20EE05
:1014E8000AF02A50D9262B50DA225CCFDFFF20EEF3
:1014F8000BF02A50D9262B50DA225DCFDFFF20EEE1
:101508000EF02A50D9262B50DA220F0155AD02D001
:10151800010E01D0000EDF6E20EE0DF02A50D92604
:101528002B50DA220F0155510F0BDF6E20EE0CF015
:101538002A50D9262B50DA220F0152A702D0010EC9
:1015480001D0000EDF6E0F0152B744D051CF2CF0FE
:101558002D6A2E6A2F6A030ED8902C362D362E3619
:101568002F36E82EF9D72AC0D9FF2BC0DAFF2CC0B6
:10157800DEFF2DC0DEFF2EC0DEFF2FC0DEFF0F0115
:101588005239E842070B070B356E2AC0D9FF2BC02A
:10159800DAFFDECF2CF0DECF2DF0DECF2EF0DECF5F
:1015A8002FF035502C24306E000E2D20316E000E99
:1015B8002E20326E000E2F20336E2AC0D9FF2BC08A
:1015C800DAFF30C0DEFF31C0DEFF32C0DEFF33C0DD
:1015D800DEFF93D054CF2CF02D6A2E6A2F6A2AC0D2
:1015E800D9FF2BC0DAFF2CC0DEFF2DC0DEFF2EC0D6
:1015F800DEFF2FC0DEFF53CF2CF02D6A2E6A2F6A34
:101608002EC02FF02DC02EF02CC02DF02C6A2AC031
:10161800D9FF2BC0DAFF2C50DE262D50DE222E50AB
:10162800DE222F50DE220F0152A10DD02AC0D9FF91
:101638002BC0DAFF000EDE12000EDE12010EDE12E3
:10164800000EDE1200D00F0152A30DD02AC0D9FF20
:101658002BC0DAFF000EDE12000EDE12020EDE12C2
:10166800000EDE1200D00F0152AB0DD02AC0D9FFF8
:101678002BC0DAFF000EDE12000EDE12040EDE12A0
:10168800000EDE1200D00F0152AD0DD02AC0D9FFD6
:101698002BC0DAFF000EDE12000EDE12080EDE127C
:1016A800000EDE1200D00F0152AF0DD02AC0D9FFB4
:1016B8002BC0DAFF000EDE12000EDE12100EDE1254
:1016C800000EDE1200D051CF2CF02D6A2E6A2F6A40
:1016D800150ED8902C362D362E362F36E82EF9D703
:1016E8002AC0D9FF2BC0DAFF2C50DE122D50DE1293
:1016F8002E50DE122F50DE1200D00F01509F40D125
:1017080060AE3ED12AC0D9FF2BC0DAFFDE6ADE6A9E
:10171800DE6ADD6A20EE04F02A50D9262B50DA2240
:1017280066CFDFFF20EE05F02A50D9262B50DA22AB
:1017380067CFDFFF20EE06F02A50D9262B50DA2299
:1017480068CFDFFF20EE07F02A50D9262B50DA2287
:1017580069CFDFFF20EE08F02A50D9262B50DA2275
:101768006ACFDFFF20EE09F02A50D9262B50DA2263
:101778006BCFDFFF20EE0AF02A50D9262B50DA2251
:101788006CCFDFFF20EE0BF02A50D9262B50DA223F
:101798006DCFDFFF20EE0EF02A50D9262B50DA222B
:1017A80065AC02D0010E01D0000EDF6E20EE0DF008
:1017B8002A50D9262B50DA2265500F0BDF6E20EE07
:1017C8000CF02A50D9262B50DA2262A602D0010E3C
:1017D80001D0000EDF6E62B643D061CF2CF02D6AC7
:1017E8002E6A2F6A030ED8902C362D362E362F36B9
:1017F800E82EF9D72AC0D9FF2BC0DAFF2CC0DEFFAC
:101808002DC0DEFF2EC0DEFF2FC0DEFF6238E842AB
:10181800070B070B356E2AC0D9FF2BC0DAFFDECFC6
:101828002CF0DECF2DF0DECF2EF0DECF2FF03550AE
:101838002C24306E000E2D20316E000E2E20326EBC
:10184800000E2F20336E2AC0D9FF2BC0DAFF30C01C
:10185800DEFF31C0DEFF32C0DEFF33C0DEFF8ED0D8
:1018680064CF2CF02D6A2E6A2F6A2AC0D9FF2BC0AC
:10187800DAFF2CC0DEFF2DC0DEFF2EC0DEFF2FC03A
:10188800DEFF63CF2CF02D6A2E6A2F6A2EC02FF050
:101898002DC02EF02CC02DF02C6A2AC0D9FF2BC0E9
:1018A800DAFF2C50DE262D50DE222E50DE222F505D
:1018B800DE2262A00DD02AC0D9FF2BC0DAFF000EAD
:1018C800DE12000EDE12010EDE12000EDE1200D055
:1018D80062A20DD02AC0D9FF2BC0DAFF000EDE129B
:1018E800000EDE12020EDE12000EDE1200D062AA18
:1018F8000DD02AC0D9FF2BC0DAFF000EDE12000E71
:10190800DE12040EDE12000EDE1200D062AC0DD024
:101918002AC0D9FF2BC0DAFF000EDE12000EDE123D
:10192800080EDE12000EDE1200D062AE0DD02AC004
:10193800D9FF2BC0DAFF000EDE12000EDE12100EE9
:10194800DE12000EDE1200D061CF2CF02D6A2E6A56
:101958002F6A150ED8902C362D362E362F36E82EB7
:10196800F9D72AC0D9FF2BC0DAFF2C50DE122D5030
:10197800DE122E50DE122F50DE1200D0609E00D0F4
:1019880012000101046F01010405D8A457D0000119
:10199800D129D8A453D0CDC000F1CEC001F1CFC019
:1019A80002F1D0C003F1040E06D00101D890033330
:1019B800023301330033E82EF8D700C105F101C125
:1019C80006F102C107F103C108F101010551010146
:1019D800056F066B076B086B05C118FF070E000142
:1019E800CD150101056F000E0001CE150101066F2E
:1019F800000E0001CF150101076F000E0001D01580
:101A08000101086F05C100F106C101F107C102F12A
:101A180008C103F1050ED8900101003701370237DC
:101A28000337E82EF8D700C105F101C106F102C15C
:101A380007F103C108F105C119FF00D0020E010129
:101A48000419D8A457D00001D129D8A453D0CDC0A7
:101A580000F1CEC001F1CFC002F1D0C003F1040EF5
:101A680006D00101D8900333023301330033E82E46
:101A7800F8D700C105F101C106F102C107F103C1A0
:101A880008F1010105510101056F066B076B086B31
:101A980005C11CFF070E0001CD150101056F000EE1
:101AA8000001CE150101066F000E0001CF150101DE
:101AB800076F000E0001D0150101086F05C100F184
:101AC80006C101F107C102F108C103F1050ED89062
:101AD80001010037013702370337E82EF8D700C174
:101AE80005F101C106F102C107F103C108F105C101
:101AF8001DFF00D001010405D8A489D0F70E00010C
:101B0800D119D8A484D00001CD510101056F066B0D
:101B1800076B086B05C11BFF000E0001CD15010105
:101B2800056FFF0E0001CE150101066F000E0001C2
:101B3800CF150101076F000E0001D0150101086FD4
:101B480005C100F106C101F107C102F108C103F1A5
:101B580001C100F102C101F103C102F10101036BEE
:101B680000C105F101C106F102C107F103C108F185
:101B780005C11AFF0001CFA103D00F01198102D0BE
:101B88000F0119910001CFA303D00F01198302D0CF
:101B98000F0119930001CFA503D00F01198B02D0B3
:101BA8000F01199B0001CFA703D00F01198D02D097
:101BB8000F01199D0001CFA903D00F01198F03D080
:101BC8000F01199F00D0CDC000F1CEC001F1CFC0E8
:101BD80002F1D0C003F1160E06D00101D8900333EC
:101BE800023301330033E82EF8D700C105F101C1F3
:101BF80006F102C107F103C108F101010551010114
:101C0800056F066B076B086B05C118FF00D0020E45
:101C180001010419D8A489D0F70E0001D119D8A45C
:101C280084D00001CD510101056F066B076B086B6D
:101C380005C11FFF000E0001CD150101056FFF0E44
:101C48000001CE150101066F000E0001CF1501013C
:101C5800076F000E0001D0150101086F05C100F1E2
:101C680006C101F107C102F108C103F101C100F188
:101C780002C101F103C102F10101036B00C105F1C9
:101C880001C106F102C107F103C108F105C11EFF38
:101C98000001CFA103D00F011D8102D00F011D91BA
:101CA8000001CFA303D00F011D8302D00F011D93A4
:101CB8000001CFA503D00F011D8B02D00F011D9B82
:101CC8000001CFA703D00F011D8D02D00F011D9D6C
:101CD8000001CFA903D00F011D8F03D00F011D9F55
:101CE80000D0CDC000F1CEC001F1CFC002F1D0C00C
:101CF80003F1160E06D00101D890033302330133E5
:101D08000033E82EF8D700C105F101C106F102C180
:101D180007F103C108F1010105510101056F066BC7
:101D2800076B086B05C11CFF00D012001EEC15F0F4
:101D3800020E276E1C0E266E00D0A3EC16F0E806E5
:101D4800D8B405D0AAEC16F0E806D8A404D080824E
:101D58007494749200D048AC19D00F0E0101006F32
:101D6800000E016F000E026F000E036FD30E01010B
:101D7800046F000E0101056F080E0101066FFC0ECD
:101D88000101076F5EEC06F0489C00D049B002D014
:101D980048A804D0499087EC12F000D02350D8A46A
:101DA80019D02450D8A403D0000E256E00D02404E6
:101DB800D8A403D0960E256E00D0020E2418D8A4FD
:101DC80003D0C80E256E00D0030E2418D8A405D061
:101DD800256803D024C025F000D0265025C016F170
:101DE8000101176B01011627000E1723010117BF08
:101DF80007D001011705D8A003D02868B40E11D068
:101E080025502624286E2850B40DF3CFCDF0F4CFFA
:101E1800CEF0000E0001D06FCF69EBEC13F000019B
:101E2800CD51296E00D048B002D048A47BD048A438
:101E38000AD0000E096E000E0A6E000E0B6E000E20
:101E48000C6E48942BD027500101006F016B026B78
:101E5800036BA00E0101046F860E056F010E066F5D
:101E6800000E076FABEC15F000C108F101C109F1D4
:101E780002C10AF103C10BF11FC00CF120C00DF122
:101E880001010E6B0F6B55EC13F008C109F009C185
:101E98000AF00AC10BF00BC10CF000D00950112454
:101EA800116E0A501220126E0B501320136E0C5034
:101EB8001420146E00017E4B7F2B070E00017E1943
:101EC80000017F11D8A42ED011C000F112C001F179
:101ED80013C002F114C003F1070E0101046F000ED4
:101EE800056F000E066F000E076FBBEC14F000C103
:101EF80009F001C10AF002C10BF003C10CF00AC0DD
:101F08009CF009C09BF0000E116E000E126E000EC0
:101F1800136E000E146E000E00017F6F000E7E6FB0
:101F2800489000D048B202D048A607D748A60AD0A1
:101F3800000E0D6E000E0E6E000E0F6E000E106E6F
:101F480048962BD027500101006F016B026B036B81
:101F5800A00E0101046F860E056F010E066F000EBC
:101F6800076FABEC15F000C108F101C109F102C11E
:101F78000AF103C10BF121C00CF122C00DF10101DE
:101F88000E6B0F6B55EC13F008C10DF009C10EF084
:101F98000AC10FF00BC110F000D00D5000017825D8
:101FA8000001786F0E50000179210001796F0F5000
:101FB80000017A2100017A6F105000017B21000195
:101FC8007B6F0001804B812B070E000180190001F7
:101FD8008111D8A4B2D678C000F179C001F17AC0D5
:101FE80002F17BC003F1070E0101046F000E056FBB
:101FF800000E066F000E076FBBEC14F000C10DF069
:1020080001C10EF002C10FF003C110F00EC09AF02A
:102018000DC099F0000E0001786F000E796F000E68
:102028007A6F000E7B6F000E0001816F000E806FCB
:10203800489283D6C7EF00F00600EACFC2F0E1CF9E
:10204800C3F0E2CFC4F0D9CFC5F0DACFC6F0F3CFF2
:10205800C7F0F4CFC8F0F6CFC9F0F7CFCAF0F8CF81
:10206800CBF0F5CFCCF0F2A4ADD0827082A0A1D095
:10207800400E0001B76F060E0001B86F29C0A9F025
:102088000001AA6B050E0001AC6F780EAB6F53EC24
:1020980016F0A9C0AFF0AAC0B0F0000E0001B26FF0
:1020A800B40EB16F53EC14F0D8900001AF370001B3
:1020B800B0370001B7510001AF270001B851000146
:1020C800B0230001AFC005F00001B0C006F0000E5B
:1020D80006BEFF0E076E086E05C0B7F006C0B8F062
:1020E80007C0B9F008C0BAF00001B71FB81FB91F80
:1020F800BA1FB72B000EB823B923BA23400E00012C
:10210800B7250001BB6F9C0E0001B8210001BC6F10
:10211800000E0001B9210001BD6F000E0001BA21B7
:102128000001BE6F0001BB1FBC1FBD1FBE1FBB2B24
:10213800000EBC23BD23BE23000E0001BB250001F9
:10214800746F000E0001BC210001756F010E0001C3
:10215800BD210001766F000E0001BE210001776FDE
:1021680005C0B7F006C0B8F007C0B9F008C0BAF0AB
:102178000001B71FB81FB91FBA1FB72B000EB8232D
:10218800B923BA23000E0001B725056E000E000121
:10219800B821066E010E0001B921076E000E00017C
:1021A800BA21086E05C0A9F006C0AAF09AEC16F08C
:1021B80007D074C0A9F075C0AAF09AEC16F000D048
:1021C800F29400D0F2A24CD049B406D0000ECF6EE3
:1021D800000ECE6E498443D0CF500001B86FB76B64
:1021E800CE500001B7251F6E000E0001B821206EE9
:1021F8001FC0A9F020C0AAF0010E0001AC6FF40EB8
:10220800AB6F6AEC15F0A9C01FF0AAC020F0488097
:10221800000ECF6E000ECE6E48AA08D0010E000147
:102228006C27000E6D236E236F2300D048AE17D0A5
:10223800194A1A2A49A208D019501D5C1A501E586A
:10224800D8B002D0488C808249B209D01B501D5C9E
:102258001C501E58D8B003D0488C808200D0F2920F
:10226800F0A04DD049B606D0000EB36E000EB26E87
:10227800498643D0B3500001B86FB76BB250000124
:10228800B725216E000E0001B821226E21C0A9F0E9
:1022980022C0AAF0010E0001AC6FF40EAB6F6AEC1D
:1022A80015F0A9C021F0AAC022F04882000EB36E32
:1022B800000EB26E48AA08D0010E00017027000E69
:1022C80071237223732300D048AE17D01B4A1C2AEF
:1022D80049A208D019501D5C1A501E58D8B002D017
:1022E800488C808249B209D01B501D5C1C501E5876
:1022F800D8B003D0488C808200D0F09000D0CCC0F9
:10230800F5FFCBC0F8FFCAC0F7FFC9C0F6FFC8C0C9
:10231800F4FFC7C0F3FFC6C0DAFFC5C0D9FFC4C009
:10232800E2FFC3C0E1FFC2C0EAFFC1C0E9FFC0C00D
:10233800FBFFBFC0FAFF11000101126F800E82EC93
:1023480016F0000E706E000E716E000E726E0101B6
:102358000B41E842C00B01010B6F01010B517012D8
:1023680001010C5170120101125171120101093958
:10237800E842F80B0101096F0101095171120101CD
:102388000DA5718C01010DA102D0718E00D0010143
:102398000A51721201010DA302D0728C00D0010102
:1023A8000D51600B606E01010D51100BFF0AD8B47E
:1023B800608460CF50FF000E0001CD6F000ECE6F1D
:1023C800000ECF6F000ED06FF70E0001D16F010E17
:1023D800C5EC0CF0000E0001CD6F000ECE6F000EA4
:1023E800CF6F000ED06FF70E0001D16F020EC5EC53
:1023F8000CF00FD0F70E0101136F07D0010113691C
:102408000101146928D001011369F70E0101146F45
:1024180022D09F0E01010E6FFF0E01010F6F010107
:102428000D51600B0101106F116B01010E5101017B
:10243800101301010F510101111301011151000A7B
:10244800D8A4E1D701011051BF0AD8B4D7D7600A80
:10245800D8B4D0D7D8D7000E0001CD6F000ECE6FFC
:10246800000ECF6F000ED06F13C1D1F0000EC9EC73
:1024780000F0000E0001CD6F000ECE6F000ECF6F82
:10248800000ED06F13C1D1F0010EC9EC00F0000EA0
:102498000001CD6F000ECE6F000ECF6F000ED06F13
:1024A80014C1D1F0020EC9EC00F0000E0001CD6F8E
:1024B800000ECE6F000ECF6F000ED06F14C1D1F09A
:1024C800030EC9EC00F0000E0001CD6F000ECE6FB8
:1024D800000ECF6F000ED06F14C1D1F0040EC9ECFE
:1024E80000F0000E0001CD6F000ECE6F000ECF6F12
:1024F800000ED06F14C1D1F0050EC9EC00F0000E2B
:1025080082EC16F012006FEC16F0E806D8A4C6D0DC
:10251800020E0118021003100410D8A41CD0010EDA
:102528000001A16F020E0101006F000E016F000E85
:10253800026F000E036FA10E0101046F000E01016E
:10254800056F080E0101066FBC0E0101076F5EECF6
:1025580006F0827200D0080E011802100310041051
:10256800D8A434D001C000F102C001F103C002F1C7
:1025780004C003F1990E0101046F000E0101056FFB
:10258800080E0101066FBC0E0101076F5EEC06F034
:1025980000D06FEC16F0E806D8A4FBD7AA0E01010C
:1025A800006F000E016F000E026F000E036F990E90
:1025B8000101046F000E0101056F080E0101066F8D
:1025C800BC0E0101076F5EEC06F000D00A0E011880
:1025D800021003100410D8A414D0000E00016C6F70
:1025E800000E6D6F000E6E6F000E6F6F000E000113
:1025F800706F000E716F000E726F000E736F488A55
:1026080000D0090E0118021003100410D8A43ED0FF
:1026180027C0CDF00001CE6B6CC0CFF06DC0D0F0FC
:1026280037EC16F0CDC015F0CEC016F027C0CDF0AF
:102638000001CE6B70C0CFF071C0D0F037EC16F04F
:10264800CDC017F0CEC018F0489A15C091F01650BA
:102658000001926F17C093F018500001946F01C0E9
:1026680000F102C001F103C002F104C003F1910EB0
:102678000101046F000E0101056F080E0101066FCC
:10268800BC0E0101076F5EEC06F000D00F0140BDE3
:1026980005D00F0130BD02D0489802D0488800D03C
:1026A8001200000E0101116F01010FAF0DD00101E1
:1026B8000F1F0E1F0D1F0C6D000E0D230E230F2371
:1026C800010E0101116F00D001010BAF0DD0010106
:1026D8000B1F0A1F091F086D000E09230A230B236D
:1026E800010E0101111B00D0000E0101126F000E36
:1026F800136F000E146F000E156F01010C510101CC
:102708000D1101010E1101010F11D8B447D0010EAE
:102718000101106F09D00101D8900C370D370E3721
:102728000F370101102B00D001010FBF02D0F3D7E2
:1027380000D00101D890123713371437153701012B
:102748000C510101085D01010D51010109590101F7
:102758000E5101010A5901010F5101010B59D8A06D
:1027680013D001010C510101085F01010D51010154
:10277800095B01010E5101010A5B01010F510101C1
:102788000B5B0101128100D00101D8900F330E3389
:102798000D330C330101102FCCD700D0010111519A
:1027A8000101D8B40AD00101151F141F131F126D9F
:1027B800000E13231423152300D012C108F113C1EE
:1027C80009F114C10AF115C10BF100D01200000E75
:1027D8000101016F0001D0AF09D00001CF6DD01FFA
:1027E800D8B0D02B010E0101016F00D00001CEAF8F
:1027F80009D00001CD6DCE1FD8B0CE2B010E01013E
:10280800011B00D0000E0101036F000E026F0001D2
:10281800CF510001D011D8B431D0010E0101006FA1
:1028280007D00001D890CF37D0370101002B00D056
:102838000001D0BF02D0F5D700D00101D8900237EF
:1028480003370001CF510001CD5D0001D0510001D7
:10285800CE59D8A00BD00001CF510001CD5F0001A7
:10286800D0510001CE5B0101028100D00001D89057
:10287800D033CF330101002FE0D700D0010101513F
:102888000101D8B406D00101026D031FD8B0032B93
:1028980000D002C1CDF003C1CEF000D01200000E6E
:1028A8000001B46F0001B2AF09D00001B16DB21FD1
:1028B800D8B0B22B010E0001B46F00D00001B0AF48
:1028C80009D00001AF6DB01FD8B0B02B010E0001C8
:1028D800B41B00D0000E0001B66F000EB56F0001EA
:1028E800B1510001B211D8B431D0010E0001B36F5B
:1028F80007D00001D890B137B2370001B32B00D010
:102908000001B2BF02D0F5D700D00001D890B5378A
:10291800B6370001B1510001AF5D0001B2510001AD
:10292800B059D8A00BD00001B1510001AF5F000130
:10293800B2510001B05B0001B58100D00001D89010
:10294800B233B1330001B32FE0D700D00001B45146
:102958000001D8B406D00001B56DB61FD8B0B62BAB
:1029680000D0B5C0AFF0B6C0B0F000D01200000E75
:102978000001CD6F000ECE6F000ECF6F000ED06F2E
:10298800010104510101051101010611010107119D
:10299800D8B447D0010E0001D16F09D00101D890F9
:1029A80004370537063707370001D12B00D001015E
:1029B80007BF02D0F3D700D00001D890CD37CE376B
:1029C800CF37D037010104510101005D01010551E4
:1029D8000101015901010651010102590101075183
:1029E80001010359D8A013D0010104510101005F6E
:1029F800010105510101015B010106510101025B61
:102A0800010107510101035B0001CD8100D00101E3
:102A1800D89007330633053304330001D12FCCD7C0
:102A280000D0CDC000F1CEC001F1CFC002F1D0C0BE
:102A380003F11200000E896EFD0E926E000E8A6E72
:102A48009368000E8B6EFC0E946E000E8C6E95686B
:102A5800000E8D6E9668060E0101096F050E0101C4
:102A68000A6F010E01010B6F030E01010C6F9D0E21
:102A780001010D6F040EA0EC11F0A492A490F29441
:102A88009E90A192F292F090D08EA592A590F1849A
:102A9800F08C9F90A292800ED56ED768FE0ED66EEF
:102AA80082905A0E296E000ECD6E000EB16EF18C1A
:102AB800F18AA382A380F28A9D80A082F288F086A0
:102AC800F28EF28CCD80B180D58E1200000E0001FE
:102AD800AF6F000EAE6F0001AB510001AC11D8B45E
:102AE80031D0010E0001AD6F07D00001D890AB378F
:102AF800AC370001AD2B00D00001ACBF02D0F5D738
:102B080000D00001D890AE37AF370001AB510001BB
:102B1800A95D0001AC510001AA59D8A00BD0000151
:102B2800AB510001A95F0001AC510001AA5B000193
:102B3800AE8100D00001D890AC33AB330001AD2F8B
:102B4800E0D700D0AEC0A9F0AFC0AAF01200000EC6
:102B58000001CD6F000ECE6F000ECF6F000ED06F4C
:102B680000D0010100A111D0010104510001CD27BD
:102B7800010105510001CE23010106510001CF23B7
:102B8800010107510001D02300D00101D89004377A
:102B98000537063707370101D8900333023301336D
:102BA800003301010051010101110101021101016C
:102BB8000311D8A4D6D7CDC000F1CEC001F1CFC043
:102BC80002F1D0C003F1120000EE60F0490EEE6A87
:102BD800E806FDE1496A486A00EE01F0290EEE6A4E
:102BE800E806FDE1620EF66E2D0EF76E000EF86E29
:102BF80000EED3F010EE08F00900F5CFEEFFE55037
:102C0800E150FAE16A0EF66E2D0EF76E000EF86EC0
:102C18000900F5CF4AF0000EF86E00019AEF0EF0A9
:102C28002B6E000E2D6E2A50D8B41AD0010E2C6EC1
:102C380004D0D8902A362C2A00D02ABE02D0F9D740
:102C480000D0D8902D362A502B5CD8A004D02A501A
:102C58002B5E2D8000D0D8902A322C2EF2D700D0AF
:102C68002D5000D012000001CD510001CF03F3CF49
:102C7800D1F0F4CFD2F00001CD510001D003F350D0
:102C88000001D2270001CE510001CF03F35000010B
:102C9800D227D1C0CDF0D2C0CEF000D012000001B2
:102CA800A9510001AB03F3CFADF0F4CFAEF00001B2
:102CB800A9510001AC03F3500001AE270001AA514D
:102CC8000001AB03F3500001AE27ADC0A9F0AEC0C0
:102CD800AAF000D01200010E0001CD6F0F0140A72D
:102CE80009D00F0130A706D00F0120A703D0000E8E
:102CF8000001CD6F0001CD5100D012000001CD6F51
:102D0800CDC06FFF00D06E50E00B0001CD19D8A4E4
:102D1800FAD71200010E2A6E60BE05D00F0150BF0F
:102D280002D0000E2A6E2A5000D01200A9C0ABF0C3
:102D3800AAC0ACF0ACC0D7FFABC0D6FF120074A4D9
:102D480002D0010E02D0000E00D0120074A202D0F0
:102D5800010E02D0000E00D0120001000000000099
:042D68000000100057
:020000040020DA
:08000000FFFFFFFFFFFFFFFF00
:020000040030CA
:0E000000FF021F1EFF8081FF0FC00FE00F40A8
:00000001FF
