:0400000088EF00F095
:0E0008003F82FACFB6F0FBCFB7F028ED0EF036
:100018003F80D8CF0DF0E8CF0EF0E0CF0FF0FACF49
:1000280010F0FBCF11F0E9CF12F0EACF13F0E1CFD7
:1000380014F0E2CF15F0D9CF16F0DACF17F0F3CFDE
:1000480018F0F4CF19F0F6CF1AF0F7CF1BF0F8CF6D
:100058001CF0F5CF1DF0A4A0A4B201D029D0B2ECB9
:1000680014F00009D8B422D0820E016E000E026E80
:10007800D3EC09F000019005D8A409D082C068F03B
:1000880083C069F084C06AF085C06BF03D8C040EB3
:1000980000018219000183110001841100018511FA
:1000A800D8A404D086C07DF087C07CF0A490A49228
:1000B8009EA002D03D849E90A1A202D03D86A1922E
:1000C8001DC0F5FF1CC0F8FF1BC0F7FF1AC0F6FFE4
:1000D80019C0F4FF18C0F3FF17C0DAFF16C0D9FF24
:1000E80015C0E2FF14C0E1FF13C0EAFF12C0E9FF28
:1000F80011C0FBFF10C0FAFF0FC0E0FF0EC0E8FF01
:100108000DC0D8FF3F9010002CEF14F00001CD6F08
:100118000001CD510001D8A458D00001C829D8A4A5
:1001280054D00F010197C4C0C9F0C5C0CAF0C6C0F9
:10013800CBF0C7C0CCF0040E06D00001D890CC3369
:10014800CB33CA33C933E82EF8D7C9C0CEF0CAC0FA
:10015800CFF0CBC0D0F0CCC0D1F00001CE5100011F
:10016800CE6FCF6BD06BD16BCEC000FF070E0001F6
:10017800C4150001CE6F000E0001C5150001CF6F38
:10018800000E0001C6150001D06F000E0001C71552
:100198000001D16FCEC0C9F0CFC0CAF0D0C0CBF03B
:1001A800D1C0CCF0050ED8900001C937CA37CB377B
:1001B800CC37E82EF8D7C9C0CEF0CAC0CFF0CBC034
:1001C800D0F0CCC0D1F0CEC001FF0001CD05D8A43D
:1001D80058D00001C829D8A454D00F010597C4C02D
:1001E800C9F0C5C0CAF0C6C0CBF0C7C0CCF0040E79
:1001F80006D00001D890CC33CB33CA33C933E82EAC
:10020800F8D7C9C0CEF0CAC0CFF0CBC0D0F0CCC0B0
:10021800D1F00001CE510001CE6FCF6BD06BD16B06
:10022800CEC004FF070E0001C4150001CE6F000EFA
:100238000001C5150001CF6F000E0001C6150001B1
:10024800D06F000E0001C7150001D16FCEC0C9F0F4
:10025800CFC0CAF0D0C0CBF0D1C0CCF0050ED8903A
:100268000001C937CA37CB37CC37E82EF8D7C9C011
:10027800CEF0CAC0CFF0CBC0D0F0CCC0D1F0CEC049
:1002880005FF020E0001CD19D8A458D00001C829D5
:10029800D8A454D00F010997C4C0C9F0C5C0CAF08A
:1002A800C6C0CBF0C7C0CCF0040E06D00001D89071
:1002B800CC33CB33CA33C933E82EF8D7C9C0CEF014
:1002C800CAC0CFF0CBC0D0F0CCC0D1F00001CE5125
:1002D8000001CE6FCF6BD06BD16BCEC008FF070E7D
:1002E8000001C4150001CE6F000E0001C515000104
:1002F800CF6F000E0001C6150001D06F000E00017F
:10030800C7150001D16FCEC0C9F0CFC0CAF0D0C0A8
:10031800CBF0D1C0CCF0050ED8900001C937CA3750
:10032800CB37CC37E82EF8D7C9C0CEF0CAC0CFF04B
:10033800CBC0D0F0CCC0D1F0CEC009FF030E000175
:10034800CD19D8A458D00001C829D8A454D00F0179
:100358000D97C4C0C9F0C5C0CAF0C6C0CBF0C7C0AD
:10036800CCF0040E06D00001D890CC33CB33CA337E
:10037800C933E82EF8D7C9C0CEF0CAC0CFF0CBC079
:10038800D0F0CCC0D1F00001CE510001CE6FCF6BC0
:10039800D06BD16BCEC00CFF070E0001C415000155
:1003A800CE6F000E0001C5150001CF6F000E0001D1
:1003B800C6150001D06F000E0001C7150001D16FEE
:1003C800CEC0C9F0CFC0CAF0D0C0CBF0D1C0CCF0FD
:1003D800050ED8900001C937CA37CB37CC37E82E7D
:1003E800F8D7C9C0CEF0CAC0CFF0CBC0D0F0CCC0CF
:1003F800D1F0CEC00DFF040E0001CD19D8A458D0FD
:100408000001C829D8A454D00F011197C4C0C9F05D
:10041800C5C0CAF0C6C0CBF0C7C0CCF0040E06D029
:100428000001D890CC33CB33CA33C933E82EF8D780
:10043800C9C0CEF0CAC0CFF0CBC0D0F0CCC0D1F08C
:100448000001CE510001CE6FCF6BD06BD16BCEC007
:1004580010FF070E0001C4150001CE6F000E000149
:10046800C5150001CF6F000E0001C6150001D06F41
:10047800000E0001C7150001D16FCEC0C9F0CFC072
:10048800CAF0D0C0CBF0D1C0CCF0050ED890000196
:10049800C937CA37CB37CC37E82EF8D7C9C0CEF022
:1004A800CAC0CFF0CBC0D0F0CCC0D1F0CEC011FFC5
:1004B800050E0001CD19D8A458D00001C829D8A428
:1004C80054D00F011597C4C0C9F0C5C0CAF0C6C042
:1004D800CBF0C7C0CCF0040E06D00001D890CC33C6
:1004E800CB33CA33C933E82EF8D7C9C0CEF0CAC057
:1004F800CFF0CBC0D0F0CCC0D1F00001CE5100017C
:10050800CE6FCF6BD06BD16BCEC014FF070E00013E
:10051800C4150001CE6F000E0001C5150001CF6F94
:10052800000E0001C6150001D06F000E0001C715AE
:100538000001D16FCEC0C9F0CFC0CAF0D0C0CBF097
:10054800D1C0CCF0050ED8900001C937CA37CB37D7
:10055800CC37E82EF8D7C9C0CEF0CAC0CFF0CBC090
:10056800D0F0CCC0D1F0CEC015FF0001CD510001B4
:10057800D8A489D0F70E0001C819D8A484D00F01D7
:1005880001870001C4510001CE6FCF6BD06BD16BD6
:10059800CEC003FF000E0001C4150001CE6FFF0E90
:1005A8000001C5150001CF6F000E0001C61500013E
:1005B800D06F000E0001C7150001D16FCEC0C9F081
:1005C800CFC0CAF0D0C0CBF0D1C0CCF0CAC0C9F0FF
:1005D800CBC0CAF0CCC0CBF00001CC6BC9C0CEF008
:1005E800CAC0CFF0CBC0D0F0CCC0D1F0CEC002FF93
:1005F8000001C6A103D00F01018102D00F010191B2
:100608000001C6A303D00F01018302D00F0101939B
:100618000001C6A503D00F01018B02D00F01019B79
:100628000001C6A703D00F01018D02D00F01019D63
:100638000001C6A903D00F01018F02D00F01019F4D
:10064800C4C0C9F0C5C0CAF0C6C0CBF0C7C0CCF0A2
:10065800160E06D00001D890CC33CB33CA33C93339
:10066800E82EF8D7C9C0CEF0CAC0CFF0CBC0D0F0C2
:10067800CCC0D1F00001CE510001CE6FCF6BD06B52
:10068800D16BCEC000FF0001CD05D8A489D0F70EEC
:100698000001C819D8A484D00F0105870001C451EE
:1006A8000001CE6FCF6BD06BD16BCEC007FF000EB1
:1006B8000001C4150001CE6FFF0E0001C515000131
:1006C800CF6F000E0001C6150001D06F000E0001AB
:1006D800C7150001D16FCEC0C9F0CFC0CAF0D0C0D5
:1006E800CBF0D1C0CCF0CAC0C9F0CBC0CAF0CCC0E6
:1006F800CBF00001CC6BC9C0CEF0CAC0CFF0CBC0E4
:10070800D0F0CCC0D1F0CEC006FF0001C6A103D006
:100718000F01058102D00F0105910001C6A303D086
:100728000F01058302D00F0105930001C6A503D070
:100738000F01058B02D00F01059B0001C6A703D04E
:100748000F01058D02D00F01059D0001C6A903D038
:100758000F01058F02D00F01059FC4C0C9F0C5C0A5
:10076800CAF0C6C0CBF0C7C0CCF0160E06D0000148
:10077800D890CC33CB33CA33C933E82EF8D7C9C0A5
:10078800CEF0CAC0CFF0CBC0D0F0CCC0D1F00001C1
:10079800CE510001CE6FCF6BD06BD16BCEC004FFB2
:1007A800020E0001CD19D8A489D0F70E0001C8198E
:1007B800D8A484D00F0109870001C4510001CE6F6D
:1007C800CF6BD06BD16BCEC00BFF000E0001C415F0
:1007D8000001CE6FFF0E0001C5150001CF6F000E9E
:1007E8000001C6150001D06F000E0001C7150001F9
:1007F800D16FCEC0C9F0CFC0CAF0D0C0CBF0D1C045
:10080800CCF0CAC0C9F0CBC0CAF0CCC0CBF0000154
:10081800CC6BC9C0CEF0CAC0CFF0CBC0D0F0CCC032
:10082800D1F0CEC00AFF0001C6A103D00F01098193
:1008380002D00F0109910001C6A303D00F0109835B
:1008480002D00F0109930001C6A503D00F01098B3F
:1008580002D00F01099B0001C6A703D00F01098D23
:1008680002D00F01099D0001C6A903D00F01098F0D
:1008780002D00F01099FC4C0C9F0C5C0CAF0C6C0E4
:10088800CBF0C7C0CCF0160E06D00001D890CC3300
:10089800CB33CA33C933E82EF8D7C9C0CEF0CAC0A3
:1008A800CFF0CBC0D0F0CCC0D1F00001CE510001C8
:1008B800CE6FCF6BD06BD16BCEC008FF030E00019B
:1008C800CD19D8A489D0F70E0001C819D8A484D0AE
:1008D8000F010D870001C4510001CE6FCF6BD06BA3
:1008E800D16BCEC00FFF000E0001C4150001CE6F02
:1008F800FF0E0001C5150001CF6F000E0001C615DF
:100908000001D06F000E0001C7150001D16FCEC0E5
:10091800C9F0CFC0CAF0D0C0CBF0D1C0CCF0CAC0AB
:10092800C9F0CBC0CAF0CCC0CBF00001CC6BC9C0B9
:10093800CEF0CAC0CFF0CBC0D0F0CCC0D1F0CEC082
:100948000EFF0001C6A103D00F010D8102D00F01D7
:100958000D910001C6A303D00F010D8302D00F0132
:100968000D930001C6A503D00F010D8B02D00F0116
:100978000D9B0001C6A703D00F010D8D02D00F01FA
:100988000D9D0001C6A903D00F010D8F02D00F01E4
:100998000D9FC4C0C9F0C5C0CAF0C6C0CBF0C7C05F
:1009A800CCF0160E06D00001D890CC33CB33CA3326
:1009B800C933E82EF8D7C9C0CEF0CAC0CFF0CBC033
:1009C800D0F0CCC0D1F00001CE510001CE6FCF6B7A
:1009D800D06BD16BCEC00CFF040E0001CD19D8A48A
:1009E80089D0F70E0001C819D8A484D00F01118747
:1009F8000001C4510001CE6FCF6BD06BD16BCEC05C
:100A080013FF000E0001C4150001CE6FFF0E000198
:100A1800C5150001CF6F000E0001C6150001D06F8B
:100A2800000E0001C7150001D16FCEC0C9F0CFC0BC
:100A3800CAF0D0C0CBF0D1C0CCF0CAC0C9F0CBC08E
:100A4800CAF0CCC0CBF00001CC6BC9C0CEF0CAC094
:100A5800CFF0CBC0D0F0CCC0D1F0CEC012FF000197
:100A6800C6A103D00F01118102D00F01119100011D
:100A7800C6A303D00F01118302D00F011193000107
:100A8800C6A503D00F01118B02D00F01119B0001E5
:100A9800C6A703D00F01118D02D00F01119D0001CF
:100AA800C6A903D00F01118F02D00F01119FC4C036
:100AB800C9F0C5C0CAF0C6C0CBF0C7C0CCF0160E8E
:100AC80006D00001D890CC33CB33CA33C933E82ED3
:100AD800F8D7C9C0CEF0CAC0CFF0CBC0D0F0CCC0D8
:100AE800D1F00001CE510001CE6FCF6BD06BD16B2E
:100AF800CEC010FF050E0001CD19D8A41200F70EC4
:100B08000001C819D8A412000F0115870001C451AB
:100B18000001CE6FCF6BD06BD16BCEC017FF000E2C
:100B28000001C4150001CE6FFF0E0001C5150001BC
:100B3800CF6F000E0001C6150001D06F000E000136
:100B4800C7150001D16FCEC0C9F0CFC0CAF0D0C060
:100B5800CBF0D1C0CCF0CAC0C9F0CBC0CAF0CCC071
:100B6800CBF00001CC6BC9C0CEF0CAC0CFF0CBC06F
:100B7800D0F0CCC0D1F0CEC016FF0001C6A103D082
:100B88000F01158102D00F0115910001C6A303D0F2
:100B98000F01158302D00F0115930001C6A503D0DC
:100BA8000F01158B02D00F01159B0001C6A703D0BA
:100BB8000F01158D02D00F01159D0001C6A903D0A4
:100BC8000F01158F02D00F01159FC4C0C9F0C5C011
:100BD800CAF0C6C0CBF0C7C0CCF0160E06D00001D4
:100BE800D890CC33CB33CA33C933E82EF8D7C9C031
:100BF800CEF0CAC0CFF0CBC0D0F0CCC0D1F000014D
:100C0800CE510001CE6FCF6BD06BD16BCEC014FF2D
:100C180012000F0140B73FD1CAC045FF0001CBAD5C
:100C280003D00F01458D02D00F01459D0001CBA7D0
:100C380079D00001C4510001D06FD16BD26BD36B56
:100C4800D0C044FF000E0001C4150001D06FFF0E94
:100C58000001C5150001D16F000E0001C615000185
:100C6800D26F000E0001C7150001D36FD0C0CCF0C1
:100C7800D1C0CDF0D2C0CEF0D3C0CFF0CDC0CCF033
:100C8800CEC0CDF0CFC0CEF00001CF6BCCC0D0F03D
:100C9800CDC0D1F0CEC0D2F0CFC0D3F0D0C043FF8A
:100CA800000E0F01426F0F0142870001C6A102D05A
:100CB8000F0142810001C6A302D00F014283000147
:100CC800C6A502D00F01428B0001C6A702D00F01B2
:100CD800428D0001C6A902D00F01428FC4C0CCF0DA
:100CE800C5C0CDF0C6C0CEF0C7C0CFF0160E06D036
:100CF8000001D890CF33CE33CD33CC33E82EF8D79C
:100D0800CCC0D0F0CDC0D1F0CEC0D2F0CFC0D3F09F
:100D18000001D0510001D06FD16BD26BD36BD0C022
:100D280041FF59D00F014297C4C0CCF0C5C0CDF0E7
:100D3800C6C0CEF0C7C0CFF0040E06D00001D890D0
:100D4800CF33CE33CD33CC33E82EF8D7CCC0D0F068
:100D5800CDC0D1F0CEC0D2F0CFC0D3F00001D05179
:100D68000001D06FD16BD26BD36BD0C041FF070E9F
:100D78000001C4150001D06F000E0001C515000167
:100D8800D16F000E0001C6150001D26F000E0001E0
:100D9800C7150001D36FD0C0CCF0D1C0CDF0D2C000
:100DA800CEF0D3C0CFF0050ED8900001CC37CD37A8
:100DB800CE37CF37E82EF8D7CCC0D0F0CDC0D1F0A1
:100DC800CEC0D2F0CFC0D3F00F0142511F0B0F019C
:100DD800426FD0C042FF0001CBA103D00F01408178
:100DE80002D00F0140910001CBA303D00F01408333
:100DF80002D00F014093C8C0D9FFC9C0DAFFDF5045
:100E08000F01466F000120EE01F0C851D926C951E3
:100E1800DA22DF500F01476F000120EE02F0C851BF
:100E2800D926C951DA22DF500F01486F000120EEA0
:100E380003F0C851D926C951DA22DF500F01496F92
:100E4800000120EE04F0C851D926C951DA22DF503A
:100E58000F014A6F000120EE05F0C851D926C9518B
:100E6800DA22DF500F014B6F000120EE06F0C85167
:100E7800D926C951DA22DF500F014C6F000120EE4C
:100E880007F0C851D926C951DA22DF500F014D6F3A
:100E98000F01408712000F0130B73FD1CAC035FF9C
:100EA8000001CBAD03D00F01358D02D00F01359D68
:100EB8000001CBA779D00001C4510001D06FD16BDC
:100EC800D26BD36BD0C034FF000E0001C4150001F3
:100ED800D06FFF0E0001C5150001D16F000E000193
:100EE800C6150001D26F000E0001C7150001D36FAF
:100EF800D0C0CCF0D1C0CDF0D2C0CEF0D3C0CFF0AE
:100F0800CDC0CCF0CEC0CDF0CFC0CEF00001CF6BBD
:100F1800CCC0D0F0CDC0D1F0CEC0D2F0CFC0D3F08D
:100F2800D0C033FF000E0F01326F0F01328700016E
:100F3800C6A102D00F0132810001C6A302D00F0161
:100F480032830001C6A502D00F01328B0001C6A76B
:100F580002D00F01328D0001C6A902D00F01328FD5
:100F6800C4C0CCF0C5C0CDF0C6C0CEF0C7C0CFF06D
:100F7800160E06D00001D890CF33CE33CD33CC3304
:100F8800E82EF8D7CCC0D0F0CDC0D1F0CEC0D2F08A
:100F9800CFC0D3F00001D0510001D06FD16BD26B1C
:100FA800D36BD0C031FF59D00F013297C4C0CCF0F9
:100FB800C5C0CDF0C6C0CEF0C7C0CFF0040E06D075
:100FC8000001D890CF33CE33CD33CC33E82EF8D7C9
:100FD800CCC0D0F0CDC0D1F0CEC0D2F0CFC0D3F0CD
:100FE8000001D0510001D06FD16BD26BD36BD0C050
:100FF80031FF070E0001C4150001D06F000E00017B
:10100800C5150001D16F000E0001C6150001D26F91
:10101800000E0001C7150001D36FD0C0CCF0D1C0BD
:10102800CDF0D2C0CEF0D3C0CFF0050ED8900001DD
:10103800CC37CD37CE37CF37E82EF8D7CCC0D0F065
:10104800CDC0D1F0CEC0D2F0CFC0D3F00F01325115
:101058001F0B0F01326FD0C032FF0001CBA103D0AC
:101068000F01308102D00F0130910001CBA303D0D2
:101078000F01308302D00F013093C8C0D9FFC9C017
:10108800DAFFDF500F01366F000120EE01F0C85182
:10109800D926C951DA22DF500F01376F000120EE3F
:1010A80002F0C851D926C951DA22DF500F01386F32
:1010B800000120EE03F0C851D926C951DA22DF50C9
:1010C8000F01396F000120EE04F0C851D926C9512B
:1010D800DA22DF500F013A6F000120EE05F0C85107
:1010E800D926C951DA22DF500F013B6F000120EEEB
:1010F80006F0C851D926C951DA22DF500F013C6FDA
:10110800000120EE07F0C851D926C951DA22DF5074
:101118000F013D6F0F01308712000F0120B7120039
:10112800CAC025FF0001CBAD03D00F01258D02D029
:101138000F01259D0001CBA779D00001C451000102
:10114800D06FD16BD26BD36BD0C024FF000E0001DF
:10115800C4150001D06FFF0E0001C5150001D16F45
:10116800000E0001C6150001D26F000E0001C71560
:101178000001D36FD0C0CCF0D1C0CDF0D2C0CEF03A
:10118800D3C0CFF0CDC0CCF0CEC0CDF0CFC0CEF024
:101198000001CF6BCCC0D0F0CDC0D1F0CEC0D2F022
:1011A800CFC0D3F0D0C023FF000E0F01226F0F0174
:1011B80022870001C6A102D00F0122810001C6A327
:1011C80002D00F0122830001C6A502D00F01228B95
:1011D8000001C6A702D00F01228D0001C6A902D0C6
:1011E8000F01228FC4C0CCF0C5C0CDF0C6C0CEF070
:1011F800C7C0CFF0160E06D00001D890CF33CE333B
:10120800CD33CC33E82EF8D7CCC0D0F0CDC0D1F058
:10121800CEC0D2F0CFC0D3F00001D0510001D06FC2
:10122800D16BD26BD36BD0C021FF59D00F0122975D
:10123800C4C0CCF0C5C0CDF0C6C0CEF0C7C0CFF09A
:10124800040E06D00001D890CF33CE33CD33CC3343
:10125800E82EF8D7CCC0D0F0CDC0D1F0CEC0D2F0B7
:10126800CFC0D3F00001D0510001D06FD16BD26B49
:10127800D36BD0C021FF070E0001C4150001D06F49
:10128800000E0001C5150001D16F000E0001C61542
:101298000001D26F000E0001C7150001D36FD0C046
:1012A800CCF0D1C0CDF0D2C0CEF0D3C0CFF0050E77
:1012B800D8900001CC37CD37CE37CF37E82EF8D7C6
:1012C800CCC0D0F0CDC0D1F0CEC0D2F0CFC0D3F0DA
:1012D8000F0122511F0B0F01226FD0C022FF000106
:1012E800CBA103D00F01208102D00F012091000172
:1012F800CBA303D00F01208302D00F012093C8C0D5
:10130800D9FFC9C0DAFFDF500F01266F000120EEB8
:1013180001F0C851D926C951DA22DF500F01276FD1
:10132800000120EE02F0C851D926C951DA22DF5057
:101338000F01286F000120EE03F0C851D926C951CA
:10134800DA22DF500F01296F000120EE04F0C851A6
:10135800D926C951DA22DF500F012A6F000120EE89
:1013680005F0C851D926C951DA22DF500F012B6F79
:10137800000120EE06F0C851D926C951DA22DF5003
:101388000F012C6F000120EE07F0C851D926C95172
:10139800DA22DF500F012D6F0F0120871200000E97
:1013A8000B6E74BE0B8074BC0B820F0150AF43D11F
:1013B80001C0D9FF02C0DAFFDE6ADE6ADE6ADD6AD2
:1013C80020EE04F00150D9260250DA2256CFDFFF72
:1013D80020EE05F00150D9260250DA2257CFDFFF60
:1013E80020EE06F00150D9260250DA2258CFDFFF4E
:1013F80020EE07F00150D9260250DA2259CFDFFF3C
:1014080020EE08F00150D9260250DA225ACFDFFF29
:1014180020EE09F00150D9260250DA225BCFDFFF17
:1014280020EE0AF00150D9260250DA225CCFDFFF05
:1014380020EE0BF00150D9260250DA225DCFDFFFF3
:1014480020EE0EF00150D9260250DA220F0155ADD8
:1014580002D0010E01D0000EDF6E20EE0DF001501B
:10146800D9260250DA220F0155510F0BDF6E20EEFC
:101478000CF00150D9260250DA220F0152A702D0EF
:10148800010E01D0000EDF6E0F0152B744D051CFCC
:1014980003F0046A056A066A030ED8900336043618
:1014A80005360636E82EF9D701C0D9FF02C0DAFFA3
:1014B80003C0DEFF04C0DEFF05C0DEFF06C0DEFF9E
:1014C8000F015239E842070B070B0C6E01C0D9FF18
:1014D80002C0DAFFDECF03F0DECF04F0DECF05F086
:1014E800DECF06F00C500324076E000E0420086EB1
:1014F800000E0520096E000E06200A6E01C0D9FFF5
:1015080002C0DAFF07C0DEFF08C0DEFF09C0DEFF49
:101518000AC0DEFF8DD054CF03F0046A056A066A5C
:1015280001C0D9FF02C0DAFF03C0DEFF04C0DEFF3E
:1015380005C0DEFF06C0DEFF53CF03F0046A056A6C
:10154800066A05C006F004C005F003C004F0036A8B
:1015580001C0D9FF02C0DAFF0350DE260450DE22A4
:101568000550DE220650DE220F0152A10CD001C028
:10157800D9FF02C0DAFF000EDE12000EDE12010EE5
:10158800DE12000EDE120F0152A30CD001C0D9FFEB
:1015980002C0DAFF000EDE12000EDE12020EDE12AC
:1015A800000EDE120F0152AB0CD001C0D9FF02C0F1
:1015B800DAFF000EDE12000EDE12040EDE12000E3E
:1015C800DE120F0152AD0CD001C0D9FF02C0DAFF04
:1015D800000EDE12000EDE12080EDE12000EDE1203
:1015E8000F0152AF0CD001C0D9FF02C0DAFF000EC4
:1015F800DE12000EDE12100EDE12000EDE1251CFC9
:1016080003F0046A056A066A150ED8900336043694
:1016180005360636E82EF9D701C0D9FF02C0DAFF31
:101628000350DE120450DE120550DE120650DE12A0
:101638000F01509F120060AE120001C0D9FF02C016
:10164800DAFFDE6ADE6ADE6ADD6A20EE04F0015047
:10165800D9260250DA2266CFDFFF20EE05F00150CE
:10166800D9260250DA2267CFDFFF20EE06F00150BC
:10167800D9260250DA2268CFDFFF20EE07F00150AA
:10168800D9260250DA2269CFDFFF20EE08F0015098
:10169800D9260250DA226ACFDFFF20EE09F0015086
:1016A800D9260250DA226BCFDFFF20EE0AF0015074
:1016B800D9260250DA226CCFDFFF20EE0BF0015062
:1016C800D9260250DA226DCFDFFF20EE0EF001504E
:1016D800D9260250DA2265AC02D0010E01D0000EE4
:1016E800DF6E20EE0DF00150D9260250DA22655047
:1016F8000F0BDF6E20EE0CF00150D9260250DA22D3
:1017080062A602D0010E01D0000EDF6E62B643D091
:1017180061CF03F0046A056A066A030ED89003369F
:10172800043605360636E82EF9D701C0D9FF02C0BF
:10173800DAFF03C0DEFF04C0DEFF05C0DEFF06C01F
:10174800DEFF6238E842070B070B0C6E01C0D9FFB9
:1017580002C0DAFFDECF03F0DECF04F0DECF05F003
:10176800DECF06F00C500324076E000E0420086E2E
:10177800000E0520096E000E06200A6E01C0D9FF72
:1017880002C0DAFF07C0DEFF08C0DEFF09C0DEFFC7
:101798000AC0DEFF88D064CF03F0046A056A066ACF
:1017A80001C0D9FF02C0DAFF03C0DEFF04C0DEFFBC
:1017B80005C0DEFF06C0DEFF63CF03F0046A056ADA
:1017C800066A05C006F004C005F003C004F0036A09
:1017D80001C0D9FF02C0DAFF0350DE260450DE2222
:1017E8000550DE220650DE2262A00CD001C0D9FFCF
:1017F80002C0DAFF000EDE12000EDE12010EDE124B
:10180800000EDE1262A20CD001C0D9FF02C0DAFFBE
:10181800000EDE12000EDE12020EDE12000EDE12C6
:1018280062AA0CD001C0D9FF02C0DAFF000EDE1296
:10183800000EDE12040EDE12000EDE1262AC0CD0B8
:1018480001C0D9FF02C0DAFF000EDE12000EDE1260
:10185800080EDE12000EDE1262AE0CD001C0D9FFF7
:1018680002C0DAFF000EDE12000EDE12100EDE12CB
:10187800000EDE1261CF03F0046A056A066A150ECF
:10188800D8900336043605360636E82EF9D701C057
:10189800D9FF02C0DAFF0350DE120450DE120550F1
:1018A800DE120650DE12609E12000001CD6F0001AC
:1018B800CD05D8A456D00001C829D8A452D0C4C098
:1018C800C9F0C5C0CAF0C6C0CBF0C7C0CCF0040E82
:1018D80006D00001D890CC33CB33CA33C933E82EB5
:1018E800F8D7C9C0CEF0CAC0CFF0CBC0D0F0CCC0BA
:1018F800D1F00001CE510001CE6FCF6BD06BD16B10
:10190800CEC018FF070E0001C4150001CE6F000EEF
:101918000001C5150001CF6F000E0001C6150001BA
:10192800D06F000E0001C7150001D16FCEC0C9F0FD
:10193800CFC0CAF0D0C0CBF0D1C0CCF0050ED89043
:101948000001C937CA37CB37CC37E82EF8D7C9C01A
:10195800CEF0CAC0CFF0CBC0D0F0CCC0D1F0CEC052
:1019680019FF020E0001CD19D8A456D00001C829CC
:10197800D8A452D0C4C0C9F0C5C0CAF0C6C0CBF004
:10198800C7C0CCF0040E06D00001D890CC33CB33BE
:10199800CA33C933E82EF8D7C9C0CEF0CAC0CFF0D1
:1019A800CBC0D0F0CCC0D1F00001CE510001CE6F39
:1019B800CF6BD06BD16BCEC01CFF070E0001C415D6
:1019C8000001CE6F000E0001C5150001CF6F000E9B
:1019D8000001C6150001D06F000E0001C7150001F7
:1019E800D16FCEC0C9F0CFC0CAF0D0C0CBF0D1C043
:1019F800CCF0050ED8900001C937CA37CB37CC37A1
:101A0800E82EF8D7C9C0CEF0CAC0CFF0CBC0D0F00E
:101A1800CCC0D1F0CEC01DFF0001CD05D8A487D021
:101A2800F70E0001C819D8A482D00001C4510001E2
:101A3800CE6FCF6BD06BD16BCEC01BFF000E0001F9
:101A4800C4150001CE6FFF0E0001C5150001CF6F50
:101A5800000E0001C6150001D06F000E0001C71569
:101A68000001D16FCEC0C9F0CFC0CAF0D0C0CBF052
:101A7800D1C0CCF0CAC0C9F0CBC0CAF0CCC0CBF042
:101A88000001CC6BC9C0CEF0CAC0CFF0CBC0D0F03B
:101A9800CCC0D1F0CEC01AFF0001C6A103D00F01FF
:101AA800198102D00F0119910001C6A303D00F01BB
:101AB800198302D00F0119930001C6A503D00F01A5
:101AC800198B02D00F01199B0001C6A703D00F0183
:101AD800198D02D00F01199D0001C6A903D00F016D
:101AE800198F02D00F01199FC4C0C9F0C5C0CAF030
:101AF800C6C0CBF0C7C0CCF0160E06D00001D890F7
:101B0800CC33CB33CA33C933E82EF8D7C9C0CEF0AB
:101B1800CAC0CFF0CBC0D0F0CCC0D1F00001CE51BC
:101B28000001CE6FCF6BD06BD16BCEC018FF020E09
:101B38000001CD19D8A41200F70E0001C819D8A4C5
:101B480012000001C4510001CE6FCF6BD06BD16B76
:101B5800CEC01FFF000E0001C4150001CE6FFF0E9E
:101B68000001C5150001CF6F000E0001C615000168
:101B7800D06F000E0001C7150001D16FCEC0C9F0AB
:101B8800CFC0CAF0D0C0CBF0D1C0CCF0CAC0C9F029
:101B9800CBC0CAF0CCC0CBF00001CC6BC9C0CEF032
:101BA800CAC0CFF0CBC0D0F0CCC0D1F0CEC01EFFA1
:101BB8000001C6A103D00F011D8102D00F011D91A4
:101BC8000001C6A303D00F011D8302D00F011D938E
:101BD8000001C6A503D00F011D8B02D00F011D9B6C
:101BE8000001C6A703D00F011D8D02D00F011D9D56
:101BF8000001C6A903D00F011D8F02D00F011D9F40
:101C0800C4C0C9F0C5C0CAF0C6C0CBF0C7C0CCF0CC
:101C1800160E06D00001D890CC33CB33CA33C93363
:101C2800E82EF8D7C9C0CEF0CAC0CFF0CBC0D0F0EC
:101C3800CCC0D1F00001CE510001CE6FCF6BD06B7C
:101C4800D16BCEC01CFF12000600E9CFB8F0EACF76
:101C5800B9F0E1CFBAF0E2CFBBF0D9CFBCF0DACF20
:101C6800BDF0F3CFBEF0F4CFBFF0F6CFC0F0F7CFA2
:101C7800C1F0F8CFC2F0F5CFC3F0F2A49DD082A096
:101C880094D0400E0001AE6F060E0001AF6F3CC04D
:101C98001EF01F6A050E216E780E206E82EC14F07D
:101CA8001EC024F01FC025F0000E276EB40E266E4D
:101CB8005BEC13F0D890243625360001AE5124266B
:101CC8000001AF51252224C034F025C035F0000EA4
:101CD80035BEFF0E366E376E34C0AEF035C0AFF08D
:101CE80036C0B0F037C0B1F00001AE1FAF1FB01F53
:101CF800B11FAE2B000EAF23B023B123400E00015D
:101D0800AE250001B26F9C0E0001AF210001B36F38
:101D1800000E0001B0210001B46F000E0001B121D6
:101D28000001B56F0001B21FB31FB41FB51FB22B5E
:101D3800000EB323B423B523000E0001B225306E84
:101D4800000E0001B321316E010E0001B421326E84
:101D5800000E0001B521336E34C0AEF035C0AFF0CF
:101D680036C0B0F037C0B1F00001AE1FAF1FB01FD2
:101D7800B11FAE2B000EAF23B023B123000E00011C
:101D8800AE25346E000E0001AF21356E010E000144
:101D9800B021366E000E0001B121376E34C01EF03E
:101DA80035C01FF0BDEC14F006D030C01EF031C0B5
:101DB8001FF0BDEC14F0F294F2A231D03DBE06D073
:101DC800000ECF6E000ECE6E3D8E28D0CF50000193
:101DD800AF6FAE6BCE500001AE25386E000E00011D
:101DE800AF21396E38C01EF039C01FF0010E216EC8
:101DF800F40E206EE4EC13F01EC038F01FC039F06A
:101E08003D80000ECF6E000ECF6E3DAA07D0010EAA
:101E180000016027000E612362236323F292F0A081
:101E280031D03EB006D0000EB36E000EB26E3E80CA
:101E380028D0B3500001AF6FAE6BB2500001AE2591
:101E48003A6E000E0001AF213B6E3AC01EF03BC057
:101E58001FF0010E216EF40E206EE4EC13F01EC08C
:101E68003AF01FC03BF03D82000EB36E000EB36E19
:101E78003DAA07D0010E00016427000E65236623E2
:101E88006723F090C3C0F5FFC2C0F8FFC1C0F7FFD9
:101E9800C0C0F6FFBFC0F4FFBEC0F3FFBDC0DAFF8D
:101EA800BCC0D9FFBBC0E2FFBAC0E1FFB9C0EAFFBE
:101EB800B8C0E9FFB7C0FBFFB6C0FAFF3F921100F8
:101EC8009AEC12F0020E0001816F80828282010E6C
:101ED8000001CB6FF40ECA6F4AEC14F08092829224
:101EE800000E0001CB6F640ECA6F4AEC14F00DECC3
:101EF80014F0C6EC14F0E806D8B405D0CCEC14F015
:101F0800E806D8A404D080827494749201D0809298
:101F18003DBC02D03DA803D03D9C3EEC11F0000131
:101F28007C51D8A41ED000017D51D8A403D0000E46
:101F380000017E6F00017D05D8A403D0960E000134
:101F48007E6F020E00017D19D8A403D0C80E0001CF
:101F58007E6F030E00017D19D8A405D000017E69AB
:101F680002D07DC07EF07EC0C4F00001C56B000EBB
:101F78000001C76F110EC66FFCEC12F00001C451CE
:101F880000017F250001A96F0001A951B40DF3CF0D
:101F9800C4F0F4CFC5F0000E0001C76FC669FCECB1
:101FA80012F00001C4513C6E3DB002D03DA43DD0BA
:101FB8003DA40BD0000E00016C6F000E6D6F000E7B
:101FC8006E6F000E6F6F3D942BD0000181510001A0
:101FD800C46FC56BC66BC76BA00E0001C86F860EB9
:101FE800C96F010ECA6F000ECB6FA9EC13F0C4C005
:101FF800D0F0C5C0D1F0C6C0D2F0C7C0D3F038C049
:10200800D4F039C0D5F00001D66BD76B0DEC12F0C7
:10201800D0C06CF0D1C06DF0D2C06EF0D3C06FF0FC
:102028006DC09CF06CC09BF03D903DB202D03DA6C7
:102038005ED73DA60BD0000E0001706F000E716FC9
:10204800000E726F000E736F3D962BD00001815108
:102058000001C46FC56BC66BC76BA00E0001C86FCB
:10206800860EC96F010ECA6F000ECB6FA9EC13F074
:10207800C4C0D0F0C5C0D1F0C6C0D2F0C7C0D3F03C
:102088003AC0D4F03BC0D5F00001D66BD76B0DEC4D
:1020980012F0D0C070F0D1C071F0D2C072F0D3C0CD
:1020A80073F071C09AF070C099F03D9220D700018A
:1020B800DB6F800EA7EC14F0000E706E000E716ED0
:1020C800000E726E0001D441E842C00B0001D46FCB
:1020D8000001D45170120001D55170120001DB517A
:1020E80071120001D239E842F80B0001D26F0001E9
:1020F800D25171120001D6A5718C0001D6B1718E32
:102108000001D35172120001D6B3728C0001D6516E
:10211800600B606E0001D651100BFF0AD8B46084C2
:1021280060CF50FF000E0001C46F000EC56F000E97
:10213800C66F000EC76FF70E0001C86F010E59EC8D
:102148000CF0000E0001C46F000EC56F000EC66FC4
:10215800000EC76FF70E0001C86F020E59EC0CF0A5
:102168000FD0F70E0001DC6F07D00001DC69000119
:10217800DD6928D00001DC69F70E0001DD6F22D08F
:102188009F0E0001D76FFF0E0001D86F0001D651D6
:10219800600B0001D96FDA6B0001D7510001D91328
:1021A8000001D8510001DA130001DA51000AD8A45D
:1021B800E1D70001D951BF0AD8B4D7D7600AD8B43B
:1021C800D0D7D8D7000E0001C46F000EC56F000E1F
:1021D800C66F000EC76FDCC0C8F0000E8AEC00F0B6
:1021E800000E0001C46F000EC56F000EC66F000E12
:1021F800C76FDCC0C8F0010E8AEC00F0000E0001C9
:10220800C46F000EC56F000EC66F000EC76FDDC02D
:10221800C8F0020E8AEC00F0000E0001C46F000E38
:10222800C56F000EC66F000EC76FDDC0C8F0030E85
:102238008AEC00F0000E0001C46F000EC56F000E9E
:10224800C66F000EC76FDDC0C8F0040E8AEC00F040
:10225800000E0001C46F000EC56F000EC66F000EA1
:10226800C76FDDC0C8F0050E8AEC00F0000EA7ECC1
:1022780014F0120095EC14F00009D8B4C8D0020E7E
:10228800000168190001691100016A1100016B1150
:10229800D8A42AD0010E0001A16F020E0001C46F5C
:1022A800000EC56F000EC66F000EC76FA10E0001AD
:1022B800C86F000E0001C96F080E0001CA6FBC0E7E
:1022C8000001CB6F0DEC06F082A202D0010E01D006
:1022D800000EFF0A0001D46F0001D44782500001AC
:1022E800D419FD0BD419826E060E0001681900017D
:1022F800691100016A1100016B11D8A416D068C0D9
:10230800C4F069C0C5F06AC0C6F06BC0C7F0990ECA
:102318000001C86F000E0001C96F080E0001CA6FE6
:10232800BC0E0001CB6F0DEC06F0080E0001681919
:102338000001691100016A1100016B11D8A413D0C2
:10234800000E0001606F000E616F000E626F000EDC
:10235800636F000E0001646F000E656F000E666FFC
:10236800000E676F3D8A070E0001681900016911A8
:1023780000016A1100016B11D8A43FD081C0C4F0DC
:102388000001C56B60C0C6F061C0C7F067EC14F00F
:10239800C4C078F0C5C079F081C0C4F00001C56B35
:1023A80064C0C6F065C0C7F067EC14F0C4C07AF02A
:1023B800C5C07BF03D9A78C091F0000179510001C9
:1023C800926F7AC093F000017B510001946F68C04E
:1023D800C4F069C0C5F06AC0C6F06BC0C7F0910E02
:1023E8000001C86F000E0001C96F080E0001CA6F16
:1023F800BC0E0001CB6F0DEC06F00F0140BD03D001
:102408000F0130AD02D03D8812003D9812003D8882
:102418001200000E0001D96F0001D7AF0CD00001E7
:10242800D71FD61FD51FD46D000ED523D623D7238B
:10243800010E0001D96F0001D3AF0CD00001D31FEA
:10244800D21FD11FD06D000ED123D223D323010E6A
:102458000001D91B000E0001DA6F000EDB6F000EC1
:10246800DC6F000EDD6F0001D4510001D5110001B1
:10247800D6110001D711D8B442D0010E0001D86F8F
:1024880008D00001D890D437D537D637D7370001D0
:10249800D82B0001D7AFF5D70001D890DA37DB3752
:1024A800DC37DD370001D4510001D05D0001D55182
:1024B8000001D1590001D6510001D2590001D7516C
:1024C8000001D359D8A012D00001D4510001D05F27
:1024D8000001D5510001D15B0001D6510001D25B4A
:1024E8000001D7510001D35B0001DA810001D890C7
:1024F800D733D633D533D4330001D82FCDD7000105
:10250800D9510001D8B409D00001DD1FDC1FDB1F41
:10251800DA6D000EDB23DC23DD23DAC0D0F0DBC06C
:10252800D1F0DCC0D2F0DDC0D3F01200000E896E0D
:10253800FD0E926E000E8A6E9368000E8B6EFC0E76
:10254800946E000E8C6E9568000E8D6E9668100E57
:10255800C16E060E0001D26F050E0001D36F010E89
:102568000001D46F030E0001D56F9D0E0001D66FD8
:10257800040E5BEC10F0A492A490F2949E90A192A9
:10258800F292F090D08EA592A590F184F08C9F9055
:10259800A292800ED56ED768FE0ED66E82905A0E25
:1025A8003C6E000ECD6E000EB16EF18CF18A770E86
:1025B800C16EC298C296C294C08AC088C096C084B0
:1025C800C092C080C09EC280A382A380F28A9D80F0
:1025D800A082F288F086F28EF28CCD80B180D58E02
:1025E800000E0001CB6F020ECA6F4AEC14F0120005
:1025F800000E0001C96F0001C7AF08D00001C66D09
:10260800C71FD8B0C72B010E0001C96F0001C5AFA5
:1026180008D00001C46DC51FD8B0C52B010E00013C
:10262800C91B000E0001CB6F000ECA6F0001C65116
:102638000001C711D8B42CD0010E0001C86F06D014
:102648000001D890C637C7370001C82B0001C7AFB3
:10265800F7D70001D890CA37CB370001C65100011F
:10266800C45D0001C7510001C559D8A00AD00001B6
:10267800C6510001C45F0001C7510001C55B0001DC
:10268800CA810001D890C733C6330001C82FE1D7EB
:102698000001C9510001D8B405D00001CA6DCB1F93
:1026A800D8B0CB2BCAC0C4F0CBC0C5F01200000E06
:1026B8000001AB6F27AE07D0266C271ED8B0272A9B
:1026C800010E0001AB6F25AE07D0246C251ED8B0D3
:1026D800252A010E0001AB1B000E0001AD6F000E94
:1026E800AC6F26502710D8B421D0010E0001AA6F74
:1026F80005D0D890263627360001AA2B27AEF9D761
:102708000001D890AC37AD372650245C27502558A7
:10271800D8A006D02650245E2750255A0001AC8147
:10272800D890273226320001AA2FEAD70001AB51F0
:102738000001D8B405D00001AC6DAD1FD8B0AD2BE9
:10274800ACC024F0ADC025F01200000E0001CC6F23
:10275800000ECD6F000ECE6F000ECF6F0001C4A12A
:1027680010D00001C8510001CC270001C951000157
:10277800CD230001CA510001CE230001CB51000135
:10278800CF230001D890C837C937CA37CB370001E3
:10279800D890C733C633C533C4330001C4510001D0
:1027A800C5110001C6110001C711D8A4D7D7CCC0E4
:1027B800C4F0CDC0C5F0CEC0C6F0CFC0C7F012007F
:1027C800000E236E000E226E20502110D8B41CD0AB
:1027D800010E246E04D0D89020362136242A21AE4A
:1027E800FAD7D8902236233620501E5C21501F5825
:1027F800D8A005D020501E5E21501F5A2280D890A4
:1028080021322032242EEDD722C01EF023C01FF023
:102818001200C282C2B2FED7C4CF80F0810E00017E
:1028280080250001766F0001776BFF0E772376C055
:10283800C4F077C0C5F0000E0001C76F040EC66F64
:10284800FCEC12F00001C4517F0F00017F6F1200F1
:1028580000EE60F04A0EEE6AE806FDE13E6A3D6A67
:1028680000EE28F0150EEE6AE806FDE1A40EF66EFD
:10287800290EF76E000EF86E0900F5CFDEF03F90D6
:102888003F92000EF86E000164EF0FF0DEC0C4F056
:102898000001C56BCAC0C6F0CBC0C7F067EC14F026
:1028A800C4C074F0C5C075F007D0500EE82EFED72E
:1028B80000017407D8A07507000174510001751153
:1028C800D8B41200F2D70001C4510001C603F3CFF7
:1028D800C8F0F4CFC9F00001C4510001C703F35098
:1028E8000001C9270001C5510001C603F3500001CA
:1028F800C927C8C0C4F0C9C0C5F012001E502002C4
:10290800F3CF22F0F4CF23F01E502102F3502326F8
:102918001F502002F350232622C01EF023C01FF0B0
:102928001200010E0001C46F0F0140A709D00F016A
:1029380030A706D00F0120A703D0000E0001C46FF6
:102948000001C45112000001C46FC4C06FFF6E5073
:10295800E00B0001C419D8B41200F9D7010E016EBA
:1029680060BE05D00F0150BF02D0000E016E0150AD
:1029780012001EC020F01FC021F021C0D7FF20C0C8
:10298800D6FF120074A402D0010E1200000E12002D
:0E29980074A202D0010E1200000E12001400F4
:020000040020DA
:08000000FFFFFFFFFFFFFFFF00
:020000040030CA
:0E000000FF021F1EFF8281FF0FC00FE00F40A6
:00000001FF
