:04000000A2EF00F07B
:0E0008003F82FACFBDF0FBCFBEF099ED0FF0B6
:100018003F80D8CF0DF0E8CF0EF0E0CF0FF0FACF49
:1000280010F0FBCF11F0E9CF12F0EACF13F0E1CFD7
:1000380014F0E2CF15F0D9CF16F0DACF17F0F3CFDE
:1000480018F0F4CF19F0F6CF1AF0F7CF1BF0F8CF6D
:100058001CF0F5CF1DF0A4A0A4B201D043D040EC11
:1000680015F00009D8B43CD0890E016E000E026E5E
:10007800EDEC09F000019705D8A409D089C06CF00F
:100088008AC06DF08BC06EF08CC06FF03E80040E9D
:100098000001891900018A1100018B1100018C11DE
:1000A800D8A404D08DC085F08EC084F00D0E000158
:1000B800891900018A1100018B1100018C11D8A443
:1000C8000FD08DC082F00001836B000E00017F6F9E
:1000D800000E7E6F000E0001816F000E806F3D8E56
:1000E800A490A4929EA002D03D849E90A1A202D08A
:1000F8003D86A1921DC0F5FF1CC0F8FF1BC0F7FF8D
:100108001AC0F6FF19C0F4FF18C0F3FF17C0DAFFD2
:1001180016C0D9FF15C0E2FF14C0E1FF13C0EAFF03
:1001280012C0E9FF11C0FBFF10C0FAFF0FC0E0FFCB
:100138000EC0E8FF0DC0D8FF3F901000B3EF14F0D9
:100148000001D46F0001D4510001D8A458D0000197
:10015800CF29D8A454D00F010197CBC0D0F0CCC080
:10016800D1F0CDC0D2F0CEC0D3F0040E06D000013D
:10017800D890D333D233D133D033E82EF8D7D0C088
:10018800D5F0D1C0D6F0D2C0D7F0D3C0D8F0000196
:10019800D5510001D56FD66BD76BD86BD5C000FF92
:1001A800070E0001CB150001D56F000E0001CC151C
:1001B8000001D66F000E0001CD150001D76F000EAB
:1001C8000001CE150001D86FD5C0D0F0D6C0D1F04F
:1001D800D7C0D2F0D8C0D3F0050ED8900001D037E0
:1001E800D137D237D337E82EF8D7D0C0D5F0D1C021
:1001F800D6F0D2C0D7F0D3C0D8F0D5C001FF0001E7
:10020800D405D8A458D00001CF29D8A454D00F01C0
:100218000597CBC0D0F0CCC0D1F0CDC0D2F0CEC0C5
:10022800D3F0040E06D00001D890D333D233D133A3
:10023800D033E82EF8D7D0C0D5F0D1C0D6F0D2C090
:10024800D7F0D3C0D8F00001D5510001D56FD66BD7
:10025800D76BD86BD5C004FF070E0001CB15000182
:10026800D56F000E0001CC150001D66F000E0001FD
:10027800CD150001D76F000E0001CE150001D86F13
:10028800D5C0D0F0D6C0D1F0D7C0D2F0D8C0D3F006
:10029800050ED8900001D037D137D237D337E82EA2
:1002A800F8D7D0C0D5F0D1C0D6F0D2C0D7F0D3C0DF
:1002B800D8F0D5C005FF020E0001D419D8A458D033
:1002C8000001CF29D8A454D00F010997CBC0D0F092
:1002D800CCC0D1F0CDC0D2F0CEC0D3F0040E06D041
:1002E8000001D890D333D233D133D033E82EF8D7A6
:1002F800D0C0D5F0D1C0D6F0D2C0D7F0D3C0D8F096
:100308000001D5510001D56FD66BD76BD86BD5C01E
:1003180008FF070E0001CB150001D56F000E000184
:10032800CC150001D66F000E0001CD150001D76F66
:10033800000E0001CE150001D86FD5C0D0F0D6C090
:10034800D1F0D7C0D2F0D8C0D3F0050ED8900001B4
:10035800D037D137D237D337E82EF8D7D0C0D5F039
:10036800D1C0D6F0D2C0D7F0D3C0D8F0D5C009FFDD
:10037800030E0001D419D8A458D00001CF29D8A45D
:1003880054D00F010D97CBC0D0F0CCC0D1F0CDC068
:10039800D2F0CEC0D3F0040E06D00001D890D333EB
:1003A800D233D133D033E82EF8D7D0C0D5F0D1C06E
:1003B800D6F0D2C0D7F0D3C0D8F00001D551000193
:1003C800D56FD66BD76BD86BD5C00CFF070E000165
:1003D800CB150001D56F000E0001CC150001D66FBA
:1003E800000E0001CD150001D76F000E0001CE15DB
:1003F8000001D86FD5C0D0F0D6C0D1F0D7C0D2F0A8
:10040800D8C0D3F0050ED8900001D037D137D237F5
:10041800D337E82EF8D7D0C0D5F0D1C0D6F0D2C0A7
:10042800D7F0D3C0D8F0D5C00DFF040E0001D41901
:10043800D8A458D00001CF29D8A454D00F011197BF
:10044800CBC0D0F0CCC0D1F0CDC0D2F0CEC0D3F06C
:10045800040E06D00001D890D333D233D133D03331
:10046800E82EF8D7D0C0D5F0D1C0D6F0D2C0D7F09A
:10047800D3C0D8F00001D5510001D56FD66BD76B2A
:10048800D86BD5C010FF070E0001CB150001D56F42
:10049800000E0001CC150001D66F000E0001CD152D
:1004A8000001D76F000E0001CE150001D86FD5C02E
:1004B800D0F0D6C0D1F0D7C0D2F0D8C0D3F0050E56
:1004C800D8900001D037D137D237D337E82EF8D7B4
:1004D800D0C0D5F0D1C0D6F0D2C0D7F0D3C0D8F0B4
:1004E800D5C011FF050E0001D419D8A458D00001B9
:1004F800CF29D8A454D00F011597CBC0D0F0CCC0C9
:10050800D1F0CDC0D2F0CEC0D3F0040E06D0000199
:10051800D890D333D233D133D033E82EF8D7D0C0E4
:10052800D5F0D1C0D6F0D2C0D7F0D3C0D8F00001F2
:10053800D5510001D56FD66BD76BD86BD5C014FFDA
:10054800070E0001CB150001D56F000E0001CC1578
:100558000001D66F000E0001CD150001D76F000E07
:100568000001CE150001D86FD5C0D0F0D6C0D1F0AB
:10057800D7C0D2F0D8C0D3F0050ED8900001D0373C
:10058800D137D237D337E82EF8D7D0C0D5F0D1C07D
:10059800D6F0D2C0D7F0D3C0D8F0D5C015FF00012F
:1005A800D4510001D8A489D0F70E0001CF19D8A4DE
:1005B80084D00F0101870001CB510001D56FD66BA4
:1005C800D76BD86BD5C003FF000E0001CB15000117
:1005D800D56FFF0E0001CC150001D66F000E00018B
:1005E800CD150001D76F000E0001CE150001D86FA0
:1005F800D5C0D0F0D6C0D1F0D7C0D2F0D8C0D3F093
:10060800D1C0D0F0D2C0D1F0D3C0D2F00001D36BAA
:10061800D0C0D5F0D1C0D6F0D2C0D7F0D3C0D8F072
:10062800D5C002FF0001CDA103D00F01018102D086
:100638000F0101910001CDA303D00F01018302D066
:100648000F0101930001CDA503D00F01018B02D04A
:100658000F01019B0001CDA703D00F01018D02D02E
:100668000F01019D0001CDA903D00F01018F02D018
:100678000F01019FCBC0D0F0CCC0D1F0CDC0D2F0DB
:10068800CEC0D3F0160E06D00001D890D333D233A3
:10069800D133D033E82EF8D7D0C0D5F0D1C0D6F0BA
:1006A800D2C0D7F0D3C0D8F00001D5510001D56F22
:1006B800D66BD76BD86BD5C000FF0001D405D8A482
:1006C80089D0F70E0001CF19D8A484D00F0105876F
:1006D8000001CB510001D56FD66BD76BD86BD5C055
:1006E80007FF000E0001CB150001D56FFF0E0001BA
:1006F800CC150001D66F000E0001CD150001D76F93
:10070800000E0001CE150001D86FD5C0D0F0D6C0BC
:10071800D1F0D7C0D2F0D8C0D3F0D1C0D0F0D2C079
:10072800D1F0D3C0D2F00001D36BD0C0D5F0D1C086
:10073800D6F0D2C0D7F0D3C0D8F0D5C006FF00019C
:10074800CDA103D00F01058102D00F010591000151
:10075800CDA303D00F01058302D00F01059300013B
:10076800CDA503D00F01058B02D00F01059B000119
:10077800CDA703D00F01058D02D00F01059D000103
:10078800CDA903D00F01058F02D00F01059FCBC063
:10079800D0F0CCC0D1F0CDC0D2F0CEC0D3F0160E80
:1007A80006D00001D890D333D233D133D033E82EDA
:1007B800F8D7D0C0D5F0D1C0D6F0D2C0D7F0D3C0CA
:1007C800D8F00001D5510001D56FD66BD76BD86B27
:1007D800D5C004FF020E0001D419D8A489D0F70EA1
:1007E8000001CF19D8A484D00F0109870001CB518B
:1007F8000001D56FD66BD76BD86BD5C00BFF000E39
:100808000001CB150001D56FFF0E0001CC150001CA
:10081800D66F000E0001CD150001D76F000E000144
:10082800CE150001D86FD5C0D0F0D6C0D1F0D7C052
:10083800D2F0D8C0D3F0D1C0D0F0D2C0D1F0D3C05C
:10084800D2F00001D36BD0C0D5F0D1C0D6F0D2C061
:10085800D7F0D3C0D8F0D5C00AFF0001CDA103D08E
:100868000F01098102D00F0109910001CDA303D026
:100878000F01098302D00F0109930001CDA503D010
:100888000F01098B02D00F01099B0001CDA703D0EE
:100898000F01098D02D00F01099D0001CDA903D0D8
:1008A8000F01098F02D00F01099FCBC0D0F0CCC037
:1008B800D1F0CDC0D2F0CEC0D3F0160E06D00001D4
:1008C800D890D333D233D133D033E82EF8D7D0C031
:1008D800D5F0D1C0D6F0D2C0D7F0D3C0D8F000013F
:1008E800D5510001D56FD66BD76BD86BD5C008FF33
:1008F800030E0001D419D8A489D0F70E0001CF192E
:10090800D8A484D00F010D870001CB510001D56F09
:10091800D66BD76BD86BD5C00FFF000E0001CB1577
:100928000001D56FFF0E0001CC150001D66F000E37
:100938000001CD150001D76F000E0001CE15000192
:10094800D86FD5C0D0F0D6C0D1F0D7C0D2F0D8C0BB
:10095800D3F0D1C0D0F0D2C0D1F0D3C0D2F00001D2
:10096800D36BD0C0D5F0D1C0D6F0D2C0D7F0D3C0A9
:10097800D8F0D5C00EFF0001CDA103D00F010D8125
:1009880002D00F010D910001CDA303D00F010D83FB
:1009980002D00F010D930001CDA503D00F010D8BDF
:1009A80002D00F010D9B0001CDA703D00F010D8DC3
:1009B80002D00F010D9D0001CDA903D00F010D8FAD
:1009C80002D00F010D9FCBC0D0F0CCC0D1F0CDC06C
:1009D800D2F0CEC0D3F0160E06D00001D890D33393
:1009E800D233D133D033E82EF8D7D0C0D5F0D1C028
:1009F800D6F0D2C0D7F0D3C0D8F00001D55100014D
:100A0800D56FD66BD76BD86BD5C00CFF040E000121
:100A1800D419D8A489D0F70E0001CF19D8A484D04E
:100A28000F0111870001CB510001D56FD66BD76B31
:100A3800D86BD5C013FF000E0001CB150001D56F90
:100A4800FF0E0001CC150001D66F000E0001CD1578
:100A58000001D76F000E0001CE150001D86FD5C078
:100A6800D0F0D6C0D1F0D7C0D2F0D8C0D3F0D1C022
:100A7800D0F0D2C0D1F0D3C0D2F00001D36BD0C037
:100A8800D5F0D1C0D6F0D2C0D7F0D3C0D8F0D5C0F9
:100A980012FF0001CDA103D00F01118102D00F0177
:100AA80011910001CDA303D00F01118302D00F01D2
:100AB80011930001CDA503D00F01118B02D00F01B6
:100AC800119B0001CDA703D00F01118D02D00F019A
:100AD800119D0001CDA903D00F01118F02D00F0184
:100AE800119FCBC0D0F0CCC0D1F0CDC0D2F0CEC0D9
:100AF800D3F0160E06D00001D890D333D233D133B9
:100B0800D033E82EF8D7D0C0D5F0D1C0D6F0D2C0B7
:100B1800D7F0D3C0D8F00001D5510001D56FD66BFE
:100B2800D76BD86BD5C010FF050E0001D419D8A417
:100B38001200F70E0001CF19D8A412000F01158773
:100B48000001CB510001D56FD66BD76BD86BD5C0E0
:100B580017FF000E0001CB150001D56FFF0E000135
:100B6800CC150001D66F000E0001CD150001D76F1E
:100B7800000E0001CE150001D86FD5C0D0F0D6C048
:100B8800D1F0D7C0D2F0D8C0D3F0D1C0D0F0D2C005
:100B9800D1F0D3C0D2F00001D36BD0C0D5F0D1C012
:100BA800D6F0D2C0D7F0D3C0D8F0D5C016FF000118
:100BB800CDA103D00F01158102D00F0115910001BD
:100BC800CDA303D00F01158302D00F0115930001A7
:100BD800CDA503D00F01158B02D00F01159B000185
:100BE800CDA703D00F01158D02D00F01159D00016F
:100BF800CDA903D00F01158F02D00F01159FCBC0CF
:100C0800D0F0CCC0D1F0CDC0D2F0CEC0D3F0160E0B
:100C180006D00001D890D333D233D133D033E82E65
:100C2800F8D7D0C0D5F0D1C0D6F0D2C0D7F0D3C055
:100C3800D8F00001D5510001D56FD66BD76BD86BB2
:100C4800D5C014FF12000F0140B73FD1D1C045FFF6
:100C58000001D2AD03D00F01458D02D00F01459D93
:100C68000001D2A779D00001CB510001D76FD86B12
:100C7800D96BDA6BD7C044FF000E0001CB15000119
:100C8800D76FFF0E0001CC150001D86F000E0001D0
:100C9800CD150001D96F000E0001CE150001DA6FE5
:100CA800D7C0D3F0D8C0D4F0D9C0D5F0DAC0D6F0C8
:100CB800D4C0D3F0D5C0D4F0D6C0D5F00001D66BDF
:100CC800D3C0D7F0D4C0D8F0D5C0D9F0D6C0DAF0A8
:100CD800D7C043FF000E0F01426F0F01428700018A
:100CE800CDA102D00F0142810001CDA302D00F0196
:100CF80042830001CDA502D00F01428B0001CDA790
:100D080002D00F01428D0001CDA902D00F01428F00
:100D1800CBC0D3F0CCC0D4F0CDC0D5F0CEC0D6F087
:100D2800160E06D00001D890D633D533D433D3333A
:100D3800E82EF8D7D3C0D7F0D4C0D8F0D5C0D9F0B2
:100D4800D6C0DAF00001D7510001D76FD86BD96B44
:100D5800DA6BD7C041FF59D00F014297CBC0D3F00F
:100D6800CCC0D4F0CDC0D5F0CEC0D6F0040E06D09D
:100D78000001D890D633D533D433D333E82EF8D7FF
:100D8800D3C0D7F0D4C0D8F0D5C0D9F0D6C0DAF0E7
:100D98000001D7510001D76FD86BD96BDA6BD7C078
:100DA80041FF070E0001CB150001D76F000E0001AF
:100DB800CC150001D86F000E0001CD150001D96FC8
:100DC800000E0001CE150001DA6FD7C0D3F0D8C0ED
:100DD800D4F0D9C0D5F0DAC0D6F0050ED89000010D
:100DE800D337D437D537D637E82EF8D7D3C0D7F08E
:100DF800D4C0D8F0D5C0D9F0D6C0DAF00F0142512E
:100E08001F0B0F01426FD7C042FF0001D2A103D0D0
:100E18000F01408102D00F0140910001D2A303D0FD
:100E28000F01408302D00F014093CFC0D9FFD0C03B
:100E3800DAFFDF500F01466F000120EE01F0CF51BD
:100E4800D926D051DA22DF500F01476F000120EE7A
:100E580002F0CF51D926D051DA22DF500F01486F66
:100E6800000120EE03F0CF51D926D051DA22DF500D
:100E78000F01496F000120EE04F0CF51D926D0515F
:100E8800DA22DF500F014A6F000120EE05F0CF5142
:100E9800D926D051DA22DF500F014B6F000120EE26
:100EA80006F0CF51D926D051DA22DF500F014C6F0E
:100EB800000120EE07F0CF51D926D051DA22DF50B9
:100EC8000F014D6F0F01408712000F0130B73FD15E
:100ED800D1C035FF0001D2AD03D00F01358D02D04E
:100EE8000F01359D0001D2A779D00001CB51000137
:100EF800D76FD86BD96BDA6BD7C034FF000E0001FF
:100F0800CB150001D76FFF0E0001CC150001D86F7B
:100F1800000E0001CD150001D96F000E0001CE159D
:100F28000001DA6FD7C0D3F0D8C0D4F0D9C0D5F05B
:100F3800DAC0D6F0D4C0D3F0D5C0D4F0D6C0D5F03E
:100F48000001D66BD3C0D7F0D4C0D8F0D5C0D9F043
:100F5800D6C0DAF0D7C033FF000E0F01326F0F0191
:100F680032870001CDA102D00F0132810001CDA34B
:100F780002D00F0132830001CDA502D00F01328BC0
:100F88000001CDA702D00F01328D0001CDA902D0FA
:100F98000F01328FCBC0D3F0CCC0D4F0CDC0D5F088
:100FA800CEC0D6F0160E06D00001D890D633D53371
:100FB800D433D333E82EF8D7D3C0D7F0D4C0D8F081
:100FC800D5C0D9F0D6C0DAF00001D7510001D76FEB
:100FD800D86BD96BDA6BD7C031FF59D00F01329774
:100FE800CBC0D3F0CCC0D4F0CDC0D5F0CEC0D6F0B5
:100FF800040E06D00001D890D633D533D433D3337A
:10100800E82EF8D7D3C0D7F0D4C0D8F0D5C0D9F0DF
:10101800D6C0DAF00001D7510001D76FD86BD96B71
:10102800DA6BD7C031FF070E0001CB150001D76F6F
:10103800000E0001CC150001D86F000E0001CD157F
:101048000001D96F000E0001CE150001DA6FD7C07C
:10105800D3F0D8C0D4F0D9C0D5F0DAC0D6F0050E98
:10106800D8900001D337D437D537D637E82EF8D7FC
:10107800D3C0D7F0D4C0D8F0D5C0D9F0D6C0DAF0F4
:101088000F0132511F0B0F01326FD7C032FF000121
:10109800D2A103D00F01308102D00F01309100019D
:1010A800D2A303D00F01308302D00F013093CFC0F9
:1010B800D9FFD0C0DAFFDF500F01366F000120EEF4
:1010C80001F0CF51D926D051DA22DF500F01376F06
:1010D800000120EE02F0CF51D926D051DA22DF509C
:1010E8000F01386F000120EE03F0CF51D926D051FF
:1010F800DA22DF500F01396F000120EE04F0CF51E2
:10110800D926D051DA22DF500F013A6F000120EEC4
:1011180005F0CF51D926D051DA22DF500F013B6FAD
:10112800000120EE06F0CF51D926D051DA22DF5047
:101138000F013C6F000120EE07F0CF51D926D051A6
:10114800DA22DF500F013D6F0F01308712000F01C7
:1011580020B71200D1C025FF0001D2AD03D00F0186
:10116800258D02D00F01259D0001D2A779D000015D
:10117800CB510001D76FD86BD96BDA6BD7C024FF7E
:10118800000E0001CB150001D76FFF0E0001CC1532
:101198000001D86F000E0001CD150001D96F000EB7
:1011A8000001CE150001DA6FD7C0D3F0D8C0D4F053
:1011B800D9C0D5F0DAC0D6F0D4C0D3F0D5C0D4F0B9
:1011C800D6C0D5F00001D66BD3C0D7F0D4C0D8F0C4
:1011D800D5C0D9F0D6C0DAF0D7C023FF000E0F0172
:1011E800226F0F0122870001CDA102D00F012281B9
:1011F8000001CDA302D00F0122830001CDA502D0AA
:101208000F01228B0001CDA702D00F01228D000112
:10121800CDA902D00F01228FCBC0D3F0CCC0D4F01F
:10122800CDC0D5F0CEC0D6F0160E06D00001D890AD
:10123800D633D533D433D333E82EF8D7D3C0D7F049
:10124800D4C0D8F0D5C0D9F0D6C0DAF00001D75153
:101258000001D76FD86BD96BDA6BD7C021FF59D093
:101268000F012297CBC0D3F0CCC0D4F0CDC0D5F0BD
:10127800CEC0D6F0040E06D00001D890D633D533B0
:10128800D433D333E82EF8D7D3C0D7F0D4C0D8F0AE
:10129800D5C0D9F0D6C0DAF00001D7510001D76F18
:1012A800D86BD96BDA6BD7C021FF070E0001CB15BD
:1012B8000001D76F000E0001CC150001D86F000E99
:1012C8000001CD150001D96F000E0001CE150001F7
:1012D800DA6FD7C0D3F0D8C0D4F0D9C0D5F0DAC00F
:1012E800D6F0050ED8900001D337D437D537D63786
:1012F800E82EF8D7D3C0D7F0D4C0D8F0D5C0D9F0ED
:10130800D6C0DAF00F0122511F0B0F01226FD7C090
:1013180022FF0001D2A103D00F01208102D00F01CA
:1013280020910001D2A303D00F01208302D00F0126
:101338002093CFC0D9FFD0C0DAFFDF500F01266F4E
:10134800000120EE01F0CF51D926D051DA22DF502A
:101358000F01276F000120EE02F0CF51D926D0519E
:10136800DA22DF500F01286F000120EE03F0CF5181
:10137800D926D051DA22DF500F01296F000120EE63
:1013880004F0CF51D926D051DA22DF500F012A6F4D
:10139800000120EE05F0CF51D926D051DA22DF50D6
:1013A8000F012B6F000120EE06F0CF51D926D05146
:1013B800DA22DF500F012C6F000120EE07F0CF5129
:1013C800D926D051DA22DF500F012D6F0F01208767
:1013D8001200000E0B6E74BE0B8074BC0B820F01E2
:1013E80050AF43D101C0D9FF02C0DAFFDE6ADE6A1E
:1013F800DE6ADD6A20EE04F00150D9260250DA22B6
:1014080056CFDFFF20EE05F00150D9260250DA2230
:1014180057CFDFFF20EE06F00150D9260250DA221E
:1014280058CFDFFF20EE07F00150D9260250DA220C
:1014380059CFDFFF20EE08F00150D9260250DA22FA
:101448005ACFDFFF20EE09F00150D9260250DA22E8
:101458005BCFDFFF20EE0AF00150D9260250DA22D6
:101468005CCFDFFF20EE0BF00150D9260250DA22C4
:101478005DCFDFFF20EE0EF00150D9260250DA22B0
:101488000F0155AD02D0010E01D0000EDF6E20EE27
:101498000DF00150D9260250DA220F0155510F0BD9
:1014A800DF6E20EE0CF00150D9260250DA220F012F
:1014B80052A702D0010E01D0000EDF6E0F0152B705
:1014C80044D051CF03F0046A056A066A030ED89027
:1014D8000336043605360636E82EF9D701C0D9FF9B
:1014E80002C0DAFF03C0DEFF04C0DEFF05C0DEFF76
:1014F80006C0DEFF0F015239E842070B070B0C6EDE
:1015080001C0D9FF02C0DAFFDECF03F0DECF04F05E
:10151800DECF05F0DECF06F00C500324076E000E78
:101528000420086E000E0520096E000E06200A6EC3
:1015380001C0D9FF02C0DAFF07C0DEFF08C0DEFF26
:1015480009C0DEFF0AC0DEFF8DD054CF03F0046A65
:10155800056A066A01C0D9FF02C0DAFF03C0DEFFD0
:1015680004C0DEFF05C0DEFF06C0DEFF53CF03F078
:10157800046A056A066A05C006F004C005F003C0DF
:1015880004F0036A01C0D9FF02C0DAFF0350DE2667
:101598000450DE220550DE220650DE220F0152A141
:1015A8000CD001C0D9FF02C0DAFF000EDE12000E17
:1015B800DE12010EDE12000EDE120F0152A30CD055
:1015C80001C0D9FF02C0DAFF000EDE12000EDE12E3
:1015D800020EDE12000EDE120F0152AB0CD001C05B
:1015E800D9FF02C0DAFF000EDE12000EDE12040E72
:1015F800DE12000EDE120F0152AD0CD001C0D9FF71
:1016080002C0DAFF000EDE12000EDE12080EDE1235
:10161800000EDE120F0152AF0CD001C0D9FF02C07C
:10162800DAFF000EDE12000EDE12100EDE12000EC1
:10163800DE1251CF03F0046A056A066A150ED890C7
:101648000336043605360636E82EF9D701C0D9FF29
:1016580002C0DAFF0350DE120450DE120550DE121B
:101668000650DE120F01509F120060AE120001C03A
:10167800D9FF02C0DAFFDE6ADE6ADE6ADD6A20EEC2
:1016880004F00150D9260250DA2266CFDFFF20EE9F
:1016980005F00150D9260250DA2267CFDFFF20EE8D
:1016A80006F00150D9260250DA2268CFDFFF20EE7B
:1016B80007F00150D9260250DA2269CFDFFF20EE69
:1016C80008F00150D9260250DA226ACFDFFF20EE57
:1016D80009F00150D9260250DA226BCFDFFF20EE45
:1016E8000AF00150D9260250DA226CCFDFFF20EE33
:1016F8000BF00150D9260250DA226DCFDFFF20EE21
:101708000EF00150D9260250DA2265AC02D0010E43
:1017180001D0000EDF6E20EE0DF00150D9260250E8
:10172800DA2265500F0BDF6E20EE0CF00150D9263F
:101738000250DA2262A602D0010E01D0000EDF6E3E
:1017480062B643D061CF03F0046A056A066A030EE5
:10175800D8900336043605360636E82EF9D701C088
:10176800D9FF02C0DAFF03C0DEFF04C0DEFF05C0F8
:10177800DEFF06C0DEFF6238E842070B070B0C6E7F
:1017880001C0D9FF02C0DAFFDECF03F0DECF04F0DC
:10179800DECF05F0DECF06F00C500324076E000EF6
:1017A8000420086E000E0520096E000E06200A6E41
:1017B80001C0D9FF02C0DAFF07C0DEFF08C0DEFFA4
:1017C80009C0DEFF0AC0DEFF88D064CF03F0046AD8
:1017D800056A066A01C0D9FF02C0DAFF03C0DEFF4E
:1017E80004C0DEFF05C0DEFF06C0DEFF63CF03F0E6
:1017F800046A056A066A05C006F004C005F003C05D
:1018080004F0036A01C0D9FF02C0DAFF0350DE26E4
:101818000450DE220550DE220650DE2262A00CD0E3
:1018280001C0D9FF02C0DAFF000EDE12000EDE1280
:10183800010EDE12000EDE1262A20CD001C0D9FF2A
:1018480002C0DAFF000EDE12000EDE12020EDE12F9
:10185800000EDE1262AA0CD001C0D9FF02C0DAFF66
:10186800000EDE12000EDE12040EDE12000EDE1274
:1018780062AC0CD001C0D9FF02C0DAFF000EDE1244
:10188800000EDE12080EDE12000EDE1262AE0CD062
:1018980001C0D9FF02C0DAFF000EDE12000EDE1210
:1018A800100EDE12000EDE1261CF03F0046A056A24
:1018B800066A150ED8900336043605360636E82E25
:1018C800F9D701C0D9FF02C0DAFF0350DE12045075
:1018D800DE120550DE120650DE12609E1200000174
:1018E800D46F0001D405D8A456D00001CF29D8A4BC
:1018F80052D0CBC0D0F0CCC0D1F0CDC0D2F0CEC049
:10190800D3F0040E06D00001D890D333D233D133AC
:10191800D033E82EF8D7D0C0D5F0D1C0D6F0D2C099
:10192800D7F0D3C0D8F00001D5510001D56FD66BE0
:10193800D76BD86BD5C018FF070E0001CB15000177
:10194800D56F000E0001CC150001D66F000E000106
:10195800CD150001D76F000E0001CE150001D86F1C
:10196800D5C0D0F0D6C0D1F0D7C0D2F0D8C0D3F00F
:10197800050ED8900001D037D137D237D337E82EAB
:10198800F8D7D0C0D5F0D1C0D6F0D2C0D7F0D3C0E8
:10199800D8F0D5C019FF020E0001D419D8A456D02A
:1019A8000001CF29D8A452D0CBC0D0F0CCC0D1F000
:1019B800CDC0D2F0CEC0D3F0040E06D00001D8902E
:1019C800D333D233D133D033E82EF8D7D0C0D5F0C3
:1019D800D1C0D6F0D2C0D7F0D3C0D8F00001D551CD
:1019E8000001D56FD66BD76BD86BD5C01CFF070E1F
:1019F8000001CB150001D56F000E0001CC150001C8
:101A0800D66F000E0001CD150001D76F000E000142
:101A1800CE150001D86FD5C0D0F0D6C0D1F0D7C050
:101A2800D2F0D8C0D3F0050ED8900001D037D13706
:101A3800D237D337E82EF8D7D0C0D5F0D1C0D6F0FA
:101A4800D2C0D7F0D3C0D8F0D5C01DFF0001D4054F
:101A5800D8A487D0F70E0001CF19D8A482D00001EE
:101A6800CB510001D56FD66BD76BD86BD5C01BFF98
:101A7800000E0001CB150001D56FFF0E0001CC153B
:101A88000001D66F000E0001CD150001D76F000EC2
:101A98000001CE150001D86FD5C0D0F0D6C0D1F066
:101AA800D7C0D2F0D8C0D3F0D1C0D0F0D2C0D1F0D6
:101AB800D3C0D2F00001D36BD0C0D5F0D1C0D6F0DE
:101AC800D2C0D7F0D3C0D8F0D5C01AFF0001CDA13D
:101AD80003D00F01198102D00F0119910001CDA384
:101AE80003D00F01198302D00F0119930001CDA56E
:101AF80003D00F01198B02D00F01199B0001CDA74C
:101B080003D00F01198D02D00F01199D0001CDA935
:101B180003D00F01198F02D00F01199FCBC0D0F04D
:101B2800CCC0D1F0CDC0D2F0CEC0D3F0160E06D0C6
:101B38000001D890D333D233D133D033E82EF8D73D
:101B4800D0C0D5F0D1C0D6F0D2C0D7F0D3C0D8F02D
:101B58000001D5510001D56FD66BD76BD86BD5C0B6
:101B680018FF020E0001D419D8A41200F70E0001C4
:101B7800CF19D8A412000001CB510001D56FD66B44
:101B8800D76BD86BD5C01FFF000E0001CB15000125
:101B9800D56FFF0E0001CC150001D66F000E0001B5
:101BA800CD150001D76F000E0001CE150001D86FCA
:101BB800D5C0D0F0D6C0D1F0D7C0D2F0D8C0D3F0BD
:101BC800D1C0D0F0D2C0D1F0D3C0D2F00001D36BD5
:101BD800D0C0D5F0D1C0D6F0D2C0D7F0D3C0D8F09D
:101BE800D5C01EFF0001CDA103D00F011D8102D079
:101BF8000F011D910001CDA303D00F011D8302D059
:101C08000F011D930001CDA503D00F011D8B02D03C
:101C18000F011D9B0001CDA703D00F011D8D02D020
:101C28000F011D9D0001CDA903D00F011D8F02D00A
:101C38000F011D9FCBC0D0F0CCC0D1F0CDC0D2F0E9
:101C4800CEC0D3F0160E06D00001D890D333D233CD
:101C5800D133D033E82EF8D7D0C0D5F0D1C0D6F0E4
:101C6800D2C0D7F0D3C0D8F00001D5510001D56F4C
:101C7800D66BD76BD86BD5C01CFF1200A5EC13F040
:101C8800020E0001886F80828282010E0001D26FED
:101C9800F40ED16FD8EC14F080928292000E0001FD
:101CA800D26F640ED16FD8EC14F054EC15F0E8063E
:101CB800D8B405D05AEC15F0E806D8A404D0808230
:101CC8007494749201D080923DAE43D0000180514B
:101CD80000017E250001CB6F0001815100017F21A9
:101CE8000001CC6F88C0CDF00001CE6BF5EC14F08C
:101CF800D8900001CC310101096F0001CB310101FD
:101D0800086F08C160F009C161F00001626B636B84
:101D1800000182510101086F000183510101096F1F
:101D280001010A6B01010B6B010108510001605DA3
:101D3800010109510001615901010A51000162596B
:101D480001010B5100016359D8A003D03D9E3D8C81
:101D58003D883EB002D03DA803D03E90EDEC10F097
:101D680000018451D8A41ED0030E00018519D8A4FF
:101D780003D0000E0001866F020E00018519D8A459
:101D880003D0960E0001866F00018505D8A403D004
:101D9800C80E0001866F00018551D8A405D0000146
:101DA800866902D085C086F086C0CBF00001CC6B76
:101DB800000E0001CE6F0D0ECD6F46EC13F0000142
:101DC80087510001CB27000E0001CC230001CCBFB6
:101DD80008D00001CC05D8A004D00001B069B40E29
:101DE80020D086C0CBF00001CC6B000E0001CE6F76
:101DF8000D0ECD6F46EC13F00001CB510001872585
:101E08000001B06F0001B051B40DF3CFCBF0F4CFA7
:101E1800CCF0000E0001CE6FCD6946EC13F0000146
:101E2800CB513C6E3DB002D03DA43DD03DA40BD07B
:101E3800000E0001706F000E716F000E726F000EC1
:101E4800736F3D942BD0000188510001CB6FCC6B90
:101E5800CD6BCE6BA00E0001CF6F860ED06F010E3A
:101E6800D16F000ED26F4FEC14F0CBC000F1CCC094
:101E780001F1CDC002F1CEC003F138C004F139C080
:101E880005F10101066B076BB9EC12F000C170F0A7
:101E980001C171F002C172F003C173F071C0A3F007
:101EA80070C0A2F03D903DB202D03DA6FED63DA640
:101EB8000BD0000E0001746F000E756F000E766F68
:101EC800000E776F3D962BD0000188510001CB6F33
:101ED800CC6BCD6BCE6BA00E0001CF6F860ED06F92
:101EE800010ED16F000ED26F4FEC14F0CBC000F191
:101EF800CCC001F1CDC002F1CEC003F13AC004F16B
:101F08003BC005F10101066B076BB9EC12F000C18B
:101F180074F001C175F002C176F003C177F075C0A5
:101F2800A1F074C0A0F03D92C0D60600E9CFBFF082
:101F3800EACFC0F0E1CFC1F0E2CFC2F0D9CFC3F011
:101F4800DACFC4F0F3CFC5F0F4CFC6F0F6CFC7F0C0
:101F5800F7CFC8F0F8CFC9F0F5CFCAF0F2A4ABD0EC
:101F680082A002D0010E01D0000EFF0A0001B56F59
:101F780082500001B519FE0BB519826E82A094D06B
:101F8800400E0001B56F060E0001B66F3CC01EF092
:101F98001F6A050E216E780E206E10EC15F01EC01B
:101FA80024F01FC025F0000E276EB40E266E01EC3B
:101FB80014F0D890243625360001B55124260001A6
:101FC800B651252224C034F025C035F0000E35BEA8
:101FD800FF0E366E376E34C0B5F035C0B6F036C079
:101FE800B7F037C0B8F00001B51FB61FB71FB81F4C
:101FF800B52B000EB623B723B823400E0001B52534
:102008000001B96F9C0E0001B6210001BA6F000EE5
:102018000001B7210001BB6F000E0001B8210001CB
:10202800BC6F0001B91FBA1FBB1FBC1FB92B000E24
:10203800BA23BB23BC23000E0001B925306E000E65
:102048000001BA21316E010E0001BB21326E000E73
:102058000001BC21336E34C0B5F035C0B6F036C0CF
:10206800B7F037C0B8F00001B51FB61FB71FB81FCB
:10207800B52B000EB623B723B823000E0001B525F3
:10208800346E000E0001B621356E010E0001B72135
:10209800366E000E0001B821376E34C01EF035C010
:1020A8001FF04BEC15F006D030C01EF031C01FF009
:1020B8004BEC15F0F294F2A236D03EB206D0000EE8
:1020C800CF6E000ECE6E3E822DD0CF500001B66F7F
:1020D800B56BCE500001B525386E000E0001B62153
:1020E800396E38C01EF039C01FF0010E216EF40E93
:1020F800206E8AEC14F01EC038F01FC039F03D8005
:10210800000ECF6E000ECF6E3DAA07D0010E000163
:102118006427000E6523662367233DAE03D00001C4
:102128007E4B7F2BF292F0A036D03EB406D0000E44
:10213800B36E000EB26E3E842DD0B3500001B66F60
:10214800B56BB2500001B5253A6E000E0001B621FC
:102158003B6E3AC01EF03BC01FF0010E216EF40E1C
:10216800206E8AEC14F01EC03AF01FC03BF03D828E
:10217800000EB36E000EB36E3DAA07D0010E00012B
:102188006827000E69236A236B233DAE03D0000144
:10219800804B812BF090CAC0F5FFC9C0F8FFC8C0BA
:1021A800F7FFC7C0F6FFC6C0F4FFC5C0F3FFC4C041
:1021B800DAFFC3C0D9FFC2C0E2FFC1C0E1FFC0C09F
:1021C800EAFFBFC0E9FFBEC0FBFFBDC0FAFF3F92F8
:1021D800110023EC15F00009D8B4E2D0020E00017A
:1021E8006C1900016D1100016E1100016F11D8A466
:1021F8002AD0010E0001A86F020E0001CB6F000E5D
:10220800CC6F000ECD6F000ECE6FA80E0001CF6F01
:10221800000E0001D06F080E0001D16FBC0E000146
:10222800D26F27EC06F082A202D0010E01D0000E78
:10223800FF0A0001DB6F0001DB4782500001DB1958
:10224800FD0BDB19826E060E00016C1900016D1181
:1022580000016E1100016F11D8A416D06CC0CBF02C
:102268006DC0CCF06EC0CDF06FC0CEF0A00E0001F6
:10227800CF6F000E0001D06F080E0001D16FBC0EA9
:102288000001D26F27EC06F0080E00016C1900015E
:102298006D1100016E1100016F11D8A413D0000E4A
:1022A8000001646F000E656F000E666F000E676FA9
:1022B800000E0001686F000E696F000E6A6F000E55
:1022C8006B6F3D8A070E00016C1900016D1100014A
:1022D8006E1100016F11D8A43FD088C0CBF0000167
:1022E800CC6B64C0CDF065C0CEF0F5EC14F0CBC07B
:1022F8007AF0CCC07BF088C0CBF00001CC6B68C012
:10230800CDF069C0CEF0F5EC14F0CBC07CF0CCC0B9
:102318007DF03D9A7AC098F000017B510001996FD9
:102328007CC09AF000017D5100019B6F6CC0CBF01E
:102338006DC0CCF06EC0CDF06FC0CEF0980E00012D
:10234800CF6F000E0001D06F080E0001D16FBC0ED8
:102358000001D26F27EC06F03DAC17D00D0E00013E
:10236800CB6F000ECC6F000ECD6F000ECE6FDE0E61
:102378000001CF6F000E0001D06F080E0001D16F71
:10238800FC0E0001D26F27EC06F00F0140BD03D010
:102398000F0130AD02D03D8812003D983D9C1200DF
:1023A8003D8812000101056F800E35EC15F0000E16
:1023B800706E000E716E000E726E01010241E842ED
:1023C800C00B0101026F010102517012010103519A
:1023D800701201010551711201010039E842F80B30
:1023E8000101006F010100517112010104A5718CF6
:1023F800010104B1718E010101517212010104B38E
:10240800728C01010451600B606E01010451100BC4
:10241800FF0AD8B4608460CF50FF000E0001CB6F74
:10242800000ECC6F000ECD6F000ECE6FF70E0001C0
:10243800CF6F010E73EC0CF0000E0001CB6F000E95
:10244800CC6F000ECD6F000ECE6FF70E0001CF6F70
:10245800020E73EC0CF00FD0F70E0101066F07D0D7
:10246800010106690101076928D001010669F70E13
:102478000101076F22D09F0E0001D96FFF0E0001E6
:10248800DA6F01010451600B0001DB6FDC6B0001A6
:10249800D9510001DB130001DA510001DC130001FE
:1024A800DC51000AD8A4E1D70001DB51BF0AD8B437
:1024B800D7D7600AD8B4D0D7D8D7000E0001CB6FD1
:1024C800000ECC6F000ECD6F000ECE6F06C1CFF0A0
:1024D800000EA4EC00F0000E0001CB6F000ECC6FD4
:1024E800000ECD6F000ECE6F06C1CFF0010EA4EC2A
:1024F80000F0000E0001CB6F000ECC6F000ECD6F08
:10250800000ECE6F07C1CFF0020EA4EC00F0000E53
:102518000001CB6F000ECC6F000ECD6F000ECE6F9A
:1025280007C1CFF0030EA4EC00F0000E0001CB6F42
:10253800000ECC6F000ECD6F000ECE6F07C1CFF02E
:10254800040EA4EC00F0000E0001CB6F000ECC6F5F
:10255800000ECD6F000ECE6F07C1CFF0050EA4ECB4
:1025680000F0000E35EC15F01200000E0001D86FD7
:10257800010107AF0CD00101071F061F051F046DDD
:10258800000E052306230723010E0001D86F010161
:1025980003AF0CD00101031F021F011F006D000EC5
:1025A800012302230323010E0001D81B000E0001A2
:1025B800D96F000EDA6F000EDB6F000EDC6F0101C1
:1025C8000451010105110101061101010711D8B4D7
:1025D80042D0010E0001D76F08D00101D89004370E
:1025E8000537063707370001D72B010107AFF5D7A5
:1025F8000001D890D937DA37DB37DC3701010451CD
:102608000101005D01010551010101590101065156
:10261800010102590101075101010359D8A012D043
:10262800010104510101005F010105510101015B34
:10263800010106510101025B010107510101035B20
:102648000001D9810101D8900733063305330433DB
:102658000001D72FCDD70001D8510001D8B409D037
:102668000001DC1FDB1FDA1FD96D000EDA23DB2324
:10267800DC23D9C000F1DAC001F1DBC002F1DCC013
:1026880003F11200000E0001D06F0001CEAF08D098
:102698000001CD6DCE1FD8B0CE2B010E0001D06F3A
:1026A8000001CCAF08D00001CB6DCC1FD8B0CC2B2B
:1026B800010E0001D01B000E0001D26F000ED16F79
:1026C8000001CD510001CE11D8B42CD0010E00016B
:1026D800CF6F06D00001D890CD37CE370001CF2B71
:1026E8000001CEAFF7D70001D890D137D23700011B
:1026F800CD510001CB5D0001CE510001CC59D8A0CD
:102708000AD00001CD510001CB5F0001CE5100017C
:10271800CC5B0001D1810001D890CE33CD330001CC
:10272800CF2FE1D70001D0510001D8B405D0000166
:10273800D16DD21FD8B0D22BD1C0CBF0D2C0CCF043
:102748001200000E896EFD0E926E000E8A6E93685E
:10275800000E8B6EFC0E946E000E8C6E9568000E4B
:102768008D6E9668FE0EC16E060E0101006F050E95
:102778000101016F010E0101026F030E0101036FD8
:102788009D0E0101046F040ED6EC11F0A492A490E2
:10279800F2949E90A192F292F090D08EA592A5907C
:1027A800F184F08C9F90A292800ED56ED768FE0EB1
:1027B800D66E82905A0E3C6E000ECD6E000EB16E33
:1027C800F18CF18A0E0EC16EC29AC298C296C2945A
:1027D800C08AC088C096C084C092C080C09EC28093
:1027E800A382A380F28A9D80A082F288F086F28E6E
:1027F800F28CCD80B180D58E1200000E0001B26F30
:1028080027AE07D0266C271ED8B0272A010E000154
:10281800B26F25AE07D0246C251ED8B0252A010E2C
:102828000001B21B000E0001B46F000EB36F2650FA
:102838002710D8B421D0010E0001B16F05D0D8906F
:10284800263627360001B12B27AEF9D70001D890DC
:10285800B337B4372650245C27502558D8A006D063
:102868002650245E2750255A0001B381D89027327C
:1028780026320001B12FEAD70001B2510001D8B4C5
:1028880005D00001B36DB41FD8B0B42BB3C024F089
:10289800B4C025F01200000E0001D36F000ED46FF3
:1028A800000ED56F000ED66F0001CBA110D000012D
:1028B800CF510001D3270001D0510001D4230001DA
:1028C800D1510001D5230001D2510001D6230001C6
:1028D800D890CF37D037D137D2370001D890CE3300
:1028E800CD33CC33CB330001CB510001CC110001E7
:1028F800CD110001CE11D8A4D7D7D3C0CBF0D4C006
:10290800CCF0D5C0CDF0D6C0CEF01200000E236EAC
:10291800000E226E20502110D8B41CD0010E246E57
:1029280004D0D89020362136242A21AEFAD7D89060
:102938002236233620501E5C21501F58D8A005D0BF
:1029480020501E5E21501F5A2280D89021322032FA
:10295800242EEDD722C01EF023C01FF0120000EE77
:1029680060F0510EEE6AE806FDE13E6A3D6A00EE4F
:1029780028F0150EEE6AE806FDE1C00EF66E2A0E86
:10298800F76E000EF86E00EEDDF010EE09F00900AB
:10299800F5CFEEFFE550E150FAE13F903F92000E8F
:1029A800F86E000142EF0EF0DDC0CBF00001CC6BF9
:1029B800D1C0CDF0D2C0CEF0F5EC14F0CBC078F099
:1029C800CCC079F007D0500EE82EFED7000178076A
:1029D800D8A079070001785100017911D8B4120004
:1029E800F2D70001CB510001CD03F3CFCFF0F4CFE4
:1029F800D0F00001CB510001CE03F3500001D027E5
:102A08000001CC510001CD03F3500001D027CFC005
:102A1800CBF0D0C0CCF012001E502002F3CF22F031
:102A2800F4CF23F01E502102F35023261F5020021A
:102A3800F350232622C01EF023C01FF01200010EFF
:102A48000001CB6F0F0140A709D00F0130A706D0B6
:102A58000F0120A703D0000E0001CB6F0001CB515E
:102A680012000001CB6FCBC06FFF6E50E00B00016E
:102A7800CB19D8B41200F9D7010E016E60BE05D08B
:102A88000F0150BF02D0000E016E015012001EC08F
:102A980020F01FC021F021C0D7FF20C0D6FF1200B0
:102AA80074A402D0010E1200000E120074A202D00B
:102AB800010E1200000E12001001000000000000BC
:022AC80000000C
:020000040020DA
:08000000FFFFFFFFFFFFFFFF00
:020000040030CA
:0E000000FF021F1EFF8281FF0FC00FE00F40A6
:00000001FF
