:04000000C7EF00F056
:10000800FACFB5F0FBCFB6F0E9CFB7F09AED0EF026
:10001800D8CF35F0E8CF36F0E0CF37F0FACF38F068
:10002800FBCF39F0E9CF3AF0EACF3BF0E1CF3CF033
:10003800E2CF3DF0D9CF3EF0DACF3FF0F3CF40F03A
:10004800F4CF41F0F6CF42F0F7CF43F0F8CF44F0C9
:10005800F5CF45F0A4B002D0A4A260D089EC15F089
:100068000009D8B458D0780E286E000E296E2EECF0
:100078000AF000018605D8A40AD078C001F079C03A
:1000880002F07AC003F07BC004F0478000D0070E6E
:10009800000178190001791100017A1100017B1122
:1000A800D8A408D0590E00017C6502D0478202D03E
:1000B800479200D0060E000178190001791100015D
:1000C8007A1100017B11D8A405D07CC022F07DC034
:1000D80021F000D00F0E00017819000179110001FC
:1000E8007A1100017B11D8A416D025C028F0000190
:1000F8007C510FEC15F0346E34501B6E1C6A000EE8
:10010800186E000E176E000E1A6E000E196E468ECF
:10011800469C809200D0A490A49200D09EA007D0C4
:100128004684000ECF6E000ECE6E9E9000D0A1A227
:1001380007D04686000EB36E000EB26EA19200D0B4
:1001480045C0F5FF44C0F8FF43C0F7FF42C0F6FFC3
:1001580041C0F4FF40C0F3FF3FC0DAFF3EC0D9FF03
:100168003DC0E2FF3CC0E1FF3BC0EAFF3AC0E9FF07
:1001780039C0FBFF38C0FAFF37C0E0FF36C0E8FFE0
:1001880035C0D8FF1000E3EF14F00001CC6F000178
:10019800CC510001D8A459D00001C729D8A455D002
:1001A8000F010197C3C0C8F0C4C0C9F0C5C0CAF0E8
:1001B800C6C0CBF0040E06D00001D890CB33CA33AA
:1001C800C933C833E82EF8D7C8C0CDF0C9C0CEF0BF
:1001D800CAC0CFF0CBC0D0F00001CD510001CD6F27
:1001E800CE6BCF6BD06BCDC000FF070E0001C315DF
:1001F8000001CD6F000E0001C4150001CE6F000E86
:100208000001C5150001CF6F000E0001C6150001E1
:10021800D06FCDC0C8F0CEC0C9F0CFC0CAF0D0C032
:10022800CBF0050ED8900001C837C937CA37CB378D
:10023800E82EF8D7C8C0CDF0C9C0CEF0CAC0CFF0FC
:10024800CBC0D0F0CDC001FF00D00001CC05D8A4B0
:1002580059D00001C729D8A455D00F010597C3C0AC
:10026800C8F0C4C0C9F0C5C0CAF0C6C0CBF0040EFF
:1002780006D00001D890CB33CA33C933C833E82E2F
:10028800F8D7C8C0CDF0C9C0CEF0CAC0CFF0CBC037
:10029800D0F00001CD510001CD6FCE6BCF6BD06B8C
:1002A800CDC004FF070E0001C3150001CD6F000E7D
:1002B8000001C4150001CE6F000E0001C515000134
:1002C800CF6F000E0001C6150001D06FCDC0C8F079
:1002D800CEC0C9F0CFC0CAF0D0C0CBF0050ED890C0
:1002E8000001C837C937CA37CB37E82EF8D7C8C096
:1002F800CDF0C9C0CEF0CAC0CFF0CBC0D0F0CDC0D1
:1003080005FF00D0020E0001CC19D8A459D0000175
:10031800C729D8A455D00F010997C3C0C8F0C4C0D5
:10032800C9F0C5C0CAF0C6C0CBF0040E06D00001A3
:10033800D890CB33CA33C933C833E82EF8D7C8C0EE
:10034800CDF0C9C0CEF0CAC0CFF0CBC0D0F000010C
:10035800CD510001CD6FCE6BCF6BD06BCDC008FFF8
:10036800070E0001C3150001CD6F000E0001C41572
:100378000001CE6F000E0001C5150001CF6F000E01
:100388000001C6150001D06FCDC0C8F0CEC0C9F0BD
:10039800CFC0CAF0D0C0CBF0050ED8900001C83746
:1003A800C937CA37CB37E82EF8D7C8C0CDF0C9C08F
:1003B800CEF0CAC0CFF0CBC0D0F0CDC009FF00D07E
:1003C800030E0001CC19D8A459D00001C729D8A41C
:1003D80055D00F010D97C3C0C8F0C4C0C9F0C5C03F
:1003E800CAF0C6C0CBF0040E06D00001D890CB33BB
:1003F800CA33C933C833E82EF8D7C8C0CDF0C9C04E
:10040800CEF0CAC0CFF0CBC0D0F00001CD51000172
:10041800CD6FCE6BCF6BD06BCDC00CFF070E00013C
:10042800C3150001CD6F000E0001C4150001CE6F89
:10043800000E0001C5150001CF6F000E0001C615A2
:100448000001D06FCDC0C8F0CEC0C9F0CFC0CAF08F
:10045800D0C0CBF0050ED8900001C837C937CA37CD
:10046800CB37E82EF8D7C8C0CDF0C9C0CEF0CAC087
:10047800CFF0CBC0D0F0CDC00DFF00D0040E0001EE
:10048800CC19D8A459D00001C729D8A455D00F0138
:100498001197C3C0C8F0C4C0C9F0C5C0CAF0C6C06F
:1004A800CBF0040E06D00001D890CB33CA33C93341
:1004B800C833E82EF8D7C8C0CDF0C9C0CEF0CAC03E
:1004C800CFF0CBC0D0F00001CD510001CD6FCE6B85
:1004D800CF6BD06BCDC010FF070E0001C315000114
:1004E800CD6F000E0001C4150001CE6F000E000193
:1004F800C5150001CF6F000E0001C6150001D06FB1
:10050800CDC0C8F0CEC0C9F0CFC0CAF0D0C0CBF0C3
:10051800050ED8900001C837C937CA37CB37E82E3F
:10052800F8D7C8C0CDF0C9C0CEF0CAC0CFF0CBC094
:10053800D0F0CDC011FF00D0050E0001CC19D8A411
:1005480059D00001C729D8A455D00F011597C3C0A9
:10055800C8F0C4C0C9F0C5C0CAF0C6C0CBF0040E0C
:1005680006D00001D890CB33CA33C933C833E82E3C
:10057800F8D7C8C0CDF0C9C0CEF0CAC0CFF0CBC044
:10058800D0F00001CD510001CD6FCE6BCF6BD06B99
:10059800CDC014FF070E0001C3150001CD6F000E7A
:1005A8000001C4150001CE6F000E0001C515000141
:1005B800CF6F000E0001C6150001D06FCDC0C8F086
:1005C800CEC0C9F0CFC0CAF0D0C0CBF0050ED890CD
:1005D8000001C837C937CA37CB37E82EF8D7C8C0A3
:1005E800CDF0C9C0CEF0CAC0CFF0CBC0D0F0CDC0DE
:1005F80015FF00D00001CC510001D8A48BD0F70E14
:100608000001C719D8A486D00F0101870001C35182
:100618000001CD6FCE6BCF6BD06BCDC003FF000E4A
:100628000001C3150001CD6FFF0E0001C4150001C4
:10063800CE6F000E0001C5150001CF6F000E00013E
:10064800C6150001D06FCDC0C8F0CEC0C9F0CFC06C
:10065800CAF0D0C0CBF0C9C0C8F0CAC0C9F0CBC07E
:10066800CAF00001CB6BC8C0CDF0C9C0CEF0CAC07B
:10067800CFF0CBC0D0F0CDC002FF0001C5A103D0A0
:100688000F01018102D00F0101910001C5A303D020
:100698000F01018302D00F0101930001C5A503D00A
:1006A8000F01018B02D00F01019B0001C5A703D0E8
:1006B8000F01018D02D00F01019D0001C5A903D0D2
:1006C8000F01018F03D00F01019F00D0C3C0C8F0F4
:1006D800C4C0C9F0C5C0CAF0C6C0CBF0160E06D05B
:1006E8000001D890CB33CA33C933C833E82EF8D7C2
:1006F800C8C0CDF0C9C0CEF0CAC0CFF0CBC0D0F0D2
:100708000001CD510001CD6FCE6BCF6BD06BCDC04A
:1007180000FF00D00001CC05D8A48BD0F70E000153
:10072800C719D8A486D00F0105870001C35100015D
:10073800CD6FCE6BCF6BD06BCDC007FF000E000125
:10074800C3150001CD6FFF0E0001C4150001CE6F67
:10075800000E0001C5150001CF6F000E0001C6157F
:100768000001D06FCDC0C8F0CEC0C9F0CFC0CAF06C
:10077800D0C0CBF0C9C0C8F0CAC0C9F0CBC0CAF05D
:100788000001CB6BC8C0CDF0C9C0CEF0CAC0CFF055
:10079800CBC0D0F0CDC006FF0001C5A103D00F012A
:1007A800058102D00F0105910001C5A303D00F01F7
:1007B800058302D00F0105930001C5A503D00F01E1
:1007C800058B02D00F01059B0001C5A703D00F01BF
:1007D800058D02D00F01059D0001C5A903D00F01A9
:1007E800058F03D00F01059F00D0C3C0C8F0C4C057
:1007F800C9F0C5C0CAF0C6C0CBF0160E06D00001BD
:10080800D890CB33CA33C933C833E82EF8D7C8C019
:10081800CDF0C9C0CEF0CAC0CFF0CBC0D0F0000137
:10082800CD510001CD6FCE6BCF6BD06BCDC004FF27
:1008380000D0020E0001CC19D8A48BD0F70E00010D
:10084800C719D8A486D00F0109870001C351000138
:10085800CD6FCE6BCF6BD06BCDC00BFF000E000100
:10086800C3150001CD6FFF0E0001C4150001CE6F46
:10087800000E0001C5150001CF6F000E0001C6155E
:100888000001D06FCDC0C8F0CEC0C9F0CFC0CAF04B
:10089800D0C0CBF0C9C0C8F0CAC0C9F0CBC0CAF03C
:1008A8000001CB6BC8C0CDF0C9C0CEF0CAC0CFF034
:1008B800CBC0D0F0CDC00AFF0001C5A103D00F0105
:1008C800098102D00F0109910001C5A303D00F01CE
:1008D800098302D00F0109930001C5A503D00F01B8
:1008E800098B02D00F01099B0001C5A703D00F0196
:1008F800098D02D00F01099D0001C5A903D00F0180
:10090800098F03D00F01099F00D0C3C0C8F0C4C02D
:10091800C9F0C5C0CAF0C6C0CBF0160E06D000019B
:10092800D890CB33CA33C933C833E82EF8D7C8C0F8
:10093800CDF0C9C0CEF0CAC0CFF0CBC0D0F0000116
:10094800CD510001CD6FCE6BCF6BD06BCDC008FF02
:1009580000D0030E0001CC19D8A48BD0F70E0001EB
:10096800C719D8A486D00F010D870001C351000113
:10097800CD6FCE6BCF6BD06BCDC00FFF000E0001DB
:10098800C3150001CD6FFF0E0001C4150001CE6F25
:10099800000E0001C5150001CF6F000E0001C6153D
:1009A8000001D06FCDC0C8F0CEC0C9F0CFC0CAF02A
:1009B800D0C0CBF0C9C0C8F0CAC0C9F0CBC0CAF01B
:1009C8000001CB6BC8C0CDF0C9C0CEF0CAC0CFF013
:1009D800CBC0D0F0CDC00EFF0001C5A103D00F01E0
:1009E8000D8102D00F010D910001C5A303D00F01A5
:1009F8000D8302D00F010D930001C5A503D00F018F
:100A08000D8B02D00F010D9B0001C5A703D00F016C
:100A18000D8D02D00F010D9D0001C5A903D00F0156
:100A28000D8F03D00F010D9F00D0C3C0C8F0C4C004
:100A3800C9F0C5C0CAF0C6C0CBF0160E06D000017A
:100A4800D890CB33CA33C933C833E82EF8D7C8C0D7
:100A5800CDF0C9C0CEF0CAC0CFF0CBC0D0F00001F5
:100A6800CD510001CD6FCE6BCF6BD06BCDC00CFFDD
:100A780000D0040E0001CC19D8A48BD0F70E0001C9
:100A8800C719D8A486D00F0111870001C3510001EE
:100A9800CD6FCE6BCF6BD06BCDC013FF000E0001B6
:100AA800C3150001CD6FFF0E0001C4150001CE6F04
:100AB800000E0001C5150001CF6F000E0001C6151C
:100AC8000001D06FCDC0C8F0CEC0C9F0CFC0CAF009
:100AD800D0C0CBF0C9C0C8F0CAC0C9F0CBC0CAF0FA
:100AE8000001CB6BC8C0CDF0C9C0CEF0CAC0CFF0F2
:100AF800CBC0D0F0CDC012FF0001C5A103D00F01BB
:100B0800118102D00F0111910001C5A303D00F017B
:100B1800118302D00F0111930001C5A503D00F0165
:100B2800118B02D00F01119B0001C5A703D00F0143
:100B3800118D02D00F01119D0001C5A903D00F012D
:100B4800118F03D00F01119F00D0C3C0C8F0C4C0DB
:100B5800C9F0C5C0CAF0C6C0CBF0160E06D0000159
:100B6800D890CB33CA33C933C833E82EF8D7C8C0B6
:100B7800CDF0C9C0CEF0CAC0CFF0CBC0D0F00001D4
:100B8800CD510001CD6FCE6BCF6BD06BCDC010FFB8
:100B980000D0050E0001CC19D8A48BD0F70E0001A7
:100BA800C719D8A486D00F0115870001C3510001C9
:100BB800CD6FCE6BCF6BD06BCDC017FF000E000191
:100BC800C3150001CD6FFF0E0001C4150001CE6FE3
:100BD800000E0001C5150001CF6F000E0001C615FB
:100BE8000001D06FCDC0C8F0CEC0C9F0CFC0CAF0E8
:100BF800D0C0CBF0C9C0C8F0CAC0C9F0CBC0CAF0D9
:100C08000001CB6BC8C0CDF0C9C0CEF0CAC0CFF0D0
:100C1800CBC0D0F0CDC016FF0001C5A103D00F0195
:100C2800158102D00F0115910001C5A303D00F0152
:100C3800158302D00F0115930001C5A503D00F013C
:100C4800158B02D00F01159B0001C5A703D00F011A
:100C5800158D02D00F01159D0001C5A903D00F0104
:100C6800158F03D00F01159F00D0C3C0C8F0C4C0B2
:100C7800C9F0C5C0CAF0C6C0CBF0160E06D0000138
:100C8800D890CB33CA33C933C833E82EF8D7C8C095
:100C9800CDF0C9C0CEF0CAC0CFF0CBC0D0F00001B3
:100CA800CD510001CD6FCE6BCF6BD06BCDC014FF93
:100CB80000D012000F0140B742D1C9C045FF000162
:100CC800CAAD03D00F01458D02D00F01459D00012B
:100CD800CAA77AD00001C3510001CF6FD06BD16B86
:100CE800D26BCFC044FF000E0001C3150001CF6FC7
:100CF800FF0E0001C4150001D06F000E0001C515DC
:100D08000001D16F000E0001C6150001D26FCFC0DF
:100D1800CBF0D0C0CCF0D1C0CDF0D2C0CEF0CCC09A
:100D2800CBF0CDC0CCF0CEC0CDF00001CE6BCBC0A7
:100D3800CFF0CCC0D0F0CDC0D1F0CEC0D2F0CFC073
:100D480043FF000E0F01426F0F0142870001C5A14A
:100D580002D00F0142810001C5A302D00F014283D6
:100D68000001C5A502D00F01428B0001C5A702D022
:100D78000F01428D0001C5A903D00F01428F00D099
:100D8800C3C0CBF0C4C0CCF0C5C0CDF0C6C0CEF057
:100D9800160E06D00001D890CE33CD33CC33CB33EA
:100DA800E82EF8D7CBC0CFF0CCC0D0F0CDC0D1F072
:100DB800CEC0D2F00001CF510001CF6FD06BD16B04
:100DC800D26BCFC041FF5AD00F014297C3C0CBF0BE
:100DD800C4C0CCF0C5C0CDF0C6C0CEF0040E06D05D
:100DE8000001D890CE33CD33CC33CB33E82EF8D7AF
:100DF800CBC0CFF0CCC0D0F0CDC0D1F0CEC0D2F0B7
:100E08000001CF510001CF6FD06BD16BD26BCFC037
:100E180041FF070E0001C3150001CF6F000E00014E
:100E2800C4150001D06F000E0001C5150001D16F77
:100E3800000E0001C6150001D26FCFC0CBF0D0C0A4
:100E4800CCF0D1C0CDF0D2C0CEF0050ED8900001C4
:100E5800CB37CC37CD37CE37E82EF8D7CBC0CFF04D
:100E6800CCC0D0F0CDC0D1F0CEC0D2F00F014251ED
:100E78001F0B0F01426FCFC042FF00D00001CAA173
:100E880003D00F01408102D00F0140910001CAA395
:100E980003D00F01408303D00F01409300D0C7C097
:100EA800D9FFC8C0DAFFDF500F01466F000120EEFE
:100EB80001F0C751D926C851DA22DF500F01476F18
:100EC800000120EE02F0C751D926C851DA22DF50BE
:100ED8000F01486F000120EE03F0C751D926C85111
:100EE800DA22DF500F01496F000120EE04F0C751EC
:100EF800D926C851DA22DF500F014A6F000120EECF
:100F080005F0C751D926C851DA22DF500F014B6FBF
:100F1800000120EE06F0C751D926C851DA22DF5069
:100F28000F014C6F000120EE07F0C751D926C851B8
:100F3800DA22DF500F014D6F0F0140878AD20F016F
:100F480030B742D1C9C035FF0001CAAD03D00F0187
:100F5800358D02D00F01359D0001CAA77AD0000156
:100F6800C3510001CF6FD06BD16BD26BCFC034FFB0
:100F7800000E0001C3150001CF6FFF0E0001C4155C
:100F88000001D06F000E0001C5150001D16F000EE1
:100F98000001C6150001D26FCFC0CBF0D0C0CCF095
:100FA800D1C0CDF0D2C0CEF0CCC0CBF0CDC0CCF00B
:100FB800CEC0CDF00001CE6BCBC0CFF0CCC0D0F00E
:100FC800CDC0D1F0CEC0D2F0CFC033FF000E0F019C
:100FD800326F0F0132870001C5A102D00F013281A3
:100FE8000001C5A302D00F0132830001C5A502D0BC
:100FF8000F01328B0001C5A702D00F01328D00010D
:10100800C5A903D00F01328F00D0C3C0CBF0C4C034
:10101800CCF0C5C0CDF0C6C0CEF0160E06D000018B
:10102800D890CE33CD33CC33CB33E82EF8D7CBC0E2
:10103800CFF0CCC0D0F0CDC0D1F0CEC0D2F00001FE
:10104800CF510001CF6FD06BD16BD26BCFC031FFC6
:101058005AD00F013297C3C0CBF0C4C0CCF0C5C082
:10106800CDF0C6C0CEF0040E06D00001D890CE3325
:10107800CD33CC33CB33E82EF8D7CBC0CFF0CCC0B0
:10108800D0F0CDC0D1F0CEC0D2F00001CF510001D8
:10109800CF6FD06BD16BD26BCFC031FF070E000181
:1010A800C3150001CF6F000E0001C4150001D06FF9
:1010B800000E0001C5150001D16F000E0001C61514
:1010C8000001D26FCFC0CBF0D0C0CCF0D1C0CDF0F2
:1010D800D2C0CEF0050ED8900001CB37CC37CD3733
:1010E800CE37E82EF8D7CBC0CFF0CCC0D0F0CDC0EB
:1010F800D1F0CEC0D2F00F0132511F0B0F01326F69
:10110800CFC032FF00D00001CAA103D00F01308147
:1011180002D00F0130910001CAA303D00F01308320
:1011280003D00F01309300D0C7C0D9FFC8C0DAFF81
:10113800DF500F01366F000120EE01F0C751D926AC
:10114800C851DA22DF500F01376F000120EE02F09C
:10115800C751D926C851DA22DF500F01386F000174
:1011680020EE03F0C751D926C851DA22DF500F010B
:10117800396F000120EE04F0C751D926C851DA2290
:10118800DF500F013A6F000120EE05F0C751D92654
:10119800C851DA22DF500F013B6F000120EE06F044
:1011A800C751D926C851DA22DF500F013C6F000120
:1011B80020EE07F0C751D926C851DA22DF500F01B7
:1011C8003D6F0F01308745D10F0120B742D1C9C00B
:1011D80025FF0001CAAD03D00F01258D02D00F01F4
:1011E800259D0001CAA77AD00001C3510001CF6F25
:1011F800D06BD16BD26BCFC024FF000E0001C3159A
:101208000001CF6FFF0E0001C4150001D06F000E62
:101218000001C5150001D16F000E0001C6150001BF
:10122800D26FCFC0CBF0D0C0CCF0D1C0CDF0D2C0FF
:10123800CEF0CCC0CBF0CDC0CCF0CEC0CDF000010C
:10124800CE6BCBC0CFF0CCC0D0F0CDC0D1F0CEC0EB
:10125800D2F0CFC023FF000E0F01226F0F012287AB
:101268000001C5A102D00F0122810001C5A302D04F
:101278000F0122830001C5A502D00F01228B0001B6
:10128800C5A702D00F01228D0001C5A903D00F0107
:10129800228F00D0C3C0CBF0C4C0CCF0C5C0CDF005
:1012A800C6C0CEF0160E06D00001D890CE33CD338E
:1012B800CC33CB33E82EF8D7CBC0CFF0CCC0D0F0AE
:1012C800CDC0D1F0CEC0D2F00001CF510001CF6F18
:1012D800D06BD16BD26BCFC021FF5AD00F012297B0
:1012E800C3C0CBF0C4C0CCF0C5C0CDF0C6C0CEF0F2
:1012F800040E06D00001D890CE33CD33CC33CB3397
:10130800E82EF8D7CBC0CFF0CCC0D0F0CDC0D1F00C
:10131800CEC0D2F00001CF510001CF6FD06BD16B9E
:10132800D26BCFC021FF070E0001C3150001CF6F9C
:10133800000E0001C4150001D06F000E0001C51594
:101348000001D16F000E0001C6150001D26FCFC099
:10135800CBF0D0C0CCF0D1C0CDF0D2C0CEF0050ECD
:10136800D8900001CB37CC37CD37CE37E82EF8D719
:10137800CBC0CFF0CCC0D0F0CDC0D1F0CEC0D2F031
:101388000F0122511F0B0F01226FCFC022FF00D087
:101398000001CAA103D00F01208102D00F012091C2
:1013A8000001CAA303D00F01208303D00F012093AB
:1013B80000D0C7C0D9FFC8C0DAFFDF500F01266FC1
:1013C800000120EE01F0C751D926C851DA22DF50BA
:1013D8000F01276F000120EE02F0C751D926C8512E
:1013E800DA22DF500F01286F000120EE03F0C75109
:1013F800D926C851DA22DF500F01296F000120EEEB
:1014080004F0C751D926C851DA22DF500F012A6FDC
:10141800000120EE05F0C751D926C851DA22DF5065
:101428000F012B6F000120EE06F0C751D926C851D5
:10143800DA22DF500F012C6F000120EE07F0C751B0
:10144800D926C851DA22DF500F012D6F0F012087EE
:1014580000D01200000E326E74AE02D0328000D07E
:1014680074AC02D0328200D00F0150AF49D128C0ED
:10147800D9FF29C0DAFFDE6ADE6ADE6ADD6A20EE9D
:1014880004F02850D9262950DA2256CFDFFF20EE63
:1014980005F02850D9262950DA2257CFDFFF20EE51
:1014A80006F02850D9262950DA2258CFDFFF20EE3F
:1014B80007F02850D9262950DA2259CFDFFF20EE2D
:1014C80008F02850D9262950DA225ACFDFFF20EE1B
:1014D80009F02850D9262950DA225BCFDFFF20EE09
:1014E8000AF02850D9262950DA225CCFDFFF20EEF7
:1014F8000BF02850D9262950DA225DCFDFFF20EEE5
:101508000EF02850D9262950DA220F0155AD02D005
:10151800010E01D0000EDF6E20EE0DF02850D92606
:101528002950DA220F0155510F0BDF6E20EE0CF017
:101538002850D9262950DA220F0152A702D0010ECD
:1015480001D0000EDF6E0F0152B744D051CF2AF000
:101558002B6A2C6A2D6A030ED8902A362B362C3625
:101568002D36E82EF9D728C0D9FF29C0DAFF2AC0BE
:10157800DEFF2BC0DEFF2CC0DEFF2DC0DEFF0F011B
:101588005239E842070B070B336E28C0D9FF29C030
:10159800DAFFDECF2AF0DECF2BF0DECF2CF0DECF65
:1015A8002DF033502A242E6E000E2B202F6E000EA5
:1015B8002C20306E000E2D20316E28C0D9FF29C096
:1015C800DAFF2EC0DEFF2FC0DEFF30C0DEFF31C0E5
:1015D800DEFF93D054CF2AF02B6A2C6A2D6A28C0DC
:1015E800D9FF29C0DAFF2AC0DEFF2BC0DEFF2CC0DE
:1015F800DEFF2DC0DEFF53CF2AF02B6A2C6A2D6A3E
:101608002CC02DF02BC02CF02AC02BF02A6A28C041
:10161800D9FF29C0DAFF2A50DE262B50DE222C50B3
:10162800DE222D50DE220F0152A10DD028C0D9FF95
:1016380029C0DAFF000EDE12000EDE12010EDE12E5
:10164800000EDE1200D00F0152A30DD028C0D9FF22
:1016580029C0DAFF000EDE12000EDE12020EDE12C4
:10166800000EDE1200D00F0152AB0DD028C0D9FFFA
:1016780029C0DAFF000EDE12000EDE12040EDE12A2
:10168800000EDE1200D00F0152AD0DD028C0D9FFD8
:1016980029C0DAFF000EDE12000EDE12080EDE127E
:1016A800000EDE1200D00F0152AF0DD028C0D9FFB6
:1016B80029C0DAFF000EDE12000EDE12100EDE1256
:1016C800000EDE1200D051CF2AF02B6A2C6A2D6A48
:1016D800150ED8902A362B362C362D36E82EF9D70B
:1016E80028C0D9FF29C0DAFF2A50DE122B50DE129B
:1016F8002C50DE122D50DE1200D00F01509F40D129
:1017080060AE3ED128C0D9FF29C0DAFFDE6ADE6AA2
:10171800DE6ADD6A20EE04F02850D9262950DA2244
:1017280066CFDFFF20EE05F02850D9262950DA22AF
:1017380067CFDFFF20EE06F02850D9262950DA229D
:1017480068CFDFFF20EE07F02850D9262950DA228B
:1017580069CFDFFF20EE08F02850D9262950DA2279
:101768006ACFDFFF20EE09F02850D9262950DA2267
:101778006BCFDFFF20EE0AF02850D9262950DA2255
:101788006CCFDFFF20EE0BF02850D9262950DA2243
:101798006DCFDFFF20EE0EF02850D9262950DA222F
:1017A80065AC02D0010E01D0000EDF6E20EE0DF008
:1017B8002850D9262950DA2265500F0BDF6E20EE0B
:1017C8000CF02850D9262950DA2262A602D0010E40
:1017D80001D0000EDF6E62B643D061CF2AF02B6ACB
:1017E8002C6A2D6A030ED8902A362B362C362D36C5
:1017F800E82EF9D728C0D9FF29C0DAFF2AC0DEFFB2
:101808002BC0DEFF2CC0DEFF2DC0DEFF6238E842B1
:10181800070B070B336E28C0D9FF29C0DAFFDECFCC
:101828002AF0DECF2BF0DECF2CF0DECF2DF03350B8
:101838002A242E6E000E2B202F6E000E2C20306EC8
:10184800000E2D20316E28C0D9FF29C0DAFF2EC026
:10185800DEFF2FC0DEFF30C0DEFF31C0DEFF8ED0DE
:1018680064CF2AF02B6A2C6A2D6A28C0D9FF29C0B8
:10187800DAFF2AC0DEFF2BC0DEFF2CC0DEFF2DC042
:10188800DEFF63CF2AF02B6A2C6A2D6A2CC02DF05C
:101898002BC02CF02AC02BF02A6A28C0D9FF29C0F7
:1018A800DAFF2A50DE262B50DE222C50DE222D5065
:1018B800DE2262A00DD028C0D9FF29C0DAFF000EB1
:1018C800DE12000EDE12010EDE12000EDE1200D055
:1018D80062A20DD028C0D9FF29C0DAFF000EDE129F
:1018E800000EDE12020EDE12000EDE1200D062AA18
:1018F8000DD028C0D9FF29C0DAFF000EDE12000E75
:10190800DE12040EDE12000EDE1200D062AC0DD024
:1019180028C0D9FF29C0DAFF000EDE12000EDE1241
:10192800080EDE12000EDE1200D062AE0DD028C006
:10193800D9FF29C0DAFF000EDE12000EDE12100EEB
:10194800DE12000EDE1200D061CF2AF02B6A2C6A5C
:101958002D6A150ED8902A362B362C362D36E82EC1
:10196800F9D728C0D9FF29C0DAFF2A50DE122B5038
:10197800DE122C50DE122D50DE1200D0609E00D0F8
:1019880012000001CC6F0001CC05D8A457D000018B
:10199800C729D8A453D0C3C0C8F0C4C0C9F0C5C0B3
:1019A800CAF0C6C0CBF0040E06D00001D890CB33E5
:1019B800CA33C933C833E82EF8D7C8C0CDF0C9C078
:1019C800CEF0CAC0CFF0CBC0D0F00001CD5100019D
:1019D800CD6FCE6BCF6BD06BCDC018FF070E00015B
:1019E800C3150001CD6F000E0001C4150001CE6FB4
:1019F800000E0001C5150001CF6F000E0001C615CD
:101A08000001D06FCDC0C8F0CEC0C9F0CFC0CAF0B9
:101A1800D0C0CBF0050ED8900001C837C937CA37F7
:101A2800CB37E82EF8D7C8C0CDF0C9C0CEF0CAC0B1
:101A3800CFF0CBC0D0F0CDC019FF00D0020E00010E
:101A4800CC19D8A457D00001C729D8A453D0C3C0F3
:101A5800C8F0C4C0C9F0C5C0CAF0C6C0CBF0040EF7
:101A680006D00001D890CB33CA33C933C833E82E27
:101A7800F8D7C8C0CDF0C9C0CEF0CAC0CFF0CBC02F
:101A8800D0F00001CD510001CD6FCE6BCF6BD06B84
:101A9800CDC01CFF070E0001C3150001CD6F000E5D
:101AA8000001C4150001CE6F000E0001C51500012C
:101AB800CF6F000E0001C6150001D06FCDC0C8F071
:101AC800CEC0C9F0CFC0CAF0D0C0CBF0050ED890B8
:101AD8000001C837C937CA37CB37E82EF8D7C8C08E
:101AE800CDF0C9C0CEF0CAC0CFF0CBC0D0F0CDC0C9
:101AF8001DFF00D00001CC05D8A489D0F70E000145
:101B0800C719D8A484D00001C3510001CD6FCE6B92
:101B1800CF6BD06BCDC01BFF000E0001C3150001B9
:101B2800CD6FFF0E0001C4150001CE6F000E00013D
:101B3800C5150001CF6F000E0001C6150001D06F5A
:101B4800CDC0C8F0CEC0C9F0CFC0CAF0D0C0CBF06D
:101B5800C9C0C8F0CAC0C9F0CBC0CAF00001CB6B7D
:101B6800C8C0CDF0C9C0CEF0CAC0CFF0CBC0D0F04D
:101B7800CDC01AFF0001C5A103D00F01198102D001
:101B88000F0119910001C5A303D00F01198302D0D9
:101B98000F0119930001C5A503D00F01198B02D0BD
:101BA8000F01199B0001C5A703D00F01198D02D0A1
:101BB8000F01199D0001C5A903D00F01198F03D08A
:101BC8000F01199F00D0C3C0C8F0C4C0C9F0C5C078
:101BD800CAF0C6C0CBF0160E06D00001D890CB33A1
:101BE800CA33C933C833E82EF8D7C8C0CDF0C9C046
:101BF800CEF0CAC0CFF0CBC0D0F00001CD5100016B
:101C0800CD6FCE6BCF6BD06BCDC018FF00D0020E5E
:101C18000001CC19D8A489D0F70E0001C719D8A49F
:101C280084D00001C3510001CD6FCE6BCF6BD06B58
:101C3800CDC01FFF000E0001C3150001CD6FFF0EC0
:101C48000001C4150001CE6F000E0001C51500018A
:101C5800CF6F000E0001C6150001D06FCDC0C8F0CF
:101C6800CEC0C9F0CFC0CAF0D0C0CBF0C9C0C8F050
:101C7800CAC0C9F0CBC0CAF00001CB6BC8C0CDF058
:101C8800C9C0CEF0CAC0CFF0CBC0D0F0CDC01EFFC7
:101C98000001C5A103D00F011D8102D00F011D91C4
:101CA8000001C5A303D00F011D8302D00F011D93AE
:101CB8000001C5A503D00F011D8B02D00F011D9B8C
:101CC8000001C5A703D00F011D8D02D00F011D9D76
:101CD8000001C5A903D00F011D8F03D00F011D9F5F
:101CE80000D0C3C0C8F0C4C0C9F0C5C0CAF0C6C0DF
:101CF800CBF0160E06D00001D890CB33CA33C933C7
:101D0800C833E82EF8D7C8C0CDF0C9C0CEF0CAC0D5
:101D1800CFF0CBC0D0F00001CD510001CD6FCE6B1C
:101D2800CF6BD06BCDC01CFF00D012000600EACFED
:101D3800B8F0E1CFB9F0E2CFBAF0D9CFBBF0DACF43
:101D4800BCF0F3CFBDF0F4CFBEF0F6CFBFF0F7CFC5
:101D5800C0F0F8CFC1F0F5CFC2F0F2A4ADD08270D8
:101D680082A0A1D0400E0001AD6F060E0001AE6F3B
:101D780027C09FF00001A06B050E0001A26F780E2E
:101D8800A16F4EEC15F09FC0A5F0A0C0A6F0000E04
:101D98000001A86FB40EA76FB1EC13F0D890000142
:101DA800A5370001A6370001AD510001A5270001A4
:101DB800AE510001A6230001A5C005F00001A6C090
:101DC80006F0000E06BEFF0E076E086E05C0ADF0E9
:101DD80006C0AEF007C0AFF008C0B0F00001AD1FFC
:101DE800AE1FAF1FB01FAD2B000EAE23AF23B02325
:101DF800400E0001AD250001B16F9C0E0001AE211F
:101E08000001B26F000E0001AF210001B36F000E98
:101E18000001B0210001B46F0001B11FB21FB31F50
:101E2800B41FB12B000EB223B323B423000E00015C
:101E3800B1250001746F000E0001B2210001756F19
:101E4800010E0001B3210001766F000E0001B421DC
:101E58000001776F05C0ADF006C0AEF007C0AFF067
:101E680008C0B0F00001AD1FAE1FAF1FB01FAD2BF3
:101E7800000EAE23AF23B023000E0001AD25056E82
:101E8800000E0001AE21066E010E0001AF21076EA3
:101E9800000E0001B021086E05C09FF006C0A0F03A
:101EA80095EC15F007D074C09FF075C0A0F095ECC4
:101EB80015F000D0F29400D0F2A24CD047B406D06E
:101EC800000ECF6E000ECE6E478443D0CF50000177
:101ED800AE6FAD6BCE500001AD251D6E000E00013A
:101EE800AE211E6E1DC09FF01EC0A0F0010E0001A5
:101EF800A26FF40EA16F65EC14F09FC01DF0A0C096
:101F08001EF04680000ECF6E000ECE6E46AA08D098
:101F1800010E00016C27000E6D236E236F2300D085
:101F280046AE17D0174A182A47A208D017501B5C8C
:101F380018501C58D8B002D0468C808247B209D0BD
:101F480019501B5C1A501C58D8B003D0468C80829C
:101F580000D0F292F0A04DD047B606D0000EB36E76
:101F6800000EB26E478643D0B3500001AE6FAD6B22
:101F7800B2500001AD251F6E000E0001AE21206E8B
:101F88001FC09FF020C0A0F0010E0001A26FF40E48
:101F9800A16F65EC14F09FC01FF0A0C020F046822E
:101FA800000EB36E000EB26E46AA08D0010E0001F4
:101FB8007027000E71237223732300D046AE17D00A
:101FC800194A1A2A47A208D017501B5C18501C58E7
:101FD800D8B002D0468C808247B209D019501B5C19
:101FE8001A501C58D8B003D0468C808200D0F0908C
:101FF80000D0C2C0F5FFC1C0F8FFC0C0F7FFBFC026
:10200800F6FFBEC0F4FFBDC0F3FFBCC0DAFFBBC023
:10201800D9FFBAC0E2FFB9C0E1FFB8C0EAFFB7C054
:10202800E9FFB6C0FBFFB5C0FAFF110019EC14F0C8
:10203800020E256E1C0E246E00D09EEC15F0E806EC
:10204800D8B405D0A5EC15F0E806D8A404D0808251
:102058007494749200D046AC19D00F0E0001C36F6F
:10206800000EC46F000EC56F000EC66FD40E0001BF
:10207800C76F000E0001C86F080E0001C96FFC0E83
:102088000001CA6F5EEC06F0469C00D047B002D053
:1020980046A804D0479002EC12F000D02150D8A4F2
:1020A80019D02250D8A403D0000E236E00D02204E9
:1020B800D8A403D0960E236E00D0020E2218D8A4FE
:1020C80003D0C80E236E00D0030E2218D8A405D062
:1020D800236803D022C023F000D0245023C00EF17F
:1020E80001010F6B01010E27000E0F2301010FBF25
:1020F80007D001010F05D8A003D02668B40E11D06F
:1021080023502424266E2650B40DF3CFC3F0F4CF09
:10211800C4F0000E0001C66FC56949EC13F0000158
:10212800C351276E00D046B002D046A43DD046A485
:102138000AD0000E096E000E0A6E000E0B6E000E1D
:102148000C6E46942BD025500001C36FC46BC56B31
:10215800C66BA00E0001C76F860EC86F010EC96F4F
:10216800000ECA6FA6EC14F0C3C000F1C4C001F1A0
:10217800C5C002F1C6C003F11DC004F11EC005F1BF
:102188000101066B076BB3EC12F000C109F001C145
:102198000AF002C10BF003C10CF000D00AC092F0A3
:1021A80009C091F0469000D046B202D046A645D765
:1021B80046A60AD0000E0D6E000E0E6E000E0F6EB3
:1021C800000E106E46962BD025500001C36FC46BCD
:1021D800C56BC66BA00E0001C76F860EC86F010ED7
:1021E800C96F000ECA6FA6EC14F0C3C000F1C4C0DA
:1021F80001F1C5C002F1C6C003F11FC004F120C03F
:1022080005F10101066B076BB3EC12F000C10DF08C
:1022180001C10EF002C10FF003C110F000D00EC0D2
:1022280090F00DC08FF0469208D7C7EF00F000017C
:10223800D16F800E7DEC15F0000E706E000E716E81
:10224800000E726E01010241E842C00B0101026FEB
:102258000101025170120101035170120001D151A4
:10226800711201010039E842F80B0101006F010108
:1022780000517112010104A5718C010104A102D061
:10228800718E00D0010101517212010104A302D024
:10229800728C00D001010451600B606E0101045181
:1022A800100BFF0AD8B4608460CF50FF000E000105
:1022B800C36F000EC46F000EC56F000EC66FF70E19
:1022C8000001C76F010EC5EC0CF0000E0001C36FD2
:1022D800000EC46F000EC56F000EC66FF70E00012A
:1022E800C76F020EC5EC0CF00FD0F70E0001D26FCD
:1022F80007D00001D2690001D36928D00001D26952
:10230800F70E0001D36F22D09F0E0101056FFF0E5B
:102318000101066F01010451600B0101076F086B91
:1023280001010551010107130101065101010813BB
:1023380001010851000AD8A4E1D701010751BF0AD9
:10234800D8B4D7D7600AD8B4D0D7D8D7000E0001F0
:10235800C36F000EC46F000EC56F000EC66FD2C0EB
:10236800C7F0000EC9EC00F0000E0001C36F000EAC
:10237800C46F000EC56F000EC66FD2C0C7F0010E45
:10238800C9EC00F0000E0001C36F000EC46F000E10
:10239800C56F000EC66FD3C0C7F0020EC9EC00F0BF
:1023A800000E0001C36F000EC46F000EC56F000E53
:1023B800C66FD3C0C7F0030EC9EC00F0000E0001D1
:1023C800C36F000EC46F000EC56F000EC66FD3C07A
:1023D800C7F0040EC9EC00F0000E0001C36F000E38
:1023E800C46F000EC56F000EC66FD3C0C7F0050ED0
:1023F800C9EC00F0000E7DEC15F012006AEC15F047
:10240800E806D8A4A9D0020E01180210031004107F
:10241800D8A41CD0010E0001976F020E0001C36FF3
:10242800000EC46F000EC56F000EC66F970E000138
:10243800C76F000E0001C86F080E0001C96FBC0EFF
:102448000001CA6F5EEC06F0827200D0080E011817
:10245800021003100410D8A417D001C0C3F002C0A2
:10246800C4F003C0C5F004C0C6F08F0E0001C76FEA
:10247800000E0001C86F080E0001C96FBC0E0001F4
:10248800CA6F5EEC06F000D00A0E011802100310A5
:102498000410D8A414D0000E00016C6F000E6D6FEC
:1024A800000E6E6F000E6F6F000E0001706F000E51
:1024B800716F000E726F000E736F468A00D0090E9E
:1024C8000118021003100410D8A43ED025C0C3F090
:1024D8000001C46B6CC0C5F06DC0C6F032EC15F0DD
:1024E800C3C013F0C4C014F025C0C3F00001C46B0E
:1024F80070C0C5F071C0C6F032EC15F0C3C015F05D
:10250800C4C016F0469A13C087F014500001886FB3
:1025180015C089F0165000018A6F01C0C3F002C0CF
:10252800C4F003C0C5F004C0C6F0870E0001C76F31
:10253800000E0001C86F080E0001C96FBC0E000133
:10254800CA6F5EEC06F000D00F0140BD05D00F0148
:1025580030BD02D0469802D0468800D01200000E46
:102568000101096F010107AF0DD00101071F061F07
:10257800051F046D000E052306230723010E010124
:10258800096F00D0010103AF0DD00101031F021F25
:10259800011F006D000E012302230323010E010118
:1025A800091B00D0000E01010A6F000E0B6F000E10
:1025B8000C6F000E0D6F010104510101051101019D
:1025C800061101010711D8B447D0010E0101086FA7
:1025D80009D00101D89004370537063707370101BC
:1025E800082B00D0010107BF02D0F3D700D00101AA
:1025F800D8900A370B370C370D3701010451010108
:10260800005D010105510101015901010651010156
:1026180002590101075101010359D8A013D0010142
:1026280004510101005F010105510101015B010134
:1026380006510101025B010107510101035B010120
:102648000A8100D00101D8900733063305330433DB
:102658000101082FCCD700D0010109510101D8B4DC
:102668000AD001010D1F0C1F0B1F0A6D000E0B2352
:102678000C230D2300D00AC100F10BC101F10CC1DC
:1026880002F10DC103F100D01200000E0001C86F65
:102698000001C6AF09D00001C56DC61FD8B0C62B52
:1026A800010E0001C86F00D00001C4AF09D00001BD
:1026B800C36DC41FD8B0C42B010E0001C81B00D0C5
:1026C800000E0001CA6F000EC96F0001C55100015C
:1026D800C611D8B431D0010E0001C76F07D0000170
:1026E800D890C537C6370001C72B00D00001C6BF38
:1026F80002D0F5D700D00001D890C937CA370001F9
:10270800C5510001C35D0001C6510001C459D8A0DC
:102718000BD00001C5510001C35F0001C651000183
:10272800C45B0001C98100D00001D890C633C5330D
:102738000001C72FE0D700D00001C8510001D8B46C
:1027480006D00001C96DCA1FD8B0CA2B00D0C9C0B5
:10275800C3F0CAC0C4F000D01200000E0001AA6F76
:102768000001A8AF09D00001A76DA81FD8B0A82BF9
:10277800010E0001AA6F00D00001A6AF09D0000128
:10278800A56DA61FD8B0A62B010E0001AA1B00D06C
:10279800000E0001AC6F000EAB6F0001A7510001E5
:1027A800A811D8B431D0010E0001A96F07D00001DB
:1027B800D890A737A8370001A92B00D00001A8BFDF
:1027C80002D0F5D700D00001D890AB37AC37000164
:1027D800A7510001A55D0001A8510001A659D8A084
:1027E8000BD00001A7510001A55F0001A85100010D
:1027F800A65B0001AB8100D00001D890A833A733B5
:102808000001A92FE0D700D00001AA510001D8B4D7
:1028180006D00001AB6DAC1FD8B0AC2B00D0ABC05C
:10282800A5F0ACC0A6F000D01200000E896EFD0E17
:10283800926E000E8A6E9368000E8B6EFC0E946E7C
:10284800000E8C6E9568000E8D6E9668060E01015E
:10285800006F050E0101016F010E0101026F030EE9
:102868000101036F9D0E0101046F040E1BEC11F0B2
:10287800A492A490F2949E90A192F292F090D08E9D
:10288800A592A590F184F08C9F90A292800ED56EAF
:10289800D768FE0ED66E82905A0E276E000ECD6E49
:1028A800000EB16EF18CF18AA382A380F28A9D801A
:1028B800A082F288F086F28EF28CCD80B180D58E1F
:1028C8001200000E0001A56F000EA46F0001A151B7
:1028D8000001A211D8B431D0010E0001A36F07D0B6
:1028E8000001D890A137A2370001A32B00D0000126
:1028F800A2BF02D0F5D700D00001D890A437A537E1
:102908000001A15100019F5D0001A2510001A059E1
:10291800D8A00BD00001A15100019F5F0001A25176
:102928000001A05B0001A48100D00001D890A2336F
:10293800A1330001A32FE0D700D0A4C09FF0A5C009
:10294800A0F01200000E0001CB6F000ECC6F000E3D
:10295800CD6F000ECE6F00D00001C3A111D00001D1
:10296800C7510001CB270001C8510001CC23000149
:10297800C9510001CD230001CA510001CE2300D066
:102988000001D890C737C837C937CA370001D8906F
:10299800C633C533C433C3330001C3510001C41166
:1029A8000001C5110001C611D8A4D6D7CBC0C3F009
:1029B800CCC0C4F0CDC0C5F0CEC0C6F0120000EE49
:1029C80060F03F0EEE6AE806FDE1476A466A00EEEF
:1029D80001F0270EEE6AE806FDE1580EF66E2B0EA2
:1029E800F76E000EF86E00EED4F010EE08F0090055
:1029F800F5CFEEFFE550E150FAE1600EF66E2B0ED2
:102A0800F76E000EF86E0900F5CF48F0000EF86E6C
:102A180000011AEF10F0296E000E2B6E2850D8B462
:102A28001AD0010E2A6E04D0D89028362A2A00D04F
:102A380028BE02D0F9D700D0D8902B362850295C70
:102A4800D8A004D02850295E2B8000D0D8902832F6
:102A58002A2EF2D700D02B5000D012000001C3510B
:102A68000001C503F3CFC7F0F4CFC8F00001C3518C
:102A78000001C603F3500001C8270001C45100013A
:102A8800C503F3500001C827C7C0C3F0C8C0C4F0CD
:102A980000D0120000019F510001A103F3CFA3F061
:102AA800F4CFA4F000019F510001A203F3500001EC
:102AB800A4270001A0510001A103F3500001A4279D
:102AC800A3C09FF0A4C0A0F000D01200010E000126
:102AD800C36F0F0140A709D00F0130A706D00F011F
:102AE80020A703D0000E0001C36F0001C35100D01E
:102AF80012000001C36FC3C06FFF00D06E50E00B1F
:102B08000001C319D8A4FAD71200010E286E60BEBE
:102B180005D00F0150BF02D0000E286E285000D0FB
:102B280012009FC0A1F0A0C0A2F0A2C0D7FFA1C010
:102B3800D6FF120074A402D0010E02D0000E00D0FD
:102B4800120074A202D0010E02D0000E00D01200B2
:0A2B58000100000000000000100062
:020000040020DA
:08000000FFFFFFFFFFFFFFFF00
:020000040030CA
:0E000000FF021F1EFF8081FF0FC00FE00F40A8
:00000001FF
