:0400000080EF00F09D
:0E0008004282FACFA9F0FBCFAAF020ED0EF055
:100018004280D8CF0DF0E8CF0EF0E0CF0FF0FACF46
:1000280010F0FBCF11F0E9CF12F0EACF13F0E1CFD7
:1000380014F0E2CF15F0D9CF16F0DACF17F0F3CFDE
:1000480018F0F4CF19F0F6CF1AF0F7CF1BF0F8CF6D
:100058001CF0F5CF1DF0A4A0A4B201D029D061EC0A
:1000680014F00009D8B422D07C0E016E000E026E86
:10007800CBEC09F000018A05D8A409D07CC068F04F
:100088007DC069F07EC06AF07FC06BF04188040EC5
:1000980000017C1900017D1100017E1100017F1112
:1000A800D8A404D080C075F081C074F0A490A49244
:1000B8001DC0F5FF1CC0F8FF1BC0F7FF1AC0F6FFF4
:1000C80019C0F4FF18C0F3FF17C0DAFF16C0D9FF34
:1000D80015C0E2FF14C0E1FF13C0EAFF12C0E9FF38
:1000E80011C0FBFF10C0FAFF0FC0E0FF0EC0E8FF11
:1000F8000DC0D8FF42901000A6EF13F00001C06FAA
:100108000001C0510001D8A458D00001BB29D8A4CF
:1001180054D00F010197B7C0BCF0B8C0BDF0B9C04A
:10012800BEF0BAC0BFF0040E06D00001D890BF33AD
:10013800BE33BD33BC33E82EF8D7BCC0C1F0BDC058
:10014800C2F0BEC0C3F0BFC0C4F00001C15100017D
:10015800C16FC26BC36BC46BC1C000FF070E000147
:10016800B7150001C16F000E0001B8150001C26F7C
:10017800000E0001B9150001C36F000E0001BA1589
:100188000001C46FC1C0BCF0C2C0BDF0C3C0BEF0A6
:10019800C4C0BFF0050ED8900001BC37BD37BE37CC
:1001A800BF37E82EF8D7BCC0C1F0BDC0C2F0BEC092
:1001B800C3F0BFC0C4F0C1C001FF0001C005D8A48E
:1001C80058D00001BB29D8A454D00F010597B7C057
:1001D800BCF0B8C0BDF0B9C0BEF0BAC0BFF0040EE4
:1001E80006D00001D890BF33BE33BD33BC33E82EF0
:1001F800F8D7BCC0C1F0BDC0C2F0BEC0C3F0BFC01C
:10020800C4F00001C1510001C16FC26BC36BC46B64
:10021800C1C004FF070E0001B7150001C16F000E31
:100228000001B8150001C26F000E0001B9150001E8
:10023800C36F000E0001BA150001C46FC1C0BCF045
:10024800C2C0BDF0C3C0BEF0C4C0BFF0050ED89098
:100258000001BC37BD37BE37BF37E82EF8D7BCC062
:10026800C1F0BDC0C2F0BEC0C3F0BFC0C4F0C1C0C1
:1002780005FF020E0001C019D8A458D00001BB29FF
:10028800D8A454D00F010997B7C0BCF0B8C0BDF0CE
:10029800B9C0BEF0BAC0BFF0040E06D00001D890B5
:1002A800BF33BE33BD33BC33E82EF8D7BCC0C1F072
:1002B800BDC0C2F0BEC0C3F0BFC0C4F00001C15190
:1002C8000001C16FC26BC36BC46BC1C008FF070ECE
:1002D8000001B7150001C16F000E0001B81500013B
:1002E800C26F000E0001B9150001C36F000E0001B6
:1002F800BA150001C46FC1C0BCF0C2C0BDF0C3C014
:10030800BEF0C4C0BFF0050ED8900001BC37BD37A1
:10031800BE37BF37E82EF8D7BCC0C1F0BDC0C2F0A9
:10032800BEC0C3F0BFC0C4F0C1C009FF030E0001C6
:10033800C019D8A458D00001BB29D8A454D00F01A3
:100348000D97B7C0BCF0B8C0BDF0B9C0BEF0BAC018
:10035800BFF0040E06D00001D890BF33BE33BD33C2
:10036800BC33E82EF8D7BCC0C1F0BDC0C2F0BEC0D7
:10037800C3F0BFC0C4F00001C1510001C16FC26B1E
:10038800C36BC46BC1C00CFF070E0001B715000199
:10039800C16F000E0001B8150001C26F000E000108
:1003A800B9150001C36F000E0001BA150001C46F32
:1003B800C1C0BCF0C2C0BDF0C3C0BEF0C4C0BFF075
:1003C800050ED8900001BC37BD37BE37BF37E82EC1
:1003D800F8D7BCC0C1F0BDC0C2F0BEC0C3F0BFC03A
:1003E800C4F0C1C00DFF040E0001C019D8A458D034
:1003F8000001BB29D8A454D00F011197B7C0BCF095
:10040800B8C0BDF0B9C0BEF0BAC0BFF0040E06D087
:100418000001D890BF33BE33BD33BC33E82EF8D7C4
:10042800BCC0C1F0BDC0C2F0BEC0C3F0BFC0C4F004
:100438000001C1510001C16FC26BC36BC46BC1C065
:1004480010FF070E0001B7150001C16F000E000173
:10045800B8150001C26F000E0001B9150001C36F85
:10046800000E0001BA150001C46FC1C0BCF0C2C0C3
:10047800BDF0C3C0BEF0C4C0BFF0050ED8900001E7
:10048800BC37BD37BE37BF37E82EF8D7BCC0C1F080
:10049800BDC0C2F0BEC0C3F0BFC0C4F0C1C011FF30
:1004A800050E0001C019D8A458D00001BB29D8A452
:1004B80054D00F011597B7C0BCF0B8C0BDF0B9C093
:1004C800BEF0BAC0BFF0040E06D00001D890BF330A
:1004D800BE33BD33BC33E82EF8D7BCC0C1F0BDC0B5
:1004E800C2F0BEC0C3F0BFC0C4F00001C1510001DA
:1004F800C16FC26BC36BC46BC1C014FF070E000190
:10050800B7150001C16F000E0001B8150001C26FD8
:10051800000E0001B9150001C36F000E0001BA15E5
:100528000001C46FC1C0BCF0C2C0BDF0C3C0BEF002
:10053800C4C0BFF0050ED8900001BC37BD37BE3728
:10054800BF37E82EF8D7BCC0C1F0BDC0C2F0BEC0EE
:10055800C3F0BFC0C4F0C1C015FF0001C051000105
:10056800D8A489D0F70E0001BB19D8A484D00F01F4
:1005780001870001B7510001C16FC26BC36BC46B27
:10058800C1C003FF000E0001B7150001C16FFF0EC7
:100598000001B8150001C26F000E0001B915000175
:1005A800C36F000E0001BA150001C46FC1C0BCF0D2
:1005B800C2C0BDF0C3C0BEF0C4C0BFF0BDC0BCF077
:1005C800BEC0BDF0BFC0BEF00001BF6BBCC0C1F073
:1005D800BDC0C2F0BEC0C3F0BFC0C4F0C1C002FFFE
:1005E8000001B9A103D00F01018102D00F010191CF
:1005F8000001B9A303D00F01018302D00F010193B9
:100608000001B9A503D00F01018B02D00F01019B96
:100618000001B9A703D00F01018D02D00F01019D80
:100628000001B9A903D00F01018F02D00F01019F6A
:10063800B7C0BCF0B8C0BDF0B9C0BEF0BAC0BFF01A
:10064800160E06D00001D890BF33BE33BD33BC337D
:10065800E82EF8D7BCC0C1F0BDC0C2F0BEC0C3F020
:10066800BFC0C4F00001C1510001C16FC26BC36BB0
:10067800C46BC1C000FF0001C005D8A489D0F70E23
:100688000001BB19D8A484D00F0105870001B75118
:100698000001C16FC26BC36BC46BC1C007FF000E02
:1006A8000001B7150001C16FFF0E0001B815000168
:1006B800C26F000E0001B9150001C36F000E0001E2
:1006C800BA150001C46FC1C0BCF0C2C0BDF0C3C040
:1006D800BEF0C4C0BFF0BDC0BCF0BEC0BDF0BFC05E
:1006E800BEF00001BF6BBCC0C1F0BDC0C2F0BEC04F
:1006F800C3F0BFC0C4F0C1C006FF0001B9A103D058
:100708000F01058102D00F0105910001B9A303D0A3
:100718000F01058302D00F0105930001B9A503D08D
:100728000F01058B02D00F01059B0001B9A703D06B
:100738000F01058D02D00F01059D0001B9A903D055
:100748000F01058F02D00F01059FB7C0BCF0B8C0DC
:10075800BDF0B9C0BEF0BAC0BFF0160E06D0000199
:10076800D890BF33BE33BD33BC33E82EF8D7BCC0F6
:10077800C1F0BDC0C2F0BEC0C3F0BFC0C4F000012C
:10078800C1510001C16FC26BC36BC46BC1C004FF10
:10079800020E0001C019D8A489D0F70E0001BB19B8
:1007A800D8A484D00F0109870001B7510001C16F97
:1007B800C26BC36BC46BC1C00BFF000E0001B71541
:1007C8000001C16FFF0E0001B8150001C26F000ED5
:1007D8000001B9150001C36F000E0001BA15000130
:1007E800C46FC1C0BCF0C2C0BDF0C3C0BEF0C4C0BD
:1007F800BFF0BDC0BCF0BEC0BDF0BFC0BEF00001C0
:10080800BF6BBCC0C1F0BDC0C2F0BEC0C3F0BFC0AA
:10081800C4F0C1C00AFF0001B9A103D00F010981CA
:1008280002D00F0109910001B9A303D00F01098378
:1008380002D00F0109930001B9A503D00F01098B5C
:1008480002D00F01099B0001B9A703D00F01098D40
:1008580002D00F01099D0001B9A903D00F01098F2A
:1008680002D00F01099FB7C0BCF0B8C0BDF0B9C035
:10087800BEF0BAC0BFF0160E06D00001D890BF3344
:10088800BE33BD33BC33E82EF8D7BCC0C1F0BDC001
:10089800C2F0BEC0C3F0BFC0C4F00001C151000126
:1008A800C16FC26BC36BC46BC1C008FF030E0001EC
:1008B800C019D8A489D0F70E0001BB19D8A484D0D8
:1008C8000F010D870001B7510001C16FC26BC36BE7
:1008D800C46BC1C00FFF000E0001B7150001C16F46
:1008E800FF0E0001B8150001C26F000E0001B91516
:1008F8000001C36F000E0001BA150001C46FC1C02A
:10090800BCF0C2C0BDF0C3C0BEF0C4C0BFF0BDC023
:10091800BCF0BEC0BDF0BFC0BEF00001BF6BBCC024
:10092800C1F0BDC0C2F0BEC0C3F0BFC0C4F0C1C0FA
:100938000EFF0001B9A103D00F010D8102D00F01F4
:100948000D910001B9A303D00F010D8302D00F014F
:100958000D930001B9A503D00F010D8B02D00F0133
:100968000D9B0001B9A703D00F010D8D02D00F0117
:100978000D9D0001B9A903D00F010D8F02D00F0101
:100988000D9FB7C0BCF0B8C0BDF0B9C0BEF0BAC0CA
:10099800BFF0160E06D00001D890BF33BE33BD336A
:1009A800BC33E82EF8D7BCC0C1F0BDC0C2F0BEC091
:1009B800C3F0BFC0C4F00001C1510001C16FC26BD8
:1009C800C36BC46BC1C00CFF040E0001C019D8A4CE
:1009D80089D0F70E0001BB19D8A484D00F01118764
:1009E8000001B7510001C16FC26BC36BC46BC1C0BA
:1009F80013FF000E0001B7150001C16FFF0E0001C3
:100A0800B8150001C26F000E0001B9150001C36FCF
:100A1800000E0001BA150001C46FC1C0BCF0C2C00D
:100A2800BDF0C3C0BEF0C4C0BFF0BDC0BCF0BEC006
:100A3800BDF0BFC0BEF00001BF6BBCC0C1F0BDC0FF
:100A4800C2F0BEC0C3F0BFC0C4F0C1C012FF0001F5
:100A5800B9A103D00F01118102D00F01119100013A
:100A6800B9A303D00F01118302D00F011193000124
:100A7800B9A503D00F01118B02D00F01119B000102
:100A8800B9A703D00F01118D02D00F01119D0001EC
:100A9800B9A903D00F01118F02D00F01119FB7C060
:100AA800BCF0B8C0BDF0B9C0BEF0BAC0BFF0160EF9
:100AB80006D00001D890BF33BE33BD33BC33E82E17
:100AC800F8D7BCC0C1F0BDC0C2F0BEC0C3F0BFC043
:100AD800C4F00001C1510001C16FC26BC36BC46B8C
:100AE800C1C010FF050E0001C019D8A41200F70EEE
:100AF8000001BB19D8A412000F0115870001B751D6
:100B08000001C16FC26BC36BC46BC1C017FF000E7D
:100B18000001B7150001C16FFF0E0001B8150001F3
:100B2800C26F000E0001B9150001C36F000E00016D
:100B3800BA150001C46FC1C0BCF0C2C0BDF0C3C0CB
:100B4800BEF0C4C0BFF0BDC0BCF0BEC0BDF0BFC0E9
:100B5800BEF00001BF6BBCC0C1F0BDC0C2F0BEC0DA
:100B6800C3F0BFC0C4F0C1C016FF0001B9A103D0D3
:100B78000F01158102D00F0115910001B9A303D00F
:100B88000F01158302D00F0115930001B9A503D0F9
:100B98000F01158B02D00F01159B0001B9A703D0D7
:100BA8000F01158D02D00F01159D0001B9A903D0C1
:100BB8000F01158F02D00F01159FB7C0BCF0B8C048
:100BC800BDF0B9C0BEF0BAC0BFF0160E06D0000125
:100BD800D890BF33BE33BD33BC33E82EF8D7BCC082
:100BE800C1F0BDC0C2F0BEC0C3F0BFC0C4F00001B8
:100BF800C1510001C16FC26BC36BC46BC1C014FF8C
:100C080012000F0140B73FD1BDC045FF0001BEAD86
:100C180003D00F01458D02D00F01459D0001BEA7ED
:100C280079D00001B7510001C36FC46BC56BC66BA7
:100C3800C3C044FF000E0001B7150001C36FFF0ECB
:100C48000001B8150001C46F000E0001B9150001BC
:100C5800C56F000E0001BA150001C66FC3C0BFF012
:100C6800C4C0C0F0C5C0C1F0C6C0C2F0C0C0BFF0AB
:100C7800C1C0C0F0C2C0C1F00001C26BBFC0C3F0A8
:100C8800C0C0C4F0C1C0C5F0C2C0C6F0C3C043FFF5
:100C9800000E0F01426F0F0142870001B9A102D077
:100CA8000F0142810001B9A302D00F014283000164
:100CB800B9A502D00F01428B0001B9A702D00F01DC
:100CC800428D0001B9A902D00F01428FB7C0BFF011
:100CD800B8C0C0F0B9C0C1F0BAC0C2F0160E06D094
:100CE8000001D890C233C133C033BF33E82EF8D7E0
:100CF800BFC0C3F0C0C0C4F0C1C0C5F0C2C0C6F018
:100D08000001C3510001C36FC46BC56BC66BC3C080
:100D180041FF59D00F014297B7C0BFF0B8C0C0F02B
:100D2800B9C0C1F0BAC0C2F0040E06D00001D89014
:100D3800C233C133C033BF33E82EF8D7BFC0C3F0C6
:100D4800C0C0C4F0C1C0C5F0C2C0C6F00001C351E4
:100D58000001C36FC46BC56BC66BC3C041FF070EF0
:100D68000001B7150001C36F000E0001B81500019E
:100D7800C46F000E0001B9150001C56F000E000117
:100D8800BA150001C66FC3C0BFF0C4C0C0F0C5C06B
:100D9800C1F0C6C0C2F0050ED8900001BF37C037F9
:100DA800C137C237E82EF8D7BFC0C3F0C0C0C4F0FF
:100DB800C1C0C5F0C2C0C6F00F0142511F0B0F01E0
:100DC800426FC3C042FF0001BEA103D00F014081A2
:100DD80002D00F0140910001BEA303D00F01408350
:100DE80002D00F014093BBC0D9FFBCC0DAFFDF506F
:100DF8000F01466F000120EE01F0BB51D926BC510E
:100E0800DA22DF500F01476F000120EE02F0BB51DC
:100E1800D926BC51DA22DF500F01486F000120EEBD
:100E280003F0BB51D926BC51DA22DF500F01496FBC
:100E3800000120EE04F0BB51D926BC51DA22DF5064
:100E48000F014A6F000120EE05F0BB51D926BC51B5
:100E5800DA22DF500F014B6F000120EE06F0BB5184
:100E6800D926BC51DA22DF500F014C6F000120EE69
:100E780007F0BB51D926BC51DA22DF500F014D6F64
:100E88000F01408712000F0130B73FD1BDC035FFB9
:100E98000001BEAD03D00F01358D02D00F01359D85
:100EA8000001BEA779D00001B7510001C36FC46B20
:100EB800C56BC66BC3C034FF000E0001B715000137
:100EC800C36FFF0E0001B8150001C46F000E0001CA
:100ED800B9150001C56F000E0001BA150001C66FF3
:100EE800C3C0BFF0C4C0C0F0C5C0C1F0C6C0C2F026
:100EF800C0C0BFF0C1C0C0F0C2C0C1F00001C26B29
:100F0800BFC0C3F0C0C0C4F0C1C0C5F0C2C0C6F005
:100F1800C3C033FF000E0F01326F0F01328700018B
:100F2800B9A102D00F0132810001B9A302D00F018B
:100F380032830001B9A502D00F01328B0001B9A795
:100F480002D00F01328D0001B9A902D00F01328FF2
:100F5800B7C0BFF0B8C0C0F0B9C0C1F0BAC0C2F0E5
:100F6800160E06D00001D890C233C133C033BF3348
:100F7800E82EF8D7BFC0C3F0C0C0C4F0C1C0C5F0E8
:100F8800C2C0C6F00001C3510001C36FC46BC56B7A
:100F9800C66BC3C031FF59D00F013297B7C0BFF03D
:100FA800B8C0C0F0B9C0C1F0BAC0C2F0040E06D0D3
:100FB8000001D890C233C133C033BF33E82EF8D70D
:100FC800BFC0C3F0C0C0C4F0C1C0C5F0C2C0C6F045
:100FD8000001C3510001C36FC46BC56BC66BC3C0AE
:100FE80031FF070E0001B7150001C36F000E0001A5
:100FF800B8150001C46F000E0001B9150001C56FD6
:10100800000E0001BA150001C66FC3C0BFF0C4C00E
:10101800C0F0C5C0C1F0C6C0C2F0050ED89000012E
:10102800BF37C037C137C237E82EF8D7BFC0C3F0C3
:10103800C0C0C4F0C1C0C5F0C2C0C6F00F01325173
:101048001F0B0F01326FC3C032FF0001BEA103D0D6
:101058000F01308102D00F0130910001BEA303D0EF
:101068000F01308302D00F013093BBC0D9FFBCC041
:10107800DAFFDF500F01366F000120EE01F0BB519F
:10108800D926BC51DA22DF500F01376F000120EE5C
:1010980002F0BB51D926BC51DA22DF500F01386F5C
:1010A800000120EE03F0BB51D926BC51DA22DF50F3
:1010B8000F01396F000120EE04F0BB51D926BC5155
:1010C800DA22DF500F013A6F000120EE05F0BB5124
:1010D800D926BC51DA22DF500F013B6F000120EE08
:1010E80006F0BB51D926BC51DA22DF500F013C6F04
:1010F800000120EE07F0BB51D926BC51DA22DF509F
:101108000F013D6F0F01308712000F0120B7120049
:10111800BDC025FF0001BEAD03D00F01258D02D053
:101128000F01259D0001BEA779D00001B75100012C
:10113800C36FC46BC56BC66BC3C024FF000E000130
:10114800B7150001C36FFF0E0001B8150001C46F89
:10115800000E0001B9150001C56F000E0001BA1597
:101168000001C66FC3C0BFF0C4C0C0F0C5C0C1F0A5
:10117800C6C0C2F0C0C0BFF0C1C0C0F0C2C0C1F09C
:101188000001C26BBFC0C3F0C0C0C4F0C1C0C5F08D
:10119800C2C0C6F0C3C023FF000E0F01226F0F01AB
:1011A80022870001B9A102D00F0122810001B9A351
:1011B80002D00F0122830001B9A502D00F01228BB2
:1011C8000001B9A702D00F01228D0001B9A902D0F0
:1011D8000F01228FB7C0BFF0B8C0C0F0B9C0C1F0CE
:1011E800BAC0C2F0160E06D00001D890C233C1337F
:1011F800C033BF33E82EF8D7BFC0C3F0C0C0C4F0B7
:10120800C1C0C5F0C2C0C6F00001C3510001C36F20
:10121800C46BC56BC66BC3C021FF59D00F012297A1
:10122800B7C0BFF0B8C0C0F0B9C0C1F0BAC0C2F012
:10123800040E06D00001D890C233C133C033BF3387
:10124800E82EF8D7BFC0C3F0C0C0C4F0C1C0C5F015
:10125800C2C0C6F00001C3510001C36FC46BC56BA7
:10126800C66BC3C021FF070E0001B7150001C36F8D
:10127800000E0001B8150001C46F000E0001B91579
:101288000001C56F000E0001BA150001C66FC3C08A
:10129800BFF0C4C0C0F0C5C0C1F0C6C0C2F0050EE2
:1012A800D8900001BF37C037C137C237E82EF8D70A
:1012B800BFC0C3F0C0C0C4F0C1C0C5F0C2C0C6F052
:1012C8000F0122511F0B0F01226FC3C022FF000123
:1012D800BEA103D00F01208102D00F01209100018F
:1012E800BEA303D00F01208302D00F012093BBC0FF
:1012F800D9FFBCC0DAFFDF500F01266F000120EED6
:1013080001F0BB51D926BC51DA22DF500F01276FFB
:10131800000120EE02F0BB51D926BC51DA22DF5081
:101328000F01286F000120EE03F0BB51D926BC51F4
:10133800DA22DF500F01296F000120EE04F0BB51C3
:10134800D926BC51DA22DF500F012A6F000120EEA6
:1013580005F0BB51D926BC51DA22DF500F012B6FA3
:10136800000120EE06F0BB51D926BC51DA22DF502D
:101378000F012C6F000120EE07F0BB51D926BC519C
:10138800DA22DF500F012D6F0F0120871200000EA7
:101398000B6E74BE0B8074BC0B820F0150AF43D12F
:1013A80001C0D9FF02C0DAFFDE6ADE6ADE6ADD6AE2
:1013B80020EE04F00150D9260250DA2256CFDFFF82
:1013C80020EE05F00150D9260250DA2257CFDFFF70
:1013D80020EE06F00150D9260250DA2258CFDFFF5E
:1013E80020EE07F00150D9260250DA2259CFDFFF4C
:1013F80020EE08F00150D9260250DA225ACFDFFF3A
:1014080020EE09F00150D9260250DA225BCFDFFF27
:1014180020EE0AF00150D9260250DA225CCFDFFF15
:1014280020EE0BF00150D9260250DA225DCFDFFF03
:1014380020EE0EF00150D9260250DA220F0155ADE8
:1014480002D0010E01D0000EDF6E20EE0DF001502B
:10145800D9260250DA220F0155510F0BDF6E20EE0C
:101468000CF00150D9260250DA220F0152A702D0FF
:10147800010E01D0000EDF6E0F0152B744D051CFDC
:1014880003F0046A056A066A030ED8900336043628
:1014980005360636E82EF9D701C0D9FF02C0DAFFB3
:1014A80003C0DEFF04C0DEFF05C0DEFF06C0DEFFAE
:1014B8000F015239E842070B070B0C6E01C0D9FF28
:1014C80002C0DAFFDECF03F0DECF04F0DECF05F096
:1014D800DECF06F00C500324076E000E0420086EC1
:1014E800000E0520096E000E06200A6E01C0D9FF05
:1014F80002C0DAFF07C0DEFF08C0DEFF09C0DEFF5A
:101508000AC0DEFF8DD054CF03F0046A056A066A6C
:1015180001C0D9FF02C0DAFF03C0DEFF04C0DEFF4E
:1015280005C0DEFF06C0DEFF53CF03F0046A056A7C
:10153800066A05C006F004C005F003C004F0036A9B
:1015480001C0D9FF02C0DAFF0350DE260450DE22B4
:101558000550DE220650DE220F0152A10CD001C038
:10156800D9FF02C0DAFF000EDE12000EDE12010EF5
:10157800DE12000EDE120F0152A30CD001C0D9FFFB
:1015880002C0DAFF000EDE12000EDE12020EDE12BC
:10159800000EDE120F0152AB0CD001C0D9FF02C001
:1015A800DAFF000EDE12000EDE12040EDE12000E4E
:1015B800DE120F0152AD0CD001C0D9FF02C0DAFF14
:1015C800000EDE12000EDE12080EDE12000EDE1213
:1015D8000F0152AF0CD001C0D9FF02C0DAFF000ED4
:1015E800DE12000EDE12100EDE12000EDE1251CFD9
:1015F80003F0046A056A066A150ED89003360436A5
:1016080005360636E82EF9D701C0D9FF02C0DAFF41
:101618000350DE120450DE120550DE120650DE12B0
:101628000F01509F120060AE120001C0D9FF02C026
:10163800DAFFDE6ADE6ADE6ADD6A20EE04F0015057
:10164800D9260250DA2266CFDFFF20EE05F00150DE
:10165800D9260250DA2267CFDFFF20EE06F00150CC
:10166800D9260250DA2268CFDFFF20EE07F00150BA
:10167800D9260250DA2269CFDFFF20EE08F00150A8
:10168800D9260250DA226ACFDFFF20EE09F0015096
:10169800D9260250DA226BCFDFFF20EE0AF0015084
:1016A800D9260250DA226CCFDFFF20EE0BF0015072
:1016B800D9260250DA226DCFDFFF20EE0EF001505E
:1016C800D9260250DA2265AC02D0010E01D0000EF4
:1016D800DF6E20EE0DF00150D9260250DA22655057
:1016E8000F0BDF6E20EE0CF00150D9260250DA22E3
:1016F80062A602D0010E01D0000EDF6E62B643D0A2
:1017080061CF03F0046A056A066A030ED8900336AF
:10171800043605360636E82EF9D701C0D9FF02C0CF
:10172800DAFF03C0DEFF04C0DEFF05C0DEFF06C02F
:10173800DEFF6238E842070B070B0C6E01C0D9FFC9
:1017480002C0DAFFDECF03F0DECF04F0DECF05F013
:10175800DECF06F00C500324076E000E0420086E3E
:10176800000E0520096E000E06200A6E01C0D9FF82
:1017780002C0DAFF07C0DEFF08C0DEFF09C0DEFFD7
:101788000AC0DEFF88D064CF03F0046A056A066ADF
:1017980001C0D9FF02C0DAFF03C0DEFF04C0DEFFCC
:1017A80005C0DEFF06C0DEFF63CF03F0046A056AEA
:1017B800066A05C006F004C005F003C004F0036A19
:1017C80001C0D9FF02C0DAFF0350DE260450DE2232
:1017D8000550DE220650DE2262A00CD001C0D9FFDF
:1017E80002C0DAFF000EDE12000EDE12010EDE125B
:1017F800000EDE1262A20CD001C0D9FF02C0DAFFCF
:10180800000EDE12000EDE12020EDE12000EDE12D6
:1018180062AA0CD001C0D9FF02C0DAFF000EDE12A6
:10182800000EDE12040EDE12000EDE1262AC0CD0C8
:1018380001C0D9FF02C0DAFF000EDE12000EDE1270
:10184800080EDE12000EDE1262AE0CD001C0D9FF07
:1018580002C0DAFF000EDE12000EDE12100EDE12DB
:10186800000EDE1261CF03F0046A056A066A150EDF
:10187800D8900336043605360636E82EF9D701C067
:10188800D9FF02C0DAFF0350DE120450DE12055001
:10189800DE120650DE12609E12000001C06F0001C9
:1018A800C005D8A456D00001BB29D8A452D0B7C0CF
:1018B800BCF0B8C0BDF0B9C0BEF0BAC0BFF0040EED
:1018C80006D00001D890BF33BE33BD33BC33E82EF9
:1018D800F8D7BCC0C1F0BDC0C2F0BEC0C3F0BFC025
:1018E800C4F00001C1510001C16FC26BC36BC46B6E
:1018F800C1C018FF070E0001B7150001C16F000E27
:101908000001B8150001C26F000E0001B9150001F1
:10191800C36F000E0001BA150001C46FC1C0BCF04E
:10192800C2C0BDF0C3C0BEF0C4C0BFF0050ED890A1
:101938000001BC37BD37BE37BF37E82EF8D7BCC06B
:10194800C1F0BDC0C2F0BEC0C3F0BFC0C4F0C1C0CA
:1019580019FF020E0001C019D8A456D00001BB29F6
:10196800D8A452D0B7C0BCF0B8C0BDF0B9C0BEF062
:10197800BAC0BFF0040E06D00001D890BF33BE3302
:10198800BD33BC33E82EF8D7BCC0C1F0BDC0C2F02F
:10199800BEC0C3F0BFC0C4F00001C1510001C16F97
:1019A800C26BC36BC46BC1C01CFF070E0001B71527
:1019B8000001C16F000E0001B8150001C26F000ED2
:1019C8000001B9150001C36F000E0001BA1500012E
:1019D800C46FC1C0BCF0C2C0BDF0C3C0BEF0C4C0BB
:1019E800BFF0050ED8900001BC37BD37BE37BF37F2
:1019F800E82EF8D7BCC0C1F0BDC0C2F0BEC0C3F06D
:101A0800BFC0C4F0C1C01DFF0001C005D8A487D065
:101A1800F70E0001BB19D8A482D00001B75100010C
:101A2800C16FC26BC36BC46BC1C01BFF000E00014A
:101A3800B7150001C16FFF0E0001B8150001C26F94
:101A4800000E0001B9150001C36F000E0001BA15A0
:101A58000001C46FC1C0BCF0C2C0BDF0C3C0BEF0BD
:101A6800C4C0BFF0BDC0BCF0BEC0BDF0BFC0BEF0BA
:101A78000001BF6BBCC0C1F0BDC0C2F0BEC0C3F0A6
:101A8800BFC0C4F0C1C01AFF0001B9A103D00F0143
:101A9800198102D00F0119910001B9A303D00F01D8
:101AA800198302D00F0119930001B9A503D00F01C2
:101AB800198B02D00F01199B0001B9A703D00F01A0
:101AC800198D02D00F01199D0001B9A903D00F018A
:101AD800198F02D00F01199FB7C0BCF0B8C0BDF074
:101AE800B9C0BEF0BAC0BFF0160E06D00001D8903B
:101AF800BF33BE33BD33BC33E82EF8D7BCC0C1F00A
:101B0800BDC0C2F0BEC0C3F0BFC0C4F00001C15127
:101B18000001C16FC26BC36BC46BC1C018FF020E5A
:101B28000001C019D8A41200F70E0001BB19D8A4EF
:101B380012000001B7510001C16FC26BC36BC46BC7
:101B4800C1C01FFF000E0001B7150001C16FFF0ED5
:101B58000001B8150001C26F000E0001B91500019F
:101B6800C36F000E0001BA150001C46FC1C0BCF0FC
:101B7800C2C0BDF0C3C0BEF0C4C0BFF0BDC0BCF0A1
:101B8800BEC0BDF0BFC0BEF00001BF6BBCC0C1F09D
:101B9800BDC0C2F0BEC0C3F0BFC0C4F0C1C01EFF0C
:101BA8000001B9A103D00F011D8102D00F011D91C1
:101BB8000001B9A303D00F011D8302D00F011D93AB
:101BC8000001B9A503D00F011D8B02D00F011D9B89
:101BD8000001B9A703D00F011D8D02D00F011D9D73
:101BE8000001B9A903D00F011D8F02D00F011D9F5D
:101BF800B7C0BCF0B8C0BDF0B9C0BEF0BAC0BFF045
:101C0800160E06D00001D890BF33BE33BD33BC33A7
:101C1800E82EF8D7BCC0C1F0BDC0C2F0BEC0C3F04A
:101C2800BFC0C4F00001C1510001C16FC26BC36BDA
:101C3800C46BC1C01CFF12000600E9CFABF0EACFAD
:101C4800ACF0E1CFADF0E2CFAEF0D9CFAFF0DACF64
:101C5800B0F0F3CFB1F0F4CFB2F0F6CFB3F0F7CFE6
:101C6800B4F0F8CFB5F0F5CFB6F0F2A49DD082A0CD
:101C780094D0400E0001A16F060E0001A26F38C07B
:101C88001EF01F6A050E216E780E206E31EC14F0DE
:101C98001EC024F01FC025F0000E276EB40E266E5D
:101CA80011EC13F0D890243625360001A1512426D2
:101CB8000001A251252224C034F025C035F0000EC1
:101CC80035BEFF0E366E376E34C0A1F035C0A2F0B7
:101CD80036C0A3F037C0A4F00001A11FA21FA31FA4
:101CE800A41FA12B000EA223A323A423400E0001AE
:101CF800A1250001A56F9C0E0001A2210001A66F7D
:101D0800000E0001A3210001A76F000E0001A4210D
:101D18000001A86F0001A51FA61FA71FA81FA52BBC
:101D2800000EA623A723A823000E0001A525306EC8
:101D3800000E0001A621316E010E0001A721326EAE
:101D4800000E0001A821336E34C0A1F035C0A2F006
:101D580036C0A3F037C0A4F00001A11FA21FA31F23
:101D6800A41FA12B000EA223A323A423000E00016D
:101D7800A125346E000E0001A221356E010E00016E
:101D8800A321366E000E0001A421376E34C01EF068
:101D980035C01FF06CEC14F006D030C01EF031C016
:101DA8001FF06CEC14F0F294F2A257D041BA06D0AE
:101DB800000ECF6E000ECE6E418A3ED0CE50CFCFF1
:101DC800A1F00001A26BA1C0A2F00001A16B00016B
:101DD800A127000EA223A1C028F0A2C029F0000E5E
:101DE80029BEFF0E2A6E2B6E28C01EF029C01FF0D8
:101DF8002AC020F02BC021F0F40E226E010E236EB3
:101E0800000E246E000E256E5FEC13F01EC028F045
:101E18001FC029F020C02AF021C02BF04180000EFD
:101E2800CF6E000ECF6E41A607D0010E00016027CD
:101E3800000E612362236323F29282A202D0010E74
:101E480001D0000EFF0A0001A16F0001A1478250D6
:101E58000001A119FD0BA119826EF0A047D041BC69
:101E680006D0000EB36E000EB26E418C3ED0B2505A
:101E7800B3CFA1F00001A26BA1C0A2F00001A16B39
:101E88000001A127000EA223A1C02CF0A2C02DF0B2
:101E9800000E2DBEFF0E2E6E2F6E2CC01EF02DC014
:101EA8001FF02EC020F02FC021F0F40E226E010E7C
:101EB800236E000E246E000E256E5FEC13F01EC01C
:101EC8002CF01FC02DF020C02EF021C02FF0418231
:101ED800000EB36E000EB36E41A607D0010E0001CE
:101EE8006427000E652366236723F090B6C0F5FFCC
:101EF800B5C0F8FFB4C0F7FFB3C0F6FFB2C0F4FF37
:101F0800B1C0F3FFB0C0DAFFAFC0D9FFAEC0E2FF87
:101F1800ADC0E1FFACC0EAFFABC0E9FFAAC0FBFF60
:101F2800A9C0FAFF429211000001CE6F800E56EC54
:101F380014F0000E706E000E716E000E726E0001CD
:101F4800C741E842C00B0001C76F0001C7517012BA
:101F58000001C85170120001CE5171120001C5393B
:101F6800E842F80B0001C56F0001C551711200016C
:101F7800C9A5718C0001C9B1718E0001C6517212D8
:101F88000001C9B3728C0001C951600B606E000179
:101F9800C951100BFF0AD8B4608460CF50FF000EFF
:101FA8000001B76F000EB86F000EB96F000EBA6F60
:101FB800F70E0001BB6F010E51EC0CF0000E000192
:101FC800B76F000EB86F000EB96F000EBA6FF70E3C
:101FD8000001BB6F020E51EC0CF00FD0F70E0001A0
:101FE800CF6F07D00001CF690001D06928D0000168
:101FF800CF69F70E0001D06F22D09F0E0001CA6F83
:10200800FF0E0001CB6F0001C951600B0001CC6FBE
:10201800CD6B0001CA510001CC130001CB51000166
:10202800CD130001CD51000AD8A4E1D70001CC514D
:10203800BF0AD8B4D7D7600AD8B4D0D7D8D7000E3B
:102048000001B76F000EB86F000EB96F000EBA6FBF
:10205800CFC0BBF0000E82EC00F0000E0001B76F9D
:10206800000EB86F000EB96F000EBA6FCFC0BBF08C
:10207800010E82EC00F0000E0001B76F000EB86F81
:10208800000EB96F000EBA6FD0C0BBF0020E82EC22
:1020980000F0000E0001B76F000EB86F000EB96FA8
:1020A800000EBA6FD0C0BBF0030E82EC00F0000E39
:1020B8000001B76F000EB86F000EB96F000EBA6F4F
:1020C800D0C0BBF0040E82EC00F0000E0001B76F28
:1020D800000EB86F000EB96F000EBA6FD0C0BBF01B
:1020E800050E82EC00F0000E56EC14F0120044ECE1
:1020F80014F00009D8B4C2D0020E0001681900011A
:10210800691100016A1100016B11D8A416D068C0CA
:10211800B7F069C0B8F06AC0B9F06BC0BAF0D20EB7
:102128000001BB6F000E0001BC6F080E0001BD6FFF
:10213800BC0E0001BE6F05EC06F0060E0001681922
:102148000001691100016A1100016B11D8A424D0A3
:1021580082A002D0010E01D0000EFF0A0001C76F55
:1021680082500001C719FE0BC719826E68C0B7F00C
:1021780069C0B8F06AC0B9F06BC0BAF0930E00013C
:10218800BB6F000E0001BC6F080E0001BD6FBC0ED6
:102198000001BE6F05EC06F0080E00016819000189
:1021A800691100016A1100016B11D8A413D0000E47
:1021B8000001606F000E616F000E626F000E636FAA
:1021C800000E0001646F000E656F000E666F000E52
:1021D800676F4186070E0001681900016911000147
:1021E8006A1100016B11D8A43FD079C0B7F0000183
:1021F800B86B60C0B9F061C0BAF016EC14F0B7C0A3
:1022080070F0B8C071F079C0B7F00001B86B64C065
:10221800B9F065C0BAF016EC14F0B7C072F0B8C0E7
:1022280073F0419670C08BF00001715100018C6F02
:1022380072C08DF00001735100018E6F68C0B7F055
:1022480069C0B8F06AC0B9F06BC0BAF08B0E000173
:10225800BB6F000E0001BC6F080E0001BD6FBC0E05
:102268000001BE6F05EC06F00F0140BD03D00F0161
:1022780030AD02D041841200419412004184120012
:10228800B4EC12F0CC0E0001796F80828282010ECC
:102298000001BE6FF40EBD6FF9EC13F080928292CC
:1022A800000E0001BE6F640EBD6FF9EC13F0DAEC9E
:1022B80013F075EC14F0E806D8B405D07BEC14F0F4
:1022C800E806D8A402D0808201D0809241B802D01A
:1022D80041A403D041987BEC10F000017451D8A4BC
:1022E8001ED000017551D8A403D0000E0001766FEE
:1022F80000017505D8A403D0960E0001766F0A0E6A
:1023080000017519D8A403D0C80E0001766F0B0E12
:1023180000017519D8A405D00001766902D075C0EE
:1023280076F076C0B7F00001B86B000E0001BA6F06
:10233800110EB96FF7EC11F00001B75100017725C4
:1023480000019B6F00019B51B40DF3CFB7F0F4CFA0
:10235800B8F0000E0001BA6FB969F7EC11F000018E
:10236800B751386E41A01ED000017951240DF3CF2A
:10237800B7F0F4CFB8F00001000EB8BFFF0EB96F88
:10238800BA6F28C0BBF029C0BCF02AC0BDF02BC072
:10239800BEF056EC12F00001B75100017A6F7AC016
:1023A80094F0419041A283D700017951240DF3CFD5
:1023B800B7F0F4CFB8F00001000EB8BFFF0EB96F48
:1023C800BA6F2CC0BBF02DC0BCF02EC0BDF02FC022
:1023D800BEF056EC12F00001B75100017B6F7BC0D4
:1023E80093F0419264D7000E0001BC6F0001BAAFB0
:1023F80008D00001B96DBA1FD8B0BA2B010E000180
:10240800BC6F0001B8AF08D00001B76DB81FD8B0D5
:10241800B82B010E0001BC1B000E0001BE6F000EA0
:10242800BD6F0001B9510001BA11D8B42CD0010E0A
:102438000001BB6F06D00001D890B937BA37000148
:10244800BB2B0001BAAFF7D70001D890BD37BE3714
:102458000001B9510001B75D0001BA510001B85936
:10246800D8A00AD00001B9510001B75F0001BA51E4
:102478000001B85B0001BD810001D890BA33B933BF
:102488000001BB2FE1D70001BC510001D8B405D031
:102498000001BD6DBE1FD8B0BE2BBDC0B7F0BEC019
:1024A800B8F01200000E0001BF6F000EC06F000EE2
:1024B800C16F000EC26F0001BB510001BC110001C9
:1024C800BD110001BE11D8B442D0010E0001C36F86
:1024D80008D00001D890BB37BC37BD37BE370001E4
:1024E800C32B0001BEAFF5D70001D890BF37C03766
:1024F800C137C2370001BB510001B75D0001BC51B3
:102508000001B8590001BD510001B9590001BE517F
:102518000001BA59D8A012D00001BB510001B75F21
:102528000001BC510001B85B0001BD510001B95B5D
:102538000001BE510001BA5B0001BF810001D890C3
:10254800BE33BD33BC33BB330001C32FCDD7BFC0AF
:10255800B7F0C0C0B8F0C1C0B9F0C2C0BAF012003C
:10256800000E896EFD0E926E000E8A6E9368000E44
:102578008B6EFC0E946E000E8C6E9568000E8D6E40
:102588009668100EC16E060E0001C56F050E00019B
:10259800C66F010E0001C76F030E0001C86F9D0EC4
:1025A8000001C96F040E98EC0FF0A492A490F29465
:1025B800F292F090A192D08EA592A590F184F08C21
:1025C800800ED56ED768FE0ED66E82905A0E386E83
:1025D800000ECD6E000EB16EF18CF18A770EC16ED1
:1025E800C298C296C294C08AC088C096C084C0925D
:1025F800C080C09EC280A382A380F28AF288F0863F
:10260800F28EF28CCD80B180D58E000E0001BE6FA7
:10261800020EBD6FF9EC13F01200000E00019D6F61
:1026280027AE07D0266C271ED8B0272A010E000136
:102638009D6F25AE07D0246C251ED8B0252A010E23
:1026480000019D1B000E00019F6F000E9E6F26501B
:102658002710D8B421D0010E00019C6F05D0D89066
:102668002636273600019C2B27AEF9D70001D890D3
:102678009E379F372650245C27502558D8A006D06F
:102688002650245E2750255A00019E81D890273273
:10269800263200019C2FEAD700019D510001D8B4D1
:1026A80005D000019E6D9F1FD8B09F2B9EC024F0BF
:1026B8009FC025F01200000E00019C6F000E9D6F58
:1026C800000E9E6F000E9F6F2250231024102510BD
:1026D800D8B42FD0010E0001A06F07D0D8902236B1
:1026E8002336243625360001A02B25AEF7D7000166
:1026F800D8909C379D379E379F3722501E5C2350B9
:102708001F582450205825502158D8A00AD02250AC
:102718001E5E23501F5A2450205A2550215A00016A
:102728009C81D89025322432233222320001A02FF6
:10273800DED79CC01EF09DC01FF09EC020F09FC039
:1027480021F0120000EE60F03C0EEE6AE806FDE1B2
:10275800416A00EE28F0110EEE6AE806FDE1020E6D
:10276800F66E290EF76E000EF86E00EED1F010EE40
:1027780009F00900F5CFEEFFE550E150FAE10B0E44
:10278800F66E290EF76E000EF86E00EE39F010EEB8
:1027980008F00900F5CFEEFFE550E150FAE142906C
:1027A8004292000EF86E000144EF11F0C282C2B2EC
:1027B800FED7C4CF78F0810E0001782500016E6F36
:1027C80000016F6BFF0E6F236EC0B7F06FC0B8F0DB
:1027D800000E0001BA6F040EB96FF7EC11F000019A
:1027E800B7517F0F0001776F1200D1C0B7F0000119
:1027F800B86BBDC0B9F0BEC0BAF016EC14F0B7C0E3
:102808006CF0B8C06DF007D0500EE82EFED700016E
:102818006C07D8A06D0700016C5100016D11D8B488
:102828001200F2D70001B7510001B903F3CFBBF092
:10283800F4CFBCF00001B7510001BA03F350000116
:10284800BC270001B8510001B903F3500001BC27AF
:10285800BBC0B7F0BCC0B8F012001E502002F3CFC6
:1028680022F0F4CF23F01E502102F35023261F50EC
:102878002002F350232622C01EF023C01FF01200AE
:10288800010E0001B76F0F0140A709D00F0130A753
:1028980006D00F0120A703D0000E0001B76F00017A
:1028A800B75112000001B76FB7C06FFF6E50E00B51
:1028B8000001B719D8B41200F9D7010E016E60BE35
:1028C80005D00F0150BF02D0000E016E015012005A
:1028D8001EC020F01FC021F021C0D7FF20C0D6FFA6
:1028E800120074A402D0010E1200000E120074A28D
:1028F80002D0010E1200000E1200140000000000A9
:0C290800000001000000000000010500BC
:020000040020DA
:08000000FFFFFFFFFFFFFFFF00
:020000040030CA
:0E000000FF021F1EFF8285FF0FC00FE00F40A2
:00000001FF
