:040000007BEF00F0A2
:0E0008004182FACF6CF0FBCF6DF01BED0EF0D5
:100018004180D8CF0DF0E8CF0EF0E0CF0FF0FACF47
:1000280010F0FBCF11F0E9CF12F0EACF13F0E1CFD7
:1000380014F0E2CF15F0D9CF16F0DACF17F0F3CFDE
:1000480018F0F4CF19F0F6CF1AF0F7CF1BF0F8CF6D
:100058001CF0F5CF1DF0A4A0A4B201D024D01DEC53
:1000680012F00009D8B41DD0300E016E000E026ED9
:10007800C6EC09F03E04D8A409D030C094F031C0D1
:1000880095F032C096F033C097F04082060E3018D3
:10009800311032103310D8A404D034C09DF035C0CC
:1000A8009CF0A490A4921DC0F5FF1CC0F8FF1BC0D3
:1000B800F7FF1AC0F6FF19C0F4FF18C0F3FF17C006
:1000C800DAFF16C0D9FF15C0E2FF14C0E1FF13C064
:1000D800EAFF12C0E9FF11C0FBFF10C0FAFF0FC012
:1000E800E0FF0EC0E8FF0DC0D8FF4190100072EF8E
:1000F80011F00001836F000183510001D8A458D08A
:1001080000017E29D8A454D00F0101977AC07FF04E
:100118007BC080F07CC081F07DC082F0040E06D0E8
:100128000001D8908233813380337F33E82EF8D7AB
:100138007FC084F080C085F081C086F082C087F0DF
:10014800000184510001846F856B866B876B84C0C6
:1001580000FF070E00017A150001846F000E0001F0
:100168007B150001856F000E00017C150001866F6C
:10017800000E00017D150001876F84C07FF085C0E7
:1001880080F086C081F087C082F0050ED89000010B
:100198007F37803781378237E82EF8D77FC084F0E1
:1001A80080C085F081C086F082C087F084C001FFDE
:1001B80000018305D8A458D000017E29D8A454D0C2
:1001C8000F0105977AC07FF07BC080F07CC081F07A
:1001D8007DC082F0040E06D00001D89082338133AE
:1001E80080337F33E82EF8D77FC084F080C085F055
:1001F80081C086F082C087F0000184510001846FBD
:10020800856B866B876B84C004FF070E00017A1527
:100218000001846F000E00017B150001856F000E40
:1002280000017C150001866F000E00017D1500019C
:10023800876F84C07FF085C080F086C081F087C05A
:1002480082F0050ED89000017F37803781378237DA
:10025800E82EF8D77FC084F080C085F081C086F092
:1002680082C087F084C005FF020E00018319D8A45C
:1002780058D000017E29D8A454D00F0109977AC01C
:100288007FF07BC080F07CC081F07DC082F0040EDE
:1002980006D00001D8908233813380337F33E82E33
:1002A800F8D77FC084F080C085F081C086F082C016
:1002B80087F0000184510001846F856B866B876B22
:1002C80084C008FF070E00017A150001846F000E34
:1002D80000017B150001856F000E00017C150001EF
:1002E800866F000E00017D150001876F84C07FF0C6
:1002F80085C080F086C081F087C082F0050ED89056
:1003080000017F37803781378237E82EF8D77FC0E2
:1003180084F080C085F081C086F082C087F084C0F8
:1003280009FF030E00018319D8A458D000017E29C3
:10033800D8A454D00F010D977AC07FF07BC080F00D
:100348007CC081F07DC082F0040E06D00001D890F8
:100358008233813380337F33E82EF8D77FC084F02F
:1003680080C085F081C086F082C087F0000184518A
:100378000001846F856B866B876B84C00CFF070E4A
:1003880000017A150001846F000E00017B15000141
:10039800856F000E00017C150001866F000E0001BC
:1003A8007D150001876F84C07FF085C080F086C00E
:1003B80081F087C082F0050ED89000017F37803722
:1003C80081378237E82EF8D77FC084F080C085F067
:1003D80081C086F082C087F084C00DFF040E000142
:1003E8008319D8A458D000017E29D8A454D00F016D
:1003F80011977AC07FF07BC080F07CC081F07DC00F
:1004080082F0040E06D00001D89082338133803305
:100418007F33E82EF8D77FC084F080C085F081C094
:1004280086F082C087F0000184510001846F856BDB
:10043800866B876B84C010FF070E00017A150001D8
:10044800846F000E00017B150001856F000E00010E
:100458007C150001866F000E00017D150001876F75
:1004680084C07FF085C080F086C081F087C082F0AC
:10047800050ED89000017F37803781378237E82E04
:10048800F8D77FC084F080C085F081C086F082C034
:1004980087F084C011FF050E00018319D8A458D035
:1004A80000017E29D8A454D00F0115977AC07FF097
:1004B8007BC080F07CC081F07DC082F0040E06D045
:1004C8000001D8908233813380337F33E82EF8D708
:1004D8007FC084F080C085F081C086F082C087F03C
:1004E800000184510001846F856B866B876B84C023
:1004F80014FF070E00017A150001846F000E000139
:100508007B150001856F000E00017C150001866FC8
:10051800000E00017D150001876F84C07FF085C043
:1005280080F086C081F087C082F0050ED890000167
:100538007F37803781378237E82EF8D77FC084F03D
:1005480080C085F081C086F082C087F084C015FF26
:10055800000183510001D8A489D0F70E00017E194B
:10056800D8A484D00F01018700017A510001846F5B
:10057800856B866B876B84C003FF000E00017A15BC
:100588000001846FFF0E00017B150001856F000ECE
:1005980000017C150001866F000E00017D15000129
:1005A800876F84C07FF085C080F086C081F087C0E7
:1005B80082F080C07FF081C080F082C081F00001AD
:1005C800826B7FC084F080C085F081C086F082C0D5
:1005D80087F084C002FF00017CA103D00F010181D4
:1005E80002D00F01019100017CA303D00F01018308
:1005F80002D00F01019300017CA503D00F01018BEC
:1006080002D00F01019B00017CA703D00F01018DCF
:1006180002D00F01019D00017CA903D00F01018FB9
:1006280002D00F01019F7AC07FF07BC080F07CC0B0
:1006380081F07DC082F0160E06D00001D89082337A
:10064800813380337F33E82EF8D77FC084F080C0B1
:1006580085F081C086F082C087F0000184510001D6
:10066800846F856B866B876B84C000FF00018305F0
:10067800D8A489D0F70E00017E19D8A484D00F0120
:10068800058700017A510001846F856B866B876B43
:1006980084C007FF000E00017A150001846FFF0E69
:1006A80000017B150001856F000E00017C1500011B
:1006B800866F000E00017D150001876F84C07FF0F2
:1006C80085C080F086C081F087C082F080C07FF04E
:1006D80081C080F082C081F00001826B7FC084F00D
:1006E80080C085F081C086F082C087F084C006FF94
:1006F80000017CA103D00F01058102D00F010591F3
:1007080000017CA303D00F01058302D00F010593DC
:1007180000017CA503D00F01058B02D00F01059BBA
:1007280000017CA703D00F01058D02D00F01059DA4
:1007380000017CA903D00F01058F02D00F01059F8E
:100748007AC07FF07BC080F07CC081F07DC082F0F1
:10075800160E06D00001D8908233813380337F3360
:10076800E82EF8D77FC084F080C085F081C086F07D
:1007780082C087F0000184510001846F856B866B0D
:10078800876B84C004FF020E00018319D8A489D0A6
:10079800F70E00017E19D8A484D00F010987000143
:1007A8007A510001846F856B866B876B84C00BFF61
:1007B800000E00017A150001846FFF0E00017B1501
:1007C8000001856F000E00017C150001866F000E88
:1007D80000017D150001876F84C07FF085C080F01F
:1007E80086C081F087C082F080C07FF081C080F031
:1007F80082C081F00001826B7FC084F080C085F0E8
:1008080081C086F082C087F084C00AFF00017CA105
:1008180003D00F01098102D00F01099100017CA3C7
:1008280003D00F01098302D00F01099300017CA5B1
:1008380003D00F01098B02D00F01099B00017CA78F
:1008480003D00F01098D02D00F01099D00017CA979
:1008580003D00F01098F02D00F01099F7AC07FF0E2
:100868007BC080F07CC081F07DC082F0160E06D07F
:100878000001D8908233813380337F33E82EF8D754
:100888007FC084F080C085F081C086F082C087F088
:10089800000184510001846F856B866B876B84C06F
:1008A80008FF030E00018319D8A489D0F70E0001B0
:1008B8007E19D8A484D00F010D8700017A51000158
:1008C800846F856B866B876B84C00FFF000E0001F9
:1008D8007A150001846FFF0E00017B150001856FFA
:1008E800000E00017C150001866F000E00017D15C9
:1008F8000001876F84C07FF085C080F086C081F0DA
:1009080087C082F080C07FF081C080F082C081F013
:100918000001826B7FC084F080C085F081C086F0C2
:1009280082C087F084C00EFF00017CA103D00F01B4
:100938000D8102D00F010D9100017CA303D00F019E
:100948000D8302D00F010D9300017CA503D00F0188
:100958000D8B02D00F010D9B00017CA703D00F0166
:100968000D8D02D00F010D9D00017CA903D00F0150
:100978000D8F02D00F010D9F7AC07FF07BC080F0F1
:100988007CC081F07DC082F0160E06D00001D890A0
:100998008233813380337F33E82EF8D77FC084F0E9
:1009A80080C085F081C086F082C087F00001845144
:1009B8000001846F856B866B876B84C00CFF040E07
:1009C80000018319D8A489D0F70E00017E19D8A494
:1009D80084D00F01118700017A510001846F856B63
:1009E800866B876B84C013FF000E00017A15000127
:1009F800846FFF0E00017B150001856F000E00015A
:100A08007C150001866F000E00017D150001876FBF
:100A180084C07FF085C080F086C081F087C082F0F6
:100A280080C07FF081C080F082C081F00001826BBD
:100A38007FC084F080C085F081C086F082C087F0D6
:100A480084C012FF00017CA103D00F01118102D0E4
:100A58000F01119100017CA303D00F01118302D073
:100A68000F01119300017CA503D00F01118B02D057
:100A78000F01119B00017CA703D00F01118D02D03B
:100A88000F01119D00017CA903D00F01118F02D025
:100A98000F01119F7AC07FF07BC080F07CC081F08D
:100AA8007DC082F0160E06D00001D89082338133C3
:100AB80080337F33E82EF8D77FC084F080C085F07C
:100AC80081C086F082C087F0000184510001846FE4
:100AD800856B866B876B84C010FF050E0001831938
:100AE800D8A41200F70E00017E19D8A412000F0135
:100AF800158700017A510001846F856B866B876BBF
:100B080084C017FF000E00017A150001846FFF0EE4
:100B180000017B150001856F000E00017C150001A6
:100B2800866F000E00017D150001876F84C07FF07D
:100B380085C080F086C081F087C082F080C07FF0D9
:100B480081C080F082C081F00001826B7FC084F098
:100B580080C085F081C086F082C087F084C016FF0F
:100B680000017CA103D00F01158102D00F0115915E
:100B780000017CA303D00F01158302D00F01159348
:100B880000017CA503D00F01158B02D00F01159B26
:100B980000017CA703D00F01158D02D00F01159D10
:100BA80000017CA903D00F01158F02D00F01159FFA
:100BB8007AC07FF07BC080F07CC081F07DC082F07D
:100BC800160E06D00001D8908233813380337F33EC
:100BD800E82EF8D77FC084F080C085F081C086F009
:100BE80082C087F0000184510001846F856B866B99
:100BF800876B84C014FF12000F0140B73FD180C03B
:100C080045FF000181AD03D00F01458D02D00F01D2
:100C1800459D000181A779D000017A510001866FB6
:100C2800876B886B896B86C044FF000E00017A15BC
:100C38000001866FFF0E00017B150001876F000E13
:100C480000017C150001886F000E00017D15000170
:100C5800896F86C082F087C083F088C084F089C01D
:100C680085F083C082F084C083F085C084F00001E1
:100C7800856B82C086F083C087F084C088F085C009
:100C880089F086C043FF000E0F01426F0F014287B3
:100C980000017CA102D00F01428100017CA302D097
:100CA8000F01428300017CA502D00F01428B000195
:100CB8007CA702D00F01428D00017CA902D00F0150
:100CC800428F7AC082F07BC083F07CC084F07DC004
:100CD80085F0160E06D00001D8908533843383330F
:100CE8008233E82EF8D782C086F083C087F084C0AC
:100CF80088F085C089F0000186510001866F876BF6
:100D0800886B896B86C041FF59D00F0142977AC022
:100D180082F07BC083F07CC084F07DC085F0040E37
:100D280006D00001D8908533843383338233E82E8C
:100D3800F8D782C086F083C087F084C088F085C069
:100D480089F0000186510001866F876B886B896B7B
:100D580086C041FF070E00017A150001866F000E5C
:100D680000017B150001876F000E00017C15000152
:100D7800886F000E00017D150001896F86C082F022
:100D880087C083F088C084F089C085F0050ED890AC
:100D980000018237833784378537E82EF8D782C039
:100DA80086F083C087F084C088F085C089F00F0181
:100DB80042511F0B0F01426F86C042FF000181A103
:100DC80003D00F01408102D00F014091000181A39F
:100DD80003D00F01408302D00F0140937EC0D9FF9A
:100DE8007FC0DAFFDF500F01466F000120EE01F0EF
:100DF8007E51D9267F51DA22DF500F01476F00015B
:100E080020EE02F07E51D9267F51DA22DF500F0101
:100E1800486F000120EE03F07E51D9267F51DA2277
:100E2800DF500F01496F000120EE04F07E51D926F2
:100E38007F51DA22DF500F014A6F000120EE05F0E2
:100E48007E51D9267F51DA22DF500F014B6F000106
:100E580020EE06F07E51D9267F51DA22DF500F01AD
:100E68004C6F000120EE07F07E51D9267F51DA221F
:100E7800DF500F014D6F0F01408712000F0130B78F
:100E88003FD180C035FF000181AD03D00F01358D02
:100E980002D00F01359D000181A779D000017A5158
:100EA8000001866F876B886B896B86C034FF000EE4
:100EB80000017A150001866FFF0E00017B15000105
:100EC800876F000E00017C150001886F000E00017D
:100ED8007D150001896F86C082F087C083F088C0C5
:100EE80084F089C085F083C082F084C083F085C017
:100EF80084F00001856B82C086F083C087F084C0CF
:100F080088F085C089F086C033FF000E0F01326F6C
:100F18000F01328700017CA102D00F01328100014C
:100F28007CA302D00F01328300017CA502D00F01FF
:100F3800328B00017CA702D00F01328D00017CA901
:100F480002D00F01328F7AC082F07BC083F07CC060
:100F580084F07DC085F0160E06D00001D890853348
:100F6800843383338233E82EF8D782C086F083C077
:100F780087F084C088F085C089F00001865100019F
:100F8800866F876B886B896B86C031FF59D00F01DC
:100F980032977AC082F07BC083F07CC084F07DC039
:100FA80085F0040E06D00001D8908533843383334E
:100FB8008233E82EF8D782C086F083C087F084C0D9
:100FC80088F085C089F0000186510001866F876B23
:100FD800886B896B86C031FF070E00017A15000106
:100FE800866F000E00017B150001876F000E00015F
:100FF8007C150001886F000E00017D150001896FC6
:1010080086C082F087C083F088C084F089C085F0EC
:10101800050ED89000018237833784378537E82E4C
:10102800F8D782C086F083C087F084C088F085C076
:1010380089F00F0132511F0B0F01326F86C032FF4A
:10104800000181A103D00F01308102D00F0130913E
:10105800000181A303D00F01308302D00F01309328
:101068007EC0D9FF7FC0DAFFDF500F01366F000165
:1010780020EE01F07E51D9267F51DA22DF500F0190
:10108800376F000120EE02F07E51D9267F51DA2217
:10109800DF500F01386F000120EE03F07E51D92692
:1010A8007F51DA22DF500F01396F000120EE04F082
:1010B8007E51D9267F51DA22DF500F013A6F0001A5
:1010C80020EE05F07E51D9267F51DA22DF500F013C
:1010D8003B6F000120EE06F07E51D9267F51DA22BF
:1010E800DF500F013C6F000120EE07F07E51D9263A
:1010F8007F51DA22DF500F013D6F0F013087120058
:101108000F0120B7120080C025FF000181AD03D078
:101118000F01258D02D00F01259D000181A779D0EF
:1011280000017A510001866F876B886B896B86C0D6
:1011380024FF000E00017A150001866FFF0E0001E2
:101148007B150001876F000E00017C150001886F78
:10115800000E00017D150001896F86C082F087C0EE
:1011680083F088C084F089C085F083C082F084C091
:1011780083F085C084F00001856B82C086F083C04F
:1011880087F084C088F085C089F086C023FF000EF0
:101198000F01226F0F01228700017CA102D00F01ED
:1011A800228100017CA302D00F01228300017CA5CB
:1011B80002D00F01228B00017CA702D00F01228DE3
:1011C80000017CA902D00F01228F7AC082F07BC077
:1011D80083F07CC084F07DC085F0160E06D0000137
:1011E800D8908533843383338233E82EF8D782C08E
:1011F80086F083C087F084C088F085C089F000013C
:1012080086510001866F876B886B896B86C021FFCA
:1012180059D00F0122977AC082F07BC083F07CC03E
:1012280084F07DC085F0040E06D00001D890853387
:10123800843383338233E82EF8D782C086F083C0A4
:1012480087F084C088F085C089F0000186510001CC
:10125800866F876B886B896B86C021FF070E00013C
:101268007A150001866F000E00017B150001876F5B
:10127800000E00017C150001886F000E00017D152D
:101288000001896F86C082F087C083F088C084F02F
:1012980089C085F0050ED8900001823783378437DE
:1012A8008537E82EF8D782C086F083C087F084C0DF
:1012B80088F085C089F00F0122511F0B0F01226FA2
:1012C80086C022FF000181A103D00F01208102D036
:1012D8000F012091000181A303D00F01208302D0C8
:1012E8000F0120937EC0D9FF7FC0DAFFDF500F01C6
:1012F800266F000120EE01F07E51D9267F51DA22B7
:10130800DF500F01276F000120EE02F07E51D92631
:101318007F51DA22DF500F01286F000120EE03F021
:101328007E51D9267F51DA22DF500F01296F000143
:1013380020EE04F07E51D9267F51DA22DF500F01CA
:101348002A6F000120EE05F07E51D9267F51DA225E
:10135800DF500F012B6F000120EE06F07E51D926D9
:101368007F51DA22DF500F012C6F000120EE07F0C9
:101378007E51D9267F51DA22DF500F012D6F0F01E0
:1013880020871200000E0B6E74BE0B8074BC0B829B
:101398000F0150AF43D101C0D9FF02C0DAFFDE6AA6
:1013A800DE6ADE6ADD6A20EE04F00150D9260250BA
:1013B800DA2256CFDFFF20EE05F00150D926025081
:1013C800DA2257CFDFFF20EE06F00150D92602506F
:1013D800DA2258CFDFFF20EE07F00150D92602505D
:1013E800DA2259CFDFFF20EE08F00150D92602504B
:1013F800DA225ACFDFFF20EE09F00150D926025039
:10140800DA225BCFDFFF20EE0AF00150D926025026
:10141800DA225CCFDFFF20EE0BF00150D926025014
:10142800DA225DCFDFFF20EE0EF00150D926025000
:10143800DA220F0155AD02D0010E01D0000EDF6E89
:1014480020EE0DF00150D9260250DA220F01555135
:101458000F0BDF6E20EE0CF00150D9260250DA2275
:101468000F0152A702D0010E01D0000EDF6E0F014E
:1014780052B744D051CF03F0046A056A066A030ED6
:10148800D8900336043605360636E82EF9D701C05B
:10149800D9FF02C0DAFF03C0DEFF04C0DEFF05C0CB
:1014A800DEFF06C0DEFF0F015239E842070B070BCB
:1014B8000C6E01C0D9FF02C0DAFFDECF03F0DECF29
:1014C80004F0DECF05F0DECF06F00C500324076EE3
:1014D800000E0420086E000E0520096E000E06207E
:1014E8000A6E01C0D9FF02C0DAFF07C0DEFF08C0DC
:1014F800DEFF09C0DEFF0AC0DEFF8DD054CF03F047
:10150800046A056A066A01C0D9FF02C0DAFF03C08F
:10151800DEFF04C0DEFF05C0DEFF06C0DEFF53CFDE
:1015280003F0046A056A066A05C006F004C005F0FF
:1015380003C004F0036A01C0D9FF02C0DAFF0350F8
:10154800DE260450DE220550DE220650DE220F0180
:1015580052A10CD001C0D9FF02C0DAFF000EDE1282
:10156800000EDE12010EDE12000EDE120F0152A373
:101578000CD001C0D9FF02C0DAFF000EDE12000E47
:10158800DE12020EDE12000EDE120F0152AB0CD07C
:1015980001C0D9FF02C0DAFF000EDE12000EDE1213
:1015A800040EDE12000EDE120F0152AD0CD001C087
:1015B800D9FF02C0DAFF000EDE12000EDE12080E9E
:1015C800DE12000EDE120F0152AF0CD001C0D9FF9F
:1015D80002C0DAFF000EDE12000EDE12100EDE125E
:1015E800000EDE1251CF03F0046A056A066A150E72
:1015F800D8900336043605360636E82EF9D701C0EA
:10160800D9FF02C0DAFF0350DE120450DE12055083
:10161800DE120650DE120F01509F120060AE12005B
:1016280001C0D9FF02C0DAFFDE6ADE6ADE6ADD6A5F
:1016380020EE04F00150D9260250DA2266CFDFFFEF
:1016480020EE05F00150D9260250DA2267CFDFFFDD
:1016580020EE06F00150D9260250DA2268CFDFFFCB
:1016680020EE07F00150D9260250DA2269CFDFFFB9
:1016780020EE08F00150D9260250DA226ACFDFFFA7
:1016880020EE09F00150D9260250DA226BCFDFFF95
:1016980020EE0AF00150D9260250DA226CCFDFFF83
:1016A80020EE0BF00150D9260250DA226DCFDFFF71
:1016B80020EE0EF00150D9260250DA2265AC02D095
:1016C800010E01D0000EDF6E20EE0DF00150D9267C
:1016D8000250DA2265500F0BDF6E20EE0CF001503D
:1016E800D9260250DA2262A602D0010E01D0000EDD
:1016F800DF6E62B643D061CF03F0046A056A066AFA
:10170800030ED8900336043605360636E82EF9D788
:1017180001C0D9FF02C0DAFF03C0DEFF04C0DEFF4C
:1017280005C0DEFF06C0DEFF6238E842070B070B84
:101738000C6E01C0D9FF02C0DAFFDECF03F0DECFA6
:1017480004F0DECF05F0DECF06F00C500324076E60
:10175800000E0420086E000E0520096E000E0620FB
:101768000A6E01C0D9FF02C0DAFF07C0DEFF08C059
:10177800DEFF09C0DEFF0AC0DEFF88D064CF03F0B9
:10178800046A056A066A01C0D9FF02C0DAFF03C00D
:10179800DEFF04C0DEFF05C0DEFF06C0DEFF63CF4C
:1017A80003F0046A056A066A05C006F004C005F07D
:1017B80003C004F0036A01C0D9FF02C0DAFF035076
:1017C800DE260450DE220550DE220650DE2262A00C
:1017D8000CD001C0D9FF02C0DAFF000EDE12000EE5
:1017E800DE12010EDE12000EDE1262A20CD001C063
:1017F800D9FF02C0DAFF000EDE12000EDE12020E62
:10180800DE12000EDE1262AA0CD001C0D9FF02C09F
:10181800DAFF000EDE12000EDE12040EDE12000EDB
:10182800DE1262AC0CD001C0D9FF02C0DAFF000E94
:10183800DE12000EDE12080EDE12000EDE1262AE9E
:101848000CD001C0D9FF02C0DAFF000EDE12000E74
:10185800DE12100EDE12000EDE1261CF03F0046AF3
:10186800056A066A150ED89003360436053606361C
:10187800E82EF9D701C0D9FF02C0DAFF0350DE1203
:101888000450DE120550DE120650DE12609E120071
:101898000001836F00018305D8A456D000017E297A
:1018A800D8A452D07AC07FF07BC080F07CC081F091
:1018B8007DC082F0040E06D00001D89082338133B7
:1018C80080337F33E82EF8D77FC084F080C085F05E
:1018D80081C086F082C087F0000184510001846FC6
:1018E800856B866B876B84C018FF070E00017A151D
:1018F8000001846F000E00017B150001856F000E4A
:1019080000017C150001866F000E00017D150001A5
:10191800876F84C07FF085C080F086C081F087C063
:1019280082F0050ED89000017F37803781378237E3
:10193800E82EF8D77FC084F080C085F081C086F09B
:1019480082C087F084C019FF020E00018319D8A451
:1019580056D000017E29D8A452D07AC07FF07BC02F
:1019680080F07CC081F07DC082F0040E06D00001BA
:10197800D8908233813380337F33E82EF8D77FC005
:1019880084F080C085F081C086F082C087F00001B5
:1019980084510001846F856B866B876B84C01CFF44
:1019A800070E00017A150001846F000E00017B15F7
:1019B8000001856F000E00017C150001866F000E86
:1019C80000017D150001876F84C07FF085C080F01D
:1019D80086C081F087C082F0050ED89000017F375D
:1019E800803781378237E82EF8D77FC084F080C0EF
:1019F80085F081C086F082C087F084C01DFF000199
:101A08008305D8A487D0F70E00017E19D8A482D008
:101A180000017A510001846F856B866B876B84C0E7
:101A28001BFF000E00017A150001846FFF0E0001F4
:101A38007B150001856F000E00017C150001866F83
:101A4800000E00017D150001876F84C07FF085C0FE
:101A580080F086C081F087C082F080C07FF081C0AE
:101A680080F082C081F00001826B7FC084F080C06A
:101A780085F081C086F082C087F084C01AFF00011B
:101A88007CA103D00F01198102D00F011991000127
:101A98007CA303D00F01198302D00F011993000111
:101AA8007CA503D00F01198B02D00F01199B0001EF
:101AB8007CA703D00F01198D02D00F01199D0001D9
:101AC8007CA903D00F01198F02D00F01199F7AC08A
:101AD8007FF07BC080F07CC081F07DC082F0160E64
:101AE80006D00001D8908233813380337F33E82ECB
:101AF800F8D77FC084F080C085F081C086F082C0AE
:101B080087F0000184510001846F856B866B876BB9
:101B180084C018FF020E00018319D8A41200F70E22
:101B280000017E19D8A4120000017A510001846FC7
:101B3800856B866B876B84C01FFF000E00017A15CA
:101B48000001846FFF0E00017B150001856F000EF8
:101B580000017C150001866F000E00017D15000153
:101B6800876F84C07FF085C080F086C081F087C011
:101B780082F080C07FF081C080F082C081F00001D7
:101B8800826B7FC084F080C085F081C086F082C0FF
:101B980087F084C01EFF00017CA103D00F011D81C6
:101BA80002D00F011D9100017CA303D00F011D83FA
:101BB80002D00F011D9300017CA503D00F011D8BDE
:101BC80002D00F011D9B00017CA703D00F011D8DC2
:101BD80002D00F011D9D00017CA903D00F011D8FAC
:101BE80002D00F011D9F7AC07FF07BC080F07CC0BF
:101BF80081F07DC082F0160E06D00001D8908233A5
:101C0800813380337F33E82EF8D77FC084F080C0DB
:101C180085F081C086F082C087F000018451000100
:101C2800846F856B866B876B84C01CFF120006006F
:101C3800E9CF6EF0EACF6FF0E1CF70F0E2CF71F04C
:101C4800D9CF72F0DACF73F0F3CF74F0F4CF75F028
:101C5800F6CF76F0F7CF77F0F8CF78F0F5CF79F0C8
:101C6800F2A4ADD082A002D0010E01D0000EFF0A6E
:101C78000001646F825000016419FE0B6419826EC2
:101C8800D59E82A094D0400E0001646F060E00011C
:101C9800656F3FC01EF01F6A050E216E780E206E1C
:101CA800EDEC11F01EC024F01FC025F0000E276EC9
:101CB800B40E266EF3EC10F0D890243625360001C9
:101CC8006451242600016551252224C02CF025C02A
:101CD8002DF0000E2DBEFF0E2E6E2F6E2CC064F060
:101CE8002DC065F02EC066F02FC067F00001641F9C
:101CF800651F661F671F642B000E65236623672315
:101D0800400E000164250001686F9C0E00016521EA
:101D18000001696F000E0001662100016A6F000E64
:101D28000001672100016B6F0001681F691F6A1FAE
:101D38006B1F682B000E69236A236B23000E0001BA
:101D48006825286E000E00016921296E010E000128
:101D58006A212A6E000E00016B212B6E2CC064F0E4
:101D68002DC065F02EC066F02FC067F00001641F1B
:101D7800651F661F671F642B000E65236623672394
:101D8800000E000164252C6E000E000165212D6EE9
:101D9800010E000166212E6E000E000167212F6ED4
:101DA8002CC01EF02DC01FF028EC12F006D028C061
:101DB8001EF029C01FF028EC12F0D58EF29479C0DD
:101DC800F5FF78C0F8FF77C0F7FF76C0F6FF75C05B
:101DD800F4FF74C0F3FF73C0DAFF72C0D9FF71C09B
:101DE800E2FF70C0E1FF6FC0EAFF6EC0E9FF6DC09F
:101DF800FBFF6CC0FAFF419211000001916F800E49
:101E080012EC12F0000E706E000E716E000E726E03
:101E180000018A41E842C00B00018A6F00018A5123
:101E2800701200018B517012000191517112000162
:101E38008839E842F80B0001886F00018851711257
:101E480000018CA5718C00018CB1718E0001895143
:101E5800721200018CB3728C00018C51600B606EA1
:101E680000018C51100BFF0AD8B4608460CF50FF7A
:101E7800000E00017A6F000E7B6F000E7C6F000E63
:101E88007D6FF70E00017E6F010E4CEC0CF0000E1A
:101E980000017A6F000E7B6F000E7C6F000E7D6F65
:101EA800F70E00017E6F020E4CEC0CF00FD0F70E0F
:101EB8000001926F07D0000192690001936928D050
:101EC80000019269F70E0001936F22D09F0E000166
:101ED8008D6FFF0E00018E6F00018C51600B0001A9
:101EE8008F6F906B00018D5100018F1300018E518F
:101EF8000001901300019051000AD8A4E1D7000115
:101F08008F51BF0AD8B4D7D7600AD8B4D0D7D8D79A
:101F1800000E00017A6F000E7B6F000E7C6F000EC2
:101F28007D6F92C07EF0000E7DEC00F0000E000187
:101F38007A6F000E7B6F000E7C6F000E7D6F92C073
:101F48007EF0010E7DEC00F0000E00017A6F000EAD
:101F58007B6F000E7C6F000E7D6F93C07EF0020ECB
:101F68007DEC00F0000E00017A6F000E7B6F000E12
:101F78007C6F000E7D6F93C07EF0030E7DEC00F049
:101F8800000E00017A6F000E7B6F000E7C6F000E52
:101F98007D6F93C07EF0040E7DEC00F0000E000112
:101FA8007A6F000E7B6F000E7C6F000E7D6F93C002
:101FB8007EF0050E7DEC00F0000E12EC12F012001F
:101FC800000E00017F6F00017DAF08D000017C6D1D
:101FD8007D1FD8B07D2B010E00017F6F00017BAF04
:101FE80008D000017A6D7B1FD8B07B2B010E000151
:101FF8007F1B000E0001816F000E806F00017C5175
:1020080000017D11D8B42CD0010E00017E6F06D0DE
:102018000001D8907C377D3700017E2B00017DAF11
:10202800F7D70001D8908037813700017C51000133
:102038007A5D00017D5100017B59D8A00AD00001CA
:102048007C5100017A5F00017D5100017B5B00013A
:1020580080810001D8907D337C3300017E2FE1D749
:1020680000017F510001D8B405D00001806D811FA7
:10207800D8B0812B80C07AF081C07BF01200A0EC30
:1020880010F096EC11F031EC12F0E806D8B405D057
:1020980037EC12F0E806D8A402D0818001D08190F4
:1020A80040A240B001D002D041EC11F000019C5197
:1020B800D8A41ED000019D51D8A403D0000E000161
:1020C8009E6F00019D05D8A403D0960E00019E6F57
:1020D8000A0E00019D19D8A403D0C80E00019E6FF6
:1020E8000B0E00019D19D8A405D000019E6902D0ED
:1020F8009DC09EF09EC07AF000017B6B000E00012F
:102108007D6F110E7C6FE4EC0FF000017A51000135
:102118009F250001A16F0001A151B40DF3CF7AF002
:10212800F4CF7BF0000E00017D6F7C69E4EC0FF0CA
:1021380000017A513F6EA5D7000E896E9268000E95
:102148008A6EFE0E936E000E8B6EFE0E946E000E5F
:102158008C6E9568000E8D6E9668100EC16E060E18
:102168000001886F050E0001896F010E00018A6F5A
:10217800030E00018B6F9D0E00018C6F040E01ECA5
:102188000FF0A492A490F294A192D08EA592A5905B
:10219800F184800ED56ED768FE0ED66E82905A0EE8
:1021A8003F6EF18C770EC16EC298C296C294C08AF7
:1021B800C088C096C084C092C080C09EC280A382DE
:1021C800A380F28AF28EF28C010EB16ED58E000ECB
:1021D8000001816F020E806FB5EC11F01200000E45
:1021E8000001616F27AE07D0266C271ED8B0272ABA
:1021F800010E0001616F25AE07D0246C251ED8B0F2
:10220800252A010E0001611B000E0001636F000EFC
:10221800626F26502710D8B421D0010E0001606FDC
:1022280005D0D890263627360001602B27AEF9D77F
:102238000001D890623763372650245C2750255810
:10224800D8A006D02650245E2750255A0001628166
:10225800D890273226320001602FEAD70001615159
:102268000001D8B405D00001626D631FD8B0632B9C
:1022780062C024F063C025F0120000EC12F00009DF
:10228800D8B429D0040E0001941900019511000159
:10229800961100019711D8A41FD094C07AF095C068
:1022A8007BF096C07CF097C07DF0A30E00017E6F96
:1022B800000E00017F6F080E0001806FBC0E000148
:1022C800816F00EC06F00F0140BD05D00F0130BD55
:1022D80002D0409001D040804092120000EE94F06D
:1022E8000E0EEE6AE806FDE1406A00EE28F0180ED0
:1022F800EE6AE806FDE17A0EF66E240EF76E000E21
:10230800F86E00EEA2F010EE09F00900F5CFEEFF2E
:10231800E550E150FAE141904192000EF86E00015B
:1023280043EF10F0C282C2B2FED7C4CFA0F0810E34
:102338000001A02500019A6F00019B6BFF0E9B23F3
:102348009AC07AF09BC07BF0000E00017D6F040EEE
:102358007C6FE4EC0FF000017A517F0F00019F6F52
:102368001200A2C07AF000017B6B80C07CF081C0B3
:102378007DF0D2EC11F07AC098F07BC099F007D0CC
:10238800500EE82EFED700019807D8A09907000143
:10239800985100019911D8B41200F2D700017A516E
:1023A80000017C03F3CF7EF0F4CF7FF000017A5177
:1023B80000017D03F35000017F2700017B510001DC
:1023C8007C03F35000017F277EC07AF07FC07BF04A
:1023D80012001E502002F3CF22F0F4CF23F01E503B
:1023E8002102F35023261F502002F350232622C037
:1023F8001EF023C01FF01200010E00017A6F0F01BA
:1024080040A709D00F0130A706D00F0120A703D09D
:10241800000E00017A6F00017A51120000017A6FF4
:102428007AC06FFF6E50E00B00017A19D8B4120021
:10243800F9D7010E016E60BE05D00F0150BF02D062
:10244800000E016E015012001EC020F01FC021F0C6
:1024580021C0D7FF20C0D6FF120074A402D0010EFD
:102468001200000E120074A202D0010E1200000E1B
:0C247800120014AAAAAAAAAAAAAAAA00E2
:020000040020DA
:08000000FFFFFFFFFFFFFFFF00
:020000040030CA
:0E000000FF021F1EFF8285FF0FC00FE00F40A2
:00000001FF
