:0400000080EF00F09D
:0E0008003E82FACFA4F0FBCFA5F020ED0EF063
:100018003E80D8CF0DF0E8CF0EF0E0CF0FF0FACF4A
:1000280010F0FBCF11F0E9CF12F0EACF13F0E1CFD7
:1000380014F0E2CF15F0D9CF16F0DACF17F0F3CFDE
:1000480018F0F4CF19F0F6CF1AF0F7CF1BF0F8CF6D
:100058001CF0F5CF1DF0A4A0A4B201D029D01DEC4E
:1000680014F00009D8B422D07C0E016E000E026E86
:10007800CBEC09F000018A05D8A409D07CC068F04F
:100088007DC069F07EC06AF07FC06BF03D88060EC7
:1000980000017C1900017D1100017E1100017F1112
:1000A800D8A404D080C075F081C074F0A490A49244
:1000B8001DC0F5FF1CC0F8FF1BC0F7FF1AC0F6FFF4
:1000C80019C0F4FF18C0F3FF17C0DAFF16C0D9FF34
:1000D80015C0E2FF14C0E1FF13C0EAFF12C0E9FF38
:1000E80011C0FBFF10C0FAFF0FC0E0FF0EC0E8FF11
:1000F8000DC0D8FF3E90100072EF13F00001BB6FE7
:100108000001BB510001D8A458D00001B629D8A4D9
:1001180054D00F010197B2C0B7F0B3C0B8F0B4C063
:10012800B9F0B5C0BAF0040E06D00001D890BA33C1
:10013800B933B833B733E82EF8D7B7C0BCF0B8C076
:10014800BDF0B9C0BEF0BAC0BFF00001BC5100019B
:10015800BC6FBD6BBE6BBF6BBCC000FF070E000160
:10016800B2150001BC6F000E0001B3150001BD6F90
:10017800000E0001B4150001BE6F000E0001B51598
:100188000001BF6FBCC0B7F0BDC0B8F0BEC0B9F0C9
:10019800BFC0BAF0050ED8900001B737B837B937E5
:1001A800BA37E82EF8D7B7C0BCF0B8C0BDF0B9C0B0
:1001B800BEF0BAC0BFF0BCC001FF0001BB05D8A4A7
:1001C80058D00001B629D8A454D00F010597B2C061
:1001D800B7F0B3C0B8F0B4C0B9F0B5C0BAF0040E07
:1001E80006D00001D890BA33B933B833B733E82E04
:1001F800F8D7B7C0BCF0B8C0BDF0B9C0BEF0BAC03F
:10020800BFF00001BC510001BC6FBD6BBE6BBF6B82
:10021800BCC004FF070E0001B2150001BC6F000E40
:100228000001B3150001BD6F000E0001B4150001F7
:10023800BE6F000E0001B5150001BF6FBCC0B7F05E
:10024800BDC0B8F0BEC0B9F0BFC0BAF0050ED890B6
:100258000001B737B837B937BA37E82EF8D7B7C07B
:10026800BCF0B8C0BDF0B9C0BEF0BAC0BFF0BCC0E9
:1002780005FF020E0001BB19D8A458D00001B62909
:10028800D8A454D00F010997B2C0B7F0B3C0B8F0E2
:10029800B4C0B9F0B5C0BAF0040E06D00001D890C9
:1002A800BA33B933B833B733E82EF8D7B7C0BCF090
:1002B800B8C0BDF0B9C0BEF0BAC0BFF00001BC51B3
:1002C8000001BC6FBD6BBE6BBF6BBCC008FF070EE7
:1002D8000001B2150001BC6F000E0001B31500014A
:1002E800BD6F000E0001B4150001BE6F000E0001C5
:1002F800B5150001BF6FBCC0B7F0BDC0B8F0BEC037
:10030800B9F0BFC0BAF0050ED8900001B737B837BA
:10031800B937BA37E82EF8D7B7C0BCF0B8C0BDF0C7
:10032800B9C0BEF0BAC0BFF0BCC009FF030E0001DF
:10033800BB19D8A458D00001B629D8A454D00F01AD
:100348000D97B2C0B7F0B3C0B8F0B4C0B9F0B5C03B
:10035800BAF0040E06D00001D890BA33B933B833D6
:10036800B733E82EF8D7B7C0BCF0B8C0BDF0B9C0F5
:10037800BEF0BAC0BFF00001BC510001BC6FBD6B3C
:10038800BE6BBF6BBCC00CFF070E0001B2150001AD
:10039800BC6F000E0001B3150001BD6F000E000117
:1003A800B4150001BE6F000E0001B5150001BF6F46
:1003B800BCC0B7F0BDC0B8F0BEC0B9F0BFC0BAF09D
:1003C800050ED8900001B737B837B937BA37E82ED5
:1003D800F8D7B7C0BCF0B8C0BDF0B9C0BEF0BAC05D
:1003E800BFF0BCC00DFF040E0001BB19D8A458D043
:1003F8000001B629D8A454D00F011197B2C0B7F0A4
:10040800B3C0B8F0B4C0B9F0B5C0BAF0040E06D0A5
:100418000001D890BA33B933B833B733E82EF8D7D8
:10042800B7C0BCF0B8C0BDF0B9C0BEF0BAC0BFF02C
:100438000001BC510001BC6FBD6BBE6BBF6BBCC083
:1004480010FF070E0001B2150001BC6F000E00017D
:10045800B3150001BD6F000E0001B4150001BE6F99
:10046800000E0001B5150001BF6FBCC0B7F0BDC0DC
:10047800B8F0BEC0B9F0BFC0BAF0050ED890000100
:10048800B737B837B937BA37E82EF8D7B7C0BCF09E
:10049800B8C0BDF0B9C0BEF0BAC0BFF0BCC011FF53
:1004A800050E0001BB19D8A458D00001B629D8A45C
:1004B80054D00F011597B2C0B7F0B3C0B8F0B4C0AC
:1004C800B9F0B5C0BAF0040E06D00001D890BA331E
:1004D800B933B833B733E82EF8D7B7C0BCF0B8C0D3
:1004E800BDF0B9C0BEF0BAC0BFF00001BC510001F8
:1004F800BC6FBD6BBE6BBF6BBCC014FF070E0001A9
:10050800B2150001BC6F000E0001B3150001BD6FEC
:10051800000E0001B4150001BE6F000E0001B515F4
:100528000001BF6FBCC0B7F0BDC0B8F0BEC0B9F025
:10053800BFC0BAF0050ED8900001B737B837B93741
:10054800BA37E82EF8D7B7C0BCF0B8C0BDF0B9C00C
:10055800BEF0BAC0BFF0BCC015FF0001BB5100011E
:10056800D8A489D0F70E0001B619D8A484D00F01F9
:1005780001870001B2510001BC6FBD6BBE6BBF6B40
:10058800BCC003FF000E0001B2150001BC6FFF0ED6
:100598000001B3150001BD6F000E0001B415000184
:1005A800BE6F000E0001B5150001BF6FBCC0B7F0EB
:1005B800BDC0B8F0BEC0B9F0BFC0BAF0B8C0B7F09F
:1005C800B9C0B8F0BAC0B9F00001BA6BB7C0BCF096
:1005D800B8C0BDF0B9C0BEF0BAC0BFF0BCC002FF21
:1005E8000001B4A103D00F01018102D00F010191D4
:1005F8000001B4A303D00F01018302D00F010193BE
:100608000001B4A503D00F01018B02D00F01019B9B
:100618000001B4A703D00F01018D02D00F01019D85
:100628000001B4A903D00F01018F02D00F01019F6F
:10063800B2C0B7F0B3C0B8F0B4C0B9F0B5C0BAF042
:10064800160E06D00001D890BA33B933B833B73391
:10065800E82EF8D7B7C0BCF0B8C0BDF0B9C0BEF03E
:10066800BAC0BFF00001BC510001BC6FBD6BBE6BCE
:10067800BF6BBCC000FF0001BB05D8A489D0F70E32
:100688000001B619D8A484D00F0105870001B25122
:100698000001BC6FBD6BBE6BBF6BBCC007FF000E1B
:1006A8000001B2150001BC6FFF0E0001B315000177
:1006B800BD6F000E0001B4150001BE6F000E0001F1
:1006C800B5150001BF6FBCC0B7F0BDC0B8F0BEC063
:1006D800B9F0BFC0BAF0B8C0B7F0B9C0B8F0BAC086
:1006E800B9F00001BA6BB7C0BCF0B8C0BDF0B9C072
:1006F800BEF0BAC0BFF0BCC006FF0001B4A103D071
:100708000F01058102D00F0105910001B4A303D0A8
:100718000F01058302D00F0105930001B4A503D092
:100728000F01058B02D00F01059B0001B4A703D070
:100738000F01058D02D00F01059D0001B4A903D05A
:100748000F01058F02D00F01059FB2C0B7F0B3C0EB
:10075800B8F0B4C0B9F0B5C0BAF0160E06D00001B2
:10076800D890BA33B933B833B733E82EF8D7B7C00F
:10077800BCF0B8C0BDF0B9C0BEF0BAC0BFF000014F
:10078800BC510001BC6FBD6BBE6BBF6BBCC004FF2E
:10079800020E0001BB19D8A489D0F70E0001B619C2
:1007A800D8A484D00F0109870001B2510001BC6FA1
:1007B800BD6BBE6BBF6BBCC00BFF000E0001B2155A
:1007C8000001BC6FFF0E0001B3150001BD6F000EE4
:1007D8000001B4150001BE6F000E0001B51500013F
:1007E800BF6FBCC0B7F0BDC0B8F0BEC0B9F0BFC0E5
:1007F800BAF0B8C0B7F0B9C0B8F0BAC0B9F00001E3
:10080800BA6BB7C0BCF0B8C0BDF0B9C0BEF0BAC0D2
:10081800BFF0BCC00AFF0001B4A103D00F010981D9
:1008280002D00F0109910001B4A303D00F0109837D
:1008380002D00F0109930001B4A503D00F01098B61
:1008480002D00F01099B0001B4A703D00F01098D45
:1008580002D00F01099D0001B4A903D00F01098F2F
:1008680002D00F01099FB2C0B7F0B3C0B8F0B4C04E
:10087800B9F0B5C0BAF0160E06D00001D890BA3358
:10088800B933B833B733E82EF8D7B7C0BCF0B8C01F
:10089800BDF0B9C0BEF0BAC0BFF00001BC51000144
:1008A800BC6FBD6BBE6BBF6BBCC008FF030E000105
:1008B800BB19D8A489D0F70E0001B619D8A484D0E2
:1008C8000F010D870001B2510001BC6FBD6BBE6BFB
:1008D800BF6BBCC00FFF000E0001B2150001BC6F5A
:1008E800FF0E0001B3150001BD6F000E0001B41525
:1008F8000001BE6F000E0001B5150001BF6FBCC03E
:10090800B7F0BDC0B8F0BEC0B9F0BFC0BAF0B8C04B
:10091800B7F0B9C0B8F0BAC0B9F00001BA6BB7C047
:10092800BCF0B8C0BDF0B9C0BEF0BAC0BFF0BCC022
:100938000EFF0001B4A103D00F010D8102D00F01F9
:100948000D910001B4A303D00F010D8302D00F0154
:100958000D930001B4A503D00F010D8B02D00F0138
:100968000D9B0001B4A703D00F010D8D02D00F011C
:100978000D9D0001B4A903D00F010D8F02D00F0106
:100988000D9FB2C0B7F0B3C0B8F0B4C0B9F0B5C0ED
:10099800BAF0160E06D00001D890BA33B933B8337E
:1009A800B733E82EF8D7B7C0BCF0B8C0BDF0B9C0AF
:1009B800BEF0BAC0BFF00001BC510001BC6FBD6BF6
:1009C800BE6BBF6BBCC00CFF040E0001BB19D8A4E2
:1009D80089D0F70E0001B619D8A484D00F01118769
:1009E8000001B2510001BC6FBD6BBE6BBF6BBCC0D8
:1009F80013FF000E0001B2150001BC6FFF0E0001CD
:100A0800B3150001BD6F000E0001B4150001BE6FE3
:100A1800000E0001B5150001BF6FBCC0B7F0BDC026
:100A2800B8F0BEC0B9F0BFC0BAF0B8C0B7F0B9C02E
:100A3800B8F0BAC0B9F00001BA6BB7C0BCF0B8C022
:100A4800BDF0B9C0BEF0BAC0BFF0BCC012FF000113
:100A5800B4A103D00F01118102D00F01119100013F
:100A6800B4A303D00F01118302D00F011193000129
:100A7800B4A503D00F01118B02D00F01119B000107
:100A8800B4A703D00F01118D02D00F01119D0001F1
:100A9800B4A903D00F01118F02D00F01119FB2C06A
:100AA800B7F0B3C0B8F0B4C0B9F0B5C0BAF0160E1C
:100AB80006D00001D890BA33B933B833B733E82E2B
:100AC800F8D7B7C0BCF0B8C0BDF0B9C0BEF0BAC066
:100AD800BFF00001BC510001BC6FBD6BBE6BBF6BAA
:100AE800BCC010FF050E0001BB19D8A41200F70EF8
:100AF8000001B619D8A412000F0115870001B251E0
:100B08000001BC6FBD6BBE6BBF6BBCC017FF000E96
:100B18000001B2150001BC6FFF0E0001B315000102
:100B2800BD6F000E0001B4150001BE6F000E00017C
:100B3800B5150001BF6FBCC0B7F0BDC0B8F0BEC0EE
:100B4800B9F0BFC0BAF0B8C0B7F0B9C0B8F0BAC011
:100B5800B9F00001BA6BB7C0BCF0B8C0BDF0B9C0FD
:100B6800BEF0BAC0BFF0BCC016FF0001B4A103D0EC
:100B78000F01158102D00F0115910001B4A303D014
:100B88000F01158302D00F0115930001B4A503D0FE
:100B98000F01158B02D00F01159B0001B4A703D0DC
:100BA8000F01158D02D00F01159D0001B4A903D0C6
:100BB8000F01158F02D00F01159FB2C0B7F0B3C057
:100BC800B8F0B4C0B9F0B5C0BAF0160E06D000013E
:100BD800D890BA33B933B833B733E82EF8D7B7C09B
:100BE800BCF0B8C0BDF0B9C0BEF0BAC0BFF00001DB
:100BF800BC510001BC6FBD6BBE6BBF6BBCC014FFAA
:100C080012000F0140B73FD1B8C045FF0001B9AD90
:100C180003D00F01458D02D00F01459D0001B9A7F2
:100C280079D00001B2510001BE6FBF6BC06BC16BC0
:100C3800BEC044FF000E0001B2150001BE6FFF0EDA
:100C48000001B3150001BF6F000E0001B4150001CB
:100C5800C06F000E0001B5150001C16FBEC0BAF02B
:100C6800BFC0BBF0C0C0BCF0C1C0BDF0BBC0BAF0D3
:100C7800BCC0BBF0BDC0BCF00001BD6BBAC0BEF0CB
:100C8800BBC0BFF0BCC0C0F0BDC0C1F0BEC043FF18
:100C9800000E0F01426F0F0142870001B4A102D07C
:100CA8000F0142810001B4A302D00F014283000169
:100CB800B4A502D00F01428B0001B4A702D00F01E6
:100CC800428D0001B4A902D00F01428FB2C0BAF020
:100CD800B3C0BBF0B4C0BCF0B5C0BDF0160E06D0B2
:100CE8000001D890BD33BC33BB33BA33E82EF8D7F4
:100CF800BAC0BEF0BBC0BFF0BCC0C0F0BDC0C1F040
:100D08000001BE510001BE6FBF6BC06BC16BBEC09E
:100D180041FF59D00F014297B2C0BAF0B3C0BBF03F
:100D2800B4C0BCF0B5C0BDF0040E06D00001D89028
:100D3800BD33BC33BB33BA33E82EF8D7BAC0BEF0E4
:100D4800BBC0BFF0BCC0C0F0BDC0C1F00001BE5107
:100D58000001BE6FBF6BC06BC16BBEC041FF070E09
:100D68000001B2150001BE6F000E0001B3150001AD
:100D7800BF6F000E0001B4150001C06F000E000126
:100D8800B5150001C16FBEC0BAF0BFC0BBF0C0C08E
:100D9800BCF0C1C0BDF0050ED8900001BA37BB3712
:100DA800BC37BD37E82EF8D7BAC0BEF0BBC0BFF01D
:100DB800BCC0C0F0BDC0C1F00F0142511F0B0F01F4
:100DC800426FBEC042FF0001B9A103D00F014081AC
:100DD80002D00F0140910001B9A303D00F01408355
:100DE80002D00F014093B6C0D9FFB7C0DAFFDF5079
:100DF8000F01466F000120EE01F0B651D926B75118
:100E0800DA22DF500F01476F000120EE02F0B651E1
:100E1800D926B751DA22DF500F01486F000120EEC2
:100E280003F0B651D926B751DA22DF500F01496FC6
:100E3800000120EE04F0B651D926B751DA22DF506E
:100E48000F014A6F000120EE05F0B651D926B751BF
:100E5800DA22DF500F014B6F000120EE06F0B65189
:100E6800D926B751DA22DF500F014C6F000120EE6E
:100E780007F0B651D926B751DA22DF500F014D6F6E
:100E88000F01408712000F0130B73FD1B8C035FFBE
:100E98000001B9AD03D00F01358D02D00F01359D8A
:100EA8000001B9A779D00001B2510001BE6FBF6B34
:100EB800C06BC16BBEC034FF000E0001B21500014B
:100EC800BE6FFF0E0001B3150001BF6F000E0001D9
:100ED800B4150001C06F000E0001B5150001C16F07
:100EE800BEC0BAF0BFC0BBF0C0C0BCF0C1C0BDF04E
:100EF800BBC0BAF0BCC0BBF0BDC0BCF00001BD6B4C
:100F0800BAC0BEF0BBC0BFF0BCC0C0F0BDC0C1F02D
:100F1800BEC033FF000E0F01326F0F013287000190
:100F2800B4A102D00F0132810001B4A302D00F0195
:100F380032830001B4A502D00F01328B0001B4A79F
:100F480002D00F01328D0001B4A902D00F01328FF7
:100F5800B2C0BAF0B3C0BBF0B4C0BCF0B5C0BDF00D
:100F6800160E06D00001D890BD33BC33BB33BA335C
:100F7800E82EF8D7BAC0BEF0BBC0BFF0BCC0C0F006
:100F8800BDC0C1F00001BE510001BE6FBF6BC06B98
:100F9800C16BBEC031FF59D00F013297B2C0BAF051
:100FA800B3C0BBF0B4C0BCF0B5C0BDF0040E06D0F1
:100FB8000001D890BD33BC33BB33BA33E82EF8D721
:100FC800BAC0BEF0BBC0BFF0BCC0C0F0BDC0C1F06D
:100FD8000001BE510001BE6FBF6BC06BC16BBEC0CC
:100FE80031FF070E0001B2150001BE6F000E0001AF
:100FF800B3150001BF6F000E0001B4150001C06FEA
:10100800000E0001B5150001C16FBEC0BAF0BFC027
:10101800BBF0C0C0BCF0C1C0BDF0050ED890000147
:10102800BA37BB37BC37BD37E82EF8D7BAC0BEF0E1
:10103800BBC0BFF0BCC0C0F0BDC0C1F00F01325191
:101048001F0B0F01326FBEC032FF0001B9A103D0E0
:101058000F01308102D00F0130910001B9A303D0F4
:101068000F01308302D00F013093B6C0D9FFB7C04B
:10107800DAFFDF500F01366F000120EE01F0B651A4
:10108800D926B751DA22DF500F01376F000120EE61
:1010980002F0B651D926B751DA22DF500F01386F66
:1010A800000120EE03F0B651D926B751DA22DF50FD
:1010B8000F01396F000120EE04F0B651D926B7515F
:1010C800DA22DF500F013A6F000120EE05F0B65129
:1010D800D926B751DA22DF500F013B6F000120EE0D
:1010E80006F0B651D926B751DA22DF500F013C6F0E
:1010F800000120EE07F0B651D926B751DA22DF50A9
:101108000F013D6F0F01308712000F0120B7120049
:10111800B8C025FF0001B9AD03D00F01258D02D05D
:101128000F01259D0001B9A779D00001B251000136
:10113800BE6FBF6BC06BC16BBEC024FF000E000149
:10114800B2150001BE6FFF0E0001B3150001BF6F9D
:10115800000E0001B4150001C06F000E0001B515A6
:101168000001C16FBEC0BAF0BFC0BBF0C0C0BCF0C8
:10117800C1C0BDF0BBC0BAF0BCC0BBF0BDC0BCF0C4
:101188000001BD6BBAC0BEF0BBC0BFF0BCC0C0F0B0
:10119800BDC0C1F0BEC023FF000E0F01226F0F01BA
:1011A80022870001B4A102D00F0122810001B4A35B
:1011B80002D00F0122830001B4A502D00F01228BB7
:1011C8000001B4A702D00F01228D0001B4A902D0FA
:1011D8000F01228FB2C0BAF0B3C0BBF0B4C0BCF0EC
:1011E800B5C0BDF0160E06D00001D890BD33BC3393
:1011F800BB33BA33E82EF8D7BAC0BEF0BBC0BFF0D5
:10120800BCC0C0F0BDC0C1F00001BE510001BE6F3E
:10121800BF6BC06BC16BBEC021FF59D00F012297B5
:10122800B2C0BAF0B3C0BBF0B4C0BCF0B5C0BDF03A
:10123800040E06D00001D890BD33BC33BB33BA339B
:10124800E82EF8D7BAC0BEF0BBC0BFF0BCC0C0F033
:10125800BDC0C1F00001BE510001BE6FBF6BC06BC5
:10126800C16BBEC021FF070E0001B2150001BE6FA1
:10127800000E0001B3150001BF6F000E0001B41588
:101288000001C06F000E0001B5150001C16FBEC09E
:10129800BAF0BFC0BBF0C0C0BCF0C1C0BDF0050E05
:1012A800D8900001BA37BB37BC37BD37E82EF8D71E
:1012B800BAC0BEF0BBC0BFF0BCC0C0F0BDC0C1F07A
:1012C8000F0122511F0B0F01226FBEC022FF000128
:1012D800B9A103D00F01208102D00F012091000194
:1012E800B9A303D00F01208302D00F012093B6C009
:1012F800D9FFB7C0DAFFDF500F01266F000120EEDB
:1013080001F0B651D926B751DA22DF500F01276F05
:10131800000120EE02F0B651D926B751DA22DF508B
:101328000F01286F000120EE03F0B651D926B751FE
:10133800DA22DF500F01296F000120EE04F0B651C8
:10134800D926B751DA22DF500F012A6F000120EEAB
:1013580005F0B651D926B751DA22DF500F012B6FAD
:10136800000120EE06F0B651D926B751DA22DF5037
:101378000F012C6F000120EE07F0B651D926B751A6
:10138800DA22DF500F012D6F0F0120871200000EA7
:101398000B6E74BE0B8074BC0B820F0150AF43D12F
:1013A80001C0D9FF02C0DAFFDE6ADE6ADE6ADD6AE2
:1013B80020EE04F00150D9260250DA2256CFDFFF82
:1013C80020EE05F00150D9260250DA2257CFDFFF70
:1013D80020EE06F00150D9260250DA2258CFDFFF5E
:1013E80020EE07F00150D9260250DA2259CFDFFF4C
:1013F80020EE08F00150D9260250DA225ACFDFFF3A
:1014080020EE09F00150D9260250DA225BCFDFFF27
:1014180020EE0AF00150D9260250DA225CCFDFFF15
:1014280020EE0BF00150D9260250DA225DCFDFFF03
:1014380020EE0EF00150D9260250DA220F0155ADE8
:1014480002D0010E01D0000EDF6E20EE0DF001502B
:10145800D9260250DA220F0155510F0BDF6E20EE0C
:101468000CF00150D9260250DA220F0152A702D0FF
:10147800010E01D0000EDF6E0F0152B744D051CFDC
:1014880003F0046A056A066A030ED8900336043628
:1014980005360636E82EF9D701C0D9FF02C0DAFFB3
:1014A80003C0DEFF04C0DEFF05C0DEFF06C0DEFFAE
:1014B8000F015239E842070B070B0C6E01C0D9FF28
:1014C80002C0DAFFDECF03F0DECF04F0DECF05F096
:1014D800DECF06F00C500324076E000E0420086EC1
:1014E800000E0520096E000E06200A6E01C0D9FF05
:1014F80002C0DAFF07C0DEFF08C0DEFF09C0DEFF5A
:101508000AC0DEFF8DD054CF03F0046A056A066A6C
:1015180001C0D9FF02C0DAFF03C0DEFF04C0DEFF4E
:1015280005C0DEFF06C0DEFF53CF03F0046A056A7C
:10153800066A05C006F004C005F003C004F0036A9B
:1015480001C0D9FF02C0DAFF0350DE260450DE22B4
:101558000550DE220650DE220F0152A10CD001C038
:10156800D9FF02C0DAFF000EDE12000EDE12010EF5
:10157800DE12000EDE120F0152A30CD001C0D9FFFB
:1015880002C0DAFF000EDE12000EDE12020EDE12BC
:10159800000EDE120F0152AB0CD001C0D9FF02C001
:1015A800DAFF000EDE12000EDE12040EDE12000E4E
:1015B800DE120F0152AD0CD001C0D9FF02C0DAFF14
:1015C800000EDE12000EDE12080EDE12000EDE1213
:1015D8000F0152AF0CD001C0D9FF02C0DAFF000ED4
:1015E800DE12000EDE12100EDE12000EDE1251CFD9
:1015F80003F0046A056A066A150ED89003360436A5
:1016080005360636E82EF9D701C0D9FF02C0DAFF41
:101618000350DE120450DE120550DE120650DE12B0
:101628000F01509F120060AE120001C0D9FF02C026
:10163800DAFFDE6ADE6ADE6ADD6A20EE04F0015057
:10164800D9260250DA2266CFDFFF20EE05F00150DE
:10165800D9260250DA2267CFDFFF20EE06F00150CC
:10166800D9260250DA2268CFDFFF20EE07F00150BA
:10167800D9260250DA2269CFDFFF20EE08F00150A8
:10168800D9260250DA226ACFDFFF20EE09F0015096
:10169800D9260250DA226BCFDFFF20EE0AF0015084
:1016A800D9260250DA226CCFDFFF20EE0BF0015072
:1016B800D9260250DA226DCFDFFF20EE0EF001505E
:1016C800D9260250DA2265AC02D0010E01D0000EF4
:1016D800DF6E20EE0DF00150D9260250DA22655057
:1016E8000F0BDF6E20EE0CF00150D9260250DA22E3
:1016F80062A602D0010E01D0000EDF6E62B643D0A2
:1017080061CF03F0046A056A066A030ED8900336AF
:10171800043605360636E82EF9D701C0D9FF02C0CF
:10172800DAFF03C0DEFF04C0DEFF05C0DEFF06C02F
:10173800DEFF6238E842070B070B0C6E01C0D9FFC9
:1017480002C0DAFFDECF03F0DECF04F0DECF05F013
:10175800DECF06F00C500324076E000E0420086E3E
:10176800000E0520096E000E06200A6E01C0D9FF82
:1017780002C0DAFF07C0DEFF08C0DEFF09C0DEFFD7
:101788000AC0DEFF88D064CF03F0046A056A066ADF
:1017980001C0D9FF02C0DAFF03C0DEFF04C0DEFFCC
:1017A80005C0DEFF06C0DEFF63CF03F0046A056AEA
:1017B800066A05C006F004C005F003C004F0036A19
:1017C80001C0D9FF02C0DAFF0350DE260450DE2232
:1017D8000550DE220650DE2262A00CD001C0D9FFDF
:1017E80002C0DAFF000EDE12000EDE12010EDE125B
:1017F800000EDE1262A20CD001C0D9FF02C0DAFFCF
:10180800000EDE12000EDE12020EDE12000EDE12D6
:1018180062AA0CD001C0D9FF02C0DAFF000EDE12A6
:10182800000EDE12040EDE12000EDE1262AC0CD0C8
:1018380001C0D9FF02C0DAFF000EDE12000EDE1270
:10184800080EDE12000EDE1262AE0CD001C0D9FF07
:1018580002C0DAFF000EDE12000EDE12100EDE12DB
:10186800000EDE1261CF03F0046A056A066A150EDF
:10187800D8900336043605360636E82EF9D701C067
:10188800D9FF02C0DAFF0350DE120450DE12055001
:10189800DE120650DE12609E12000001BB6F0001CE
:1018A800BB05D8A456D00001B629D8A452D0B2C0DE
:1018B800B7F0B3C0B8F0B4C0B9F0B5C0BAF0040E10
:1018C80006D00001D890BA33B933B833B733E82E0D
:1018D800F8D7B7C0BCF0B8C0BDF0B9C0BEF0BAC048
:1018E800BFF00001BC510001BC6FBD6BBE6BBF6B8C
:1018F800BCC018FF070E0001B2150001BC6F000E36
:101908000001B3150001BD6F000E0001B415000100
:10191800BE6F000E0001B5150001BF6FBCC0B7F067
:10192800BDC0B8F0BEC0B9F0BFC0BAF0050ED890BF
:101938000001B737B837B937BA37E82EF8D7B7C084
:10194800BCF0B8C0BDF0B9C0BEF0BAC0BFF0BCC0F2
:1019580019FF020E0001BB19D8A456D00001B62900
:10196800D8A452D0B2C0B7F0B3C0B8F0B4C0B9F080
:10197800B5C0BAF0040E06D00001D890BA33B93316
:10198800B833B733E82EF8D7B7C0BCF0B8C0BDF04D
:10199800B9C0BEF0BAC0BFF00001BC510001BC6FB5
:1019A800BD6BBE6BBF6BBCC01CFF070E0001B21540
:1019B8000001BC6F000E0001B3150001BD6F000EE1
:1019C8000001B4150001BE6F000E0001B51500013D
:1019D800BF6FBCC0B7F0BDC0B8F0BEC0B9F0BFC0E3
:1019E800BAF0050ED8900001B737B837B937BA370B
:1019F800E82EF8D7B7C0BCF0B8C0BDF0B9C0BEF08B
:101A0800BAC0BFF0BCC01DFF0001BB05D8A487D079
:101A1800F70E0001B619D8A482D00001B251000116
:101A2800BC6FBD6BBE6BBF6BBCC01BFF000E000163
:101A3800B2150001BC6FFF0E0001B3150001BD6FA8
:101A4800000E0001B4150001BE6F000E0001B515AF
:101A58000001BF6FBCC0B7F0BDC0B8F0BEC0B9F0E0
:101A6800BFC0BAF0B8C0B7F0B9C0B8F0BAC0B9F0E2
:101A78000001BA6BB7C0BCF0B8C0BDF0B9C0BEF0C9
:101A8800BAC0BFF0BCC01AFF0001B4A103D00F0157
:101A9800198102D00F0119910001B4A303D00F01DD
:101AA800198302D00F0119930001B4A503D00F01C7
:101AB800198B02D00F01199B0001B4A703D00F01A5
:101AC800198D02D00F01199D0001B4A903D00F018F
:101AD800198F02D00F01199FB2C0B7F0B3C0B8F088
:101AE800B4C0B9F0B5C0BAF0160E06D00001D8904F
:101AF800BA33B933B833B733E82EF8D7B7C0BCF028
:101B0800B8C0BDF0B9C0BEF0BAC0BFF00001BC514A
:101B18000001BC6FBD6BBE6BBF6BBCC018FF020E73
:101B28000001BB19D8A41200F70E0001B619D8A4F9
:101B380012000001B2510001BC6FBD6BBE6BBF6BE0
:101B4800BCC01FFF000E0001B2150001BC6FFF0EE4
:101B58000001B3150001BD6F000E0001B4150001AE
:101B6800BE6F000E0001B5150001BF6FBCC0B7F015
:101B7800BDC0B8F0BEC0B9F0BFC0BAF0B8C0B7F0C9
:101B8800B9C0B8F0BAC0B9F00001BA6BB7C0BCF0C0
:101B9800B8C0BDF0B9C0BEF0BAC0BFF0BCC01EFF2F
:101BA8000001B4A103D00F011D8102D00F011D91C6
:101BB8000001B4A303D00F011D8302D00F011D93B0
:101BC8000001B4A503D00F011D8B02D00F011D9B8E
:101BD8000001B4A703D00F011D8D02D00F011D9D78
:101BE8000001B4A903D00F011D8F02D00F011D9F62
:101BF800B2C0B7F0B3C0B8F0B4C0B9F0B5C0BAF06D
:101C0800160E06D00001D890BA33B933B833B733BB
:101C1800E82EF8D7B7C0BCF0B8C0BDF0B9C0BEF068
:101C2800BAC0BFF00001BC510001BC6FBD6BBE6BF8
:101C3800BF6BBCC01CFF12000600E9CFA6F0EACFBC
:101C4800A7F0E1CFA8F0E2CFA9F0D9CFAAF0DACF78
:101C5800ABF0F3CFACF0F4CFADF0F6CFAEF0F7CFFA
:101C6800AFF0F8CFB0F0F5CFB1F0F2A4ABD082A0CE
:101C780002D0010E01D0000EFF0A00019C6F8250B5
:101C880000019C19FE0B9C19826E82A094D0400E14
:101C980000019C6F060E00019D6F3CC01EF01F6A7C
:101CA800050E216E780E206EEDEC13F01EC024F0A8
:101CB8001FC025F0000E276EB40E266EEFEC12F052
:101CC800D8902436253600019C51242600019D51C8
:101CD800252224C038F025C039F0000E39BEFF0E89
:101CE8003A6E3B6E38C09CF039C09DF03AC09EF009
:101CF8003BC09FF000019C1F9D1F9E1F9F1F9C2B98
:101D0800000E9D239E239F23400E00019C25000169
:101D1800A06F9C0E00019D210001A16F000E000123
:101D28009E210001A26F000E00019F210001A36FF8
:101D38000001A01FA11FA21FA31FA02B000EA123FB
:101D4800A223A323000E0001A025346E000E00017B
:101D5800A121356E010E0001A221366E000E000190
:101D6800A321376E38C09CF039C09DF03AC09EF070
:101D78003BC09FF000019C1F9D1F9E1F9F1F9C2B17
:101D8800000E9D239E239F23000E00019C25386E84
:101D9800000E00019D21396E010E00019E213A6E50
:101DA800000E00019F213B6E38C01EF039C01FF0A5
:101DB80028EC14F006D034C01EF035C01FF028EC13
:101DC80014F0F294F2A247D03DBA06D0000ECF6EBE
:101DD800000ECE6E3D8A3ED0CE50CFCF9CF0000193
:101DE8009D6B9CC09DF000019C6B00019C27000E20
:101DF8009D239CC02CF09DC02DF0000E2DBEFF0E23
:101E08002E6E2F6E2CC01EF02DC01FF02EC020F09D
:101E18002FC021F0F40E226E010E236E000E246EE8
:101E2800000E256E31EC13F01EC02CF01FC02DF0F3
:101E380020C02EF021C02FF03D80000ECF6E000E86
:101E4800CF6E3DA607D0010E00016027000E61236A
:101E580062236323F292F0A047D03DBC06D0000E67
:101E6800B36E000EB26E3D8C3ED0B250B3CF9CF034
:101E780000019D6B9CC09DF000019C6B00019C279C
:101E8800000E9D239CC030F09DC031F0000E31BE85
:101E9800FF0E326E336E30C01EF031C01FF032C0FC
:101EA80020F033C021F0F40E226E010E236E000ED6
:101EB800246E000E256E31EC13F01EC030F01FC0EA
:101EC80031F020C032F021C033F03D82000EB36EF5
:101ED800000EB36E3DA607D0010E00016427000E68
:101EE800652366236723F090B1C0F5FFB0C0F8FF03
:101EF800AFC0F7FFAEC0F6FFADC0F4FFACC0F3FF54
:101F0800ABC0DAFFAAC0D9FFA9C0E2FFA8C0E1FFB1
:101F1800A7C0EAFFA6C0E9FFA5C0FBFFA4C0FAFF5F
:101F28003E9211000001C96F800E12EC14F0000EF1
:101F3800706E000E716E000E726E0001C241E842B2
:101F4800C00B0001C26F0001C25170120001C351E1
:101F580070120001C95171120001C039E842F80B32
:101F68000001C06F0001C05171120001C4A5718C3D
:101F78000001C4B1718E0001C15172120001C4B3D5
:101F8800728C0001C451600B606E0001C451100BCB
:101F9800FF0AD8B4608460CF50FF000E0001B26F12
:101FA800000EB36F000EB46F000EB56FF70E000190
:101FB800B66F010E51EC0CF0000E0001B26F000E6E
:101FC800B36F000EB46F000EB56FF70E0001B66F59
:101FD800020E51EC0CF00FD0F70E0001CA6F07D0BB
:101FE8000001CA690001CB6928D00001CA69F70E4F
:101FF8000001CB6F22D09F0E0001C56FFF0E0001BC
:10200800C66F0001C451600B0001C76FC86B0001A7
:10201800C5510001C7130001C6510001C8130001D2
:10202800C851000AD8A4E1D70001C751BF0AD8B4E3
:10203800D7D7600AD8B4D0D7D8D7000E0001B26F6E
:10204800000EB36F000EB46F000EB56FCAC0B6F0C5
:10205800000E82EC00F0000E0001B26F000EB36FAC
:10206800000EB46F000EB56FCAC0B6F0010E82EC58
:1020780000F0000E0001B26F000EB36F000EB46FD7
:10208800000EB56FCBC0B6F0020E82EC00F0000E69
:102098000001B26F000EB36F000EB46F000EB56F83
:1020A800CBC0B6F0030E82EC00F0000E0001B26F58
:1020B800000EB36F000EB46F000EB56FCBC0B6F054
:1020C800040E82EC00F0000E0001B26F000EB36F38
:1020D800000EB46F000EB56FCBC0B6F0050E82ECE3
:1020E80000F0000E12EC14F0120000EC14F00009DD
:1020F800D8B4B4D0040E00016819000169110001B8
:102108006A1100016B11D8A416D068C0B2F069C07A
:10211800B3F06AC0B4F06BC0B5F0CD0E0001B66F75
:10212800000E0001B76F080E0001B86FBC0E000169
:10213800B96F05EC06F0080E000168190001691175
:1021480000016A1100016B11D8A416D068C0B2F062
:1021580069C0B3F06AC0B4F06BC0B5F0930E00016B
:10216800B66F000E0001B76F080E0001B86FBC0E05
:102178000001B96F05EC06F00A0E000168190001AC
:10218800691100016A1100016B11D8A413D0000E67
:102198000001606F000E616F000E626F000E636FCA
:1021A800000E0001646F000E656F000E666F000E72
:1021B800676F3D860B0E0001681900016911000167
:1021C8006A1100016B11D8A43FD079C0B2F00001A8
:1021D800B36B60C0B4F061C0B5F0D2EC13F0B2C01C
:1021E80070F0B3C071F079C0B2F00001B36B64C095
:1021F800B4F065C0B5F0D2EC13F0B2C072F0B3C061
:1022080073F03D9670C08BF00001715100018C6F26
:1022180072C08DF00001735100018E6F68C0B2F07A
:1022280069C0B3F06AC0B4F06BC0B5F08B0E0001A2
:10223800B66F000E0001B76F080E0001B86FBC0E34
:102248000001B96F05EC06F00F0140BD03D00F0186
:1022580030AD02D03D8412003D9412003D8412003E
:1022680092EC12F0CC0E0001796F96EC13F031EC81
:1022780014F0E806D8B405D037EC14F0E806D8A472
:1022880002D0818001D081903DB802D03DA403D016
:102298003D9879EC10F000017451D8A41ED00001CB
:1022A8007551D8A403D0000E0001766F00017505A2
:1022B800D8A403D0960E0001766F0A0E0001751996
:1022C800D8A403D0C80E0001766F0B0E0001751953
:1022D800D8A405D00001766902D075C076F076C022
:1022E800B2F00001B36B000E0001B56F110EB46FB0
:1022F800D5EC11F00001B2510001772500019B6F68
:1023080000019B51B40DF3CFB2F0F4CFB3F0000E3F
:102318000001B56FB469D5EC11F00001B2513C6E03
:102328003DA01ED000017951240DF3CFB2F0F4CFB7
:10233800B3F00001000EB3BFFF0EB46FB56F2CC031
:10234800B6F02DC0B7F02EC0B8F02FC0B9F034ECFD
:1023580012F00001B25100017A6F7AC094F03D90FA
:102368003DA283D700017951240DF3CFB2F0F4CF09
:10237800B3F00001000EB3BFFF0EB46FB56F30C0ED
:10238800B6F031C0B7F032C0B8F033C0B9F034ECB1
:1023980012F00001B25100017B6F7BC093F03D92B7
:1023A80064D7000E0001B76F0001B5AF08D0000177
:1023B800B46DB51FD8B0B52B010E0001B76F000181
:1023C800B3AF08D00001B26DB31FD8B0B32B010E64
:1023D8000001B71B000E0001B96F000EB86F0001B5
:1023E800B4510001B511D8B42CD0010E0001B66F5C
:1023F80006D00001D890B437B5370001B62B0001DC
:10240800B5AFF7D70001D890B837B9370001B45144
:102418000001B25D0001B5510001B359D8A00AD03E
:102428000001B4510001B25F0001B5510001B35B76
:102438000001B8810001D890B533B4330001B62F3C
:10244800E1D70001B7510001D8B405D00001B86D3B
:10245800B91FD8B0B92BB8C0B2F0B9C0B3F01200E8
:10246800000E0001BA6F000EBB6F000EBC6F000EAD
:10247800BD6F0001B6510001B7110001B81100018C
:10248800B911D8B442D0010E0001BE6F08D00001C6
:10249800D890B637B737B837B9370001BE2B000127
:1024A800B9AFF5D70001D890BA37BB37BC37BD37BD
:1024B8000001B6510001B25D0001B7510001B359E6
:1024C8000001B8510001B4590001B9510001B559D2
:1024D800D8A012D00001B6510001B25F0001B75177
:1024E8000001B35B0001B8510001B45B0001B951B0
:1024F8000001B55B0001BA810001D890B933B83347
:10250800B733B6330001BE2FCDD7BAC0B2F0BBC0C7
:10251800B3F0BCC0B4F0BDC0B5F01200000E896EB7
:102528009268000E8A6EFE0E936E000E8B6EFE0E83
:10253800946E000E8C6E9568000E8D6E9668100E67
:10254800C16E060E0001C06F050E0001C16F010EBD
:102558000001C26F030E0001C36F9D0E0001C46F1E
:10256800040E96EC0FF0A492A490F294F292F090DC
:10257800A192D08EA592A590F184F08C800ED56E94
:10258800D768FE0ED66E82905A0E3C6E000ECD6E47
:10259800000EB16EF18CF18A770EC16EC298C296A8
:1025A800C294C08AC088C096C084C092C080C09EB1
:1025B800C280A382A380F28AF288F086F28EF28C1F
:1025C800CD80B180D58E000E0001B96F020EB86FB4
:1025D800B5EC13F01200000E296E27AE06D0266C5B
:1025E800271ED8B0272A010E296E25AE06D0246CE6
:1025F800251ED8B0252A010E291A000E2B6E000EB2
:102608002A6E26502710D8B41CD0010E286E04D08C
:10261800D89026362736282A27AEFAD7D8902A36D1
:102628002B362650245C27502558D8A005D0265094
:10263800245E2750255A2A80D89027322632282E01
:10264800EDD72950D8B404D02A6C2B1ED8B02B2A29
:102658002AC024F02BC025F01200000E266E000EB2
:10266800276E000E286E000E296E225023102410AB
:102678002510D8B42AD0010E2A6E06D0D89022365A
:102688002336243625362A2A25AEF8D7D89026367A
:1026980027362836293622501E5C23501F582450CE
:1026A800205825502158D8A009D022501E5E23500A
:1026B8001F5A2450205A2550215A2680D890253256
:1026C8002432233222322A2EE1D726C01EF027C018
:1026D8001FF028C020F029C021F0120000EE60F0A1
:1026E8003C0EEE6AE806FDE13D6A00EE2CF0110EA4
:1026F800EE6AE806FDE17A0EF66E280EF76E000E19
:10270800F86E00EECCF010EE09F00900F5CFEEFF00
:10271800E550E150FAE13E903E92000EF86E00015D
:1027280034EF11F0C282C2B2FED7C4CF78F0810E66
:102738000001782500016E6F00016F6BFF0E6F239B
:102748006EC0B2F06FC0B3F0000E0001B56F040E9A
:10275800B46FD5EC11F00001B2517F0F0001776F13
:102768001200CCC0B2F00001B36BB8C0B4F0B9C06D
:10277800B5F0D2EC13F0B2C06CF0B3C06DF007D076
:10278800500EE82EFED700016C07D8A06D07000197
:102798006C5100016D11D8B41200F2D70001B2518A
:1027A8000001B403F3CFB6F0F4CFB7F00001B25193
:1027B8000001B503F3500001B7270001B351000130
:1027C800B403F3500001B727B6C0B2F0B7C0B3F0F6
:1027D80012001E502002F3CF22F0F4CF23F01E5037
:1027E8002102F35023261F502002F350232622C033
:1027F8001EF023C01FF01200010E0001B26F0F017E
:1028080040A709D00F0130A706D00F0120A703D099
:10281800000E0001B26F0001B25112000001B26F48
:10282800B2C06FFF6E50E00B0001B219D8B41200AD
:10283800F9D7010E016E60BE05D00F0150BF02D05E
:10284800000E016E015012001EC020F01FC021F0C2
:1028580021C0D7FF20C0D6FF120074A402D0010EF9
:102868001200000E120074A202D0010E1200000E17
:0C28780012001000000000000000010031
:020000040020DA
:08000000FFFFFFFFFFFFFFFF00
:020000040030CA
:0E000000FF021F1EFF8285FF0FC00FE00F40A2
:00000001FF
